:020000021000EC
:10F0000000000120AD8D0200D58D0200D78D0200D9
:10F01000D98D0200DB8D0200DD8D020000000000B2
:10F02000000000000000000000000000DF8D020072
:10F03000E18D020000000000E38D0200E58D02007A
:10F040002D370200E78D0200E78D0200A93802008B
:10F05000E78D0200E78D02001D42020039A8020080
:10F06000E78D0200E78D0200E78D0200E78D0200C8
:10F07000E78D0200E78D0200E78D0200E78D0200B8
:10F08000E78D0200950C0200E78D0200E78D02007B
:10F09000D50C0200E78D0200D1970200E78D020037
:10F0A000E78D0200E78D0200E78D0200E78D020088
:10F0B000E78D0200E78D0200000000000000000064
:10F0C000E78D0200E78D0200E78D0200E78D020068
:10F0D000E78D0200E78D0200E78D020000000000CE
:10F0E0000000000000000000000000000000000020
:10F0F0000000000000000000000000000000000010
:10F1000000000000000000000000000000000000FF
:10F1100000000000000000000000000000000000EF
:10F4000010B5054C237833B9044B13B10448AFF35E
:10F4100000800123237010BD8C2300200000000019
:10F420006CCD0200084B10B51BB108490848AFF37A
:10F4300000800848036803B910BD074B002BFBD0C0
:10F44000BDE81040184700BF0000000090230020D6
:10F450006CCD02007823002000000000154B002B2B
:10F4600008BF134B9D46A3F5803A00218B460F46FB
:10F470001348144A121A00F065F80F4B002B00D005
:10F4800098470E4B002B00D0984700200021040025
:10F490000D000D48002802D00C48AFF3008000F0AA
:10F4A0002BF82000290006F095FD00F011F800BFB0
:10F4B0000000080000000120000000000000000023
:10F4C0008C230020B030002000000000000000006D
:10F4D00008B5074B044613B10021AFF30080054B7C
:10F4E0001868836A03B19847204600F033F800BFDC
:10F4F00000000000D8C3020070B50E4B0E4CE41A99
:10F50000A41000251E46A54204D056F82530984781
:10F510000135F8E70CF054FF084C094BE41AA4102D
:10F5200000251E46A54204D056F8253098470135DF
:10F53000F8E770BD702300207023002074230020A2
:10F540007023002002440346934202D003F8011BBB
:10F55000FAE77047FEE700BF80B582B000AF034610
:10F56000FB710C4B1B78002B06D00B4B1B78FA79E8
:10F570009A4201D1002308E008F022F9054B01224C
:10F580001A70054AFB791370002318460837BD46E8
:10F5900080BD00BFA8230020A923002080B483B031
:10F5A00000AF0023FB71FB7918460C37BD465DF8B0
:10F5B000047B704780B588B000AF78603960012364
:10F5C000FB740023FB613B68BB610A237B617A68A3
:10F5D000FB691344BA691946002008F0A3F8F860E3
:10F5E000FA69FB681344FB61BA69FB68D31ABB6113
:10F5F000FB68002B05D17B69013B7B617B69002B9C
:10F6000003D0BB69002BE2D100E000BFFB7C1846B1
:10F610002037BD4680BD00BF80B485B000AF7860A4
:10F6200039603B68002B02DA0023FB7307E07B683C
:10F630001A683B681A447B681A600123FB73FB7BE2
:10F6400018461437BD465DF8047B704780B586B018
:10F6500000AFF860B9607A6000233B610123FB755D
:10F66000FB68002B11D03B69BA68D018FB681B6897
:10F670000A4A4FF480710CF001FA386139697868F0
:10F68000FFF7CAFF0346FB7502E07B6800221A60A1
:10F69000FB7D18461837BD4680BD00BFDCC30200A5
:10F6A000F0B5D1B006AF044607F11000016007F1D4
:10F6B0000C010A6007F10802136007F117032246E4
:10F6C0001A700023C7F8243107F1180300221A60CA
:10F6D000012387F82331FFF761FF0346002B01D098
:10F6E000002363E107F118031B6807F11C02D1181E
:10F6F00007F1180207F110031868FFF7A7FF034688
:10F7000083F00103DBB2002B01D000234EE1D7F8D8
:10F710004031062B00F2238101A252F823F000BFF2
:10F720003DF701007BF70100A9F70100E5F70100B3
:10F730002FF8010087F80100EDF8010007F10C0334
:10F7400018680CF0D5F90346C7F82431D7F82421FE
:10F7500007F118031B681344FF2B00F2028107F125
:10F7600018031B6807F11C02D018D7F8242107F1F1
:10F770000C0319680CF076F9F3E007F118031B6825
:10F7800007F11C02D01807F118031B68C3F580713C
:10F7900007F108031B681B6807F10C0212680CF0E4
:10F7A0006DF9C7F82401DDE007F118031B6807F1C4
:10F7B0001C02D01807F118031B68C3F5807107F10C
:10F7C00008031B681C6807F108031B6804331B68E7
:10F7D00007F10C020093234612680CF04FF9C7F8AA
:10F7E0002401BFE007F118031B6807F11C02D018C1
:10F7F00007F118031B68C3F5807407F108031B6841
:10F800001D6807F108031B6804331B6807F1080231
:10F8100012680832116807F10C02019100932B461F
:10F82000126821460CF02AF9C7F824019AE007F182
:10F8300018031B6807F11C02D41807F118031B6892
:10F84000C3F5807507F108031B681E6807F10803FC
:10F850001B6804331B6807F108021268083211683C
:10F8600007F1080212680C32106807F10C020290CE
:10F870000191009333461268294620460CF0FEF8A9
:10F88000C7F824016EE007F118031B6807F11C029A
:10F89000D51807F118031B68C3F5807607F1080334
:10F8A0001B681B687B6007F108031B6804331B6837
:10F8B00007F1080212680832116807F1080212689D
:10F8C0000C32106807F1080212681032146807F150
:10F8D0000C0203940290019100937B6812683146F8
:10F8E00028460CF0CBF8C7F824013BE007F11803D9
:10F8F0001B6807F11C02D61807F118031B68C3F533
:10F90000807E07F108031B681B687B6007F1080312
:10F910001B6804331B6807F108021268083211687B
:10F9200007F1080212680C32106807F10802126829
:10F930001032146807F1080212681432156807F1D2
:10F940000C02049503940290019100937B68126865
:10F95000714630460CF092F8C7F8240102E000BF6F
:10F9600000E000BF07F11803D7F824111846FFF78D
:10F9700053FE034687F8233107F118031B68C7F8C5
:10F980001C3197F82331002B0FD0D7F81C31B3F579
:10F99000807F0AD807F118031A6807F11C03114683
:10F9A0001846FFF707FE034600E00023184607F558
:10F9B0009677BD46F0BD00BF80B485B000AF03466A
:10F9C0003960FB710223FB6018E0FA79FB689B0049
:10F9D00042FA03F3DBB203F00F03FB72FB68C3F1DF
:10F9E00001033A681A44FB7A092B03D9FB7A3733AF
:10F9F000DBB202E0FB7A3033DBB21370FB685A1ED5
:10FA0000FA60002BE1D100BF1437BD465DF8047BDE
:10FA1000704700BF90B5D1B000AF044607F10800B1
:10FA20000160391D0A603A46136007F10F03224650
:10FA30001A7007F1100300221A603B461B68C7F8D2
:10FA40002C31D7F85421D7F85C311344C7F824314E
:10FA500007F108031B68002B01D00A2300E00023F4
:10FA6000C7F82031FFF79AFD0346002B02D03B4632
:10FA70001B682DE13B461B68002B37D107F11003B3
:10FA80001B6807F11402D11807F1100207F10803EF
:10FA90001868FFF7DBFD034683F00103DBB2002BA0
:10FAA00002D03B461B6813E13B1D18680CF020F8A0
:10FAB000C7F81C01D7F81C31C22B28BFC223C7F8D6
:10FAC0001C3107F110031B6807F11402D0183B1D0D
:10FAD000D7F81C2119680BF0C5FF07F110031A684D
:10FAE000D7F81C311A4407F110031A6007F110030C
:10FAF0001B68C7F81831D7F81821D7F820311344FC
:10FB00003133C7F8143107F11402D7F81831134410
:10FB1000C7F83C3107F11402D7F814311344C7F881
:10FB200038310023C7F828310DE0D7F83C312022C6
:10FB30001A70D7F83C310133C7F83C31D7F8283177
:10FB40000133C7F82831D7F82821D7F820319A4255
:10FB5000EBD30023C7F830316FE0D7F82C21D7F86A
:10FB600024319A421CD3D7F83C315A1CC7F83C21A7
:10FB700020221A70D7F83C315A1CC7F83C212022A9
:10FB80001A70D7F83C315A1CC7F83C2120221A7051
:10FB9000D7F838315A1CC7F8382120221A7047E0AC
:10FBA000D7F82C21D7F854319A4208D2D7F85021EF
:10FBB000D7F82C3113441B7887F837310AE0D7F88F
:10FBC0002C21D7F85431D31AD7F8582113441B7875
:10FBD00087F8373197F83731D7F83C111846FFF7D7
:10FBE000EBFED7F83C310233C7F83C31D7F83C3153
:10FBF0005A1CC7F83C2120221A70D7F83841631CE0
:10FC0000C7F838310BF012FF024697F8373101334D
:10FC100013441B7803F09703002B02D097F8373179
:10FC200000E02E232370D7F82C310133C7F82C3194
:10FC3000D7F830310133C7F83031D7F830310F2BD6
:10FC40008BD9D7F838315A1CC7F838210D221A70D1
:10FC5000D7F838315A1CC7F838210A221A70D7F859
:10FC60003C315A1CC7F83C2120221A7007F11003BE
:10FC70001A68D7F82031134403F1430207F1100347
:10FC80001A6007F110031A6807F1140311461846A9
:10FC9000FFF790FC034683F00103DBB2002B02D098
:10FCA000D7F82C3114E0FFF779FC0346002B02D083
:10FCB000D7F82C310CE007F1100300221A60D7F8B6
:10FCC0002C21D7F824319A42FFF410AFD7F82C3109
:10FCD000184607F5A277BD4690BD00BF80B400AFBF
:10FCE000024B1846BD465DF8047B7047A1F6010043
:10FCF00080B400AF024B1846BD465DF8047B7047E8
:10FD000015FA010090B585B000AF78600120FFF7CB
:10FD100023FCF860FB68002B0AD1FFF7DFFF0446E5
:10FD2000FFF7E6FF03467A681946204600F006F81A
:10FD3000FB6818461437BD4690BD00BF80B584B03F
:10FD400000AFF860B9607A60B968F86800F004F84C
:10FD500000BF1037BD4680BD80B483B000AF78606F
:10FD60003960064A7B685361044A3B68936100BF6F
:10FD70000C37BD465DF8047B704700BFAC23002004
:10FD800090B589B002AFB9607A603B600346FB73FF
:10FD900000233B6100237B61064B5C69F87B3B6879
:10FDA00000937B68BA687969A04700BF1C37BD46DD
:10FDB00090BD00BFAC23002080B582B000AF0346E9
:10FDC0003960FB71F879002300223968FFF7D8FF0A
:10FDD00000BF0837BD4680BD80B586B000AF034682
:10FDE000B9607A60FB737B687B6107F11402F87B72
:10FDF0000123B968FFF7C4FF00BF1837BD4680BDB7
:10FE000080B588B000AFB9607A603B600346FB7391
:10FE10007B687B613B68BB61BB6AFB6107F11402D5
:10FE2000F87B0323B968FFF7ABFF00BF2037BD465F
:10FE300080BD00BF80B588B000AF78600023FB773D
:10FE40004BE02A4B1A68FB7FDB001344BB61BB69A4
:10FE50001B781A46012393407B61254B1A687B6906
:10FE60001340002B36D07B69DA43214B1B681340CB
:10FE70001F4A1360BB691B78184604F0BDF903469E
:10FE8000FB74BB691B781A46012393401A46194B31
:10FE90001B681340FA7CB96909788A40934219D1EA
:10FEA000FB7CBA695278012A0CBF01220022D2B22F
:10FEB00093420CBF01230023DBB2FB60BB695B688C
:10FEC000002B07D0BB695B68BA691278F968C9B2C0
:10FED00010469847FB7F0133FB77074B1B78FA7F6F
:10FEE0009A42AED300BF2037BD4680BDC823002054
:10FEF000F8230020F4230020CC23002080B584B018
:10FF000000AF78600B46FB7001227B6802FA03F3B6
:10FF1000FB601E4B184600F0A1FFB860BB68002BC9
:10FF200030D11B4B1A68FB681340002B22D1786834
:10FF300004F062F90346002B06D0164B1A68FB68E2
:10FF40001343144A136006E0FB68DA43114B1B6845
:10FF50001340104A13600E4B1A68FB6813430C4A97
:10FF600013600A480C4B1B680022194600F042FF40
:10FF7000B86008E0FB68DA43054B1B681340044A8D
:10FF8000136000E000BF1037BD4680BDD4230020C1
:10FF9000F8230020F4230020D023002080B588B06F
:10FFA00000AFF8600B467A60FB727B68042B01D8C7
:10FFB000072349E004F04CF8034683F00103DBB269
:10FFC000002B07D004F004F8F861FB69002B01D086
:10FFD000FB6939E01E4AFB6813601E4AFB7A137006
:10FFE0001D4A7B6813601D4B00221A601C4B0022C7
:10FFF0001A601EE0FB7ADB00FA681344BB6103233E
:020000022000DC
:100000003B7500237B750023BB750023FB75BB6923
:100010009B787B75BB691B78184607F11403114A5E
:10002000194604F027F8F861FB69002B01D0FB6941
:100030000AE0FB7A5A1EFA72002BDBD10A4A002131
:100040000A4800F0A3FE034618462037BD4680BD8F
:10005000C8230020CC230020D0230020F42300203C
:10006000F8230020FDFE010035FE0100E4C302007C
:1000700080B582B000AF00237B600CE00B4B1A68A8
:100080007B68DB0013441B780121184604F04CF810
:100090007B6801337B60064B1B781A467B689A426B
:1000A000ECD8002318460837BD4680BDC823002081
:1000B000CC23002080B588B000AFF860B9607A60CA
:1000C000BB689BB2BB827B68BB61FB68FB6107F1CD
:1000D00014031A46002144F2010000F019F800BF91
:1000E0002037BD4680BD00BF80B400AFBFF34F8F47
:1000F0000549054BDB6803F4E062044B1343CB6016
:10010000BFF34F8F00BFFDE700ED00E00400FA05EC
:1001100080B584B000AFF860B9607A60074901200B
:10012000FFF74AFE7A6806490120FFF755FEFFF700
:10013000DBFF00BF1037BD4680BD00BFE8C3020033
:1001400000C4020080B483B000AF0346FB710949CC
:1001500097F907305B09FA7902F01F02012000FAD3
:1001600002F241F8232000BF0C37BD465DF8047B46
:10017000704700BF00E100E080B483B000AF0346E9
:10018000FB71094997F907305B09FA7902F01F0200
:10019000012000FA02F2203341F8232000BF0C377F
:1001A000BD465DF8047B704700E100E080B483B099
:1001B00000AF0346FB71094997F907305B09FA79EB
:1001C00002F01F02012000FA02F2403341F823201E
:1001D00000BF0C37BD465DF8047B704700E100E0CE
:1001E00080B483B000AF0346FB71094997F907302B
:1001F0005B09FA7902F01F02012000FA02F2603373
:1002000041F8232000BF0C37BD465DF8047B7047E2
:1002100000E100E080B483B000AF03463960FB71B9
:1002200097F90730002B0BDA0D49FB7903F00F0328
:10023000043B3A68D2B25201D2B20B441A7609E0BA
:10024000084997F907303A68D2B25201D2B20B444A
:1002500083F8002300BF0C37BD465DF8047B704770
:1002600000ED00E000E100E080B483B000AF786012
:100270007B6803F00303002B0CBF01230023DBB2D8
:1002800018460C37BD465DF8047B704780B485B0D6
:1002900000AF7860254BFB607B68002B40D0244B7F
:1002A0001A68F9687B6800BF00BF00BF00BF00BFCD
:1002B00000BF00BF00BF8A422FD000BF00BF00BFF9
:1002C00000BF00BF00BF00BF00BF00BF00BF00BF36
:1002D00000BF00BF00BF00BF00BF00BF00BF00BF26
:1002E00000BF00BF00BF00BF00BF00BF00BF00BF16
:1002F00000BF00BF00BF00BF00BF00BF00BF00BF06
:1003000000BF00BF00BF00BF00BF00BF00BF00BFF5
:1003100000BF00BF00BF00BF00BF013BC3D17B6077
:1003200000BF1437BD465DF8047B70470024F4001D
:100330000022002080B582B000AF7860054A7B685B
:10034000C2F8083507211120FFF764FF00BF083706
:10035000BD4680BD0010014080B500AF0D4B4FF48D
:100360008032C3F844230B4B4FF48032C3F804238C
:100370001120FFF735FF1120FFF7E4FE054B0122A6
:100380001A602F20FFF782FF034B01221A7000BF73
:1003900080BD00BF001001401C24002080B500AFCC
:1003A0001120FFF7E9FE0F4B4FF48032C3F84823CA
:1003B0000C4B4FF48032C3F808230A4B01225A60D9
:1003C0002F20FFF763FF074B01229A60064B0022A4
:1003D0001A602F20FFF75AFF044B00221A7000BF4B
:1003E00080BD00BF00100140082400201C24002014
:1003F00080B400AF034BD3F804351846BD465DF812
:10040000047B70470010014080B483B000AF786077
:1004100039607A683B68D31A23F07F4318460C375B
:10042000BD465DF8047B704780B483B000AF786050
:10043000044A7B68C2F8403500BF0C37BD465DF802
:10044000047B70470010014080B487B000AF786033
:10045000294B1B68002B03D1274A7B68136045E0BA
:100460007B681A68244B1B681B689A4210D8224B81
:100470001B68214A126811687A6812688A1A1A6021
:100480001D4B1A687B68DA611B4A7B6813602DE09C
:100490007B681B68FB60184B1B687B61164B1B68F5
:1004A0003B6109E03B691B68FA68D31AFB603B6952
:1004B0007B613B69DB693B613B69002B04D03B6995
:1004C0001A68FB689A42EDD33B69002B05D03B6963
:1004D0001A68FB68D21A3B691A607B68FA681A606E
:1004E0007B683A69DA617B697A68DA6100BF1C3738
:1004F000BD465DF8047B70470424002080B487B0BB
:1005000000AF7860234B1B687B617B693B6108E02F
:100510003A697B689A4208D03B697B613B69DB6939
:100520003B613B69002BF3D100E000BF3B69002B2E
:1005300029D07A693B699A4211D1164B1B68DB6955
:10054000144A1360134B1B68002B08D1124B012275
:100550009A60124B00221A60114B01221A703B69FB
:100560001B68FB603B69DA697B69DA617B69DB697F
:100570003B613B69002B07D03B691A68FB681A4452
:100580003B691A6000E000BF1C37BD465DF8047B84
:10059000704700BF04240020001001400824002000
:1005A0001D24002080B500AF1120FFF7FFFD00BF24
:1005B00080BD00BF80B500AF1420FFF7F7FD00BF7E
:1005C00080BD00BF80B584B000AF7860114B1B6860
:1005D000002B14D00F4B1B687A6850697A689269B7
:1005E00011469847F860FB68BB60BB68002B0CD0D5
:1005F000094A40F24D11B868FFF75CFD05E07B68E1
:100600005B697A6892691046984700BF1037BD460B
:1006100080BD00BF182400201CC4020080B584B037
:1006200000AF2B4B1B68002B4ED000237B60FFF7E5
:10063000DFFE0246274B1B6819461046FFF7E4FE13
:10064000B860234B1B68FB601DE0FB681A68BB6841
:100650009A421CD8FB681B68BA68D31ABB60FB6857
:100660001B687A6813447B60FB683B60FB68DB694E
:10067000FB603B681B7C002B05D03B6800221A7492
:100680003868FFF79FFFFB68002BDED100E000BF5A
:10069000114B1A78114B1B789A420CD10F4B1B78D7
:1006A0000133DAB20D4B1A700C4B1B78022B02D1BE
:1006B0000A4B00221A70094B1B781946084A7B68BE
:1006C00042F82130FFF776FF00BF1037BD4680BDEE
:1006D00004240020082400201424002015240020D5
:1006E0000C24002080B483B000AF7860194B1A78D6
:1006F000194B1B789A4223D0164B1B780133DAB280
:10070000144B1A70134B1B78022B02D1114B002291
:100710001A70104B1B781A46104B53F822207B6836
:100720001A607B681A680E4B1B6813440C4A1360EE
:100730000B4B1B6823F07F43094A1360012303E03E
:100740007B6800221A60002318460C37BD465DF80E
:10075000047B704714240020152400200C24002062
:100760000824002080B584B000AF244B1B78FB73B5
:10077000234B1B68BB602FE0204B5968FA7B134664
:100780005B001344DB000B447B60FB7B0133FB739A
:100790001A4B9B78FA7B9A4201D10023FB737B684A
:1007A0001B78022B02D0032B10D014E07B685B680F
:1007B0001846FFF7A3FE0FE0114B1B683B603B6838
:1007C00000221A743B68DB690D4A13600C4B1B68EE
:1007D000002BF1D100E000BF084B5B78FA7B9A4216
:1007E000CAD1074B1A68BB689A4214BF0123002381
:1007F000DBB218461037BD4680BD00BFFC23002089
:100800000424002080B489B000AFF860B9607A6039
:100810000023FB6138E0214B1B68BB61BB691A6890
:10082000FB689A4206D9BB691A68FB68D21ABB6991
:100830001A602DE0BB691B68FA68D31AFB60BB69BC
:100840001B68FA691344FB61BB6900221A60134BF1
:100850001B687B61BB69DB69104A1360BB69DB689D
:10086000002B11D0BA68FB69134423F07F42BB69A7
:100870005A60BB69DA68BB699A607B681A68BB69B1
:10088000DA617B687A691A60044B1B68002BC2D15D
:1008900000BF2437BD465DF8047B70470424002068
:1008A00080B586B000AF7860504B1B683B6185E037
:1008B0007B68002B05D07B687B617B69DB697B6093
:1008C0003CE04B4B5A684A4B1B7819460B465B0081
:1008D0000B44DB001344FB60454B1B780133DAB259
:1008E000434B1A70424B1A78414B9B789A4202D183
:1008F0003F4B00221A70FB685B687B61FB681B78CA
:10090000012B5BD17B691B7C002B00D056E0FB6880
:100910009A687B695A60FB68DA687B699A60FB6851
:100920001A697B69DA60FB685A697B699A61314BA5
:100930001B78002B02D07B6900225A607B695A68C1
:100940002D4B1B68D31A23F07F432C4A93420ED8B9
:100950007B695A68284B1B6819461046FFF754FDFF
:1009600002467B699B681A447B691A6017E0224B38
:100970001A687B695B6819461046FFF745FDB86049
:100980007B699A68BB689A4206D97B699A68BB689A
:10099000D21A7B691A6002E07B6900221A607B69C7
:1009A00000225A607B6900229A607B6901221A74D6
:1009B0007B690022DA617869FFF746FD7B68002BCE
:1009C0007FF476AF0A4B1A78094B5B789A427FF432
:1009D0006FAF064B1A683B699A4214BF012300238C
:1009E000DBB218461837BD4680BD00BF0424002086
:1009F000FC2300201D24002008240020FEFF7F008F
:100A000090B589B000AF7860274B1B68002B44D0AD
:100A1000254B1B681B68FB61FFF7EAFCB861234BA1
:100A20001B687B617969B869FFF7EEFC0346033305
:100A30003B611F4B1B7883F00103DBB2002B01D01D
:100A4000FFF78AFC3A69FB69934238BF13467A691B
:100A500013447B617B6923F07F437B617869FFF7F7
:100A6000E3FCFFF7C5FCF860B969F868FFF7CCFC58
:100A70000346DC1CB9697869FFF7C6FC03469C4253
:100A80000DD9FFF7B5FC03461846FFF7CDFC2F2024
:100A9000FFF7FCFBFFF786FD01E0FFF77FFC00BFDF
:100AA0002437BD4690BD00BF042400200824002048
:100AB0001C24002080B586B000AF00237B60184B5B
:100AC0001B683B61174B1B68FB603B461846FFF7F2
:100AD00009FE0346FB72FFF745FE0346FB75FB7AF2
:100AE000002B07D03B683A1D39691846FFF78AFE8C
:100AF0000123FB757B681846FFF7D2FE0346002BE7
:100B000001D00123FB75FB7D002B02D0F868FFF7B5
:100B100077FF054B00221A7000BF1837BD4680BD15
:100B200008240020042400201D24002080B483B069
:100B300000AF0346FB71044AFB79537000BF0C37CA
:100B4000BD465DF8047B7047FC23002080B485B06F
:100B500000AF7860134B5B780133FB73114B9B78CC
:100B6000FA7B9A4201D10023FB730E4B1B78FA7B70
:100B70009A4201D100230EE07B68FA7B1A70094B80
:100B80005A68084B5B7819460B465B000B44DB0048
:100B90001344BB60BB6818461437BD465DF8047B40
:100BA000704700BFFC23002080B588B000AFF8601C
:100BB000B9607A603B600023FB610023BB7507F1DD
:100BC0001603184600F0E8F907F117031846FFF777
:100BD000BDFFB861BB69002B02D10423FB6117E0A4
:100BE000BB6901221A70BB69FA685A60FFF700FC02
:100BF0000246BB699A60BB69BA68DA60BB697A6809
:100C00001A61BB693A685A61FB7D1846FFF78EFF8F
:100C1000BB7D184600F0CCF9FB69002B01D1FFF732
:100C2000C9FCFB6918462037BD4680BD80B586B03B
:100C300000AF78600B46FB7000237B610023BB7321
:100C400007F10E03184600F0A7F907F10F03184645
:100C5000FFF77CFF38613B69002B02D104237B61E5
:100C600009E03B69FA781A703B697A685A60FB7B45
:100C70001846FFF75BFFBB7B184600F099F97B69CC
:100C8000002B01D1FFF796FC7B6918461837BD464B
:100C900080BD00BF80B500AF0D4B0022C3F84021DE
:100CA0000B4B0022C3F84421094B0022C3F8482112
:100CB000074B0022C3F84C21054B0022C3F800214A
:100CC000034B0022C3F80421FFF7A8FC00BF80BD3E
:100CD0000010014080B500AFFFF7ECFE00BF80BD03
:100CE00080B584B000AFF8607A603B600B46FB7261
:100CF0007868FFF7B9FA034683F00103DBB2002BF3
:100D000001D0072331E07B68002B01D107232CE0C1
:100D1000FFF744FB174A3B681360174B00221A7019
:100D2000154B00225A70144AFB7A9370124A7B6862
:100D30005360124B00221A60114B00221A70114BA3
:100D400000221A701420FFF74BFA07211420FFF736
:100D500061FA1420FFF7F6F9F868FFF7EBFAFFF7EE
:100D600047FB0246084B1A60002318461037BD4661
:100D700080BD00BF18240020FC2300200424002094
:100D800014240020152400200824002080B487B0FB
:100D900000AFF8600B467A60FB72154B5B68002B66
:100DA00001D108231DE07B68002B01D1072318E047
:100DB000FB68002B01D1072313E0FB681B681B7C39
:100DC000002B01D008230CE0FB681B687B617B696A
:100DD00000221A747B69FA7A5A747B697A685A61BC
:100DE000002318461C37BD465DF8047B704700BFE2
:100DF000FC23002080B586B000AFF860B9607A604F
:100E0000FB687B61144B5B68002B01D108231EE05B
:100E1000FB68002B01D1082319E0BB68042B01D823
:100E2000072314E07B695B69002B01D108230EE0E6
:100E30007B695B7C012B01D1BB6800E000233B6137
:100E40007B683A69B9687869FFF7AEFE03461846D1
:100E50001837BD4680BD00BFFC23002080B584B09C
:100E600000AF78607B68FB600D4B5B68002B01D1A5
:100E7000082310E07B68002B03D0FB685B69002B24
:100E800001D1082307E0FB6800221A740221F868E8
:100E9000FFF7CCFE034618461037BD4680BD00BFA5
:100EA000FC23002080B483B000AFEFF310833B60DD
:100EB0003B687B6072B67B6818460C37BD465DF8B0
:100EC000047B704780B400AF62B600BFBD465DF8DA
:100ED000047B704780B584B000AF7860FFF7E2FF15
:100EE000F860164B9B68002B1BD1144B01229A60B3
:100EF000134BD3F88020134B1340104A1360104B50
:100F0000104AC3F880200E4BD3F884300B4A53604C
:100F10000B4B4FF0FF32C3F884207B6800221A701D
:100F200002E07B6801221A70FB68002B01D1FFF7F9
:100F3000C9FF002318461037BD4680BDF82F00209A
:100F400000E100E0FC06FFBC80B584B000AF0346C2
:100F5000FB710F4B9B68002B15D0FB79002B12D136
:100F6000FFF7A0FFF8600B4A094B1B681360094AA2
:100F7000074B5B685360064B00229A60FB68002BAE
:100F800001D1FFF79FFF002318461037BD4680BDF3
:100F9000F82F002000E100E080B582B000AF78605B
:100FA0007868FFF797FF00BF0837BD4680BD00BFD8
:100FB00080B582B000AF0346FB71FB791846FFF79E
:100FC000C3FF00BF0837BD4680BD00BF80B483B0FB
:100FD00000AF78607B6803F00303002B0CBF012394
:100FE0000023DBB218460C37BD465DF8047B704722
:100FF00080B483B000AF0346FB71064B1A78FB79CF
:101000001343DAB2034B1A7000BF0C37BD465DF8CC
:10101000047B70471E24002080B483B000AF0346D9
:10102000FB7197F90730DB435AB2074B1B785BB271
:1010300013405BB2DAB2044B1A7000BF0C37BD46E6
:101040005DF8047B704700BF1E24002080B483B08D
:1010500000AF0346FB71084B1A78FB791340DBB2F3
:10106000002B14BF01230023DBB218460C37BD460A
:101070005DF8047B704700BF1E24002080B584B05B
:1010800000AF78600023FB600EE00B4AFB6852F86B
:101090002330002B05D0084AFB6852F823307868CB
:1010A0009847FB680133FB60FB68072BEDD900BF55
:1010B0001037BD4680BD00BF2024002080B483B01F
:1010C00000AF786039607B681B78013B052B5BD8EB
:1010D00001A252F823F000BFF1100200F910020043
:1010E000191102004B1102006B1102008111020064
:1010F0003B6800221A7048E03B6801221A707B6846
:101100001A893B689A817B689A883B68DA817B6898
:10111000DA683B689A6038E03B6802221A707B68A4
:101120001A893B689A817B689A883B68DA817B6878
:10113000DA683B689A607B681B7C062B0CBF012336
:101140000023DAB23B681A741FE03B6803221A706E
:101150007B68DA883B689A817B681A893B68DA8108
:101160007B68DA683B689A600FE03B6804221A707B
:101170007B68DA883B689A813B680022DA8104E068
:101180003B6805221A7000E000BF00BF0C37BD4667
:101190005DF8047B704700BF80B483B000AF786017
:1011A0007B689B884FF6FF72934205D07B681B8853
:1011B000002B01D0012300E0002303F00103DBB288
:1011C00018460C37BD465DF8047B704780B582B089
:1011D00000AF78607B68002B11D00D4B1A687B68DC
:1011E0009A420CD80A4B5A687B689A4207D37868AF
:1011F000FFF7ECFE0346002B01D0012300E00023A3
:1012000003F00103DBB218460837BD4680BD00BFBE
:101210007C23002080B584B000AF78603960002363
:10122000FB6012E0FB68DB007A6813441B68184619
:10123000FFF7CCFE034683F00103DBB2002B01D0A5
:10124000002307E0FB680133FB60FA683B689A42C1
:10125000E8D3012318461037BD4680BD80B483B063
:1012600000AF78607B681B680C4A934201D003236F
:101270000DE07B6804331B68094A934204D0094A95
:10128000934203D1012302E0002300E00323184628
:101290000C37BD465DF8047B704700BFDEC0ADDE95
:1012A000FE011EF1FF011EF180B485B000AF786031
:1012B0000023FB600CE0FB689B007A6813441B680A
:1012C000B3F1FF3F01D0002307E0FB680133FB606F
:1012D000FB68B3F5006FEED3012318461437BD4603
:1012E0005DF8047B704700BF80B483B000AF034655
:1012F0000A46FB801346BB80FB880F4A1B01134440
:1013000008331A88BB881344BB80FB880A4A1B0138
:1013100013440A331A88BB881344BB80BB8840F24D
:10132000FF72934294BF01230023DBB218460C37AF
:10133000BD465DF8047B70470425002080B485B06D
:1013400000AF786039600A23FB6000237B811CE0DA
:101350007B89134A1B01134404331A683B689A4281
:1013600010D27B890E4A1B01134404331B6803F51A
:1013700000523B689A4205D90023FB607B687A895A
:101380001A8005E07B8901337B817B89272BDFD99C
:10139000FB6818461437BD465DF8047B704700BFF4
:1013A0000425002080B588B000AFF860B9607A608D
:1013B000FB6803F50053BB610023FB77FB68083330
:1013C000FB60BB6802221A8028E0FB687B617869B9
:1013D000FFF7E2FE034683F00103DBB2002B02D0ED
:1013E0000123FB7709E07B699A68164B1B689A42D8
:1013F00003D97B699B68134A13607B695B8803335D
:101400009B00FA681344FB60BB681A887B695B88A1
:1014100013449BB203339AB2BB681A80FA68BB6963
:101420009A4204D2FB681B68B3F1FF3FCDD17B68C1
:10143000002B02D07B68FA7F1A7000BF2037BD46B0
:1014400080BD00BF4024002080B483B000AF78602E
:101450000B467B807B681A897B8813449BB20333DD
:101460009AB27B681A817B685A897B88D31A9BB2AF
:10147000033B9AB27B685A8100BF0C37BD465DF8CA
:10148000047B704780B582B002AF064B1968002319
:1014900000930223044A054801F078FD03461846EC
:1014A000BD4680BD842700205CC402007C23002050
:1014B00080B584B002AF7860002300930223054A10
:1014C0007968054801F062FD034618460837BD46B5
:1014D00080BD00BF64C402007C23002080B584B0BE
:1014E00000AF03463960FB800023FB73FB880333A6
:1014F0007B817B8940F2FD72934201D9092334E05C
:101500000023BB8128E0BB891A4A1B0113441B78C6
:10151000002B1ED17A89BB8911461846FFF7E4FEDD
:101520000346002B15D00123FB733B68BA891A8050
:10153000BB89BA890F4912010A440A3211887A8993
:101540000A4491B20B4A1B0113440A330A461A801B
:1015500005E0BB890133BB81BB89272BD3D9FB7B3A
:10156000002B01D0002300E0072318461037BD46AA
:1015700080BD00BF0425002080B483B000AF0346C7
:101580000A46FB801346BB80BB88BA880A49120111
:101590000A440A321188FA888A1A92B2033A91B23E
:1015A000054A1B0113440A330A461A8000BF0C3750
:1015B000BD465DF8047B70470425002080B400AF71
:1015C000054B1B680133044A1360034B1B68184624
:1015D000BD465DF8047B70474024002080B584B090
:1015E00000AF03463960FB803B681B68FB60FB680B
:1015F000002B09D0FB68BB60BB685B8803339B0092
:10160000FA681344FB601CE0FB88184A1B01134472
:1016100004331B680833FB6013E0FB68BB60B868E9
:10162000FFF7BAFD0346002B04D03B68FA681A6046
:10163000012317E0BB685B8803339B00FA681344FF
:10164000FB60FB88094A1B01134404331B6803F544
:101650000052FB689A4204D9FB681B68B3F1FF3F54
:10166000DBD1002318461037BD4680BD042500207D
:1016700080B584B000AF786039607B685B681846DD
:10168000FFF7A4FD0346002B19D07B681A89254B70
:101690001B899A4213D17B681A687B685B689B68D8
:1016A0009A420CD17B685B6819463868FFF746FEA2
:1016B0000346002B0CBF01230023DBB22DE03B6867
:1016C00000221A8024E00023BB6010E0BB68FB60AE
:1016D000FB689A687B681B689A4208D1BA687B6885
:1016E0005A60104B1A897B681A81012315E03B6808
:1016F0001B8807F1080211461846FFF76FFF0346E3
:10170000002BE3D13B681B8801339AB23B681A80F7
:101710003B681B88272BD6D9002318461037BD46B7
:1017200080BD00BF8C27002080B586B000AFF86078
:10173000B9607A603B600220FFF788FC034683F0C3
:101740000103DBB2002B01D002234FE07B68002BAA
:1017500002D03B68002B44D1052347E03B689B88BF
:10176000244A1B0113441B78002B33D124E03B682F
:101770001B687B61FB68002B06D07B699A88FB683D
:101780001B889A4200D017E0BB68002B06D07B690B
:101790001A88BB681B889A4200D00DE07B699A6862
:1017A0007B681A603B681A687B685A60124B1A891A
:1017B0007B681A81002319E03B689B883A681146D0
:1017C0001846FFF70BFF0346002BD0D13B680022E1
:1017D0001A6000E000BF3B689B8801339AB23B6807
:1017E0009A803B689B88272BB8D90A23184618375C
:1017F000BD4680BD042500208C27002080B500AFA9
:10180000124B1A6F1346DB009B1A9B000F4A1344BE
:101810001C2200211846FDF795FE0C4B5B6F002B38
:101820000BD00A4B1B6F013303F00303074A136706
:10183000064B5B6F013B054A5367044B5B6F002B04
:1018400014BF01230023DBB2184680BD44240020CE
:1018500080B483B000AF78607B681B68084A93420D
:1018600006D07B681B6803F108027B681A6002E0FF
:101870007B68044A1A600C37BD465DF8047B7047EC
:10188000F4240020BC24002080B483B000AF786032
:101890000E4B5B6C002B12D00C4B1B6CDB000B4A0D
:1018A0001A447B681A60094B1B6C013303F0070371
:1018B000064A1364054B5B6C013B044A536400BF4A
:1018C0000C37BD465DF8047B704700BFBC24002088
:1018D00080B483B000AF78607B681B78022B03D0A4
:1018E0007B681B78032B0DD1094B1B6C7A68927DAA
:1018F0001344074A1364064B5B6C7A68927D9B1A0B
:10190000034A536400BF0C37BD465DF8047B704743
:10191000BC240020B0B588B000AFF860B9607A6030
:101920000023FB772E4B5B6F032B54D82D4B5A6C47
:10193000BB68C3F108039A424DD8294B5A6F284B14
:101940001B6F134403F003037B6125497A69134637
:10195000DB009B1A9B00CA18FB6814461D460FCD7E
:101960000FC495E8070084E807001D4B5B6F013347
:101970001B4A5367BB68002B2BD01A4B5A6C194B70
:101980001B6C134403F007037B617B69DB00154A82
:1019900013443B610023BB6111E03969BB69DB0083
:1019A0007A681A440B4692E8030083E8030007F1C3
:1019B00010031846FFF74CFFBB690133BB61BA69DE
:1019C000BB689A42E9D3074B5A6CBB681344054A7B
:1019D00053640123FB77FB7F18462037BD46B0BD1B
:1019E00044240020BC24002080B586B000AF002332
:1019F0007B6100237B8200237B740023FB81A2E0B8
:101A0000564B1B68FA8952031344BB60B868FFF752
:101A100025FC0346FB71FB79012B63D0032B02D01D
:101A2000002B3BD08CE0B868FFF73EFC0346002B50
:101A30002BD04B4B1B68002B1AD07B8A494A1B01C9
:101A4000134402221A707B8A464A1B011344043352
:101A5000BA681A607B8A434A1B0113440833022286
:101A60001A80414A7B8A53807B8A01337B8207E05C
:101A70003B4ABB6813603A4B02229A8001237B7475
:101A80007B6943F001037B615AE07B8A5A1C7A82AE
:101A9000344A1B01134403221A7051E07B8A314AF5
:101AA0001B01134400221A707B8A2E4A1B01134427
:101AB0000433BA681A607B8A1B010833294A9918D3
:101AC0007B8A1B010833274A134406331A46B86839
:101AD000FFF768FC7B6943F002037B617B8A01337B
:101AE0007B822DE07B7C002B17D07B8A1D4A1B015B
:101AF000134402221A707B8A194A126819491B0181
:101B00000B4404331A607B8A164A1B0113440833C2
:101B100002221A807B8A01337B82114ABB681360E0
:101B200000221249B868FFF73DFC0D4B9B88022B41
:101B300001D1042300E008237A6913437B6100BFCD
:101B4000FB890133FB81FB89282B7FF659AF7B6929
:101B5000DBB218461837BD4680BD00BF7C2300208D
:101B600084270020042500208C27002088270020BF
:101B700080B586B002AF786039607B681A1D00239B
:101B8000009301233968094801F000FA0346FB601D
:101B90007B6802221A74FB68002B01D1002300E04D
:101BA0000E2318461037BD4680BD00BF7C230020A1
:101BB00080B586B002AF786039603B6803F10801F8
:101BC0007B6803F10C020023009301230B4801F012
:101BD000DDF90346FB607B689B7D002B01D003226F
:101BE00000E001227B681A74FB68002B01D10023FE
:101BF00000E00E2318461037BD4680BD7C23002030
:101C000080B586B002AF786039603B68191D7B688B
:101C100003F108020023009301230C4801F0B6F9F8
:101C20000346FB607B681B78032B01D1052200E093
:101C300006227B681A74FB68002B01D1002300E0A8
:101C40000E2318461037BD4680BD00BF7C23002000
:101C500080B586B002AF7860002300930123084A64
:101C60007968084801F092F90346FB73FB7B002B6F
:101C700001D1002300E00E2318461037BD4680BD79
:101C800058C402007C23002080B588B000AF786083
:101C900007F1080300221A605A609A607B68DB68CB
:101CA000BB6007F1160207F1080311461846FFF75B
:101CB000DFFC0346002B16D0FB68BB61BB699A882A
:101CC0007B68DA80BB691A887B681A81FB681846D2
:101CD000FFF7BEFFF861FB8A064A1B0113440E336F
:101CE00001221A7001E00A23FB61FB6918462037C4
:101CF000BD4680BD0425002080B586B000AF786069
:101D00007B68981D07F108020F4B0021FFF70CFDBF
:101D100078617B69002B0DD1FB681846FFF798FFAF
:101D20007861094B9B88094A1B0113440E33012239
:101D30001A7004E0082200210348FDF703FC7B69C8
:101D400018461837BD4680BDC02700200425002056
:101D500080B586B002AF786039600023BB6007F1C0
:101D600008031846FFF790FD7B689B8A9B003A6842
:101D7000D118BB681A68BB68988800230093034693
:101D8000114801F003F90346FB607B689A8ABB683F
:101D90009B8813449AB27B689A827B689B7D013B47
:101DA000DAB27B689A757B689B7D002B02D17B68D9
:101DB00001221A74FB68002B01D1002300E00E23DE
:101DC00018461037BD4680BD7C23002080B483B008
:101DD00000AF154B1B8901339AB2134B1A81124B7A
:101DE00000225A80104B002283F832200023FB800F
:101DF00011E0FB88FA880D4912010A441278002A82
:101E00000CBF01220022D1B2074A13440A469A723B
:101E1000FB880133FB80FB88272BEAD900BF0C37F6
:101E2000BD465DF8047B70478C2700200425002008
:101E300080B485B000AF78600023FB730023BB81C2
:101E400023E0BB89164A13449B7A002B1AD0BB8926
:101E5000134A134400229A72BB89124A1B0113448D
:101E60000C331B88002B0DD1BB890E4A1B01134478
:101E70000E331B78002B05D07B68BA891A800123AA
:101E8000FB7305E0BB890133BB81BB89272BD8D904
:101E9000FB7B18461437BD465DF8047B704700BFD6
:101EA0008C2700200425002080B500AF074B0522B9
:101EB0001A70074B02229A80054B196800230222F0
:101EC000044801F0CDF80346184680BD8C27002059
:101ED000842700207C23002080B582B000AF124B05
:101EE0005B887B807B88114A1B0113440C331B8861
:101EF000002B10D17B880D4A1B0113440433196851
:101F0000002302220A4801F0ABF803467B60064B2F
:101F100004221A7002E0FFF7C7FF78607B6818465A
:101F20000837BD4680BD00BF8C2700200425002057
:101F30007C23002080B586B002AF104B5B68FB604D
:101F40000F4B1A680E4B9B889B001344BB60FB68C9
:101F50005B880333FB80094B03221A70074B5A68D6
:101F6000F988002300930B46B968064801F00EF883
:101F7000034618461037BD4680BD00BF8C270020A1
:101F8000842700207C23002080B582B000AF0A4B5C
:101F90005B880A491846FFF721FB0346002B03D054
:101FA000FFF7C8FF786002E0FFF796FF78607B6874
:101FB00018460837BD4680BD8C270020902700209A
:101FC00080B500AF074B06221A70064B5B88064AA5
:101FD0001B01134404331B681846FFF769FA0346D4
:101FE000184680BD8C2700200425002080B500AF56
:101FF000054B07221A70044B00225A60FFF742FA81
:102000000346184680BD00BF8C27002080B500AF76
:102010000C48FFF70DFF034683F00103DBB2002BF2
:102020000BD0094B00221A70074B00225A80064B36
:1020300000225A6041F61D5302E0FFF7A5FF034658
:10204000184680BD8E2700208C27002080B483B0E6
:1020500000AF0A4B5B687B607B685B8803337B80E7
:10206000074B9A887B8813449AB2054B9A8000BF2D
:102070000C37BD465DF8047B704700BF8C270020FD
:102080008427002080B483B000AF144B1B687B60B2
:10209000134B5B88134A1B01134404331B680F4A1C
:1020A00013600F4B5B880F4A1B01134404337A689B
:1020B0001A600B4B5B881846084B9988094A030144
:1020C000134408330A461A80044B02229A8000BF48
:1020D0000C37BD465DF8047B704700BF84270020A5
:1020E0008C2700200425002080B500AF1A4B1B78F8
:1020F000072B2DD801A252F823F000BF1D210200AA
:102100005121020051210200292102003521020043
:10211000412102004121020049210200FFF756FE41
:102120000D4B01221A7014E0FFF790FF0A4B0222B8
:102130001A700EE0FFF7A6FF074B06221A7008E0A0
:10214000054B07221A7004E0034B01221A7000E0CD
:1021500000BF00BF80BD00BF8C27002080B586B0C7
:1021600000AF786039600F237B617B68002B04D05F
:102170000120FEF751FF012398E03B681B79032BF8
:1021800000F2888001A252F823F000BF9D210200D6
:10219000AB2102001322020033220200FFF772F982
:1021A00078613B6801221A7177E00023FB740023F9
:1021B0003B821CE03B8A3F4A1B0113441B78022BE5
:1021C00012D13B8A3B4A1B01134404331B68184657
:1021D000FFF76EF978613B8A364A1B0113440022EF
:1021E0001A700123FB7405E03B8A01333B823B8A72
:1021F000272BDFD9FB7C83F00103DBB2002B4BD014
:102200000220FEF7F5FE0120FEF706FF41F61D5302
:102210004CE0294B196800230222284800F020FFD7
:1022200003467B61244B02229A803B6800221A718C
:1022300033E0214B1B681846FFF73AF97861204BD1
:102240005B88FB811C4B1B68BB60FB89194A1B0127
:10225000134404331B68184A1360FB89154A1B0199
:1022600013440433BA681A60FB89134A9188114AEF
:102270001B01134408330A461A800F4B02229A802E
:10228000FB890C4A1B01134400221A703B68002290
:102290001A7102E000BF00E000BF7B69002B04D090
:1022A0000120FEF7B9FE0E2300E000231846183780
:1022B000BD4680BD04250020842700207C2300200B
:1022C0008C27002080B586B000AF786039603B680D
:1022D0005B8A1B013A4A13443B617B68002B07D0A1
:1022E0003B68DB8819463869FFF7AEF8012363E0E5
:1022F0003B695A683B691B899B001344FB603B6840
:102300001B7C062B4BD801A252F823F0532302006A
:10231000772302005F2302006B23020029230200BF
:102320008323020097230200264B00225A603B6859
:102330009B69244A136007F10A0319462148FFF7F5
:1023400097F9034683F00103DBB2002B01D00A2387
:1023500032E0F9683868FFF70BFC786122E0F96831
:102360003868FFF725FC78611CE0F9683868FFF7EA
:10237000EFFC786116E0F9683868FFF741FC786196
:1023800010E0104B5B681846FFF762FC78613B6811
:1023900006221A7406E041F61D537B6102E00F230A
:1023A0007B6100BF7B69002B05D03B68DB88194649
:1023B0003869FFF749F87B6918461837BD4680BD74
:1023C00004250020C827002080B584B000AF7860C5
:1023D00039607B68002B01D0012323E03B681B7927
:1023E000012B0BD0022B14D0002B16D13868FFF72D
:1023F0004BFCF8603B6802221A7112E03868FFF764
:102400007BFCF860FB680A2B0AD141F61D53FB6088
:1024100006E041F61D53FB6003E00F23FB6000E084
:1024200000BFFB6818461037BD4680BD80B584B03C
:1024300000AF78607B68002B01D001233EE0214B88
:1024400093F83230002B04D01E4B002283F8322048
:1024500001E0FFF749FE1B4B1B78013B062B29D8F7
:1024600001A252F823F000BF852402008D2402004F
:10247000952402009D240200B5240200A524020038
:10248000AD240200FFF7C2FDF86016E0FFF77CFD07
:10249000F86012E0FFF74EFDF8600EE0FFF71CFD5C
:1024A000F8600AE0FFF78CFDF86006E0FFF79EFD9C
:1024B000F86002E00F23FB6000BFFB68184610378E
:1024C000BD4680BD8C27002080B58AB000AF034692
:1024D000FB71334B1A6F1346DB009B1A9B00304A8B
:1024E00013443B623B6A1B78013B052B29D801A2B0
:1024F00052F823F00D2502001B2502001B250200C7
:10250000292502002925020037250200FB79396AB6
:102510001846FFF723FE786216E0FB79396A184601
:10252000FFF7D0FE78620FE0FB79396A1846FFF7B3
:102530004BFF786208E0FB791846FFF777FF786277
:1025400002E00F237B6200BF7B6A002B23D07B6AF3
:1025500041F61D52934202D100233B6104E07B6AA5
:102560003B61386AFFF7B4F907F10C031946386A82
:10257000FEF7A4FD07F10C031846FEF77FFDFFF7F9
:102580003DF90346002B03D00020FFF79DFF02E03A
:102590000420FEF741FD00BF2837BD4680BD00BFC7
:1025A0004424002080B500AF0420FEF74FFD034611
:1025B00083F00103DBB2002B05D00420FEF718FDE9
:1025C0000020FFF781FF00BF80BD00BF80B582B053
:1025D00000AF78600B46FB70FB781846FFF774FF7E
:1025E00000BF0837BD4680BD80B590B000AFF86031
:1025F000B9607A60FB700023FB860023FB87022012
:10260000FEF724FD034683F00103DBB2002B01D06B
:1026100002239BE0BB68002B01D1052396E0BB6839
:102620001B884FF6FF72934203D0BB685B88002B78
:1026300001D104238AE0BB685A68BB681B8919462C
:102640001046FEF7E7FD034683F00103DBB2002BE3
:1026500001D003237AE07B68002B21D10023BB63E8
:102660000BE0BB685A68BB6BDB0013449A88FB8F96
:102670001344FB87BB6B0133BB63BB681B891A46E2
:10268000BB6B9A42EDD807F11202FB8F1146184638
:10269000FEF724FF38633B6B002B07D03B6B55E004
:1026A0007B681B887B827B685B88FB87FB783B753C
:1026B000002387F824307B8AFB84BB681B89DBB24C
:1026C00087F82A3003233B85FEF778FF03463B62F9
:1026D000BB681B88BB83BB685B883B83FB8F7B83AA
:1026E000FB78032B05D1042387F82430FB681B6893
:1026F000FB62FB8EFB83BB681B891946BB685A686B
:1027000007F114031846FFF705F9034683F00103A8
:10271000DBB2002B07D07A8AFB8F11461846FEF7F2
:102720002BFF082312E0FB68002B0CD0FB68002273
:102730005A603A6AFB681A60FB6800229A72054B7D
:102740001A89FB681A81FFF72DFF002318464037CE
:10275000BD4680BD8C27002080B485B000AF786076
:102760000E4B1B78082B02D10C23FB600EE00B4BA9
:102770001B7819460A4A7B6842F82130074B1B78C0
:102780000133DAB2054B1A700023FB60FB68184670
:102790001437BD465DF8047B704700BF1F2400203E
:1027A0002024002080B58EB000AF07F12003002266
:1027B0001A605A609A60DA601A610220FEF746FCDD
:1027C0000346002B06D007F120031846FEF756FCFF
:1027D00000235FE00120FEF739FC0346002B01D007
:1027E000002357E00120FEF703FC00F041FBFFF758
:1027F000FBF8034687F8373097F83730002B01D1C4
:102800000B2347E097F83730062B0CD10220FEF758
:10281000EFFB0120FEF700FC07F120031846FEF74E
:102820002DFC002336E001233B7197F83730013B44
:102830000A2B25D801A252F823F000BF6928020014
:102840008128020069280200812802007B280200FA
:10285000812802007B280200812802006F280200E4
:10286000752802006F28020000233B7209E0032351
:102870003B7206E002233B7203E001233B7200E05F
:1028800000BF3B1D002200211846FFF743F8FFF769
:1028900089FE002318463837BD4680BD80B584B018
:1028A00000AF786039607B68002B02D03B68002B5A
:1028B00001D1052328E007F10A0319467868FEF7DD
:1028C000D7FE0346002B1ED07B685B68FB607B89CC
:1028D0000F491A010A440C321288013291B20C4A93
:1028E0001B0113440C330A461A803B68FA681A60CD
:1028F0007B685B6803F10C023B685A607B680122CD
:102900009A72002300E00A2318461037BD4680BDA6
:102910000425002080B584B000AF78607B68002B70
:1029200001D105232EE007F10A0319467868FEF766
:102930009FFE0346002B22D07B89144A1B011344BF
:102940000C331B88002B17D07B689B7A002B13D08D
:102950007B890E491A010A440C321288013A91B25D
:102960000A4A1B0113440C330A461A807B68002272
:102970009A720023FB6004E00623FB6001E00A2357
:10298000FB60FB6818461037BD4680BD042500205B
:1029900080B582B000AF78603960022300223968C8
:1029A0007868FFF721FE034618460837BD4680BD0C
:1029B00080B58AB000AF78600220FEF747FB03467F
:1029C00083F00103DBB2002B01D002231AE07B6805
:1029D000002B01D1052315E004233B7300233B7436
:1029E0007B681B68BB6107F10C03002200211846BD
:1029F000FEF790FF0346002B03D0FFF7D3FD002323
:102A000000E0082318462837BD4680BD80B588B051
:102A100000AF0220FEF71AFB034683F00103DBB28E
:102A2000002B01D0022317E006233B713B1D00223F
:102A300000211846FEF76EFF0346002B0BD0084B13
:102A40001B78002B03D0064B012283F83220FFF7BE
:102A5000A9FD002300E0082318462037BD4680BDAD
:102A60008C27002080B584B000AFBA607B6003463D
:102A7000FB810B46BB8107F10C0107F10E007B685F
:102A8000BA68FEF751FE034618461037BD4680BDB2
:102A900080B483B000AF4FF010235B697B607B682C
:102AA000B3F1FF3F04D14FF080535B691B0300E09B
:102AB0007B6818460C37BD465DF8047B704700BF45
:102AC00029DF704700BF184628DF704700BF18464F
:102AD00080B586B000AF78600B46FB7007F1080345
:102AE000102200211846FCF72DFD7B681B7A012B74
:102AF00002D0022B09D015E000233B727B681B69D2
:102B00003B617B689B8ABB820CE001233B727B6844
:102B10009A897B68DB89D31A9BB23B827B689B894D
:102B20007B8200BF7B685B68FB607B681B689B687F
:102B3000F97807F108021046984700BF1837BD46DC
:102B400080BD00BF80B483B000AF78607B68002B8D
:102B500009D07B68074A934205D37B68064A9342B3
:102B600001D2012300E0002318460C37BD465DF872
:102B7000047B70477C2300208C23002080B584B028
:102B800000AF78607B689B8A1A467B68DB8AD31A21
:102B9000B3F5806F06DA7B689A8A7B68DB8AD31A82
:102BA000FB8102E04FF48063FB817B681A697B68DC
:102BB000DB8A9B00D0187B68DA687B68DB8A9B0025
:102BC0001344FA891946FFF77BFF0346184610376E
:102BD000BD4680BD80B582B000AF78607B689B89C0
:102BE0001846FFF771FF034618460837BD4680BDFB
:102BF00080B400AF104B5B6E013B0F4A53660E4B27
:102C00005B6E002B06D10D4B1B7823F00203DAB26A
:102C10000A4B1A70084B1B6E0133074A1366064BAA
:102C20001B6E042B02D1044B00221A6600BFBD4666
:102C30005DF8047B704700BFD8270020D427002010
:102C400080B582B000AF1F4B1A6E13465B00134471
:102C5000DB001C4A13443B601A4B5B6E002B2CD0EC
:102C60003B681B7A012B02D0022B05D009E03868A3
:102C7000FFF784FF786007E03868FFF7ABFF786004
:102C800002E009237B6000BF7B68112B0ED10E4B45
:102C90001B7823F00203DAB20B4B1A700A4B1B7835
:102CA00043F00403DAB2084B1A7006E07B68002B8D
:102CB00003D009213868FFF70BFF00BF0837BD4676
:102CC00080BD00BFD8270020D427002080B500AFEA
:102CD0000B4B1B7803F00203002B0ED1084B1B7823
:102CE00003F00403002B08D1054B1B7843F00203CB
:102CF000DAB2034B1A70FFF7A3FF00BF80BD00BF1D
:102D0000D427002080B584B000AF7860284B002223
:102D10001A707B681B7A012B02D0022B27D042E06D
:102D20007B689B8A1A467B68DB8AD31AB3F5806F6F
:102D300006DA7B689A8A7B68DB8AD31AFB8102E019
:102D40004FF48063FB817B68DA8AFB8913449AB273
:102D50007B68DA827B68DA8A7B689B8A9A421FD119
:102D600000217868FFF7B4FEFFF742FF18E07B68A8
:102D70009B8901339AB27B689A817B68DB89013336
:102D80009AB27B68DA817B68DA897B681B8A9A420F
:102D900008D100217868FFF79BFEFFF729FF01E0CB
:102DA00000BF00E000BF00BF1037BD4680BD00BFC0
:102DB0004028002080B582B000AF78600B4B1B78B4
:102DC0000133DAB2094B1A70084B1B78032B08D970
:102DD000064B00221A7008217868FFF779FEFFF78A
:102DE00007FF00BF0837BD4680BD00BF4028002058
:102DF00080B584B000AF78601C4B5B6E042B01D1B2
:102E000000232EE0194B1A6E184B5B6E1344032BF4
:102E100005D8164B1A6E154B5B6E134405E0134B29
:102E20001A6E124B5B6E1344043BFB600F4B5B6EE0
:102E300001330E4A5366FA6813465B001344DB0005
:102E40000A4A1344182200211846FCF77BFBFA6853
:102E500013465B001344DB00044A1A447B681A6083
:102E6000012318461037BD4680BD00BFD82700207B
:102E700080B58AB000AF424A424BD31A1B09FB60AF
:102E80003F4A404BD31A1B097B62FFF701FE3862B1
:102E90003D4B1B7803F00103002B01D000236AE0B7
:102EA0000023FB6112E0FB691B01364A1344BB603F
:102EB000BB681B68002B06D0BB685B68002B02D088
:102EC0007B6A013B7B62FB690133FB61FA69FB684A
:102ED0009A42E8D30023BB6141E0BB691B01294A48
:102EE00013447B600023FB75BB69BB7500233B610A
:102EF0001BE03B691B01234A13443B603B681B6892
:102F0000002B03D03B685B68002B0AD13B685B7BDE
:102F1000FA7D9A4206D23B685B7BFB753B69BB75C9
:102F200000E000BF3B6901333B613A69FB689A42AC
:102F3000DFD3BB7D1B01134A13447B607B683A6A75
:102F40005A607B681B7B1B035B423A6A1A447B68AE
:102F50001A607B681B683B62BB690133BB61BA695D
:102F60007B6A9A42B9D3084B1B7843F00103DAB26B
:102F7000054B1A70002318462837BD4680BD00BF98
:102F80008C2300207C230020D427002080B586B02D
:102F900000AFF860B9607A607B80304B1B7803F03B
:102FA0000103002B01D1012354E0F868FFF7CAFDAB
:102FB000034683F00103DBB2002B01D0022349E07A
:102FC0007B68002B02D0BB68002B01D1032341E0BA
:102FD0007B6803F00303002B04D1BB6803F00303F9
:102FE000002B01D0062335E0FB681A68BB689A42C3
:102FF00007D8FB685A687B889B00B9680B449A42E3
:1030000001D2052326E07B88002B01D1042321E097
:1030100007F114031846FFF7EBFE034683F00103A4
:10302000DBB2002B01D0072314E07B693A6A5A60B7
:103030007B69FA681A607B6901221A727B697A6877
:10304000DA607B69BA681A617B697A889A82FFF7CD
:103050003DFE002318461837BD4680BDD42700200A
:1030600080B586B000AFF860B9603B601346FB8066
:103070002B4B1B7803F00103002B01D101234BE004
:10308000F868FFF75FFD034683F00103DBB2002B16
:1030900001D0022340E0BB68002B01D103233BE0B9
:1030A000BB68C3F30B03002B01D0062334E0FB689D
:1030B0001A68BB689A4207D8FB881B03BA681A448F
:1030C000FB685B689A4201D9052325E0FB88002B49
:1030D00001D1042320E007F114031846FFF788FE0E
:1030E000034683F00103DBB2002B01D0072313E07A
:1030F0007B693A685A607B69FA681A607B690222C8
:103100001A727B69BA68120B92B29A817B69FA884B
:103110001A82FFF7DBFD002318461837BD4680BD35
:10312000D427002080B483B000AF78607B68002B88
:1031300001D1032304E0054B5A6E7B681A6000231B
:1031400018460C37BD465DF8047B7047D827002031
:1031500080B584B000AF78601D4B1A6E13465B00DB
:103160001344DB001A4A1344FB601A4B1B7803F02C
:103170000203002B0ED07B68022B02D0032B04D05D
:1031800020E0F868FFF7BEFD1CE0F868FFF712FECC
:1031900000BF17E00F4B1B7803F00403002B11D086
:1031A0000C4B1B7823F00403DAB20A4B1A70084B5D
:1031B0005B6E002B06D0074B1B7843F00203DAB29C
:1031C000044B1A70FFF73CFD00BF1037BD4680BDB1
:1031D000D8270020D427002080B483B000AF7860C7
:1031E0004FF0A04318460C37BD465DF8047B70478E
:1031F00080B584B000AF7860084611461A46034691
:10320000FB700B46BB7013467B703B1D1846FFF7E7
:10321000E3FFF8607A68F978BB785B0019437B7844
:103220009B0019433B7E1B0219433B7F1B04194340
:10323000FB6802F5E07243F8221000BF1037BD466C
:1032400080BD00BF80B584B002AF786000230193D9
:10325000002300930023012201217868FFF7C8FFB3
:1032600000BF0837BD4680BD80B584B000AF786030
:103270003B1D1846FFF7B0FFF8607B68012202FA99
:1032800003F31946F86800F077F800BF1037BD4621
:1032900080BD00BF80B584B000AF78603B1D18468C
:1032A000FFF79AFFF8607B68012202FA03F31946E0
:1032B000F86800F071F800BF1037BD4680BD00BF50
:1032C00080B584B000AF78603B1D1846FFF784FFDF
:1032D000F860FB68D3F80435BB60BB68DA437B68F1
:1032E000012101FA03F31A40FB68C3F808257B6843
:1032F00001229A40BB681A40FB68C3F80C2500BF46
:103300001037BD4680BD00BF80B582B000AF786089
:1033100039603B68002B03D17868FFF7BBFF02E000
:103320007868FFF7A1FF00BF0837BD4680BD00BF2A
:1033300080B584B000AF78603B1D1846FFF74CFFA6
:10334000F860F86800F00AF802467B6822FA03F396
:1033500003F0010318461037BD4680BD80B483B02A
:1033600000AF78607B68D3F8043518460C37BD464B
:103370005DF8047B704700BF80B483B000AF786015
:1033800039607B683A68C3F8082500BF0C37BD4632
:103390005DF8047B704700BF80B483B000AF7860F5
:1033A00039607B683A68C3F80C2500BF0C37BD460E
:1033B0005DF8047B704700BF80B584B000AF7860D3
:1033C0000E4A7B6813441B781846FFF7B1FF03468B
:1033D000002B14BF01230023FB73FB7B002B14BFC6
:1033E00001230023DBB283F00103DBB203F001030E
:1033F000DBB218461037BD4680BD00BF6CC402006A
:1034000080B582B000AF7860054A7B6813441B78B2
:1034100000211846FFF778FF00BF0837BD4680BD82
:103420006CC4020080B582B000AF7860054A7B684A
:1034300013441B7801211846FFF766FF00BF0837C9
:10344000BD4680BD6CC4020080B582B000AF0023D1
:103450007B6005E07868FFF7E5FF7B6801337B6000
:103460007B68032BF6D900BF0837BD4680BD00BF7F
:1034700080B582B000AF00237B6005E07868FFF77D
:10348000BFFF7B6801337B607B68032BF6D900BFED
:103490000837BD4680BD00BF80B582B000AF786000
:1034A000054A7B6813441B781846FFF709FF00BFE5
:1034B0000837BD4680BD00BF6CC4020080B582B035
:1034C00000AF00237B6009E0094A7B6813441B7846
:1034D0001846FFF7B7FE7B6801337B607B68032BE0
:1034E000F2D9FFF7B1FF00BF0837BD4680BD00BF6E
:1034F0006CC4020080B485B000AF78604FF0FF3339
:10350000BB600023FB600DE00B4AFB6813441B7893
:103510001A467B689A4202D1FB68BB6005E0FB68F3
:103520000133FB60FB68032BEED9BB6818461437E8
:10353000BD465DF8047B704770C4020080B483B060
:1035400000AF7860044A7B6813441B7818460C3738
:10355000BD465DF8047B704770C4020080B483B040
:1035600000AF78604FF080427B68C2F8083300BF3C
:103570000C37BD465DF8047B704700BF80B485B052
:1035800000AF0346FB80FB8803F1804300221A60F2
:10359000FB8803F180431B68FB60FB6800BF1437A6
:1035A000BD465DF8047B704780B483B000AF03462E
:1035B000FB80FB8803F180431B68002B14BF0123B1
:1035C0000023DBB218460C37BD465DF8047B70471C
:1035D00080B483B000AF0346FB714FF08042FB79AB
:1035E00003F00303C2F8183500BF0C37BD465DF881
:1035F000047B704780B483B000AF0346FB710C4A74
:1036000097F907305B0952F82320FB7903F01F0379
:1036100022FA03F303F00103002B14BF012300235C
:10362000DBB218460C37BD465DF8047B704700BF1F
:1036300000E100E080B500AF0020FFF7DBFF0346AC
:1036400083F00103DBB2002B03D00721002000F040
:103650007DF900BF80BD00BF80B582B000AF002300
:103660007B60144B1B78002B02D085237B601BE012
:10367000104B00229A600F4B00225A600D4B002223
:103680001A610C4B0022DA60FFF7D4FF06F014F841
:10369000034683F00103DBB2002B02D00120FFF7C9
:1036A00097FF044B01221A707B6818460837BD4605
:1036B00080BD00BF4428002080B485B000AF786092
:1036C0007B681B68FB60FB68002B03D0FB681A68F3
:1036D0007B681A60FB6818461437BD465DF8047BAA
:1036E000704700BF80B584B000AF0346FB71FB7923
:1036F000002B02D10B4BFB6001E00B4BFB60F86829
:10370000FFF7DAFFB860BB68002B05D0BB685B68C9
:10371000FA7910469847F2E700BF00BF1037BD4660
:1037200080BD00BF4C2800205428002080B500AF89
:103730004FF48070FFF738FF0346002B0CD04FF496
:103740008070FFF71BFF0120FFF708FF0D4B0122E0
:103750005A700020FFF7C6FF4FF48270FFF724FF76
:103760000346002B0CD04FF48270FFF707FF0220B6
:10377000FFF7F4FE034B01229A700120FFF7B2FF1E
:1037800000BF80BD4428002080B582B000AF7860C3
:103790007B68002B02D10020FFF7A4FF00BF083791
:1037A000BD4680BD80B582B000AF0023FB71FB1D1C
:1037B0001846FDF7F1FB0C4B1B7883F00103DBB2DD
:1037C000002B01D0FFF748FF074BDB680133064AA7
:1037D000D360054B01229A70FB791846FDF7E8FB90
:1037E00000BF0837BD4680BD4428002080B483B0A8
:1037F00000AF0346FB71094997F907305B09FA7975
:1038000002F01F02012000FA02F241F8232000BF5B
:103810000C37BD465DF8047B704700BF00E100E057
:1038200080B483B000AF0346FB71094997F90730B4
:103830005B09FA7902F01F02012000FA02F26033FC
:1038400041F8232000BF0C37BD465DF8047B70476C
:1038500000E100E080B483B000AF03463960FB7143
:1038600097F90730002B0BDA0D49FB7903F00F03B2
:10387000043B3A68D2B25201D2B20B441A7609E044
:10388000084997F907303A68D2B25201D2B20B44D4
:1038900083F8002300BF0C37BD465DF8047B7047FA
:1038A00000ED00E000E100E080B500AF024B1B68D6
:1038B000984700BF80BD00BF5828002080B586B063
:1038C00000AF786039600023FB750023FB7307F1BC
:1038D0000F031846FDF760FB7B681B79002B02D0B5
:1038E0000123FB7502E07B6801221A71FB7B1846FD
:1038F000FDF75EFBFB7D002B03D011233B613B6991
:1039000005E07B683A681A6000233B613B69184612
:103910001837BD4680BD00BF80B584B000AF786069
:1039200039607B68074A934205D139680648FFF73A
:10393000C5FF034602E00723FB60FB68184610370B
:10394000BD4680BD003000405828002080B582B0C0
:1039500000AF03460A46FB711346BB71BA7997F96B
:10396000073011461846FFF775FF97F907301846DC
:10397000FFF756FF97F907301846FFF737FF00BFEC
:103980000837BD4680BD00BF80B582B000AF03469A
:10399000FB80FB88184600F025F803461B68012BC6
:1039A0000CBF01230023DBB218460837BD4680BD9B
:1039B00080B584B000AF0346FB80FB88184600F05A
:1039C00011F803461A4600231360FB88184600F0DE
:1039D00009F803461B68FB60FB6800BF1037BD4653
:1039E00080BD00BF80B483B000AF0346FB80FB887E
:1039F00003F1804303F5C04318460C37BD465DF81C
:103A0000047B704780B483B000AF7860044A7B6861
:103A1000C2F8043300BF0C37BD465DF8047B704725
:103A20000060004080B483B000AF7860054BD3F8ED
:103A300004237B68134018460C37BD465DF8047BB1
:103A4000704700BF0060004080B483B000AF786072
:103A50000949094A7B6803F5A27352F8233043F001
:103A600001027B6803F5A27341F8232000BF0C37E5
:103A7000BD465DF8047B70470060004080B485B0AF
:103A800000AFF860B9601346FB711649154AFB6830
:103A900003F5A27352F8233023F4473323F4407321
:103AA000FA6802F5A27241F822300E480D4AFB680E
:103AB00003F5A27352F82320BB681B0203F4F851EC
:103AC000FB791B0403F440330B431A43FB6803F5F3
:103AD000A27340F8232000BF1437BD465DF8047B75
:103AE000704700BF0060004080B483B000AF7860D2
:103AF000074A7B6803F5A27352F8233003F4F853A6
:103B00001B0A18460C37BD465DF8047B704700BFA2
:103B10000060004080B483B000AF7860074A7B68E3
:103B200003F5A27352F8233003F440331B0CDBB2CD
:103B300018460C37BD465DF8047B704700600040B6
:103B400080B483B000AF78604FF0A04318460C37C4
:103B5000BD465DF8047B704780B584B000AF7860E7
:103B6000084611461A460346FB700B46BB701346C7
:103B70007B703B1D1846FFF7E3FFF8607A68F97821
:103B8000BB785B0019437B789B0019433B7E1B028B
:103B900019433B7F1B041943FB6802F5E07243F8AD
:103BA000221000BF1037BD4680BD00BF80B584B075
:103BB00002AF78600B46FB70FA7800230193002374
:103BC00000931346002200217868FFF7C5FF00BF6D
:103BD0000837BD4680BD00BF80B584B000AF7860B7
:103BE0003B1D1846FFF7ACFFF8607A68FB6802F5EA
:103BF000E07253F8223023F00203BB607A68FB685E
:103C000002F5E072B96843F8221000BF1037BD46D4
:103C100080BD00BF80B584B000AF78600B46FB70FC
:103C20003B1D1846FFF78CFFF8607A687968FB68DF
:103C300001F5E07153F8213023F44031FB6802F5BF
:103C4000E07243F822107A687968FB6801F5E07148
:103C500053F82130F97809041943FB6802F5E07242
:103C600043F8221000BF1037BD4680BD80B584B038
:103C700000AF78603B1D1846FFF762FFF860F868F8
:103C800000F022F802467B6822FA03F303F00103F6
:103C900018461037BD4680BD80B584B000AF78604F
:103CA0003B1D1846FFF74CFFF8607A68FB6802F589
:103CB000E07253F8223003F440331B0CDBB2184699
:103CC0001037BD4680BD00BF80B483B000AF7860C0
:103CD0007B68D3F8103518460C37BD465DF8047B79
:103CE000704700BF80B586B000AFF860B9607A60F9
:103CF0004FF0A0433B61FB687B6112E07B699B0056
:103D000007F11802134453F8083C1846FFF7DCFF8C
:103D100002467B681A607B6804337B607B690133F1
:103D20007B61FA68BB681A447B699A42E6D800BF97
:103D30001837BD4680BD00BF80B485B000AF786045
:103D400039603B68FB607B68DB08BB607B6803F025
:103D500007037B6001227B6802FA03F3F968BA6803
:103D60000A441278134018461437BD465DF8047BA8
:103D7000704700BF80B485B000AF786039603B68A1
:103D8000FB607B68DB08BB607B6803F007037B603C
:103D9000FA68BB681344F968BA680A44127851B2E9
:103DA00001207A6800FA02F252B20A4352B2D2B249
:103DB0001A7000BF1437BD465DF8047B704700BF22
:103DC00080B483B000AF78600D4A7B681344303311
:103DD00093F90030002B09DB094A7B681344303328
:103DE00093F90030072B01DC012300E0002303F0EE
:103DF0000103DBB218460C37BD465DF8047B704703
:103E00006028002080B483B000AF7860084A7B68E7
:103E10001344303393F90030072BCCBF0123002328
:103E2000DBB218460C37BD465DF8047B704700BF17
:103E30006028002080B483B000AF7860074A7B68B8
:103E40001344303393F90030DB43DBB2DB09DBB2E0
:103E500018460C37BD465DF8047B7047602800208B
:103E600080B485B000AFF860B9607A60FB70BB6861
:103E700059B2104AFB68134430330A461A700D4990
:103E8000BB687A6841F82320FB7883F00103DBB23A
:103E9000002B08D0BB68083BFA6851B2054A1344AE
:103EA0000A4683F8502000BF1437BD465DF8047BF6
:103EB000704700BF6028002080B483B000AF7860F6
:103EC000054A7B6813443033FF221A7000BF0C3759
:103ED000BD465DF8047B70476028002080B483B045
:103EE00000AF7860054A7B681344303393F90030A3
:103EF00018460C37BD465DF8047B704760280020EB
:103F000080B483B000AF7860044A7B6852F82330F5
:103F100018460C37BD465DF8047B704760280020CA
:103F200080B588B000AFF860B9601346FB71FF231D
:103F3000FB77FB79002B01D0002300E008237B6195
:103F4000FB79002B01D0082300E00C233B617B6947
:103F5000BB6112E00E4ABB6952F82330B3F1FF3F58
:103F600008D1FB79BA68B969F868FFF779FFBB69CE
:103F7000FB7706E0BB690133BB61BA693B699A42D2
:103F8000E8D397F91F3018462037BD4680BD00BFE3
:103F90006028002080B483B000AF0346FB71FB793A
:103FA0000A4A4FF0FF3142F82310FB79072B06D95C
:103FB000FB79083B054A1344FF2283F8502000BFD9
:103FC0000C37BD465DF8047B704700BF60280020B9
:103FD00080B582B000AF1D4B93F85430002B03D056
:103FE00008233B603B682CE00023FB7106E0FB7973
:103FF0001846FFF761FFFB790133FB71FB791F2B3B
:10400000F5D90023FB7106E0FB791846FFF7C2FFE4
:10401000FB790133FB71FB790B2BF5D907210620C6
:10402000FFF794FC4FF4BE70FFF7C2FC4FF0004066
:10403000FFF7E8FC054B012283F8542000233B6086
:104040003B6818460837BD4680BD00BF6028002089
:1040500080B400AF064B93F85430002B14BF0123FB
:104060000023DBB21846BD465DF8047B704700BFF5
:104070006028002080B586B000AFF860B9607A6033
:1040800000237B61F868FFF7D5FE0346002B02D0C2
:1040900008237B6140E0BB68DB781A467968F868E2
:1040A000FFF73EFF0346FB7497F91330B3F1FF3F70
:1040B00030D0BB689B78002B03D0F868FFF78CFDED
:1040C00005E0BB685B781946F868FFF76FFDBB68D1
:1040D000DB78002B08D097F91300BB681B781A46D1
:1040E000F968FFF7CBFC17E097F91330083B97F915
:1040F0001320083A0B490A4492F95010BA68127812
:10410000920152B20A4351B2064A13440A4683F856
:10411000502001E004237B617B6918461837BD46B7
:1041200080BD00BF6028002080B586B000AF7860F9
:104130000B46FB707868FFF765FE0346002B27D01F
:104140007868FFF7CBFE0346083B2A4A134493F9ED
:104150005030BB75BB7D9B097B757B7D032B0AD1E2
:104160007868FFF783FD0346002B01D0032300E0AE
:104170000223FB7506E07B7D012B01D1022300E0C9
:104180000323FB75FB7D19467868FFF743FD2DE09F
:104190007868FFF715FE0346002B27D07868FFF7F5
:1041A0009DFE03463B613B699BB240339BB29B0043
:1041B000FB813B691846FFF747FCFB891846FFF770
:1041C000F7FBFB78002B11D07868FFF787FE0346DA
:1041D0001846FFF795FEB860BB68002B06D0012299
:1041E0003B6902FA03F31846FFF70CFC00BF1837CF
:1041F000BD4680BD6028002080B582B000AF7860E9
:104200007868FFF733FD0346002B14BF012300231A
:10421000DBB218460837BD4680BD00BF80B594B0FC
:1042200000AF0023FB640023FB604FF48073A7F80A
:10423000463001233B640023BB6421E0B7F84630DD
:104240001846FFF7A1FB0346002B0ED0386CFFF792
:10425000E9FB0346002B08D0B7F846301846FFF7B5
:10426000A7FBFA6C3B6C1343FB643B6C5B003B6449
:10427000B7F846300433A7F84630BB6C0133BB6453
:10428000BB6C072BDAD94FF4BE70FFF77DFB0346FA
:10429000002B0ED04FF4BE70FFF78AFBFB6C43F08F
:1042A0000043FB6407F10C031A4601210020FFF7CD
:1042B00019FDFB6CDBB2002B29D001233B640023EA
:1042C000BB6421E03A6CFB6C1340002B16D0B86C39
:1042D000FFF70AFC7863B86CFFF71CFC034687F80D
:1042E0003330B86CFFF70CFEF862FB6A002B05D088
:1042F00097F83320FB6A1146786B98473B6C5B005C
:104300003B64BB6C0133BB64BB6C072BDAD9FB6C21
:10431000002B80F2F180002387F83B300023BB6044
:104320000023FB630BE0FB6B9B0007F1500213447F
:104330004FF0FF3243F84C2CFB6B0133FB63FB6BFC
:10434000002BF0D0002387F83B300023BB6474E0DF
:104350006B4ABB6C1344503393F9003087F82B3011
:1043600097F82B3023F0C0037B62654ABB6C134483
:10437000503393F90030B3F1FF3F5BD03B1D19463A
:10438000786AFFF7D9FC0346002B53D097F82B30FF
:104390009B0987F82330786AFFF7A0FD034618468B
:1043A000FFF7AEFDF861FB69002B03D197F82330CE
:1043B000032B3FD197F82330032B05D107F10803D6
:1043C0001946786AFFF7D6FC786AFFF765FC034662
:1043D000FB7607F10C031946786AFFF7ADFC7861AC
:1043E0007B69002B02D0FB7E022B05D07B69002B62
:1043F00020D1FB7E032B1DD197F82330032B10D146
:10440000FB7E022B01D1032300E00223FB74FB7C23
:104410001946786AFFF7FEFB97F83B30013387F8BF
:104420003B30FB69002B05D097F82320FB69114630
:10443000786A9847BB6C0133BB64BB6C032B87D98C
:1044400097F83B30002B52D0012387F83A303B4697
:104450001A4601210020FFF745FC0023FB6316E00C
:10446000FB6B9B0007F15002134453F8502CFB6B7D
:104470009B0007F150010B4453F8443C9A4203D08F
:10448000002387F83A3005E0FB6B0133FB63FB6BDD
:10449000002BE5D097F83A30002B03D0002387F8A3
:1044A0003B3024E00023FB631EE0FB6B9B0007F125
:1044B0005002134453F8502CFB6B9B0007F1500142
:1044C0000B4443F8442CFB6B9B0007F15002134450
:1044D00053F8482CFB6B9B0007F150010B4443F849
:1044E0004C2CFB6B0133FB63FB6B002BDDD097F88F
:1044F0003B30002B7FF426AF00BF5037BD4680BD58
:104500006028002080B483B000AF78604FF0A043F3
:1045100018460C37BD465DF8047B704780B584B003
:1045200000AF78600B46FB703B1D1846FFF7EAFFB3
:10453000F8607A687968FB6801F5E07153F821301A
:1045400023F44031FB6802F5E07243F822107A68E8
:104550007968FB6801F5E07153F82130F9780904B6
:104560001943FB6802F5E07243F8221000BF1037D0
:10457000BD4680BD80B586B000AF03460A46FB71DC
:104580001346BB710023FB7500233B61FB79184682
:10459000FEF7B0FF38613B69032B60D8BB79012B74
:1045A00004D0022B50D0002B32D058E034493A6965
:1045B00013465B0013440B441B78FB7530493A6982
:1045C00013465B0013440B4401331B78002B11D0BE
:1045D0002C482D4B1A6813469B0013445B002B4A52
:1045E0001946FCF707FCF860FB68002B02D1274A4C
:1045F000FB79137022493A6913465B0013440B445C
:1046000002331978224A3B6913440A461A7026E09D
:104610001C4B1846FCF722FC1D4A3B6913441978D1
:1046200017483A6913465B001344034402331B786E
:10463000994213D112493A6913465B0013440B4463
:1046400002331B78FB7509E00D493A6913465B009C
:1046500013440B4401331B78FB7500E000BFFB7D66
:10466000002B08D00B4B1B68002B04D0094B1B6898
:10467000FA7D1046984700BF1837BD4680BD00BF81
:104680000829002014290020BC28002034290020FB
:10469000382900200429002080B582B000AF78605E
:1046A0007B681B7802211846FFF764FF00BF0837BC
:1046B000BD4680BD80B584B000AF0346FB710023CA
:1046C000FB600023BB60AE4B1B78002B04D0AC4BCF
:1046D00000221A70FEF7B8FEFB79172B00F2B081AA
:1046E00001A252F823F000BF4947020055470200DB
:1046F00055470200B747020019480200654802000A
:10470000C5480200E3480200F14802000F490200D8
:1047100033490200514902007549020095490200DF
:104720009549020095490200954902009549020009
:10473000ED490200F94902000B4A02001D4A02003D
:10474000354A0200354A0200FEF77EFE8D4AFB79AB
:10475000137076E10020FEF72FFE0346002B0CD0ED
:104760000020FEF75FFEFB79022B02D14FF4E163DC
:1047700001E04FF47A63BB600AE00020FEF740FEE0
:10478000FB79022B01D1C82301E04FF4C873BB6051
:104790007C4AFB7913707C48BB687C4AA2FB0323EC
:1047A0005B097B4A126802FB03F300221946FCF7FF
:1047B00021FBF86045E10020FEF7FEFD0346002BDB
:1047C0000CD00020FEF72EFEFB79032B02D14FF414
:1047D000487301E04FF47A63BB600AE00020FEF703
:1047E0000FFEFB79032B01D1C82301E04FF4C873FE
:1047F000BB60644AFB7913706348BB68634AA2FBE1
:1048000003235B09624A126802FB03F30022194684
:10481000FCF7F0FAF86014E10020FEF7CDFD034646
:10482000002B06D00020FEF7FDFD4FF47A63BB603D
:1048300005E00020FEF7E4FD4FF4C873BB60514A69
:10484000FB7913705048BB68504AA2FB03235B09F5
:104850004F4A126802FB03F300221946FCF7CAFA1A
:10486000F860EEE00020FEF7A7FD0346002B0BD01A
:104870000020FEF7D7FDFB79052B01D1C82301E00D
:104880004FF47A63BB600AE00020FEF7B9FDFB79C4
:10489000052B01D1C82301E04FF4C873BB60394A2E
:1048A000FB7913703848BB68384AA2FB03235B09C5
:1048B000374A126802FB03F300221946FCF79AFA02
:1048C000F860BEE00020FEF7E7FD2E4AFB7913708A
:1048D0002D482F4B1B6800221946FCF78BFAF86015
:1048E000AFE00020FEF78CFD264AFB791370A8E0AC
:1048F000234B01221A700120FEF7CEFD2248244BE3
:104900001B6800221946FCF775FAF86099E01C4B09
:1049100001221A700120FEF7BFFD1B481C4B1A68CC
:1049200013469B00134400221946FCF763FAF86013
:1049300087E0134B01221A700120FEF7ADFD1248EB
:10494000134B1B6800221946FCF754FAF86078E014
:104950000B4B01221A700120FEF79EFD0A480C4BFA
:104960001A6813469B00134400221946FCF742FACA
:10497000F86066E0FEF77CFD024AFB79137060E0A8
:10498000B9280020B8280020C42800201F85EB513A
:10499000BC2800202D4B1846FCF760FAF860FB7924
:1049A000C3F11103BB60BB68002B1BD0FB68002B5D
:1049B00018D1BB68012B11D92448BB68C82202FB5F
:1049C00003F3234AA2FB03235B09224A126802FB7A
:1049D00003F300221946FCF70DFAF8600220FEF7F7
:1049E0000FFD2EE00220FEF71DFD2AE0FEF72CFD54
:1049F000194AFB79137024E0FEF726FD0020FEF72C
:104A0000FFFC154AFB7913701BE0FEF71DFD01202A
:104A1000FEF7F6FC104AFB79137012E0FEF714FD66
:104A20000020FEF7EDFC0120FEF7EAFC0A4AFB79C4
:104A3000137006E0FEF71CFD074AFB79137000E0D7
:104A400000BFFB6818461037BD4680BDE428002033
:104A50001F85EB51BC280020B828002080B582B00B
:104A600000AF7860074B1B6803F00103002B04D0F4
:104A7000054B1B781846FFF71DFE00BF0837BD46E3
:104A800080BD00BFC0280020B828002080B582B0BB
:104A900000AF78600220FEF7FFFC00BF0837BD467C
:104AA00080BD00BF80B584B000AF0346FB7100231A
:104AB000FB60084B1B6803F00103002B04D0FB795B
:104AC0001846FFF7F7FDF860FB6818461037BD463B
:104AD00080BD00BFC028002080B586B000AFF86060
:104AE000B9607A6000237B612B4ABB6813602B4A54
:104AF000FB6813602A4A7B681360FB6803F00203BB
:104B0000002B2BD000233B6108E0012201213869F2
:104B100000F056F878613B6901333B613B69032B38
:104B200002D87B69002BF0D07B69002B07D1BB68D2
:104B30005B081A4604211B48FBF730FA78617B6951
:104B4000002B02D1FBF794FA78617B69002B05D129
:104B5000154A00211548FCF719F97861FB6803F044
:104B60000103002B01D0FEF7A9FC7B69002B05D1C6
:104B70000F4A00210F48FCF709F978617B69002B87
:104B800005D10D4A01210D48FCF700F978617B69D8
:104B900018461837BD4680BDBC280020C02800201C
:104BA0000429002080C40200994602007CC402004F
:104BB0005D4A020074C402008D4A020078C40200FB
:104BC00080B485B000AF78600B46FB701346BB70B5
:104BD0000023FB607B68032B35D8BB78012B09D100
:104BE000FB78012B04D17B68DBB20E33DBB200E033
:104BF0000023BB70FB78012B04D0022B0BD0002BC1
:104C000013D01CE014497A6813465B0013440B442C
:104C1000BA781A7019E010497A6813465B00134499
:104C20000B440133BA781A700FE00B497A681346C7
:104C30005B0013440B440233BA781A7005E0072373
:104C4000FB6000BF01E00723FB60FB6818461437D8
:104C5000BD465DF8047B70470829002080B582B00E
:104C600000AF78607868FEF769FC034603211846B8
:104C7000FFF754FC002318460837BD4680BD00BF2F
:104C800080B582B000AF012200210020FFF798FF1D
:104C900078607B68002B04D07B68072B01D07B6891
:104CA0001CE0072202210120FFF78AFF78607B6861
:104CB000002B04D07B68072B01D07B680EE0042218
:104CC00002210020FFF77CFF78607B68002B04D076
:104CD0007B68072B01D07B6800E00023184608376B
:104CE000BD4680BD80B582B000AF01220221002008
:104CF000FFF766FF78607B68002B04D07B68072B8A
:104D000001D07B681CE0072202210120FFF758FF39
:104D100078607B68002B04D07B68072B01D07B6810
:104D20000EE00A2200210020FFF74AFF78607B682E
:104D3000002B04D07B68072B01D07B6800E00023A8
:104D400018460837BD4680BD80B582B000AF002050
:104D5000FFF784FF78607B68002B04D07B68062B0C
:104D600001D07B680CE00120FFF778FF78607B685A
:104D7000002B04D07B68062B01D07B6800E0002369
:104D800018460837BD4680BD80B584B000AF786056
:104D90007B681B88102B02D0112B18D02FE01A4BE8
:104DA0001B68002B0DD1FFF76BFFF860FB68002B31
