:020000021000EC
:10F0000000000120B9670200E1670200E367020027
:10F01000E5670200E7670200E96702000000000000
:10F02000000000000000000000000000EB6702008C
:10F03000ED67020000000000EF670200F1670200C8
:10F04000C11F0200F367020059290200BD2002001F
:10F05000F3670200F367020065240200897502006D
:10F06000F3670200F3670200F3670200F367020030
:10F07000F3670200F3670200F3670200F367020020
:10F08000F36702009DFC0100F3670200F3670200D2
:10F090006DFD0100F3670200896C0200F367020056
:10F0A000F3670200F3670200F3670200F3670200F0
:10F0B000F3670200F3670200000000000000000098
:10F0C000F3670200F3670200F3670200F3670200D0
:10F0D000F3670200F3670200F3670200000000001C
:10F0E0000000000000000000000000000000000020
:10F0F0000000000000000000000000000000000010
:10F1000000000000000000000000000000000000FF
:10F1100000000000000000000000000000000000EF
:10F4000010B5054C237833B9044B13B10448AFF35E
:10F4100000800123237010BD342300200000000071
:10F42000CC9B0200084B10B51BB108490848AFF34C
:10F4300000800848036803B910BD074B002BFBD0C0
:10F44000BDE81040184700BF00000000382300202E
:10F45000CC9B02002023002000000000154B002B55
:10F4600008BF134B9D46A3F5803A00218B460F46FB
:10F470001348144A121A00F065F80F4B002B00D005
:10F4800098470E4B002B00D0984700200021040025
:10F490000D000D48002802D00C48AFF3008000F0AA
:10F4A0002BF82000290004F0F3FC00F011F800BF55
:10F4B0000000080000000120000000000000000023
:10F4C00034230020642C0020000000000000000015
:10F4D00008B5074B044613B10021AFF30080054B7C
:10F4E0001868836A03B19847204600F033F800BFDC
:10F4F00000000000D88C020070B50E4B0E4CE41AD0
:10F50000A41000251E46A54204D056F82530984781
:10F510000135F8E709F0D4FB084C094BE41AA410B4
:10F5200000251E46A54204D056F8253098470135DF
:10F53000F8E770BD18230020182300201C230020AA
:10F540001823002002440346934202D003F8011B13
:10F55000FAE77047FEE700BFF0B51746C7B01C4694
:10F56000B9B106AE0B68604A30464FF4807108F0BE
:10F5700005FF00280ADB4C9B0546062B00F2B280F3
:10F58000DFE803F012323B4653637500002047B0BA
:10F59000F0BD4C9B062B00F2A380DFE803F0048B48
:10F5A00090957C8186000025384608F021FF43199C
:10F5B000FF2B044640F28D80002CE7DB2C44B4F591
:10F5C000807FE3D80A27002506AE22467119002065
:10F5D00005F0E6FB0544241A08B9013F01D0002CD0
:10F5E000F3D1012047B0F0BDC0F5807123683A46E1
:10F5F000701908F0C3FE0446DEE7C0F5807162684A
:10F600002368009270193A4608F0B8FE0446D3E722
:10F61000C0F58071A2682368646800940192701933
:10F620003A4608F0ABFE0446C6E7C0F58071E268D2
:10F630002368D4F808E0646802928DE810403A46E6
:10F64000701908F09BFE0446B6E7C0F5807120698A
:10F65000E26823680390D4F808E0646802928DE8B9
:10F6600010403A46701908F089FE0446A4E7C0F538
:10F6700080716269206923680492E2680390D4F87B
:10F6800008E0646802928DE810403A46701908F06C
:10F6900075FE044690E74FF48071002506AEC6E77C
:10F6A0004FF48071002506AED1E74FF4807100253C
:10F6B00006AEDEE74FF48071002506AE96E74FF404
:10F6C0008071002506AE9AE74FF48071002506AEE2
:10F6D000A0E706AE39467019224608F043FE6BE7F4
:10F6E00000246FE7002469E7DC8C02002DE9F04F6D
:10F6F0001446C7B01D46002900F02381002B00F0FE
:10F7000004810A2302934FF0000B06AF519B539ADA
:10F71000134420261C4602990BEB0103049331335A
:10F72000FB18039307EB0B031A460193002965D0DE
:10F73000534203F003038B4228BF0B46062900F215
:10F74000DB800B46019907F80B600A46012B02F19A
:10F75000010200F0CF80022B4E7001F1020200F096
:10F76000C980032B8E7001F1030200F0C3800A46AA
:10F77000042BCE7002F1040200F0BC80062B0E7147
:10F7800001F1050240F0BE804E718A1D9846029933
:10F7900099422ED00298C3EB0009A9F1040100F1AF
:10F7A000FF3E8908C3EB0E0E0131BEF1020F4FEA96
:10F7B000810C12D95B444FF0203E012907EB030B6B
:10F7C00047F803E005D00229CBF804E001D0CBF8DC
:10F7D00008E0E1456244E0440BD00299167008F15C
:10F7E00001038B4205D208F102008842567000D214
:10F7F0009670019B029A134401931A46039B059746
:10F8000002F1330A274602F1030B544603F10109C2
:10F81000DDF844A10DE00BF8036C0BF8026C0BF85B
:10F82000016C0BF1030BA34509F8016C09F1010907
:10F830002FD0AF42EFD9AA4556D9509B13F8058077
:10F840000BF8016C4FEA28105FFA80FE092808F0D7
:10F850000F00D4BF0EF1300E0EF1370E092894BF01
:10F86000303037300BF803EC0BF8020C08F05EFD7B
:10F8700040440BF1030B407810F0970F08BF4FF096
:10F880002E08A34509F8018C05F1010509F10109CC
:10F89000CFD1049B039903F1430A019B3C460D22FF
:10F8A0004FF00A0B059F0A7481F811B0A14683F846
:10F8B00030604FF000085446224607EB0801002054
:10F8C00005F06EFA8044241A10B9BBF1010B01D087
:10F8D000002CF1D14D454C464FF0000BFFF41BAF0F
:10F8E000284647B0BDE8F08FCAEB0500529B13F8DD
:10F8F0000080A5E798464AE7002B7FF423AF019AE2
:10F90000984647E74FF0050841E706AF0B68114AF4
:10F9100038464FF4807108F031FD0028E0DB0A23FF
:10F9200006460293204608F063FDC22828BFC22085
:10F93000834602462146B81908F014FD0025B34459
:10F94000E4E61BB902952E4606AFEBE702918B4623
:10F9500006AFDBE6DC8C020070B5074D074E2B7856
:10F9600013B13378834205D0044605F0DFFB012351
:10F9700034702B70002070BD5123002050230020D4
:10F980000048704759F5010000487047EDF6010046
:10F9900038B50120FFF7E0FF044638B9FFF7F0FF64
:10F9A0000546FFF7F1FF024B5D619861204638BDC7
:10F9B0005423002010B5054C82B000230A46646928
:10F9C00000931946A04702B010BD00BF5423002089
:10F9D00030B585B004AB054C43F8042D01250A462B
:10F9E000646900950021A04705B030BD5423002074
:10F9F00030B5064C85B00225029203930A4664692D
:10FA0000009502AB0021A04705B030BD5423002073
:10FA100070B586B0064C0A9E0392032504930A46ED
:10FA200064690596009503AB0021A04706B070BD40
:10FA300054230020F0B587B0074C0C9F0D9E029216
:10FA4000042503930A46646904970596009502AB62
:10FA50000021A04707B0F0BD542300202DE9F84F46
:10FA6000244B1A788AB3DFF890B0DFF89090DFF873
:10FA700090A00024012703E00134E4B2944224D290
:10FA800026B2D9F80050DBF8003015F8360007FA36
:10FA900000FE1EEA030F05EBC608EDD0164A23EA66
:10FAA0000E03136002F0D4FC15F83650DAF800307B
:10FAB00007FA05F6334000FA05F6B34207D00D4BBE
:10FAC00001341A78E4B29442DAD3BDE8F88FD8F85A
:10FAD0000430002BF3D098F80110A1F10101B1FA24
:10FAE00081F14909091AB1FA81F149092846984773
:10FAF000E5E700BF78230020A02300207423002026
:10FB00009C23002070B50646114800F0A3FD40B9C3
:10FB1000104D01242B68B4401C4203D023EA040496
:10FB20002C6070BD304602F093FC0B4A136860B144
:10FB300023432E680949136034432C600448096844
:10FB40000022BDE8704000F02DBD23EA0403F0E779
:10FB50007C230020A02300209C2300207023002071
:10FB6000042A01D8072070472DE9F04182B0884669
:10FB70000546174602F038FB002834D01C4C1D48BF
:10FB80001D491E4A1E4B2560002608F1FF340F60F8
:10FB900080F8008016601E60E4B20327B8F1000F01
:10FBA00003D11AE0DBB2C4B11C4623B205EBC30299
:10FBB00015F833009378134A8DF8053001A98DF8B4
:10FBC00004708DF806608DF8076002F017FB631E65
:10FBD0000028E7D002B0BDE8F0810B4A0B480021B5
:10FBE00000F0CEFCF6E702F0BDFA0028C6D0F1E73F
:10FBF0007423002078230020702300209C23002001
:10FC0000A023002005FB01005DFA0100E48C020046
:10FC100070B5084D2B785BB1074E00243368012185
:10FC200013F8340002F0B2FB2B780134A342F5D86C
:10FC3000002070BD782300207423002000B585B01B
:10FC4000ADF804100292039001AA002144F20100D1
:10FC500000F004F805B05DF804FB00BF10B50B49D7
:10FC600014460120FFF7A6FE224609490120FFF7AE
:10FC7000AFFEBFF34F8F0749074BCA6802F4E0623B
:10FC80001343CB60BFF34F8F00BFFDE7E88C02004A
:10FC9000008D020000ED00E00400FA052DE9F843B4
:10FCA000294A2A4B0025C2F84051C2F84451C2F8F3
:10FCB0004851C2F84C51C2F80051C2F804511B68B7
:10FCC0001BB32349D2F804250C68224F141B1A6871
:10FCD00024F07F44A242A84609D8197CDE69A41A00
:10FCE0001544A1B91EB133461A68A242F5D91A4B80
:10FCF0001A491A780B789A421ED01949194A41F8C4
:10FD000023504FF48013C2F80031BDE8F883D3F8D4
:10FD1000149083F810803A689B694846194642B1AE
:10FD200090470028DED0104A40F24D11FFF786FFC1
:10FD3000D8E71846C847D5E7531CDBB2022B08BFEB
:10FD400000230B70D9E700BF00100140A82300205A
:10FD5000A4230020AC230020B0230020B1230020E6
:10FD6000BC23002000E100E01C8D02002DE9F04FD3
:10FD7000A44AA54913780978A44889B0006800907E
:10FD8000994200F0EB800133DBB2022B08BF002365
:10FD900013709F4A52F82360009B9C4A334423F01F
:10FDA0007F4313604FF0010E9A4B079693F800A023
:10FDB000994BCDF818A0D3F80090964B5B7801933F
:10FDC0001D46944BD3F804B09B7802931C46934B8A
:10FDD0001B7804938D4B00271B68039351464A46BA
:10FDE0004B460597BC4638462646B846A9421AD027
:10FDF00001EB410401311BF83470C9B2B14208BFB4
:10FE00000021022F0BEBC40400F08380032FEDD1FF
:10FE1000002BEBD0DA6918741346002AFAD1A942F4
:10FE20004FF0010CE4D1DDF818A0079E4746BCF165
:10FE3000000F40F0A380059A12B1744A0399116033
:10FE4000002F40F09C82BEF1000F40F0C681B9EB5C
:10FE5000030218BF01220792059375461E466B4A9E
:10FE6000CDF810B0D2F800C06B4ADFF8B891D64692
:10FE7000D2F800A0694A0023127800931F46069228
:10FE80004FF001089B463DB36A68A9682C46ED69AE
:10FE9000CCEB020323F07F434B4572D80B44236025
:10FEA0006760A76084F81080E761002E00F08B8007
:10FEB000316899427ED2304603E01168994269D296
:10FEC0001046C2695B1A002AF7D12360E26133460B
:10FED000C4611E46002DD7D1019B9E4500F0A48031
:10FEE0000EEB4E03049911F83320039210460EF1E5
:10FEF000010E029A5FFA8EFE724508BF4FF0000EA7
:10FF0000012801EBC30364D03346012200921E4650
:10FF1000E0E76468002B3FF469AF9C429A4601D148
:10FF200015E0BA46DAF81C70002F3FF45FAFBC4210
:10FF3000F7D1BA450CD0FC693F68CAF81C40002CC8
:10FF40003FF454AF23683B44236013464EE71F46FB
:10FF5000DA6932B113464FF0010CECE70026B646E1
:10FF600022E72F4B4FF00108C3F80880C446134620
:10FF70000392CDF81080CDF81480DCE726490A60A2
:10FF800059E7C2EB0C0222F07F428A4209D28B1A57
:10FF9000236085E7C91A11602360E2613346C461BA
:10FFA00097E727606760A76084F81080E76156B123
:10FFB00031680023CB1A33602346E661A2464FF036
:10FFC000010B1E4686E72346A2464FF0010B1E4654
:10FFD00080E75C68227C009282B99A686260D96886
:10FFE000A1601869E0605B69A361069B002B00F0CB
:10FFF000F180009A626000932A4649E733461E4624
:020000022000DC
:1000000068E700BFB0230020B1230020A423002014
:10001000BC230020B4230020A8230020B22300200A
:1000200000100140FEFF7F00009B5A46002B40F06D
:10003000AE8112B1824BC3F800A0059BB34200F021
:10004000BF80002E00F00A817E497F4CD1F8040564
:1000500025783368CCEB000222F07F420332002D7A
:1000600050D17A4DDFF8ECE1794F4FF48036C1F88A
:100070004463C1F804634FF40036C5F880612E6014
:1000800001250D60DEF800602F2100BF00BF00BF1A
:1000900000BF00BF00BF00BF00BFBE422FD000BFE7
:1000A00000BF00BF00BF00BF00BF00BF00BF00BF58
:1000B00000BF00BF00BF00BF00BF00BF00BF00BF48
:1000C00000BF00BF00BF00BF00BF00BF00BF00BF38
:1000D00000BF00BF00BF00BF00BF00BF00BF00BF28
:1000E00000BF00BF00BF00BF00BF00BF00BF00BF18
:1000F00000BF00BF00BF00BF00BF00BF00BF01398D
:10010000C3D1257093422CBF9C4494444D492CF09C
:100110007F43C1F84035D1F80425121A1B1A22F08A
:100120007F4223F07F4303329A424DD9D1F8043500
:10013000484AC1F84035126845492F2300BF00BF27
:1001400000BF00BF00BF00BF00BF00BF8A422FD06A
:1001500000BF00BF00BF00BF00BF00BF00BF00BFA7
:1001600000BF00BF00BF00BF00BF00BF00BF00BF97
:1001700000BF00BF00BF00BF00BF00BF00BF00BF87
:1001800000BF00BF00BF00BF00BF00BF00BF00BF77
:1001900000BF00BF00BF00BF00BF00BF00BF00BF67
:1001A00000BF00BF00BF00BF00BF00BF00BF00BF57
:1001B000013BC3D1254B4FF40032C3F8002103E0CB
:1001C000079B002B7FF43DAF234A0023137009B037
:1001D000BDE8F08F039B00935AE6194ADDF800C092
:1001E00017680020054601460446ABB11A68B242C2
:1001F0001BD8D8681C60B61A1144DA6938B10CEB08
:10020000010727F07F47DD6198605F601D46134658
:1002100017467046002BE9D1002840F0BC8000232F
:10022000059301230793059E19E6002840F0AC8052
:10023000921B05931A6001230793059E0FE600BFEA
:10024000A823002000100140C423002000E100E0AA
:100250000024F400A8210020B22300204F4A504B74
:10026000504D51484FF480314FF400370124C3F80A
:100270008070C2F848132F23C2F80813546029680D
:100280001D4600BF00BF00BF00BF00BF00BF00BFD2
:1002900000BF81422FD000BF00BF00BF00BF00BF22
:1002A00000BF00BF00BF00BF00BF00BF00BF00BF56
:1002B00000BF00BF00BF00BF00BF00BF00BF00BF46
:1002C00000BF00BF00BF00BF00BF00BF00BF00BF36
:1002D00000BF00BF00BF00BF00BF00BF00BF00BF26
:1002E00000BF00BF00BF00BF00BF00BF00BF00BF16
:1002F00000BF00BF00BF013DC3D194602B4A166010
:1003000000BF00BF00BF00BF00BF00BF00BF00BFF5
:1003100081422FD000BF00BF00BF00BF00BF00BFA1
:1003200000BF00BF00BF00BF00BF00BF00BF00BFD5
:1003300000BF00BF00BF00BF00BF00BF00BF00BFC5
:1003400000BF00BF00BF00BF00BF00BF00BF00BFB5
:1003500000BF00BF00BF00BF00BF00BF00BF00BFA5
:1003600000BF00BF00BF00BF00BF00BF00BF00BF95
:1003700000BF00BF013BC3D10D4B1E7024E70D4AE7
:100380009DF8101011705EE50B490F6050E70B4BA4
:1003900083F800E04DE6084B1F6040E70010014085
:1003A00000E100E0A82100200024F400A4230020A4
:1003B000C4230020B2230020A8230020B42300205F
:1003C0002DE9F04712F0030402D00720BDE8F087C2
:1003D000002AFAD05F4D604EDFF88891DFF888C1BF
:1003E0004FF4803E4FF400374FF00108C6F880709C
:1003F000C5F848E32F27C5F808E3C5F80480D9F805
:1004000000E0B94600BF00BF00BF00BF00BF00BF93
:1004100000BF00BFE6452FD000BF00BF00BF00BF38
:1004200000BF00BF00BF00BF00BF00BF00BF00BFD4
:1004300000BF00BF00BF00BF00BF00BF00BF00BFC4
:1004400000BF00BF00BF00BF00BF00BF00BF00BFB4
:1004500000BF00BF00BF00BF00BF00BF00BF00BFA4
:1004600000BF00BF00BF00BF00BF00BF00BF00BF94
:1004700000BF00BF00BF00BFB9F10109C2D1C5F87C
:10048000088000BF00BF00BF00BF00BF00BF00BFAB
:1004900000BFE6452FD000BF00BF00BF00BF00BFB8
:1004A00000BF00BF00BF00BF00BF00BF00BF00BF54
:1004B00000BF00BF00BF00BF00BF00BF00BF00BF44
:1004C00000BF00BF00BF00BF00BF00BF00BF00BF34
:1004D00000BF00BF00BF00BF00BF00BF00BF00BF24
:1004E00000BF00BF00BF00BF00BF00BF00BF00BF14
:1004F00000BF00BF00BF013FC3D1DFF870E0DFF8ED
:1005000070A0164FDFF86C90DFF86C80DFF86CC0DD
:100510008EF80040CAF800304FF4801EE023B97016
:100520003C707C70C9F8004088F800408CF80040AE
:100530000B49C6F880E186F81433C6F800E0C5F828
:10054000080586F81133D5F804350B607A6020462B
:10055000BDE8F0870010014000E100E0B423002076
:10056000A4230020A82100200024F400C42300209C
:10057000AC230020A8230020B0230020B1230020BA
:10058000074B5B6823B12AB120B10368187C18B10E
:10059000082070470720704759745A61704700BFA0
:1005A000B42300202DE9F043274C636883B033B1B6
:1005B00028B1042907D8072003B0BDE8F08308203C
:1005C00003B0BDE8F0834369002BF8D0054602A8CC
:1005D0006B7C0026012B00F8016D0CBF8946B146EB
:1005E00090460F4600F074F86378A07821785A1C82
:1005F000D2B2904208BF324691421FD003EB430370
:100600006068DB00C11819D04FF0010E00F803E05C
:100610000E4B4D60D3F804358B609DF80700CF601A
:10062000C1F81090C1F81480627000F079F8084B9E
:100630004FF480123046C3F80021C1E79DF807004F
:1006400000F06EF80420BBE7B42300200010014046
:1006500000E100E0F0B51C4E736883B053B348B3BB
:1006600043693BB3054602A8002400F8014D2C74F1
:1006700000F02EF87378B07831785A1CD2B29042DC
:1006800008BF2246914218D003EB43037168DB0098
:10069000CF1812D00220C8547D609DF807007270F8
:1006A00000F03EF8094B4FF480122046C3F80021B9
:1006B00003B0F0BD082003B0F0BD9DF8070000F0C6
:1006C0002FF80420F7E700BFB423002000E100E08A
:1006D000F0B4EFF3108472B60E4B9A68B2B90E49BB
:1006E00001259D60D1F880700C4D2E463D401D6067
:1006F000C1F88060D1F884505D604FF0FF33C1F8DD
:100700008430027004B962B6F0BC704701230370F4
:10071000F8E700BFCC2B002000E100E0FC06FFBCA6
:10072000094B9A6872B168B910B4EFF3108272B6CF
:1007300006491C680C605C684C60986002B962B63F
:100740005DF8044B704700BFCC2B002000E100E0B7
:10075000F0B52B4C2B4F6368668883B0002B48D0D4
:1007600036015A88B9190332496803EB820201F550
:100770008050824225D21368013318BF4FF6FF75AF
:100780001FD09388AB4213D013888BB162601E4890
:100790005388868801681D480025033300959BB265
:1007A00001EB86010325257001F05AF903B0F0BD75
:1007B0005388033302EB8302824202D2136801336F
:1007C000DFD13E44B38963B10F4D10482968022739
:1007D000052600230122AF80267001F099F903B0AD
:1007E000F0BD0122094801F093F90423237003B0FE
:1007F000F0BD3601BB19596801F10802B7E700BF27
:100800002424002014240020B824002024230020C5
:1008100070B443681BB1254A1468A34228D2244B04
:1008200000220A805C684FF6FF7504F1080304F5A6
:1008300080540FE01A6801320ED09A88AA4205D07F
:100840001A881AB19E68026896420AD05A88033202
:1008500003EB8203A342EDD301230B80002070BC85
:100860007047144A43601389038170BC01207047AC
:1008700052689342D3D813F00302D0D10D4C0589AE
:100880002489A542CBD105689C68A542C7D10848F8
:100890004068834203D900F58050834202D310465A
:1008A00070BC70470A800120D9E700BF24230020D4
:1008B0001424002024240020F0B59C88002C3BD177
:1008C000204F3C78002C35D11C684FF6FF76002C69
:1008D00034D0B4F802E07D680EF1030E04EB8E0410
:1008E00005F5805EA64523D92568013520D0A58869
:1008F000B54217D02588ADB11C6020B1B4F804E032
:100900000588AE45E3D121B1B4F800E00D88AE45CD
:10091000DDD1A168116019680B4B51601B891381EF
:100920000020F0BD6588033504EB85047445DBD3F6
:1009300000221A6001229A800A20F0BD7D6805F12C
:100940000804CDE714240020242400202DE9F04FD2
:10095000B04C256FEF007E1BB6008BB0A25D531E1E
:10096000804604EB060BA146052B00F2C982DFE8A6
:1009700003F06748481E1E03002840F0D780DFF8C8
:10098000B0E29EF80B30002B00F0EC829EF80030B5
:100990008EF80B00013B062B00F2B182DFE813F06A
:1009A000B202820289016901AF029D028D02002814
:1009B00040F0BD80C5EB070A04EB8A03029393F86D
:1009C00004A0BAF1010F00F02783C0F01183BAF13F
:1009D000020F41F61D5318BF0F2341F61D518B42E4
:1009E00000F0AB8019F8061006938B1E012B40F225
:1009F000D780013A052A34D8DFE802F08D91766776
:100A00005A307B1B04EB83038349B3F812A001EB3C
:100A10000A1A002840F09480BAF80800DAF80410A6
:100A20001B7C01EB80010291062B00F26A83DFE858
:100A300013F05801A3018401EC01D601C401C101E6
:100A4000002840F08D809BF80430032B00F25B837C
:100A5000DFE813F002018E00F200B00005238DF8EC
:100A600014306E4D05F1200655F8043F0BB105A872
:100A70009847AE42F8D1206F664DC0EBC00004EB42
:100A800080001C220021FEF75DFD636F43B12A6FD9
:100A90000132013B02F003026B672A67002B79D118
:100AA0005F4A137823F0040313700BB0BDE8F08F96
:100AB0007B1B04EB83030422DB88ADF8203000238A
:100AC0008DF81420ADF82230CBE77B1B04EB8303B9
:100AD0000322D8881989DB680793ADF82000ADF8A8
:100AE00022108DF81420BCE77B1B04EB830302214A
:100AF0001A7C1E899D88D868ADF82060A2F1060393
:100B0000B3FA83F35B098DF82430ADF822500790D7
:100B10008DF81410A5E700238DF81430A1E77B1B96
:100B200004EB8303012218899988D4E70622012364
:100B300041F61D518B427FF455AF0023069358E7D1
:100B4000D888BAF80A30BAF8081000F1030E1B1A58
:100B5000033B7144AAF80A30AAF8081001233CE7C5
:100B60002F490B78012223F001030B70134634E761
:100B7000DFF8A48098F80030022B00F06582284A44
:100B8000137843F0020323F001031370012241F6AE
:100B90001D5322E70020FFF7D9FE0BB0BDE8F08F10
:100BA000204B9BF81660186C596C3044891B1864F4
:100BB00059641EE7DFF87C801B4AD8F800101B48F8
:100BC0004FF0000A0223CDF800A000F049FF184BB7
:100BD00011495B88D8F800E08BF804A01B01CA1803
:100BE00001F803A05368B8F80410C8F800300223D5
:100BF000C2F804E01181A8F8043000283FF455AF92
:100C00007B1B14F8232006490B7823F001030B709B
:100C10000E23E2E63024002014240020C824002003
:100C2000C0240020C8230020608D0200242300205F
:100C300024240020B8240020DFF80483BF48D8F81B
:100C400000100023012200F063FF02220023A8F815
:100C500004208BF80430D0E7B94BBA4A1968B7487A
:100C600000230093022300F0FBFE01238BF80430E5
:100C7000C3E7B54BBEF80220DFF8E08203EB0212B7
:100C80009389002B00F01282AD4BAC481968022208
:100C90009A800522002388F80020012200F038FF06
:100CA0000346002B3FF401AF1C2202FB05F2A25CBD
:100CB00098E6A349DEF80420B1F804C00968538817
:100CC0009E4801EB8C014FF0000CCDF800C00333BF
:100CD0004FF0030C9BB28EF800C000F0C1FE03463B
:100CE000DFE77B1B9B0004EB0308039300230093C7
:100CF00002999248012308F1040200F0B1FE022398
:100D000088F8103000283FF4D0AE039B8F4AD25CA5
:100D10000E23781B04EB8000BAF80A10B0F806E046
:100D2000BAF808000EF1030CCEEB01016044033960
:100D3000AAF80800AAF80A104FE6C5EB07084FEA20
:100D4000880802997D48002304EB080208310C3220
:100D50000093012300F084FE04EB08037B499A7D95
:100D6000002A0CBF012203221A7400283FF49DAE12
:100D700011F808200E23CCE7C5EB07084FEA8808D6
:100D800002996E4804EB08031A46002304310292CC
:100D900000930832012300F063FE14F80820029942
:100DA000032A0CBF052306230B7400283FF47DAEF5
:100DB0000E23AEE741F61D53ABE7654B654A596814
:100DC0005E4800230093012300F04AFE002840F013
:100DD00066817D1B04EB85040623237465E67B1B7B
:100DE0004FEA830804EB0802594B92691A601846CF
:100DF000002205A95A60FFF70BFD00287FF471AFB0
:100E0000524B13F808200A23E7E5DFF854E1DEF837
:100E100044C0BCF1000F00F01481DEF840104748D8
:100E20005EF83120C5EB070804EB88080EEBC10320
:100E300001310CF1FF3C01F00701CEF84010CEF873
:100E400044C00299B8F814E0039301EB8E014FF00F
:100E5000000E9B88CDF800E000F002FE039A98F89F
:100E60001630B8F814109288013B0A44DBB2A8F897
:100E7000142088F8163013B9012388F810300028A0
:100E80003FF413AE7A1B0E2314F8222041E72C4ABC
:100E9000DEF80410938849880B44033302219380C1
:100EA0008EF80010FFF754FC0346002B3FF4FDAD15
:100EB0001C2202FB05F2A25C8FE5214B214A196836
:100EC0001E4800230093CEF8043007238EF800302C
:100ED000022300F0C5FD0346E3E6BEF802301A4ADD
:100EE0001B011344062000225968009202238EF849
:100EF0000000194A114800F0B3FD0346D1E606226E
:100F00000F236AE59EF80A3053B10F4A13499389BB
:100F100000208EF80A001BB9927B002A40F0EC807A
:100F20007A1B00238EF80030AEF80230CEF8043081
:100F300014F8222041F61D534FE500BF2423002062
:100F4000B8240020588D02001424002030240020F2
:100F5000A8240020688D0200608D02002424002057
:100F6000C82300209EF80030072B3FF613AD01A2E6
:100F700052F823F0CB0F02009509020095090200F8
:100F80008F0E0200A10F0200BB0E0200BB0E02007A
:100F9000950F020001238EF800309EF80A30B3E767
:100FA000BEF80230594A5A481B0102EB030C016893
:100FB000DCF804A0B0F80480CCF804100221C0F8DA
:100FC00000A0ACF8088081808BE7504BBEF8082069
:100FD0001B780132B3FA83F35B090021AEF80820D5
:100FE00001228EF80A308EF80B108EF800208BE765
:100FF000DB68CDF8188005A80DF11201CDF81C8032
:101000000593FFF705FC00285AD10A237A1B04EB4D
:1010100082020221117144E63E4B1B789B0720D4CB
:101020000223082200213C480293FEF78BFA029B20
:101030000A2B7FF43AAF7A1B41F61D5314F8222095
:10104000CBE4DCF80030FFDE4FF0000AD8F80410E3
:10105000324A3348CDF800A000F002FD88F800A025
:10106000CBE502982C4B063005AA4146FFF724FC3D
:1010700003460028D5D153462A4A0699CDF8008068
:10108000274800F0EDFC244A204B928803EB021223
:1010900000280CBF43460E2382F80EA0C8E77B1B36
:1010A0009B00E1180620E25C087481E651681C4848
:1010B000012200F02DFD0422034688F80020F0E50F
:1010C000069902988B88C380B1F800E0154ACDF8E4
:1010D00000800123A0F808E0114800F0C1FC0B4B90
:1010E000BDF8122003EB021200284FF0010114BFDB
:1010F0000E230023917389E74B80FFF729FB0346FA
:10110000D3E60F2305E601227DE500BF142400206D
:10111000B8240020C0240020C4240020608D0200D8
:1011200024230020688D02000846FFF70FBC00BF93
:101130002DE9F04F0F894C6885B006463D46002FDB
:1011400000F0AE80206810F0030040F095809E46CD
:1011500004E054F830309B0740F08E800130874225
:10116000F7D17346002A00F08B80B2F800C0528895
:101170000094BB465D48DFF888810768D8F8749012
:10118000032B07F10107076003BF306803904FF09E
:10119000040A4FF0000AB9F1030F60D8DFF850E1FC
:1011A000DEF844000446C5F108008442019456D894
:1011B000D8F870000C884988029109EB000101F011
:1011C0000301C1EBC101890008EB010008F80130FF
:1011D000C280039A826109F101090023BDF8081059
:1011E00081804FF003020481C76080F810A0A0F84E
:1011F00012C080F816B082824381C8F87490E5B1BD
:10120000DEF84020019C144404F00702009C0EEB21
:10121000C2020EF1380804EBC30103C9013302F125
:10122000080C82E80300424514BF624672469D42A4
:101230002F49F0D14B6C2B444B6436B100232D4A1F
:10124000376073601289B37232812B490B7803F0D7
:10125000040202F0FF04002A36D0002009E0274BE8
:1012600003EB0C1C0820BCF80A30033B9A1AACF8BC
:101270000A2005B0BDE8F08F032005B0BDE8F08F6F
:1012800004EBC70EA08808340244A64592B2F9D1F7
:10129000D71CBFB240F2FD30874205D90920E8E7EC
:1012A000002A7FF462AF0327144C257845B9B4F8BF
:1012B0000AE020897044384480B2B0F5806F0BD3C7
:1012C000072005B0BDE8F08F43F0040320460B7003
:1012D000FFF73CFB2046CCE777446781B1F808B0C4
:1012E00048680090AC465D4644E700BF10240020EB
:1012F000C823002024240020C0240020142400201F
:1013000030240020074A1378082B09D010B4591C48
:10131000054C117044F8230000205DF8044B704721
:101320000C207047B4240020CC2400202DE9F04F7D
:101330009F4C8BB022780023069305930793089364
:10134000099393070DD59B4C04F1200554F8043FF5
:1013500005A803B19847A542F8D100200BB0BDE81D
:10136000F08F12F00106F8D142F00102227000F075
:101370001BFB914B914A1B68D2F800E0029603F5E3
:10138000FF5A03F1080803F580500AF11C0A043BD8
:101390000096B3464FF6FF755A68894F191DBA4239
:1013A000019124D003F5805202E0934200F01481B1
:1013B00053F8047F0137F8D04FEA0B13814F032114
:1013C0000BF1010BF9541FFA8BFB924508F580587D
:1013D00000F580501346DFD1002E40F02481009BA1
:1013E00013F0FF037DD10B200BB0BDE8F08F9A689E
:1013F000754FBA4235D00137BA42D3D1029A002A8A
:101400007CD1724F1A1D4FF0020C3A60A7F804C04D
:10141000DA680132414604D103E10A68B2F1FF3FC4
:1014200014D08A88AA4206D00A8822B18A687245F6
:1014300001D9964601264A880332944401EB820181
:101440001FFA8CFC8842A7F804C0E6D8BCF1020F52
:1014500014BF0822042200991143009103F5805221
:10146000B3E758494FEA0B1201EB020C4FF00009A9
:1014700001F80290019202271A1DCCF80420ACF862
:101480000870D9680131424612D11AE0916871455D
:1014900001D98E460126518803310F4402EB8102A7
:1014A000BFB29042ACF808700BD91168013108D076
:1014B0009188A94202D011880029E7D14FF0010993
:1014C000E9E7019A3F490A440BF1010B82F80E90BB
:1014D000009A42F0020200921FFA8BFB03F5805241
:1014E00073E7062B1FD0013B0A2B2FD8DFE803F050
:1014F0002C2E2C2E592E592E565C5600314A33492B
:101500004FEA0B1702EB07094FF0020C0BF1010B2E
:10151000096802F807C0C9F804102C4FA9F808C0E0
:101520001FFA8BFB6EE72378224D43F0020323F072
:101530000103237005F1200455F8043F05A803B109
:101540009847AC42F8D108E700230393204A516F33
:10155000032912D81F4B5B6C082B0ED8136F0B445A
:1015600003F00303C3EBC3039B00D0180125D5543C
:1015700001319DF80C300371516723780C4903F059
:10158000040202F0FF04002A7FF4E7AE43F00403F4
:1015900020460B70FFF7DAF92046DFE603230393BA
:1015A000D4E701230393D1E702230393CEE700BFDF
:1015B000C0240020C8240020242300201024002060
:1015C000DEC0ADDE14240020FE011EF1B824002090
:1015D00030240020C8230020154B01911B68C3B1A3
:1015E00014494FEA0B1301EB030C1349A1F802B0A5
:1015F0000199CCF804100F4902270BF10109CF54CF
:101600001FFA89FBACF80870009B43F001030093BC
:10161000DBE60F46064902238B8001230F6002930D
:10162000F2E7042217E7054BC3F800E0D7E600BF56
:10163000B82400201424002024240020102400209A
:1016400060B159B130B583B00C460DF106010546C5
:10165000FFF7DEF820B90A2003B030BD052070473F
:10166000BDF80620074B686803EB021301219A8935
:101670000A449A8120606B6800200C336360A97271
:1016800003B030BD1424002050B110B582B00DF16C
:1016900006010446FFF7BCF820B90A2002B010BDCD
:1016A00005207047BDF80620084B03EB02139A890A
:1016B00012B9062002B010BDA17A0029F9D000218C
:1016C000013A9A810846A172E8E700BF142400207D
:1016D0000D4B1B789B0701D40220704759B110B401
:1016E0000C884FF6FF739C4201D04B882BB9042025
:1016F0005DF8044B704705207047022300225DF817
:10170000044BFFF715BD00BFC0240020F8B5184AF0
:101710001378990701D40220F8BD30B3154C656FDA
:10172000032D20D81449496C08291CD8216F07685B
:10173000294401F00301C1EBC101890066180420AE
:1017400060540135002003F00401F760307101F0AE
:10175000FF06656741B943F0040330461370FFF795
:10176000F5F83046F8BD0820F8BD0520F8BD00BFEB
:10177000C024002030240020C8230020F8B51A4AD5
:101780001378990701D40220F8BD4FF6FF71884203
:101790001DD0164D6C6F032C1BD81549496C0829B8
:1017A00017D8296F214401F00301C1EBC101890061
:1017B0006F18661C05246C54012403F004013C716D
:1017C000F88001F0FF046E6729B10020F8BD042005
:1017D000F8BD0820F8BD43F0040320461370FFF75E
:1017E000B5F82046F8BD00BFC024002030240020FA
:1017F000C8230020F8B5174A1378990701D40220AE
:10180000F8BD1548416F03291AD8144C646C082C94
:1018100016D8046F124D0C4404F00304C4EBC40446
:101820002E780131062700F8247041670EB101219E
:10183000E97203F0040101F0FF0419B10020F8BDC2
:101840000820F8BD43F0040320461370FFF77EF82C
:101850002046F8BDC024002030240020C8230020EA
:101860002424002010B50C4C82B0ADF8060020787E
:10187000ADF80410810702D4022002B010BD3AB1C5
:1018800033B101A90DF10600FFF716F802B010BD43
:10189000052002B010BD00BFC024002029DF704722
:1018A00028DF704770B50C4D696E042911D02B6E7E
:1018B0000B44032B88BF043B182202FB035406464B
:1018C0004B1C204600216B66FDF73CFE3460012076
:1018D00070BD002070BD00BFF024002070B5304CFA
:1018E000636E84B07BB1256E6E00731904EBC30385
:1018F0001A7A012A09D0022A26D19889FFF7D0FF47
:10190000112818D000BB04B070BD70199A8ADB8A08
:1019100004EBC000D21AC1680069B2F5806F4FEACB
:101920008303B4BF92B24FF4806219441844FFF7A6
:10193000B5FF1128E6D11B4A137823F0020343F0C8
:101940000403137004B070BD102268460021FDF737
:10195000F9FD731904EBC3031A7A012A17D0022A7E
:1019600009D19A89DB89ADF80A20D21A0123ADF892
:1019700008208DF800303544ED0062196359526833
:10198000019268469B680921984704B070BD1A69A6
:101990009B8A029200218DF80010ADF80C30EAE726
:1019A000F0240020EC2400202DE9F0434FF0102318
:1019B0005D696B1C49D0DFF8A48098F800C01CF06A
:1019C000010F3FD1DFF890E02248CEEB0000000984
:1019D00034D00EEB0011734607461A6812B15A68EC
:1019E00002B1013F10338B42F7D13FB300260022F2
:1019F000194B9146F4B206E0596839B10132904270
:101A000003F110030ED019680029F5D1597B49451F
:101A100088BFD4B202F1010288BF8946904203F127
:101A20001003F0D1240104EB0E0301361A7B5D6034
:101A3000B742A5EB023544F80E50D8D14CF0010C5A
:101A400088F800C00020BDE8F0834FF080535D6946
:101A50002D03B0E73423002024230020EC240020B1
:101A60002DE9F041274C2578EE0782B012D510B150
:101A7000254DA84203D2022002B0BDE8F081234DDB
:101A8000A842F8D252B149B142EA0105AD0707D0E8
:101A90000620F1E7012002B0BDE8F0810320EBE76A
:101AA0000568A94201D20520E6E7466801EB8305F7
:101AB000AE42F8D30BB90420DEE7804601A81E46EB
:101AC00015460F46FFF7EEFE08B90720D4E7019947
:101AD0002378C1F80080019A0898486013F0060442
:101AE0004FF00101D560176196821172054A01D04D
:101AF0000020C1E743F002031370FFF7EFFE20461A
:101B0000BAE700BFEC240020242300203423002067
:101B10002DE9F041244C2578ED0782B010D510B1A5
:101B2000224DA84203D2022002B0BDE8F081204D30
:101B3000A842F8D241B1C1F30B053DB10620F3E74D
:101B4000012002B0BDE8F0810320EDE70568A9425D
:101B500001D20520E8E7466801EB0235AE42F8D332
:101B60000AB90420E0E7804601A81E4615460F4644
:101B7000FFF798FE08B90720D6E701992378C1F846
:101B80000080019A4E600220390B13F00604918107
:101B900015821072044A01D00020C5E70343137078
:101BA000FFF79CFE2046BFE7EC2400202423002002
:101BB0003423002020B1034B5B6E0360002070478C
:101BC00003207047F02400202DE9F047DFF8B082B1
:101BD000A94C98F80030266E990784B079D5022870
:101BE00000F0B680032840F0AF80A44D2B7801337D
:101BF000DBB2032B2B7040F2A780002710222F703E
:101C0000394668467500FDF79DFCAB1904EBC3032C
:101C1000E9461A7A012A00F0E180022A09D19A895C
:101C2000DB89ADF80A20D21A0123ADF808208DF81F
:101C300000303544ED0062196359526801929B6887
:101C40008D4F484608219847636E013B6366002B21
:101C500040F0FD803A6E98F80010013221F0020148
:101C6000042A88F800103A6630D1002626666BB345
:101C70007500AB1904EBC303AA1904EBC202117A75
:101C800001293DD002297FD0102268460021FDF7AE
:101C900059FCAB1904EBC303E9461A7A012A7ED03A
:101CA000022A09D19A89DB89ADF80A20D21A0123C8
:101CB000ADF808208DF800303544ED006219635905
:101CC0005268019248469B680921984704B0BDE8D4
:101CD000F0875A0738D5626E03F0FB0388F80030AE
:101CE000002AF3D0750043F00203AA1988F80030E7
:101CF00004EBC203AA1904EBC202117A0129C1D173
:101D0000D38AAA1904EBC202A819928A04EBC00074
:101D1000D21AC1680069B2F5806F4FEA8303B4BF7D
:101D200092B24FF4806219441844FFF7B7FD1128AE
:101D30002FD198F8003023F0020343F0040388F811
:101D4000003004B0BDE8F087636E002B90D1BDE792
:101D50007500AB1904EBC307484A3B7A4FF0000A01
:101D6000012B82F800A023D0022BEDD1FB89BA8988
:101D7000398A01339BB201329942FB81BA8155D035
:101D8000636E002BA2D03B469889FFF789FD11288E
:101D9000CFD000287FF478AF04B0BDE8F0871A698F
:101DA0009B8A029200218DF80010ADF80C3083E779
:101DB000FB8AB88AC21AB2F5806FB4BF92B24FF4F0
:101DC00080621344A9199BB204EBC1079842FB82BD
:101DD000294A0BD0526E002A93D177E71A699B8A61
:101DE0008DF800700292ADF80C3022E768461022A0
:101DF0000021FDF7A7FB3B7A012BE94632D0022BED
:101E000009D1FA89BB89ADF80A309B1A0122ADF8D5
:101E100008308DF80020AB19DB00E218E358526857
:101E2000019248469B68144F00210CE76846102237
:101E30005146FDF787FB3B7A012BE946DFD13A6932
:101E4000BB8A8DF800A00292ADF80C30E3E73E6E3D
:101E50000136042E3E663FF408AF7500AB1907EB60
:101E6000C30309E73A69BB8AADF80C3000218DF84D
:101E700000100292CFE700BFF02400205825002078
:101E8000EC240020064A4FF0A043105CD3F8043540
:101E900023FA00F000F0010080F00100704700BF5D
:101EA000708D0200044B195C4FF0A04201238B405F
:101EB000C2F80C35704700BF708D0200044B195CEE
:101EC0004FF0A04201238B40C2F80835704700BF95
:101ED000708D02004FF0A04310B44FF480204FF4F7
:101EE00000344FF400214FF48012C3F80845C3F8C2
:101EF0000805C3F80815C3F808255DF8044B7047BA
:101F00004FF0A04310B44FF480204FF400344FF44E
:101F100000214FF48012C3F80C45C3F80C05C3F838
:101F20000C15C3F80C255DF8044B7047084B4FF0B7
:101F3000A0411B5CD1F80405012202FA03F323EA55
:101F400000020340C1F80825C1F80C35704700BFF6
:101F5000708D020030B44FF0A04303224FF40035DF
:101F60004FF480244FF400204FF48011C3F844272D
:101F7000C3F84827C3F84C27C3F85027C3F80855BF
:101F8000C3F80845C3F80805C3F8081530BC704706
:101F90000D2809D00E2809D00F2809D010280CBF11
:101FA00003204FF0FF30704700207047012070473A
:101FB00002207047014B185C704700BF6C8D020017
:101FC00010B51A4B1A6882B0A2B100221A601B68C1
:101FD00000934FF080430122154C0099C3F8082369
:101FE000A368627033B10CCB0020A2609847A3684D
:101FF000002BF8D10F4B1A68AAB100221A601B6897
:1020000001934FF080430222094C0199C3F8082341
:1020100023690122A27033B10CCB012022619847C1
:102020002369002BF8D102B010BD00BF00010040B1
:102030005C2500200401004058B910B5054CA36888
:1020400033B10CCB0020A2609847A368002BF8D1D5
:1020500010BD70475C25002010B582B002A8002397
:10206000144C00F8013DFEF733FB237893B9124A74
:102070006360E3601068A36010F00100236114D076
:1020800004F09EFD20B94FF080430122C3F81825CB
:1020900001232370E3689DF8070001330122E36008
:1020A000A270FEF73DFB02B010BD072100F032F830
:1020B000E6E700BF5C25002000E100E0014B1B6863
:1020C000184700BF70250020104B984201D0072010
:1020D000704770B582B002A800230D4E00F8013D94
:1020E0000D46FEF7F5FA34794CB901239DF8070047
:1020F0003371FEF715FB3560204602B070BD9DF8C8
:102100000700FEF70DFB1120F7E700BF003000408D
:1021100070250020002810B418DB00F1604303F59F
:1021200061434901C9B283F80013C3B2400980007A
:1021300000F1604000F5614003F01F02012393406D
:10214000C0F8803103605DF8044B7047C3B2044AA5
:1021500003F00F0449012244C9B21176E6E700BF3B
:10216000FCEC00E030B51D4C94F8545083B015B130
:10217000082003B030BD4FF0FF33FF2207210620B7
:1021800023636363A363E36323646364A364E3641B
:1021900023606360A360E36023616361A361E36123
:1021A000236284F850306362A36284F85230E362A1
:1021B00084F8533084F85120FFF7ACFF084B094AEC
:1021C0001D601B68019301984FF0004301212846D0
:1021D00084F85410C2F8043303B030BD78250020D1
:1021E0007C61004000600040034B93F854000030D5
:1021F00018BF0120704700BF78250020F0B5624C61
:10220000251895F93030002B01DB0820F0BD91F83E
:1022100003E09446BEF1000F56D02368013300F06E
:10222000A380002508266B1C574F54F82320013249
:1022300051D0AB1C9E4245D957F8232001324AD0D9
:10224000EB1C9E423ED957F82320013243D02B1D70
:102250009E4237D957F8232001323CD06B1D9E4255
:1022600030D957F82370013735D0AB1D9E4229D99C
:1022700054F82320444F01322DD0EB1D9E4221D92A
:1022800057F82320013226D005F108039E4219D9C0
:1022900057F8232001321ED005F109039E4211D9BF
:1022A00057F82320013216D005F10A039E4209D9BE
:1022B00057F8237001370ED00B35AE4202D9E36ACE
:1022C000013307D00420F0BD236A013353D0082521
:1022D0000C26A8E70B2326185DB244F823C086F825
:1022E0003050BEF1000F02D1234483F848008B78B0
:1022F000A3B94A784FF0A04600F5E073920046F883
:102300002320CB78A3B9083D2C44097894F85020B9
:1023100042EA811284F850201846F0BD830003F190
:10232000A043D3F8002722F00202C3F80027E8E711
:10233000AB0003F1804303F5C0430A78D3F81015CE
:1023400021F4473121F44071C3F810151204000242
:1023500002F44031D3F8104500F4F8520A43224306
:10236000C3F810250020F0BD002385F83030C4F8F4
:1023700000C01D46BBE7082685F830603346C4F828
:1023800020C03546B0E700BF78250020F0B42E4DC0
:102390002E1882B096F93030072B1CDD2B4493F8B1
:1023A00048309B09032B41D0012B14BF4FF440331D
:1023B0004FF40033800000F1A040D0F8002722F451
:1023C0004032C0F80027D0F800271343C0F8003788
:1023D00002B0F0BC7047DAB2072AF9D8980000F1D1
:1023E000804000F5C04003F140029200D0F8104553
:1023F00092B202F18042002744F0010402F5C0428B
:10240000C0F810450197019817600029E0D096F9AF
:10241000302055F82220002ADAD001220B4902FA96
:1024200003F3C1F8043302B0F0BC70474FF0A0438F
:10243000D3F81035C34013F0010F0CBF4FF4003335
:102440004FF44033B6E700BF78250020006000401D
:102450004FF0A043D3F8103523FA00F000F001004C
:10246000704700BF2DE9F04387B00026C94B0196A5
:102470001A68012A00F00482C74B1A68012A00F08A
:10248000F181C64B1A68012A00F0DE81C44B1A683C
:10249000012A00F0CB81C34B1A68012A00F0B881F1
:1024A000C14B1A68012A00F0A581C04B1A68012AA5
:1024B00000F09281BE4B1A68012A00F07F81BD4B6B
:1024C0001A68012A00F0598116F0FF0F1AD0BA4F8E
:1024D00001250024A30003F180432E4203F5C043ED
:1024E0004FEA45050BD0D3F8100557F82420D3F850
:1024F0001015C0F30420C1F3014102B1904701342B
:10250000082CE7D1002E02DB07B0BDE8F083AA4C0F
:1025100000224FF0FF3327460292039301260DF16C
:10252000080894F950104D1C2DD0C9B221F0C000FC
:1025300006AB4FEAD00E03EB0E0201F0070312F8D0
:102540000CCC06FA03F31CEA030F1CD03D188909D2
:1025500095F9305057F82590B9F1000F00F0E88058
:10256000032900F0E8804FEA800E0EF1A04E12F829
:10257000145CDEF800271D40C2F3014240F0B58034
:10258000032A00F0A281002594F95110481C2FD095
:10259000C9B221F0C00006AB4FEAD00E03EB0E0229
:1025A00001F0070312F80CCC06FA03F31CEA030F40
:1025B0001ED007EB000C89099CF930C057F82C900D
:1025C000B9F1000F00F0C680032900F0C6804FEA81
:1025D000800E0EF1A04E12F814CCDEF800271CEA93
:1025E000030FC2F3014240F08D80032A00F0928174
:1025F00094F952104A1C2ED0C9B221F0C00006AB8B
:102600004FEAD00E03EB0E0201F0070312F80CCCD8
:1026100006FA03F31CEA030F1DD007EB000C89092F
:102620009CF930C057F82C90B9F1000F00F0898068
:10263000032900F088804FEA800E0EF1A04E12F8B8
:1026400014CCDEF800271CEA030FC2F3014265D167
:10265000032A00F04C8194F953104B1C2CD0C9B2C2
:1026600021F0C00006AB4FEAD00E03EB0E0201F0E2
:10267000070312F80CCC06FA03F31CEA030F1BD075
:1026800007EB000C89099CF930C057F82C90B9F180
:10269000000F69D0032969D04FEA800E0EF1A04ED9
:1026A00012F814CCDEF800271CEA030FC2F3014233
:1026B00011D1032A00F0F080002D3FF425AF4FF038
:1026C000A043019AD3F8103593423FF41DAF029A0C
:1026D0000193039225E7022AEED1032900F02D8110
:1026E000B9F1000FE8D0C847E6E7022A7FF44BAF04
:1026F000032900F02B810025B9F1000F3FF444AF0E
:10270000C84741E7022A7FF473AF032900F018811C
:10271000B9F1000F3FF46CAFC84769E7022A9AD1BC
:10272000032900F01081B9F1000F94D0C84792E757
:1027300003297FF428AF18F80E501D4308F80E50F7
:1027400011E7032987D118F80EC04CEA030C08F8EA
:102750000EC070E703297FF44BAF18F80EC04CEAA7
:10276000030C08F80EC032E70329A5D118F80EC0F3
:102770004CEA030C08F80EC08EE700221A601B68B2
:1027800005934FF0A043059AD3F81035019346F016
:10279000004699E600610040046100400861004085
:1027A0000C6100401061004014610040186100405D
:1027B0001C6100407C61004078250020654AD2F809
:1027C000042317067FF57BAE00221A601B68049372
:1027D000049B46F0800672E65E4AD2F80423520655
:1027E0007FF568AE00221A601B680493049B46F0D4
:1027F00040065FE6574AD2F8042391067FF555AEAE
:1028000000221A601B680493049B46F020064CE6E5
:10281000504AD2F80423D0067FF542AE00221A6057
:102820001B680493049B46F0100639E6494AD2F827
:10283000042314077FF52FAE00221A601B6804934F
:10284000049B46F0080626E6424AD2F804235507C0
:102850007FF51CAE00221A601B680493049B46F0AF
:10286000040613E63B4AD2F8042397077FF509AE26
:1028700000221A601B680493049B46F0020600E6DF
:102880003449D1F8041311F001011CD01E601B68FB
:102890000493049B1646EFE503297FF421AF4FF420
:1028A0000033DEF8002722F44032CEF80027DEF8AD
:1028B000002701351343EDB2CEF80037B9F1000F10
:1028C0007FF411AFFBE60E46D6E503297FF414AF83
:1028D0004FF40033DEF8002722F44032CEF8002710
:1028E000DEF800271343CEF80037012504E703295B
:1028F0007FF419AF4FF40033DEF8002722F44032A2
:10290000CEF80027DEF8002701351343EDB2CEF8EC
:10291000003708E703297FF4FBAE4FF40033DEF8FD
:10292000002722F44032CEF80027DEF800270135D8
:102930001343EDB2CEF80037EAE64FF44033B0E788
:102940004FF44033EBE74FF44033D5E74FF44033D7
:10295000C0E700BF0060004070B59B4C237F8EB085
:10296000002B75D1994AD2F80413890548D4974BA6
:10297000D3F80423520704D5D3F80821002A40F0E5
:10298000CA80924BD3F81C21C2B1A28AA07D8E4985
:1029900092B282424FF00002C3F81C2180F0A9805D
:1029A000D3F81C210692069A888A8A8A8D6880B29A
:1029B0000132285C92B28A82C3F81C05834BD3F89B
:1029C0004421DAB10022C3F84421D3F84411A27E95
:1029D00004910499002A40F08980E27D7A4B6AB123
:1029E0000022587ED968DA7501228DF830000B91EB
:1029F0008DF828200AA893E8060090470EB070BD15
:102A0000D2F824110029B2D0C2F82431D2F824110E
:102A1000A37E07914FF401710798C2F808130BB910
:102A200001235360694A02238DF82830D2F880349C
:102A3000C2F88034E07DE2680D9300238DF8300009
:102A4000E375237621680B9263680AA8984798E794
:102A50005E4BD3F82421002A40F09380D3F8101164
:102A600061B1C3F81021D3F8101103910399D3F881
:102A70003C15E07DC9B2884200F0AA80534BD3F8E0
:102A80004421B2B10022C3F84421D3F84411E07DBF
:102A9000019101994C4960B1D3F83C35C8688DF873
:102AA00030300123CA750B908DF828300AA80AC966
:102AB0009847464BD3F82021002A9FD00022C3F824
:102AC0002021D3F82011A07D009100993E490028D3
:102AD00094D0D3F84C058B688DF830008A750B9331
:102AE0008DF828200AC90AA8984787E701221A60AA
:102AF00073E7D3F81C310593059B00283FF45EAFC4
:102B00008B688DF830008A750B938DF828200AC9E0
:102B10000AA8984752E7E17D2B4A002970D000218E
:102B2000C3F80811D3F8081108910899D068517EAC
:102B3000D3F818354354537ED17D0133DBB253763D
:102B4000627E214B8A427FF41CAF1A7E002A6DD12F
:102B50009B7E13B91D4B01225A601C4AE0686368D2
:102B60004FF40171C2F80813627E8DF83020002501
:102B700001220B902168E5758DF828200AA8984756
:102B8000FFE60022C3F82421D3F824110291022188
:102B90008DF828100299D3F88014C3F880140D9191
:102BA000D3F83C15E368E27522768DF830100B936C
:102BB000216863680AA89847044BD3F84421002A87
:102BC0003FF477AF5EE700BFD02500200020004033
:102BD000217EF1B1D3F80062E17526F02001E568AD
:102BE000C3F8001226698DF8300001238DF82830D3
:102BF000227621680B95E66063680AA898473DE74E
:102C0000C3F80811D3F808210992099AD3F81835A6
:102C100096E7E268E17501238DF830008DF82830E1
:102C20000B9294E80A000AA8984727E7DE685D7EC1
:102C30001869DA7501210022D8601A765A768DF863
:102C400028100B968DF8305093E806000AA890479C
:102C500097E600BF0220FFF769B900BF2DE9F047F2
:102C60000D460646FFF794F903281ED8012D0446A9
:102C70001FD00ED3022D1AD11E4B00EB40041C4472
:102C8000657895B11C4B1B687BB12846BDE8F047C1
:102C900018471A48FDF7DEFC1649194A04EB4403AD
:102CA0000B44155D9B789D42EBD0BDE8F087BDE8F5
:102CB000F087DFF8408047003B1808EB030218F864
:102CC000035053782BB9274447440D4BBA781A5513
:102CD000D7E70C4BDFF830901968084801EB810109
:102CE00049004A46FDF75EFC0028ECD189F80060F7
:102CF000E9E700BF642600201C26002020260020D3
:102D00004026002018260020142600207F4B1B6838
:102D1000DB0700D4704770B57D4E7E4D33782C783C
:102D20009BB9172C10D8DFE804F0666B6B879CB05A
:102D3000C2AA2415241582313131313151565ECF6A
:102D40000C0CFFF7DDF82C7070BD00233370FFF71B
:102D5000C1F8E6E7012318463370FFF7E7F86E4B3A
:102D60006E481968002201EB8101BDE87040FDF753
:102D700019BC012318463370FFF7D8F8664B674833
:102D800019680022BDE87040FDF70CBC6448FDF7EF
:102D900061FCD4F11104024600F0A180002840F04B
:102DA0009E80012C0DD0C8255E4B5B495C480968AC
:102DB00005FB04F4A3FB04435B0901FB03F1FDF7EE
:102DC000F1FB0220BDE87040FFF76CB8FFF782F816
:102DD00012232B7070BDFFF77DF80020FFF762F81B
:102DE00013232B7070BDFFF775F80120FFF75AF819
:102DF00014232B7070BDFFF76DF800232B7070BD8E
:102E00000020FFF73FF8002879D00020FFF756F8A0
:102E1000022C14BF282312233F4A2C7011683F480C
:102E200001FB03F10022BDE87040FDF7BBBBFFF7DB
:102E300067F80C232B7070BD0020FFF723F80028E3
:102E400056D00020FFF73AF80822334B3348196870
:102E500003232B7001FB02F1BDE870400022FDF757
:102E6000A1BB0020FFF70EF800283DD00020FFF79F
:102E700025F82822284B294819680423E9E700206F
:102E8000FFF710F807232B7070BD0020FEF7FAFF44
:102E900090B30020FFF712F81F4B20481968052354
:102EA0002B7049000022BDE87040FDF77BBB00207D
:102EB000FFF73CF8184B1948196806232B700022BD
:102EC000BDE87040FDF76EBBFFF704F80020FEF789
:102ED000E9FF0120FEF7E6FF15232B7070BD0220ED
:102EE000BDE87040FEF7EABFFEF7DCFF0422C1E751
:102EF000FEF7D8FF0222A8E7FEF7D4FFCCE7FEF7E3
:102F0000D1FF022C14BF0423022385E710260020E2
:102F1000152600201626002018260020F025002067
:102F2000442600201F85EB5110B50078FFF730F8DC
:102F300003280BD8064B00EB40001844407828B11A
:102F4000044B1B6813B1BDE81040184710BD00BF0B
:102F5000642600201C26002070B5964B1A6812F0DB
:102F6000010202D11646304670BD934D2B780446BF
:102F7000E3B9172C00F21C81DFE814F0E600ED0045
:102F8000ED0054006B008200970046002C001D00ED
:102F90002C001D00A500AC00AC00AC00AC00AC00E7
:102FA000CB00D200DC0039004E004E0000232B7015
:102FB000FEF790FFDDE7012318462B70FEF7B6FF02
:102FC0007E4B7F481968002201EB8101BDE870400B
:102FD000FDF7E8BA012318462B70FEF7A7FF774BE1
:102FE000774819680022BDE87040FDF7DBBAFEF7AC
:102FF00071FF0020FEF756FF0120FEF753FF714BD3
:1030000015221A700026AEE70020FEF74BFF6D4B2D
:1030100007221A700026A6E7FEF772FF694B00260A
:103020001C70A0E70020FEF72DFF002800F0BC80F8
:103030000020FEF743FF08226049624B09686048A0
:1030400003241C7001FB02F1BDE870400022FDF773
:10305000A9BA0020FEF716FF002800F09E8000208D
:10306000FEF72CFF28225549564B09685448042482
:103070001C7001FB02F1BDE870400022FDF792BA1E
:103080000020FEF7FFFE002800F08B800020FEF7F6
:1030900015FF4A4A4B4B1168494805241C704900EA
:1030A0000022BDE87040FDF77DBA0020FEF73EFF2C
:1030B000444B424A4248116806241C700022BDE875
:1030C0007040FDF76FBAFEF71BFF3E4B0C221A70E3
:1030D000002648E73C48FDF7BDFAD4F11104064646
:1030E00050D000284ED1012C0FD0C825374B334982
:1030F0003548096805FB04F4A3FB04235B09324649
:1031000001FB03F1FDF74EFA06460220FEF7CAFE68
:1031100029E7FEF7DFFE2B4B12221A70002622E76A
:10312000FEF7D8FE0020FEF7BDFE264B13221A70D4
:10313000002618E7FEF7CEFE0120FEF7B3FE214B76
:1031400014221A7000260EE7FEF7C4FE1D4B002263
:103150001A70164607E70020FEF794FEB0B1002073
:10316000FEF7ACFE022C14BF282312231349154A84
:1031700009681470124801FB03F10022BDE8704099
:10318000FDF710BA0220FEF799FEECE6FEF78AFE84
:10319000022C14BF04230223E8E7FEF783FE042277
:1031A00061E7FEF77FFE74E7FEF77CFE022243E74D
:1031B0000026D8E61026002015260020182600201C
:1031C000F025002016260020442600201F85EB5104
:1031D000F0B5214D214E224B2860044610F002002C
:1031E00083B031601A6012D01E4B1F484A080F2767
:1031F0000E21102611251970DF7004219E715D7259
:10320000FCF7AEFCA0B1E3071DD403B0F0BDE207AC
:1032100019D4164A16480021FDF7B2F90028F4D156
:10322000144A1548012103B0BDE8F040FDF7A8B9E4
:10323000FCF7EEFC0028E6D10146104A1048FDF7E5
:103240009FF9E10703D50190FEF784FE019800285D
:10325000DFD003B0F0BD00BF1026002018260020EC
:103260001C260020642600207C8D02000D2D02000B
:10327000788D0200552C02009C8D0200292F02003F
:10328000748D0200032801D907207047012A12D04B
:10329000012917D008D30229F6D10D4B00EB4000CD
:1032A000034400205A707047094B00EB4000034470
:1032B00000209A707047012901D00022E8E700F150
:1032C0000E02D2B200EB400301490020CA547047FD
:1032D0006426002008B5FEF76DFE800000F1A043D3
:1032E0000020D3F8002722F44032C3F80027D3F897
:1032F000002742F44032C3F8002708BD08B500207B
:10330000FFF7E8FF10B1062800D008BD0120FFF745
:10331000E1FF0028F9D0062808BF002008BD00BF43
:1033200010B50388102B08D0112B05D1264B186837
:103330000138186038B110BD10BD234C216881B12F
:103340000131216010BD01220221FFF79BFF48B32C
:10335000072827D01D4B1B68002BECD0BDE8104080
:10336000184701220846FFF78DFF48B1072807D00C
:10337000164B1B6803B1984721680131216010BDCD
:10338000072202210120FFF77DFF08B10728EFD1B6
:10339000042202210020FFF775FF0028ECD0072847
:1033A000E6D1E9E7072202210120FFF76BFF08B110
:1033B0000728CFD1002108460A22FFF763FF002823
:1033C000B9D00728C6D110BD742600207026002071
:1033D000A0DF7047A2DF7047A6DF704763DF70474A
:1033E00048B141B10B88112B13D0502B04D0102BB6
:1033F00004BF8B8883827047CB88028A9A420CD0A4
:1034000082889A42F7D18369002BF4D00A8A12315C
:1034100018474FF6FF73838270470A8A022AEFD15A
:1034200010B504460846123003F0C2F910B101236A
:10343000A37510BDA07510BD2DE9F047794B94B070
:103440009A6806460D4618685968DB6804AC0FC4D4
:103450008EB185B14FF6FF73B3822B68B361002341
:1034600004A8B3753146FFF7B9FF48B104462046BA
:1034700014B0BDE8F0870E24204614B0BDE8F087F4
:10348000324614A9012512F8023B21F8485D28466E
:103490008DF80A30FFF79CFF04460028ECD1214646
:1034A00003226846FCF74EF89DF800709DF8013045
:1034B0009DF802E065F3030765F3030365F3071363
:1034C00065F3420E214665F307171C220DA88DF8FF
:1034D00000708DF801308DF802E0B046FCF732F84C
:1034E0009DF8343018F80CEB0E944FF0030A43F0BB
:1034F00010032146524601A81094119413948DF89C
:1035000034308DF80EE0CDF848D0ADF80CA0FCF7C3
:1035100019F89DF806209DF804E09DF8053065F344
:10352000420264F3C30264F30412D2B242EA050118
:1035300065F3030E65F3030365F3071E65F30713D5
:1035400014228DF8061008A821468DF804E08DF8A5
:1035500005304FF01409FBF7F5FF01AFADF82A4035
:10356000434603AC08AA0DA9708808940997ADF8E2
:103570002850ADF82C90FFF72DFF044600287FF46B
:103580007BAF0146B0461C220DA8FBF7DBFF9DF880
:10359000343018F8040B8DF80E0043F00C0321466C
:1035A0005246022701A80E94109411941294139479
:1035B0008DF83430ADF80C70FBF7C4FF9DF8062091
:1035C0009DF804009DF8057065F3420264F3C302A0
:1035D00064F3041265F30300D2B265F3071065F3D8
:1035E000030742EA050321464A468DF8040065F3C5
:1035F000071708A88DF806308DF80570FBF7A2FFB5
:103600007088ADF82A4003AE0896434608AA0DA973
:1036100001AE0996ADF82850ADF82C90FFF7DAFE10
:10362000044629E7A08D020070B586B0ADF80620EB
:1036300048B1828A4FF6FF739A4201D0837D2BB93D
:10364000082006B070BD0E2006B070BDBDF8063073
:10365000142B02D9072006B070BD04460D4602A8FF
:1036600010220021FBF76EFFA689A08A05950DF1B7
:103670000602012302A9ADF8086004928DF80A3011
:10368000FFF7AAFEDDE700BF73DF704774DF704706
:1036900076DF704778DF70477ADF70477CDF7047EE
:1036A0007FDF7047A8DF7047A9DF704767DF70478B
:1036B00032DF70473EDF704700283ED01F4B204A64
:1036C0001B6800BF00BF00BF00BF00BF00BF00BF3E
:1036D00000BF93422FD000BF00BF00BF00BF00BF9C
:1036E00000BF00BF00BF00BF00BF00BF00BF00BFE2
:1036F00000BF00BF00BF00BF00BF00BF00BF00BFD2
:1037000000BF00BF00BF00BF00BF00BF00BF00BFC1
:1037100000BF00BF00BF00BF00BF00BF00BF00BFB1
:1037200000BF00BF00BF00BF00BF00BF00BF00BFA1
:1037300000BF00BF00BF0138C3D17047A8210020DF
:103740000024F400024A136801331360704700BF7D
:10375000DC2B0020024A40F2D911FCF76FBA00BFFF
:10376000CC8D0200F0B5214B21481F6887B001F0D5
:10377000DFF8044601F0EAF9631C2DD040EA04208A
:1037800085B200F02BFE240C24040646194903964A
:1037900013202C4305940497FCF70CF90599049B1E
:1037A000039A009103201449FCF732F9314603AA29
:1037B000032341F2111000F06FFF78B94FF6FE714C
:1037C00041F2111000F038FF03AA03234FF6FE71F7
:1037D00041F2111000F014FE07B0F0BD0246074997
:1037E0000120FCF7F5F807B0F0BD00BFDC2B00208E
:1037F0009C210020DC8D0200E48D0200208E02005E
:1038000010B50446FEF7E0F92046BDE8104002F08E
:103810005FBF00BF38B503200D462949FCF7CAF841
:1038200028490320FCF7C6F86A7827491320FCF7DB
:10383000CFF82A7824491320FCF7CAF8234913202B
:10384000FCF7B8F82B786C78214943EA0424224627
:103850000320FCF7BDF800F0C1FD1E4B8442188028
:1038600027D2A0F17F03A342C4BF803880B21A4D93
:103870001A49CCBF04462046224628800320FCF784
:10388000A7F82988164800F099FF044680B101285E
:1038900007D12B88124801339BB219462B8000F0C8
:1038A0008DFF22460F490120BDE83840FCF790B853
:1038B00038BD0D490220BDE83840FCF77BB800BF99
:1038C000408E0200648E02009C8E0200349702003B
:1038D000A48E0200D82B0020E02B0020C88E02000E
:1038E00040280020F48E0200148F020008B50378EF
:1038F00003B108BD064B3B211888FFF7C9FE00281D
:10390000F7D0044A40F2CF11BDE80840FCF796B961
:10391000A4210020CC8D0200043838B506280BD82D
:10392000DFE800F0301F0A040A0A0B00334B1A8844
:103930004FF6FF739A4254D038BD0020FFF70CFBBE
:1039400000283BD1FFF7DAFC00283DD1FFF7B0FE9D
:103950000028F1D02A4A40F20121BDE83840FCF7A6
:103960006DB9284C2378E3B123789BB3FFF78EFE23
:103970000546002DE0D1257023490320BDE83840DD
:10398000FCF718B81D4B13211888FFF781FE30F0A3
:103990000803D1D01A4A40F22F31BDE83840FCF775
:1039A0004DB91A48FFF770FE0028C5D101232370D6
:1039B00017490320BDE83840FBF7FCBF104A40F22E
:1039C000F911FCF73BF9BDE70D4A40F2FD11FCF798
:1039D00035F9BBE70F490220FBF7ECFF002DABD117
:1039E000C9E702F0A5FE30F00803A5D0044A4FF461
:1039F0004E71BDE83840FCF721B900BFA42100207A
:103A0000CC8D020084270020B88F0200A827002058
:103A1000508F0200708F020030B5044685B002F06E
:103A200079FC21469848FFF7DBFC2146974801F0D6
:103A30006FF92046FFF774FC2388013B552B6CD8A7
:103A4000DFE813F07C0099006B006B006B006B00EB
:103A50006B006B006B006B006B006B006B006B000E
:103A60006B005600A5006B00BA006B006B006B008A
:103A70006B006B006B006B006B006B006B006B00EE
:103A80006B006B006B006B006B006B006B006B00DE
:103A90006B006B006B006B006B006B006B006B00CE
:103AA0006B006B006B006B006B006B006B006B00BE
:103AB0006B006B006B006B00C9006B006B006B0050
:103AC0006B006B006B006B006B006B006B006B009E
:103AD0006B006B006B006B006B006B006B006B008E
:103AE0006B00D500DC00FA006B006B006B0070000F
:103AF000674B002207201A70FFF72EFA20B1654AA3
:103B00004FF41871FCF79AF8634BA2881A804FF0B3
:103B1000A0434FF48022C3F80825204602F078FD28
:103B200005B030BD1321A088FFF7B2FD0028F4D006
:103B3000584A4FF42871FCF781F8EEE7574D584981
:103B40000320FBF737FF2988564B01311B8889B2C8
:103B500099422980C0F08C80DFD14FF6FD714A4830
:103B600000F02CFE002800F0878002464E4901201C
:103B7000FBF72EFFD1E70021A088FFF797FD002873
:103B8000CBD0444A40F2A521FCF758F8C5E74FF0E6
:103B9000A0434FF48022C3F80C254448FFF774FD7E
:103BA000002859D0024642490120FBF711FF3A4B49
:103BB0004FF6FF721A80B0E7374A0023108885213C
:103BC0001A46FFF76DFD0028A7D0324A4FF4237143
:103BD000FCF734F8A1E71321A088FFF759FD00286E
:103BE0009BD02C4A40F29921FCF728F895E72389CD
:103BF000A27C3049002001F0E7FD8EE7A279002A7F
:103C00008BD0A37B043B022B87D8022A0CBF022255
:103C100001224FF4C1736946A0888DF80020ADF8E9
:103C20000430FFF73FFD00283FF477AF194A4FF407
:103C30003071FCF703F870E7174A00231088194623
:103C40001A46FFF731FD00283FF467AF114A40F2F2
:103C50009221FBF7F3FF60E70D4B17490122032088
:103C60001A70FBF7A7FE15490320FBF7A3FE9EE79A
:103C7000054800F0A3FD50E711490320FBF79AFE29
:103C80002B8801332B8048E740280020B8270020EC
:103C900084270020CC8D0200A4210020E02B0020EE
:103CA000D88F0200D82B0020F48F0200A827002014
:103CB0007C9002005C900200508F02003090020065
:103CC0001C900200F0B54C4897B000F031FE04465D
:103CD00000F03CFF631C3BD0484B40EA04201E68C8
:103CE00085B200F07BFB321404ABADF81200240C5B
:103CF00041F28B2EADF81A50ADF816200C253C225F
:103D0000002107A84AF60437ADF81460ADF8184052
:103D1000ADF8085003930425ADF810E0ADF8047039
:103D2000FBF710FC0022012306260DEB050407A873
:103D300011468DF81E208DF81C308DF848308DF816
:103D40001D608DF81F50119401F0B0FF00284ED176
:103D50002B4B1B78002B48D04FF0A0424FF4002192
:103D60002848C2F8081541F288330068264C00BF85
:103D700000BF00BF00BF00BF00BF00BF00BFA04228
:103D80002FD000BF00BF00BF00BF00BF00BF00BFFB
:103D900000BF00BF00BF00BF00BF00BF00BF00BF2B
:103DA00000BF00BF00BF00BF00BF00BF00BF00BF1B
:103DB00000BF00BF00BF00BF00BF00BF00BF00BF0B
:103DC00000BF00BF00BF00BF00BF00BF00BF00BFFB
:103DD00000BF00BF00BF00BF00BF00BF00BF00BFEB
:103DE00000BF013BC3D1C2F80C1517B0F0BD074AA4
:103DF000CF21FBF723FFABE79C210020DC2B002029
:103E000084270020A82100200024F400CC8D02008B
:103E100008B50020FBF7BCFD00B908BD024A8521AA
:103E2000BDE80840FBF70ABFCC8D020010B584B096
:103E300000240C2301AA4FF6FE7141F211100194E7
:103E40000294039400F000FB019A0F4CA2F5085372
:103E5000223B4CF6CB418B4206D828B9029B23600B
:103E600090B200F0C5FA05E0002342F22220236060
:103E700000F0BEFA2368BDF8042004490320FBF7D4
:103E8000B7FD04B010BD00BFDC2B0020B8900200CD
:103E9000F0B593B0FEF75EF8BD48FFF70DFCFFF7F5
:103EA000B7FFBC490320FBF785FDBB490320FBF7A7
:103EB00081FD00231846B94A0521FCF781FA20B19B
:103EC000B74A40F26B31FBF7B9FE002240F6CD4114
:103ED0000120FFF77DF920B1B14A40F26D31FBF7C7
:103EE000ADFEB0490320FBF765FD00231846AE4A3E
:103EF0000521FCF765FA20B1A94A40F23F11FBF712
:103F00009DFEAA4AAA480121FCF73AFB20B1A44A27
:103F10004FF4A171FBF792FEA64AA7480121FCF7D6
:103F20002FFB20B19E4A40F24511FBF787FEA34AC2
:103F3000A3480121FCF724FB20B1994A4FF4A47156
:103F4000FBF77CFE9F490320FBF734FD9E4A40F6B9
:103F5000CD410320FFF73CF90246002800F00B8218
:103F60009A490120FBF734FD994B9A491868009053
:103F70000023684650226C4602F028FE20B1884A91
:103F800040F2FF21FBF75AFE03AA0121002002F0B4
:103F900097FE20B1824A40F20631FBF74FFE022322
:103FA00003A8ADF80C3002F0A3FE20B17C4A40F229
:103FB0000E31FBF743FE884802F052FE20B1784AEA
:103FC00040F21331FBF73AFE844802F053FE20B171
:103FD000734A40F21731FBF731FE9DF800308048FC
:103FE000012262F3030362F307138DF8003004F03B
:103FF000FFF97B4982B22046FFF750FB20B1684AA7
:1040000040F26511FBF71AFE40F24130FFF742FB28
:1040100020B1634A4FF4B471FBF710FE082200216F
:1040200003A8FBF78FFA0625082100224FF4C87376
:1040300003A8ADF80C50ADF80E10ADF81020ADF897
:104040001230FFF729FB20B1554A4FF4B971FBF745
:10405000F5FD6449644D0320FBF7ACFC00F050FD16
:1040600041F28B23ADF800303C220223002103A84B
:10407000ADF804300295FBF765FA002304221946D7
:1040800003A80C948DF80C308DF80F2001F00EFE73
:1040900020B1434A4FF40871FBF7D0FD534D102275
:1040A00000212846FBF74EFA00264FF4C85350492A
:1040B0006B8103202E706E602E72AE81FBF77AFC4E
:1040C0003146042203A8FBF73DFA4A4B4A480393C2
:1040D00003A9FFF7B1F9002800F0468102464749DD
:1040E0000120FBF775FC1C22002103A8FBF72AFA2C
:1040F0004FF4004700234FF4702603254049414AFE
:10410000039303A8ADF81A308DF81C300497059678
:104110008DF818500891099202F0C2F820B1204A97
:1041200040F2EF11FBF78AFD37490320FBF742FC11
:10413000364800F0DDFB36490320FBF73BFC00F07E
:1041400099FA0546002800F00A810246314901200B
:10415000FBF73EFC2846124A40F29531FBF76EFD14
:10416000002000F0A1FB2C490320FBF723FC41F2C7
:104170001110FDF703FB2949054602460120FBF714
:1041800027FC002D4ED02846054A4FF4687147E0C1
:1041900080841E00EC90020008910200C8270020D5
:1041A000CC8D02002891020078260020C53C020038
:1041B000C08D020065370200C88D0200453702003D
:1041C000C48D020048910200193902006891020072
:1041D000B08D0200F0260020193A020001380200DA
:1041E000A4910200AC91020060280020A8270020C2
:1041F000D09102001538020040280020EC91020006
:10420000ED38020055370200109202009C21002078
:10421000349202005892020094920200C49202006A
:10422000FBF70CFD5A491320FBF7C4FB052000F0F7
:104230003BFB58490320FBF7BDFB574B93E80700B6
:10424000032384E8070022464FF6FD7141F2111066
:1042500000F0D6F820B1514A4FF46A71FBF7EEFC3A
:10426000012000F021FB4E490320FBF7A3FB0024B3
:1042700042F2232503AA03234FF6FE7141F21110E7
:1042800003950494059400F0BBF820B1434A4FF421
:104290006C71FBF7D3FC012000F006FB41490320C1
:1042A000FBF788FB4048FFF707FAFFF7BFFD3E48E2
:1042B000FFF702FA00224FF400313C48FCF772F994
:1042C00020B1364A40F25111FBF7B8FC00224FF4FE
:1042D00080213748FCF766F920B1304A4FF4AA71C3
:1042E000FBF7ACFC00224FF400413248FCF75AF9CE
:1042F00020B12A4A40F25711FBF7A0FC2E490320B7
:10430000FBF758FB2D48FFF7BFF90446D0B1024632
:104310002B490320FBF75CFB2046204A40F2C231C8
:10432000FBF78CFC27490320FBF744FBFDF7E8FD76
:10433000FFF7C0F90028FBD0184A40F25A31FBF7CA
:104340007DFCF5E7204B2149012203201A70FBF781
:1043500031FB22461A490320FBF73AFBE2E71C49EE
:104360000320FBF727FBFBE61A4800F0DFFC0028E0
:104370003FF4B9AEB2E605220221FEF783FF08B191
:104380000246EDE514490320FBF714FBECE500BF02
:10439000E4920200E8920200B48D0200CC8D02008B
:1043A000149302004093020040420F004427002073
:1043B00064270020882700206C930200A827002093
:1043C00088930200A893020084270020508F0200E7
:1043D00078920200B827002088910200034B1868E9
:1043E00000F50850223080B2704700BFE42B002057
:1043F000A0F50850014B223818607047E42B0020CC
:1044000070B50E4688B005460E4C00213BB152F8FF
:10441000210044F821000131C9B29942F7D30122A9
:1044200002A905A80094ADF80430ADF80850ADF825
:104430000A60CDF80CD0ADF81020FDF749F908B0AE
:1044400070BD00BF642800202DE9F0438BB000232D
:1044500080460F4616460693059305AB07AA3946D4
:104460004046FDF7FFF900282FD103A907A8FDF763
:10447000E7F8044668BB079B009342463B46194950
:104480000320FBF7C5FA039BDDF810905B8883B12E
:1044900025B2154959F825201320FBF799FA59F848
:1044A000253046F82530039B01345B88E4B2A342F3
:1044B000EED813200D49FBF77DFA07A8FDF7E4F8C5
:1044C0000028CAD00BB0BDE8F08300200BB0BDE8D7
:1044D000F083024606490120FBF77AFA20460BB02A
:1044E000BDE8F083F093020030940200349702009C
:1044F000C8930200F0B587B001788689C5898268C3
:1045000000230446039304930593052923D8DFE889
:1045100001F04F03562468424368002B67D13A4CA0
:104520003A482368019392B2012700922B46324603
:10453000374907700320FBF77DFAEB1C9BB2BB42A7
:10454000294630464FF0000303AA47D9FFF77CFF06
:1045500023683B44236007B0F0BD43682D49032026
:10456000FBF746FA6368002BF5D1A2682A4BA3FB40
:104570000213DB0803EB830303EB8303D31A012B42
:104580000CD84FF6FE739A4208D024490320FBF75B
:1045900011FAFDF72FF96368002BDCD162892049FD
:1045A0000420FBF715FA1F4B01221A7007B0F0BD6B
:1045B000436823BB1C4B01221A7007B0F0BD43684F
:1045C000002BC8D192B200922B46324617490320E5
:1045D000FBF71EFA29463046002303AAFFF734FFF3
:1045E000B9E74368002BB6D1FDF704F9B3E70093B0
:1045F00032462B460E490120FBF70AFAABE70D497C
:104600000120FBF7D7F9A6E7E42B0020C427002000
:1046100080940200409502001F85EB519C9502009A
:1046200070950200402700205C28002008950200B9
:10463000C494020058940200F0B587B006AD00247F
:1046400007460E4645F8144DADF8084002E003A8B1
:10465000FDF75CF82B4603AA31463846FDF702F910
:10466000A3B201340028F2D0B3FA83F0400907B0B6
:10467000F0BD00BF08B5064B064800221A60FCF7E3
:1046800041FE00B108BDBDE80840FCF74FBE00BFC9
:10469000E42B0020F54402002DE9F0473F490D6866
:1046A00088B008AE05F07F05002405F508550746DB
:1046B00091469846223546F8184DADF80C4002E078
:1046C00005A8FDF723F8334605AA29463846FDF725
:1046D000C9F8A3B201340028F2D033BB304903201B
:1046E000FBF768F92F4C0023B8F1000F07D059F8F9
:1046F000232044F823200133DBB29845F7D8012367
:10470000314605A80094ADF80480ADF80870ADF806
:104710000A50CDF80CD0ADF81030FCF7D9FF08B135
:10472000072807D008B0BDE8F0871F490320FBF732
:1047300041F9D7E71D490220FBF73CF9FDF75AF88C
:104740001B4A1378002BFCD0DFF86CA000238AF8FA
:104750000030B8F1000F07D059F8232044F8232087
:104760000133DBB29845F7D80123314605A8009400
:10477000ADF80480ADF80870ADF80A50CDF80CD053
:10478000ADF81030FCF7A4FF0A4A1378002BFCD0D8
:1047900000238AF8003008B0BDE8F087E42B002041
:1047A000409602006428002014960200E49502005E
:1047B00040270020C42700205C280020F0B587B0E7
:1047C0004FF6FD7200AF002391423B607B60BB60FF
:1047D00016D0A1F508512D4B22390B40002B49DB97
:1047E0002B4A126802F5085203F50853223222338D
:1047F00092B2934203D300201C37BD46F0BD99B25C
:1048000005463A46002341F21110FFF71DFE04460B
:1048100010BB97E81400BB68FA60394628460C22A2
:104820003C617B61FEF700FF6E46044638BB1949C8
:104830000320FBF7BFF807F10C0407F1180514F883
:10484000012B15491320FBF7C3F8AC42F7D1002028
:104850001C37B546BD46F0BD024610490120FBF7A6
:10486000B7F8012CC7D1022022460D49FBF7B0F85A
:104870002046C1E7013B63F07F030133B0E7024606
:1048800008490120FBF7A4F82046B5E77F00008027
:10489000E42B0020E89602009C8E02006C96020039
:1048A00090960200C0960200012812D009D3052874
:1048B00006D10C4A1378002BFCD00B4B00221A7047
:1048C000704709490B78084A002BFBD0002313706E
:1048D0007047064A1378002BFCD0034B00221A7055
:1048E000EEE700BF402700205C280020C4270020FE
:1048F000F0B585B00024039423462246694602247D
:104900001D271E264FF0CC758DF80C4000970196A0
:10491000029502F0EFFA044620B102460349012055
:10492000FBF756F8204605B0F0BD00BF889702009F
:1049300070B586B0054602F097FC2D4B012619880C
:10494000ADF80C10002400962846022303AA442147
:10495000ADF81440049402F0B3FCB0BB04AA0623E3
:104960004421284602F06CFD40B102462149304600
:10497000FBF72EF84FF0FF3006B070BD284602F06E
:1049800083FC9DF811309DF810001B4C03EB0020B8
:1049900003F020FA12A3D3E9002303F0ABFB12A328
:1049A000D3E9002303F0C8F803F08CFC9DF8142031
:1049B0009DF8133002EB032384FB0324DB17C3EBC6
:1049C000242444EA004006B070BD04462246304626
:1049D0000A49FAF7FDFF204606B070BDAFF300802C
:1049E000EC51B81E85EB0D40000000000094B14072
:1049F00008970200C8970200FB110E64A8970200F6
:104A0000037803B1704710B54068B0F9004004EB7B
:104A100084040121C4EB041402F0F6FFE40048BF53
:104A200004F2FF34A31203EB43035B0003F5877327
:104A30009BB240F6B73293420DD9642228B92B4974
:104A40000420BDE81040FAF7C3BF29490120BDE8A2
:104A50001040FAF7AFBF40F6543293421AD840F6EE
:104A6000B422934225D840F68812934230D840F6BB
:104A70003402934238D9C3F51863083303EB430378
:104A80001C4A5B0082FB0312DB17A3EBE212063227
:104A9000D2B2D3E7C3F53B633A210833164A01FB90
:104AA00003F382FB0312DB17A3EB62126432D2B270
:104AB000C4E7C3F53563043303EB43030F4ADB005C
:104AC00082FB0312DB17A3EBA2122A32D2B2B5E7A4
:104AD000C3F52B63084A043382FB0312DB17A3EBF5
:104AE000E2021232D2B2A9E70022A7E72C98020014
:104AF000F4970200616060601F85EB51676666662F
:104B000000B50F4985B0002002F034FE90B90D4B7E
:104B1000186859681A7A01AB03C301A900201A70FA
:104B200002F074FE18B1084AAE21FBF787F805B011
:104B30005DF804FB044AA921FBF780F8E7E700BF12
:104B4000014A0200E89702006498020000B583B0B1
:104B50000DF10601002002F087FEB8BBBDF906305A
:104B600003EB8303C3EB0313DB0048BF03F2FF3304
:104B70009B1203EB43035B0003F587739BB240F684
:104B8000B732934203D9642003B05DF804FB40F6CA
:104B90005432934223D840F6B422934230D840F6A0
:104BA000881293423DD840F63402934237D9C3F578
:104BB0001863083303EB430320485B0080FB0320AA
:104BC000DB17A3EBE0100630C0B2DDE702461C495C
:104BD0000120FAF7FDFE012003B05DF804FBC3F5E8
:104BE0003B633A220833174802FB03F380FB0320A0
:104BF000DB17A3EB60106430C0B203B05DF804FBB8
:104C0000C3F53563043303EB43030F48DB0080FB3C
:104C10000320DB17A3EBA0102A30C0B2B4E70020BA
:104C2000B2E7C3F52B630748043380FB0320DB178F
:104C3000A3EBE0001230C0B2A6E700BF6160606085
:104C4000809802001F85EB5167666666A0DF70479B
:104C5000A2DF704763DF70472DE9F0412B4B94B022
:104C60009A680E46074659681868DB6814AD04ACAC
:104C70000FC40DF10E0104A825F8446DFFF7EAFFFB
:104C8000044600283FD121461C220DA8FAF75AFC01
:104C90009DF834300DF1080843F00A032146032241
:104CA00040468DF83430FAF74DFC9DF808209DF809
:104CB00009309DF80AE0012666F3030266F3071245
:104CC00066F30303214666F3071366F3420E8DF87D
:104CD000082014AC142208A88DF809308DF80AE0D9
:104CE000FAF730FC1E2304F84C3D08AA0DA93B1D21
:104CF0007888CDF82480ADF82C60ADF82860089550
:104D00000C94FFF7A5FF14B0BDE8F081B098020045
:104D10000B88102B06D0112B03D14FF6FF730380A5
:104D2000704770478B880380704700BF70B51B4B7E
:104D300086B059689A6806461868DB6802AC06AD0A
:104D40000FC44AF62F330DF1060102A825F8143DD1
:104D5000FFF780FF08B106B070BD32464FF6FF7313
:104D600022F8023B29460120FFF770FF0028F2D10C
:104D70004AF630313046FFF76FFF0028EBD14AF694
:104D800031313046FFF768FF04460028E3D1304652
:104D90004AF63231FFF760FF2046DCE7B0980200A8
:104DA0002DE9F84F4300DFF870A11E180AEBC60684
