:020000021000EC
:10F00000000001209D6B0200C56B0200C76B02006F
:10F01000C96B0200CB6B0200CD6B02000000000048
:10F02000000000000000000000000000CF6B0200A4
:10F03000D16B020000000000D36B0200D56B020010
:10F0400069250200D76B0200BD340200652602006C
:10F05000D76B0200D76B02000D2A0200D76B0200AB
:10F06000D76B0200D76B0200D76B0200B9370200E2
:10F07000D76B0200D76B0200D76B0200D76B020080
:10F08000D76B0200CDFE0100D76B0200D76B0200E8
:10F090009DFF0100D76B02006D700200D76B02006C
:10F0A000D76B0200D76B0200D76B0200D76B020050
:10F0B000D76B0200D76B02000000000000000000C8
:10F0C000D76B0200D76B0200D76B0200D76B020030
:10F0D000D76B0200D76B0200D76B02000000000064
:10F0E0000000000000000000000000000000000020
:10F0F0000000000000000000000000000000000010
:10F1000000000000000000000000000000000000FF
:10F1100000000000000000000000000000000000EF
:10F4000010B5054C237833B9044B13B10448AFF35E
:10F4100000800123237010BD2C2300200000000079
:10F42000D4940200084B10B51BB108490848AFF34B
:10F4300000800848036803B910BD074B002BFBD0C0
:10F44000BDE81040184700BF000000003023002036
:10F45000D49402001823002000000000154B002B5C
:10F4600008BF134B9D46A3F5803A00218B460F46FB
:10F470001348144A121A00F065F80F4B002B00D005
:10F4800098470E4B002B00D0984700200021040025
:10F490000D000D48002802D00C48AFF3008000F0AA
:10F4A0002BF82000290005F067F900F011F800BFE3
:10F4B0000000080000000120000000000000000023
:10F4C0002C230020903200200000000000000000EB
:10F4D00008B5074B044613B10021AFF30080054B7C
:10F4E0001868836A03B19847204600F033F800BFDC
:10F4F00000000000C88A020070B50E4B0E4CE41AE2
:10F50000A41000251E46A54204D056F82530984781
:10F510000135F8E709F0CCFA084C094BE41AA410BD
:10F5200000251E46A54204D056F8253098470135DF
:10F53000F8E770BD102300201023002014230020C2
:10F540001023002002440346934202D003F8011B1B
:10F55000FAE77047FEE700BFF0B51746C7B01C4694
:10F56000B9B106AE0B68604A30464FF4807108F0BE
:10F57000FFFD00280ADB4C9B0546062B00F2B280FB
:10F58000DFE803F012323B4653637500002047B0BA
:10F59000F0BD4C9B062B00F2A380DFE803F0048B48
:10F5A00090957C8186000025384608F01BFE4319A3
:10F5B000FF2B044640F28D80002CE7DB2C44B4F591
:10F5C000807FE3D80A27002506AE22467119002065
:10F5D00005F01AFE0544241A08B9013F01D0002C99
:10F5E000F3D1012047B0F0BDC0F5807123683A46E1
:10F5F000701908F0BDFD0446DEE7C0F58071626851
:10F600002368009270193A4608F0B2FD0446D3E729
:10F61000C0F58071A2682368646800940192701933
:10F620003A4608F0A5FD0446C6E7C0F58071E268D9
:10F630002368D4F808E0646802928DE810403A46E6
:10F64000701908F095FD0446B6E7C0F58071206991
:10F65000E26823680390D4F808E0646802928DE8B9
:10F6600010403A46701908F083FD0446A4E7C0F53F
:10F6700080716269206923680492E2680390D4F87B
:10F6800008E0646802928DE810403A46701908F06C
:10F690006FFD044690E74FF48071002506AEC6E783
:10F6A0004FF48071002506AED1E74FF4807100253C
:10F6B00006AEDEE74FF48071002506AE96E74FF404
:10F6C0008071002506AE9AE74FF48071002506AEE2
:10F6D000A0E706AE39467019224608F03DFD6BE7FB
:10F6E00000246FE7002469E7CC8A02002DE9F04F7F
:10F6F0001446C7B01D46002900F02381002B00F0FE
:10F7000004810A2302934FF0000B06AF519B539ADA
:10F71000134420261C4602990BEB0103049331335A
:10F72000FB18039307EB0B031A460193002965D0DE
:10F73000534203F003038B4228BF0B46062900F215
:10F74000DB800B46019907F80B600A46012B02F19A
:10F75000010200F0CF80022B4E7001F1020200F096
:10F76000C980032B8E7001F1030200F0C3800A46AA
:10F77000042BCE7002F1040200F0BC80062B0E7147
:10F7800001F1050240F0BE804E718A1D9846029933
:10F7900099422ED00298C3EB0009A9F1040100F1AF
:10F7A000FF3E8908C3EB0E0E0131BEF1020F4FEA96
:10F7B000810C12D95B444FF0203E012907EB030B6B
:10F7C00047F803E005D00229CBF804E001D0CBF8DC
:10F7D00008E0E1456244E0440BD00299167008F15C
:10F7E00001038B4205D208F102008842567000D214
:10F7F0009670019B029A134401931A46039B059746
:10F8000002F1330A274602F1030B544603F10109C2
:10F81000DDF844A10DE00BF8036C0BF8026C0BF85B
:10F82000016C0BF1030BA34509F8016C09F1010907
:10F830002FD0AF42EFD9AA4556D9509B13F8058077
:10F840000BF8016C4FEA28105FFA80FE092808F0D7
:10F850000F00D4BF0EF1300E0EF1370E092894BF01
:10F86000303037300BF803EC0BF8020C08F058FC82
:10F8700040440BF1030B407810F0970F08BF4FF096
:10F880002E08A34509F8018C05F1010509F10109CC
:10F89000CFD1049B039903F1430A019B3C460D22FF
:10F8A0004FF00A0B059F0A7481F811B0A14683F846
:10F8B00030604FF000085446224607EB0801002054
:10F8C00005F0A2FC8044241A10B9BBF1010B01D051
:10F8D000002CF1D14D454C464FF0000BFFF41BAF0F
:10F8E000284647B0BDE8F08FCAEB0500529B13F8DD
:10F8F0000080A5E798464AE7002B7FF423AF019AE2
:10F90000984647E74FF0050841E706AF0B68114AF4
:10F9100038464FF4807108F02BFC0028E0DB0A2306
:10F9200006460293204608F05DFCC22828BFC2208C
:10F93000834602462146B81908F00EFC0025B34460
:10F94000E4E61BB902952E4606AFEBE702918B4623
:10F9500006AFDBE6CC8A020070B5074D074E2B7868
:10F9600013B13378834205D0044605F013FE01231A
:10F9700034702B70002070BD4923002048230020E4
:10F980000048704759F5010000487047EDF6010046
:10F9900038B50020FFF7E0FF044668B9FFF7F0FF35
:10F9A0000546FFF7F1FF054BFF22C3F810541C601A
:10F9B0005C60C3F814049A60204638BD4C230020D4
:10F9C0000120FFF7C9BF00BF2DE9F04383B002ABB0
:10F9D0004FF0000803F8018D254C064618460D46E9
:10F9E000A76800F08DFFA2686368D4F80090134404
:10F9F0000133C9EB0303012B07D80BBB9DF80700AC
:10FA000000F0A6FF03B0BDE8F08309F101039DF803
:10FA10000700236000F09CFF0122002362F3010332
:10FA200068F3820307EA090766F3C50304EB87045A
:10FA300068F3891365F39F23E36003B0BDE8F083A7
:10FA40000121434661F3010368F38203052161F359
:10FA5000C50309EA0202074904EB820268F389132D
:10FA600009F1010761F39F232760D360C6E700BF58
:10FA70004C230020D48A02002DE9F04782B002AB6B
:10FA8000002603F8016D294C814618461746884622
:10FA9000A56800F035FFA2686368D4F800A013449D
:10FAA0000133CAEB0303022B07D843BB9DF80700C1
:10FAB00000F04EFF02B0BDE8F0870AF102039DF8A6
:10FAC0000700236000F044FF0122002362F30103DA
:10FAD0000AEB020166F3820369F3C50305EA0A0A29
:10FAE0000D4004EB8A0A62F3891304EB850468F382
:10FAF0009F23CAF80C30E76002B0BDE8F08701210F
:10FB0000334661F3010366F38203052161F3C50304
:10FB10000AEA0202064804EB820266F389130AF13C
:10FB2000010160F39F232160D360BFE74C230020D5
:10FB3000D48A02002DE9F0474C4E96E80C009A4218
:10FB40008AB070D0B06804E0C4F3891202EB94521A
:10FB5000134400EA0305023506EB850201335468BD
:10FB600014F00302F0D0022A28D0C4F38312C4F3A5
:10FB7000952C002A75D00DF1100E7546D71800EAA5
:10FB8000030106EB81010133C96845F8041BBB4240
:10FB9000F5D10092C4F3C20073466246D6F8104411
:10FBA000324D0021A04738B177603068C01B18BFC4
:10FBB00001200AB0BDE8F0876F68F6E703F1010A9B
:10FBC00020EA0A010340013106EB830389004FEA72
:10FBD00094588845DA68DFF894E0C4F3891326D98D
:10FBE000A9B300EA0A0C5FFA81F90EEB8C0CC9EBA1
:10FBF00008010CF10C0C0EF10C00C9B2039102903B
:10FC0000CDF80490CDF800C00021C4F3C200D6F8AE
:10FC10001474B847404520D006EB850560F38F1477
:10FC20006C607768C1E700200AB0BDE8F08700EAA1
:10FC30000A000EEB80000C308DE801010021DEF897
:10FC4000149403910291C4F3C200C847E2E70EF195
:10FC50000C0C08465FFA88F9D0E703300AEB9007EE
:10FC6000A2E71F460DF1100E93E700BF4C230020C2
:10FC70002DE9F84F244B1A788AB3DFF890B0DFF8FB
:10FC80009090DFF890A00024012703E00134E4B253
:10FC9000944224D226B2D9F80050DBF8003015F88F
:10FCA000360007FA00FE1EEA030F05EBC608EDD08A
:10FCB000164A23EA0E03136002F09EFE15F8365032
:10FCC000DAF8003007FA05F6334000FA05F6B342D9
:10FCD00007D00D4B01341A78E4B29442DAD3BDE870
:10FCE000F88FD8F80430002BF3D098F80110A1F168
:10FCF0000101B1FA81F14909091AB1FA81F1490901
:10FD000028469847E5E700BF6C270020942700208D
:10FD1000682700209027002070B50646114800F0A3
:10FD2000B1FD40B9104D01242B68B4401C4203D0F2
:10FD300023EA04042C6070BD304602F05DFE0B4ADD
:10FD4000136860B123432E680949136034432C6063
:10FD5000044809680022BDE8704000F03BBD23EA7A
:10FD60000403F0E77027002094270020902700204C
:10FD700064270020042A01D8072070472DE9F041AC
:10FD800082B088460546174602F002FD002834D0AE
:10FD90001C4C1D481D491E4A1E4B2560002608F1BB
:10FDA000FF340F6080F8008016601E60E4B2032705
:10FDB000B8F1000F03D11AE0DBB2C4B11C4623B284
:10FDC00005EBC30215F833009378134A8DF805301C
:10FDD00001A98DF804708DF806608DF8076002F0B7
:10FDE000E1FC631E0028E7D002B0BDE8F0810B4AB9
:10FDF0000B48002100F0DCFCF6E702F087FC00284D
:10FE0000C6D0F1E7682700206C2700206427002077
:10FE1000902700209427002019FD010071FC0100AB
:10FE2000E08A020070B5084D2B785BB1074E0024C4
:10FE30003368012113F8340002F07CFD2B78013483
:10FE4000A342F5D8002070BD6C2700206827002051
:10FE500000B585B0ADF804100292039001AA00210C
:10FE600044F2010000F004F805B05DF804FB00BFA7
:10FE700010B5114914460120FFF7A6FD22460F498F
:10FE80000120FFF7F9FDFFF79BFDFFF753FE002868
:10FE9000FBD10B4B1B68DB0700D5FFDEBFF34F8F99
:10FEA0000849094BCA6802F4E0621343CB60BFF310
:10FEB0004F8F00BFFDE700BFE48A0200FC8A02000A
:10FEC000F0ED00E000ED00E00400FA052DE9F84354
:10FED000294A2A4B0025C2F84051C2F84451C2F8C1
:10FEE0004851C2F84C51C2F80051C2F804511B6885
:10FEF0001BB32349D2F804250C68224F141B1A683F
:10FF000024F07F44A242A84609D8197CDE69A41ACD
:10FF10001544A1B91EB133461A68A242F5D91A4B4D
:10FF20001A491A780B789A421ED01949194A41F891
:10FF300023504FF48013C2F80031BDE8F883D3F8A2
:10FF4000149083F810803A689B694846194642B17C
:10FF500090470028DED0104A40F24D11FFF778FF9D
:10FF6000D8E71846C847D5E7531CDBB2022B08BFB9
:10FF700000230B70D9E700BF001001409C27002030
:10FF800098270020A0270020A4270020A5270020D4
:10FF9000B027002000E100E0188B02002DE9F04FAF
:10FFA000A44AA54913780978A44889B0006800904C
:10FFB000994200F0EB800133DBB2022B08BF002333
:10FFC00013709F4A52F82360009B9C4A334423F0ED
:10FFD0007F4313604FF0010E9A4B079693F800A0F1
:10FFE000994BCDF818A0D3F80090964B5B7801930D
:10FFF0001D46944BD3F804B09B7802931C46934B58
:020000022000DC
:100000001B7804938D4B00271B68039351464A4687
:100010004B460597BC4638462646B846A9421AD0F4
:1000200001EB410401311BF83470C9B2B14208BF81
:100030000021022F0BEBC40400F08380032FEDD1CD
:10004000002BEBD0DA6918741346002AFAD1A942C2
:100050004FF0010CE4D1DDF818A0079E4746BCF133
:10006000000F40F0A380059A12B1744A0399116001
:10007000002F40F09C82BEF1000F40F0C681B9EB2A
:10008000030218BF01220792059375461E466B4A6C
:10009000CDF810B0D2F800C06B4ADFF8B891D64660
:1000A000D2F800A0694A0023127800931F460692F6
:1000B0004FF001089B463DB36A68A9682C46ED697C
:1000C000CCEB020323F07F434B4572D80B442360F3
:1000D0006760A76084F81080E761002E00F08B80D5
:1000E000316899427ED2304603E01168994269D264
:1000F0001046C2695B1A002AF7D12360E2613346D9
:10010000C4611E46002DD7D1019B9E4500F0A480FE
:100110000EEB4E03049911F83320039210460EF1B2
:10012000010E029A5FFA8EFE724508BF4FF0000E74
:10013000012801EBC30364D03346012200921E461E
:10014000E0E76468002B3FF469AF9C429A4601D116
:1001500015E0BA46DAF81C70002F3FF45FAFBC42DE
:10016000F7D1BA450CD0FC693F68CAF81C40002C96
:100170003FF454AF23683B44236013464EE71F46C9
:10018000DA6932B113464FF0010CECE70026B646AF
:1001900022E72F4B4FF00108C3F80880C4461346EE
:1001A0000392CDF81080CDF81480DCE726490A6070
:1001B00059E7C2EB0C0222F07F428A4209D28B1A25
:1001C000236085E7C91A11602360E2613346C46188
:1001D00097E727606760A76084F81080E76156B1F1
:1001E00031680023CB1A33602346E661A2464FF004
:1001F000010B1E4686E72346A2464FF0010B1E4622
:1002000080E75C68227C009282B99A686260D96853
:10021000A1601869E0605B69A361069B002B00F098
:10022000F180009A626000932A4649E733461E46F1
:1002300068E700BFA4270020A527002098270020FA
:10024000B0270020A82700209C270020A6270020F8
:1002500000100140FEFF7F00009B5A46002B40F03B
:10026000AE8112B1824BC3F800A0059BB34200F0EF
:10027000BF80002E00F00A817E497F4CD1F8040532
:1002800025783368CCEB000222F07F420332002D48
:1002900050D17A4DDFF8ECE1794F4FF48036C1F858
:1002A0004463C1F804634FF40036C5F880612E60E2
:1002B00001250D60DEF800602F2100BF00BF00BFE8
:1002C00000BF00BF00BF00BF00BFBE422FD000BFB5
:1002D00000BF00BF00BF00BF00BF00BF00BF00BF26
:1002E00000BF00BF00BF00BF00BF00BF00BF00BF16
:1002F00000BF00BF00BF00BF00BF00BF00BF00BF06
:1003000000BF00BF00BF00BF00BF00BF00BF00BFF5
:1003100000BF00BF00BF00BF00BF00BF00BF00BFE5
:1003200000BF00BF00BF00BF00BF00BF00BF01395A
:10033000C3D1257093422CBF9C4494444D492CF06A
:100340007F43C1F84035D1F80425121A1B1A22F058
:100350007F4223F07F4303329A424DD9D1F80435CE
:10036000484AC1F84035126845492F2300BF00BFF5
:1003700000BF00BF00BF00BF00BF00BF8A422FD038
:1003800000BF00BF00BF00BF00BF00BF00BF00BF75
:1003900000BF00BF00BF00BF00BF00BF00BF00BF65
:1003A00000BF00BF00BF00BF00BF00BF00BF00BF55
:1003B00000BF00BF00BF00BF00BF00BF00BF00BF45
:1003C00000BF00BF00BF00BF00BF00BF00BF00BF35
:1003D00000BF00BF00BF00BF00BF00BF00BF00BF25
:1003E000013BC3D1254B4FF40032C3F8002103E099
:1003F000079B002B7FF43DAF234A0023137009B005
:10040000BDE8F08F039B00935AE6194ADDF800C05F
:1004100017680020054601460446ABB11A68B2428F
:100420001BD8D8681C60B61A1144DA6938B10CEBD5
:10043000010727F07F47DD6198605F601D46134626
:1004400017467046002BE9D1002840F0BC800023FD
:10045000059301230793059E19E6002840F0AC8020
:10046000921B05931A6001230793059E0FE600BFB8
:100470009C27002000100140B827002000E100E088
:100480000024F400A0210020A62700204F4A504B52
:10049000504D51484FF480314FF400370124C3F8D8
:1004A0008070C2F848132F23C2F8081354602968DB
:1004B0001D4600BF00BF00BF00BF00BF00BF00BFA0
:1004C00000BF81422FD000BF00BF00BF00BF00BFF0
:1004D00000BF00BF00BF00BF00BF00BF00BF00BF24
:1004E00000BF00BF00BF00BF00BF00BF00BF00BF14
:1004F00000BF00BF00BF00BF00BF00BF00BF00BF04
:1005000000BF00BF00BF00BF00BF00BF00BF00BFF3
:1005100000BF00BF00BF00BF00BF00BF00BF00BFE3
:1005200000BF00BF00BF013DC3D194602B4A1660DD
:1005300000BF00BF00BF00BF00BF00BF00BF00BFC3
:1005400081422FD000BF00BF00BF00BF00BF00BF6F
:1005500000BF00BF00BF00BF00BF00BF00BF00BFA3
:1005600000BF00BF00BF00BF00BF00BF00BF00BF93
:1005700000BF00BF00BF00BF00BF00BF00BF00BF83
:1005800000BF00BF00BF00BF00BF00BF00BF00BF73
:1005900000BF00BF00BF00BF00BF00BF00BF00BF63
:1005A00000BF00BF013BC3D10D4B1E7024E70D4AB5
:1005B0009DF8101011705EE50B490F6050E70B4B72
:1005C00083F800E04DE6084B1F6040E70010014053
:1005D00000E100E0A02100200024F4009827002082
:1005E000B8270020A62700209C270020A82700204D
:1005F0002DE9F04712F0030402D00720BDE8F08790
:10060000002AFAD05F4D604EDFF88891DFF888C18C
:100610004FF4803E4FF400374FF00108C6F8807069
:10062000C5F848E32F27C5F808E3C5F80480D9F8D2
:1006300000E0B94600BF00BF00BF00BF00BF00BF61
:1006400000BF00BFE6452FD000BF00BF00BF00BF06
:1006500000BF00BF00BF00BF00BF00BF00BF00BFA2
:1006600000BF00BF00BF00BF00BF00BF00BF00BF92
:1006700000BF00BF00BF00BF00BF00BF00BF00BF82
:1006800000BF00BF00BF00BF00BF00BF00BF00BF72
:1006900000BF00BF00BF00BF00BF00BF00BF00BF62
:1006A00000BF00BF00BF00BFB9F10109C2D1C5F84A
:1006B000088000BF00BF00BF00BF00BF00BF00BF79
:1006C00000BFE6452FD000BF00BF00BF00BF00BF86
:1006D00000BF00BF00BF00BF00BF00BF00BF00BF22
:1006E00000BF00BF00BF00BF00BF00BF00BF00BF12
:1006F00000BF00BF00BF00BF00BF00BF00BF00BF02
:1007000000BF00BF00BF00BF00BF00BF00BF00BFF1
:1007100000BF00BF00BF00BF00BF00BF00BF00BFE1
:1007200000BF00BF00BF013FC3D1DFF870E0DFF8BA
:1007300070A0164FDFF86C90DFF86C80DFF86CC0AB
:100740008EF80040CAF800304FF4801EE023B970E4
:100750003C707C70C9F8004088F800408CF800407C
:100760000B49C6F880E186F81433C6F800E0C5F8F6
:10077000080586F81133D5F804350B607A602046F9
:10078000BDE8F0870010014000E100E0A82700204C
:1007900098270020A02100200024F400B827002082
:1007A000A02700209C270020A4270020A5270020A8
:1007B000074B5B6823B12AB120B10368187C18B1DC
:1007C000082070470720704759745A61704700BF6E
:1007D000A82700202DE9F043274C636883B033B18C
:1007E00028B1042907D8072003B0BDE8F08308200A
:1007F00003B0BDE8F0834369002BF8D0054602A89A
:100800006B7C0026012B00F8016D0CBF8946B146B8
:1008100090460F4600F074F86378A07821785A1C4F
:10082000D2B2904208BF324691421FD003EB43033D
:100830006068DB00C11819D04FF0010E00F803E02A
:100840000E4B4D60D3F804358B609DF80700CF60E8
:10085000C1F81090C1F81480627000F079F8084B6C
:100860004FF480123046C3F80021C1E79DF807001D
:1008700000F06EF80420BBE7A8270020001001401C
:1008800000E100E0F0B51C4E736883B053B348B389
:1008900043693BB3054602A8002400F8014D2C74BF
:1008A00000F02EF87378B07831785A1CD2B29042AA
:1008B00008BF2246914218D003EB43037168DB0066
:1008C000CF1812D00220C8547D609DF807007270C6
:1008D00000F03EF8094B4FF480122046C3F8002187
:1008E00003B0F0BD082003B0F0BD9DF8070000F094
:1008F0002FF80420F7E700BFA827002000E100E060
:10090000F0B4EFF3108472B60E4B9A68B2B90E4988
:1009100001259D60D1F880700C4D2E463D401D6034
:10092000C1F88060D1F884505D604FF0FF33C1F8AA
:100930008430027004B962B6F0BC704701230370C2
:10094000F8E700BF0032002000E100E0FC06FFBC39
:10095000094B9A6872B168B910B4EFF3108272B69D
:1009600006491C680C605C684C60986002B962B60D
:100970005DF8044B704700BF0032002000E100E04A
:10098000F0B52B4C2B4F6368668883B0002B48D0A2
:1009900036015A88B9190332496803EB820201F51E
:1009A0008050824225D21368013318BF4FF6FF757D
:1009B0001FD09388AB4213D013888BB162601E485E
:1009C0005388868801681D480025033300959BB233
:1009D00001EB86010325257001F0E2F903B0F0BDBB
:1009E0005388033302EB8302824202D2136801333D
:1009F000DFD13E44B38963B10F4D10482968022707
:100A0000052600230122AF80267001F021FA03B0F1
:100A1000F0BD0122094801F01BFA0423237003B042
:100A2000F0BD3601BB19596801F10802B7E700BFF4
:100A30004828002008280020E02800201C2300204F
:100A4000F0B543688E464BB1394A1468A34205D3CA
:100A50005268934202D813F0030236D00023354E79
:100A6000AEF800304FF0010C4FF6FF7577680023A9
:100A700007F58054C3B15A88033203EB8203A342C3
:100A800016D21A68013213D09A88AA42F3D01A8873
:100A9000002AF0D0026899689142EBD1264A43605F
:100AA000138903810120F0BD07F10803A342E8D3B5
:100AB0000CF10103AEF800C01FFA83FCBCF1050F76
:100AC00006F11006D2D10020F0BD1B4C0589248907
:100AD000A542C3D105689C68A542BFD115484468AA
:100AE000A34205D904F58054A34201D213461AE06B
:100AF0004269934205D902F58052934201D2012303
:100B000011E0426A934205D902F58052934201D224
:100B1000022308E0426B9342D5D902F580529342FA
:100B200038BF0323CFD2AEF800300120F0BD00BFA4
:100B30001C2300200828002048280020B3F804C007
:100B4000BCF1030F54D82DE9F043DFF8AC80914697
:100B50004FF6FF7700224FEA0C1408EB040E18F84A
:100B60000440002C33D11C68002C3CD06588DEF892
:100B70000460033504EB850406F58056A64225D9AA
:100B80002568013522D0A588BD4219D02588BDB180
:100B90001C6018B1A6880588AE42E5D119B1268837
:100BA0000D88AE42E0D1A268C9F800201A68114B46
:100BB000C9F804201B89A9F808300020BDE8F0839B
:100BC0006588033504EB8504B442D9D31A600CF16F
:100BD000010C1FFA8CFCBCF1040FA3F804C0BAD1BD
:100BE0000A20BDE8F083DEF8046006F10804C3E7DC
:100BF0000A20704748280020082800202DE9F04FDF
:100C0000AF4C256FEF007E1BB6008BB0A25D531E6C
:100C1000804604EB060BA146052B00F2DB82DFE8E1
:100C200003F06748481E1E03002840F0D680DFF816
:100C3000ACE29EF80E30002B00F04E839EF80030A0
:100C40008EF80E00013B062B00F2C382DFE813F0A2
:100C5000010393029A017A01C102AE029E020028AA
:100C600040F0BC80C5EB070A04EB8A03029393F8BB
:100C700004A0BAF1010F00F07483C0F05E83BAF1F2
:100C8000020F41F61D5318BF0F2341F61D518B4231
:100C900000F0AA8019F8061006938B1E012B40F273
:100CA000C480013A052A33D8DFE802F075907966EE
:100CB000592F7B1B04EB83038249B3F812A001EB8D
:100CC0000A1A002840F09B80BAF80800DAF80410ED
:100CD0001B7C01EB80010291062B00F2C683DFE84A
:100CE00013F06901B4019501FD01E701D501D201BD
:100CF00000287CD19BF80430032B00F2B483DFE89A
:100D000013F01401F100CE009E0005238DF814307D
:100D10006D4D05F1200655F8043F0BB105A8984725
:100D2000B542F8D1206F664DC0EBC00004EB8000E7
:100D30001C220021FEF706FC636F43B12A6F0132CB
:100D4000013B02F003026B672A67002B67D15F4A01
:100D5000137823F0040313700BB0BDE8F08F7B1BF6
:100D600004EB83030422DB88ADF8203000238DF8E8
:100D70001420ADF82230CBE77B1B04EB8303032266
:100D8000D8881989DB680793ADF82000ADF82210E8
:100D90008DF81420BCE700238DF81430B8E77B1BD6
:100DA00004EB830302211A7C1E899D88D868ADF864
:100DB0002060A2F10603B3FA83F35B098DF82430B7
:100DC000ADF8225007908DF81410A1E77B1B04EBBF
:100DD0008303012218899988D4E70622012341F66A
:100DE0001D518B427FF456AF0023069359E73749D4
:100DF0000B78012223F001030B70134645E7D888D6
:100E0000BAF80A30BAF8081000F1030E1B1A033BB7
:100E10007144AAF80A30AAF80810012335E7002027
:100E2000FFF7ECFE0BB0BDE8F08F294B9BF8166086
:100E3000186C596C3044891B1864596431E7DFF829
:100E4000A080244AD8F8001023484FF0000A02235B
:100E5000CDF800A000F0A4FF204B1A495B88D8F819
:100E600000E08BF804A01B01CA1801F803A0536826
:100E7000B8F80410C8F800300223C2F804E0118169
:100E8000A8F8043000283FF467AF7B1B14F8232038
:100E90000E490B7823F001030B700E23F5E6DFF803
:100EA00040800D48D8F800100023012200F0D0FF48
:100EB00002220023A8F804208BF80430E2E700BFE8
:100EC0005828002008280020F0280020E8280020CA
:100ED000BC2700205C8B02001C2300204828002037
:100EE000E0280020DFF8008398F80030022B00F0A3
:100EF000B48298F81030022B00F0968298F82030D7
:100F0000022B00F0928298F83030022B08BF0323A6
:100F100000F08B82B04A137843F0020323F0010300
:100F20001370012241F61D53AFE6AC4BAC4A196871
:100F3000AC4800230093022300F032FF01238BF81A
:100F400004309FE7A84BBEF80220DFF8B08203EB25
:100F500002129389002B00F04182A04BA14819682E
:100F600002229A800522002388F80020012200F046
:100F70006FFF0346002B3FF4EFAE1C2202FB05F28D
:100F8000A25C87E69549DEF80420B1F804C0096840
:100F90005388944801EB8C014FF0000CCDF800C051
:100FA00003334FF0030C9BB28EF800C000F0F8FE44
:100FB0000346DFE77B1B9B0004EB0308039300233E
:100FC000009302998748012308F1040200F0E8FE2B
:100FD000022388F8103000283FF4BEAE039B834AFA
:100FE000D25C0E23781B04EB8000BAF80A10B0F82C
:100FF00006E0BAF808000EF1030CCEEB01016044E4
:101000000339AAF80800AAF80A103EE6C5EB07085B
:101010004FEA880802997348002304EB080208315C
:101020000C320093012300F0BBFE04EB08036F4970
:101030009A7D002A0CBF012203221A7400283FF473
:101040008BAE11F808200E23CCE7C5EB07084FEA5A
:1010500088080299634804EB08031A460023043108
:10106000029200930832012300F09AFE14F808203F
:101070000299032A0CBF052306230B7400283FF4B2
:101080006BAE0E23AEE741F61D53ABE7584B594A02
:101090005968544800230093012300F081FE002882
:1010A00040F095817D1B04EB85040623237453E6F1
:1010B0007B1B4FEA830804EB08024D4B92691A60D0
:1010C0001846002205A95A60FFF7BAFC00287FF4F1
:1010D00071AF464B13F808200A23D6E5DFF820E16C
:1010E000DEF844C0BCF1000F00F05081DEF8401083
:1010F0003C485EF83120C5EB070804EB88080EEB8E
:10110000C10301310CF1FF3C01F00701CEF84010A2
:10111000CEF844C00299B8F814E0039301EB8E01B5
:101120004FF0000E9B88CDF800E000F039FE039AE6
:1011300098F81630B8F814109288013B0A44DBB2D4
:10114000A8F8142088F8163013B9012388F8103055
:1011500000283FF401AE7A1B0E2314F8222041E749
:101160001E4ADEF80410938849880B440333022199
:1011700093808EF80010FFF703FC0346002B3FF42A
:10118000EBAD1C2202FB05F2A25C7EE5134B144A78
:101190001968144800230093CEF8043007238EF812
:1011A0000030022300F0FCFD0346E3E6BEF8023007
:1011B000DFF834801B014344002206205968009266
:1011C00002238EF800000C4A064800F0E9FD0346B1
:1011D000D0E606220F2358E5E8280020E02800206A
:1011E000548B02001C2300200828002058280020CF
:1011F000D0280020648B02005C8B0200482800206D
:10120000BC2700209A4BBEF808C01878197C93F8C8
:10121000202093F83030B2FA82F2B3FA83F3520905
:101220005B09B0FA80F0B1FA81F1400949090CF18B
:10123000010C8EF80C208EF80D30002201238EF860
:101240000A008EF80B10AEF808C08EF80E208EF84B
:1012500000309EF80A30874A43B185498B890020C7
:1012600090721BB98A7B002A40F0F1809EF80B3007
:10127000804A43B17E4B998B0020D07219B99B7F75
:10128000002B40F0EE809EF80C307A4A4BB1784B40
:10129000998D0020107321B993F82E30002B40F067
:1012A000D5809EF80D30734A4BB1714B998F002059
:1012B000507321B993F83E30002B40F0D0807A1B58
:1012C00000238EF80030AEF80230CEF8043014F867
:1012D000222041F61D53D8E49EF80030072B3FF63C
:1012E000B1AC01A252F823F005120200450C020035
:1012F000450C020061110200111302008D11020061
:101300008D1102000913020001238EF80030A0E7BE
:10131000BEF80230DFF85881574A1B0108EB030082
:101320001168D0F804A0B2F804C041600221C2F8EC
:1013300000A0A0F808C091803DE7DB68CDF81880D8
:1013400005A80DF11201CDF81C800593FFF778FB7D
:1013500000284DD10A237A1B04EB8202022111716D
:1013600008E6464B1B789B0713D402230822002172
:1013700043480293FEF7E6F8029B0A2B7FF4FEAE89
:101380007A1B41F61D5314F822207EE4DCF800306D
:10139000FFDE02983A4B063005AA4146FFF7CEFB26
:1013A00003460028E2D15346364A0699CDF800801C
:1013B000354800F0F5FC324A2D4B928803EB0212BF
:1013C00000280CBF43460E2382F80EA0D5E77B1BF6
:1013D0009B00E1180620E25C087452E651682A4836
:1013E000012200F035FD0422034688F80020C1E503
:1013F000069902988B88C380B1F800E0214ACDF8A5
:1014000000800123A0F808E01F4800F0C9FC184B39
:10141000BDF8122003EB021200284FF0010114BFA7
:101420000E230023917396E701234FEA031A08EB7A
:101430000A03164A5968144800230093022300F057
:10144000AFFC4FF0000308F80A301BE50223AEF8AA
:101450000230FFF795FA034690E60023E5E7032301
:10146000F5E70123F3E7012212E50F23BAE500BFF8
:101470000828002048280020E0280020E828002034
:10148000EC280020648B02001C2300205C8B0200EF
:101490000846FFF7B3BB00BF2DE9F04F0F894C683A
:1014A00085B006463D46002F00F0AE80206810F063
:1014B000030040F095809E4604E054F830309B07CE
:1014C00040F08E8001308742F7D17346002A00F049
:1014D0008B80B2F8009052880094BB467448DFF8C5
:1014E000E4C10768DCF87480032B07F1010707608B
:1014F00003BF306803904FF0040A4FF0000AB8F1C0
:10150000030F60D8DFF8ACE1DEF844000446C5F113
:1015100008008442019456D8DCF870000C88498891
:10152000029108EB000101F00301C1EBC101890048
:101530000CEB01000CF80130C280039A826108F1C3
:1015400001080023BDF8081081804FF003020481D8
:10155000C76080F810A0A0F8129080F816B08282C0
:101560004381CCF87480E5B1DEF84020019C14443E
:1015700004F00702009C0EEBC2020EF1380804EBE7
:10158000C30103C9013302F1080C82E8030042459C
:1015900014BF624672469D424649F0D14B6C2B44C3
:1015A0004B6436B10023444A376073601289B372CA
:1015B000328142490B7803F0040202F0FF04002A52
:1015C00059D0002009E03E4B03EB09190820B9F877
:1015D0000A30033B9A1AA9F80A2005B0BDE8F08F3B
:1015E000032005B0BDE8F08F04EBC70EA0880834D7
:1015F0000244A64592B2F9D1D01C80B240F2FD342B
:10160000A04205D90920E8E7002A7FF462AF032051
:101610002B4C94F80090B9F1000F07D16589278908
:101620002F440744BFB2B7F5806F3BD3257C244FCE
:101630003DB97D8B3F8B2F440744BFB2B7F5806F18
:1016400032D394F820501E4F3DB97D8D3F8D2F44ED
:101650000744BFB2B7F5806F22D394F83050184FCB
:101660003DB97D8F3F8F2F440744BFB2B7F5806FE0
:1016700009D30720B1E743F0040320460B70FFF7BE
:10168000BDFA2046A9E74FF003094F4604EB0714C3
:1016900028446081B1F808B0486800905D461DE7B5
:1016A0004FF002094F46F1E74FF001094F46EDE7D1
:1016B00004280020BC27002048280020E82800201B
:1016C0000828002058280020074A1378082B09D042
:1016D00010B4591C054C117044F8230000205DF82B
:1016E000044B70470C207047DC280020F4280020B1
:1016F0002DE9F04FDFF8F08298F800208BB000233E
:101700009607069305930793089309930DD5AD4C5F
:1017100004F1200554F8043F05A803B19847A542F9
:10172000F8D100200BB0BDE8F08F12F0010BF8D11A
:1017300042F0010288F8002000F0D6FAA24BA34A3A
:101740001B681668CDF808B003F59F427C3203F1A0
:10175000080903F580500192043BDE464FF6FF7402
:10176000CDF800B05A689A498A4203F1040528D09E
:1017700003F5805202E0934200F0008153F8041F09
:101780000131F8D04FEA0E13924D03210EF1010EF4
:10179000E9541FFA8EFE1346019A9A4209F58059C0
:1017A00000F58050DED1DDF800A0BBF1000F40F065
:1017B00006811AF0FF0340F08D800B200BB0BDE8CE
:1017C000F08F9A6884498A4234D001318A42CFD15D
:1017D000029A002A69D1814F3D604FF0020CA7F8B0
:1017E00004C0DA680132494603D1E6E00A68551CB4
:1017F00015D08A88A24207D00A882AB18A68B242E4
:1018000002D916464FF0010B4A880332944401EB8B
:1018100082011FFA8CFC8842A7F804C0E6D8BCF10C
:10182000020F14BF0822042200991143009103F50E
:101830008052B0E7674A4FEA0E1C02EB0C074FF0EC
:10184000000A02F80CA002217D603981DD680135B3
:101850004A4612D11AE09568B54202D92E464FF099
:10186000010B55880335294402EB850289B2904269
:1018700039810BD91568013508D09588A54202D069
:101880001588002DE7D14FF0010AEAE7514A944448
:10189000009A8CF80EA042F002020EF1010E0092A6
:1018A0001FFA8EFE03F5805275E74A4A4B494FEA0C
:1018B0000E1702EB070C4FF0020A0EF1010E096839
:1018C00002F807A0CCF80410444FACF808A01FFAA7
:1018D0008EFE81E7062B0AD0013B0A2B1CD8DFE8DD
:1018E00003F0191B191B471B471B444A440098F877
:1018F0000030344C43F0020323F0010388F8003039
:1019000004F1200554F8043F05A803B19847A54207
:10191000F8D106E700230393314A516F032912D807
:10192000304B5B6C082B0ED8136F0B4403F0030392
:10193000C3EBC3039B00D0180124D45401319DF89C
:101940000C300371516798F80030274903F0040206
:1019500002F0FF04002A7FF4E4AE43F004032046C3
:101960000B70FFF74BF92046DCE603230393D3E724
:1019700001230393D0E702230393CDE7174B1B68A2
:10198000A3B114494FEA0E13CF1818497D60114DC9
:10199000A1F802E002210EF1010CE9541FFA8CFEBD
:1019A0003981009B43F001030093F4E60B490223C5
:1019B0008B8001230D600293F3E7042234E7034B8D
:1019C0001E60F6E6F02800201C23002004280020DA
:1019D000DEC0ADDE08280020FE011EF1E028002058
:1019E00058280020BC270020E82800204828002094
:1019F00060B159B130B583B00C460DF10601054612
:101A0000FFF71EF820B90A2003B030BD052070474B
:101A1000BDF80620074B686803EB021301219A8981
:101A20000A449A8120606B6800200C336360A972BD
:101A300003B030BD0828002050B110B582B00DF1C0
:101A400006010446FEF7FCFF20B90A2002B010BDD3
:101A500005207047BDF80620084B03EB02139A8956
:101A600012B9062002B010BDA17A0029F9D00021D8
:101A7000013A9A810846A172E8E700BF08280020D1
:101A80000D4B1B789B0701D40220704759B110B44D
:101A90000C884FF6FF739C4201D04B882BB9042071
:101AA0005DF8044B704705207047022300225DF863
:101AB000044BFFF7F1BC00BFE8280020F8B51A4A34
:101AC0001378990701D40220F8BD4FF6FF718842C0
:101AD0001DD0164D6C6F032C1BD81549496C082975
:101AE00017D8296F214401F00301C1EBC10189001E
:101AF0006F18661C05246C54012403F004013C712A
:101B0000F88001F0FF046E6729B10020F8BD0420C1
:101B1000F8BD0820F8BD43F0040320461370FFF71A
:101B20006DF82046F8BD00BFE828002058280020A6
:101B3000BC270020F8B5174A1378990701D4022072
:101B4000F8BD1548416F03291AD8144C646C082C51
:101B500016D8046F124D0C4404F00304C4EBC40403
:101B60002E780131062700F8247041670EB101215B
:101B7000A97303F0040101F0FF0419B10020F8BDBE
:101B80000820F8BD43F0040320461370FFF736F831
:101B90002046F8BDE828002058280020BC27002057
:101BA0004828002010B50C4C82B0ADF80600207813
:101BB000ADF80410810702D4022002B010BD3AB182
:101BC00033B101A90DF10600FEF7B8FF02B010BD58
:101BD000052002B010BD00BFE828002029DF7047B3
:101BE00028DF704770B50C4D696E042911D02B6E3B
:101BF0000B44032B88BF043B182202FB0354064608
:101C00004B1C204600216B66FDF79CFC34600120D4
:101C100070BD002070BD00BF1829002070B5304C89
:101C2000636E84B07BB1256E6E00731904EBC30341
:101C30001A7A012A09D0022A26D19889FFF7D0FF03
:101C4000112818D000BB04B070BD70199A8ADB8AC5
:101C500004EBC000D21AC1680069B2F5806F4FEA88
:101C60008303B4BF92B24FF4806219441844FFF763
:101C7000B5FF1128E6D11B4A137823F0020343F085
:101C80000403137004B070BD102268460021FDF7F4
:101C900059FC731904EBC3031A7A012A17D0022ADC
:101CA00009D19A89DB89ADF80A20D21A0123ADF84F
:101CB00008208DF800303544ED00621963595268F0
:101CC000019268469B680921984704B070BD1A6963
:101CD0009B8A029200218DF80010ADF80C30EAE7E3
:101CE00018290020142900202DE9F0434FF010237B
:101CF0005D696B1C49D0DFF8A48098F800C01CF027
:101D0000010F3FD1DFF890E02248CEEB0000000940
:101D100034D00EEB0011734607461A6812B15A68A8
:101D200002B1013F10338B42F7D13FB300260022AE
:101D3000194B9146F4B206E0596839B1013290422C
:101D400003F110030ED019680029F5D1597B4945DC
:101D500088BFD4B202F1010288BF8946904203F1E4
:101D60001003F0D1240104EB0E0301361A7B5D60F1
:101D7000B742A5EB023544F80E50D8D14CF0010C17
:101D800088F800C00020BDE8F0834FF080535D6903
:101D90002D03B0E72C2300201C2300201429002051
:101DA0002DE9F041274C2578EE0782B012D510B10D
:101DB000254DA84203D2022002B0BDE8F081234D98
:101DC000A842F8D252B149B142EA0105AD0707D0A5
:101DD0000620F1E7012002B0BDE8F0810320EBE727
:101DE0000568A94201D20520E6E7466801EB8305B4
:101DF000AE42F8D30BB90420DEE7804601A81E46A8
:101E000015460F46FFF7EEFE08B90720D4E7019903
:101E10002378C1F80080019A0898486013F00604FE
:101E20004FF00101D560176196821172054A01D009
:101E30000020C1E743F002031370FFF7EFFE2046D6
:101E4000BAE700BF142900201C2300202C23002007
:101E50002DE9F041244C2578ED0782B010D510B162
:101E6000224DA84203D2022002B0BDE8F081204DED
:101E7000A842F8D241B1C1F30B053DB10620F3E70A
:101E8000012002B0BDE8F0810320EDE70568A9421A
:101E900001D20520E8E7466801EB0235AE42F8D3EF
:101EA0000AB90420E0E7804601A81E4615460F4601
:101EB000FFF798FE08B90720D6E701992378C1F803
:101EC0000080019A4E600220390B13F006049181C4
:101ED00015821072044A01D00020C5E70343137035
:101EE000FFF79CFE2046BFE7142900201C2300209A
:101EF0002C23002020B1034B5B6E03600020704751
:101F000003207047182900202DE9F047DFF8B08240
:101F1000A94C98F80030266E990784B079D502282C
:101F200000F0B680032840F0AF80A44D2B78013339
:101F3000DBB2032B2B7040F2A780002710222F70FA
:101F4000394668467500FDF7FDFAAB1904EBC3038B
:101F5000E9461A7A012A00F0E180022A09D19A8919
:101F6000DB89ADF80A20D21A0123ADF808208DF8DC
:101F700000303544ED0062196359526801929B6844
:101F80008D4F484608219847636E013B6366002BDE
:101F900040F0FD803A6E98F80010013221F0020105
:101FA000042A88F800103A6630D1002626666BB302
:101FB0007500AB1904EBC303AA1904EBC202117A32
:101FC00001293DD002297FD0102268460021FDF76B
:101FD000B9FAAB1904EBC303E9461A7A012A7ED099
:101FE000022A09D19A89DB89ADF80A20D21A012385
:101FF000ADF808208DF800303544ED0062196359C2
:102000005268019248469B680921984704B0BDE890
:10201000F0875A0738D5626E03F0FB0388F800306A
:10202000002AF3D0750043F00203AA1988F80030A3
:1020300004EBC203AA1904EBC202117A0129C1D12F
:10204000D38AAA1904EBC202A819928A04EBC00031
:10205000D21AC1680069B2F5806F4FEA8303B4BF3A
:1020600092B24FF4806219441844FFF7B7FD11286B
:102070002FD198F8003023F0020343F0040388F8CE
:10208000003004B0BDE8F087636E002B90D1BDE74F
:102090007500AB1904EBC307484A3B7A4FF0000ABE
:1020A000012B82F800A023D0022BEDD1FB89BA8945
:1020B000398A01339BB201329942FB81BA8155D0F2
:1020C000636E002BA2D03B469889FFF789FD11284B
:1020D000CFD000287FF478AF04B0BDE8F0871A694C
:1020E0009B8A029200218DF80010ADF80C3083E736
:1020F000FB8AB88AC21AB2F5806FB4BF92B24FF4AD
:1021000080621344A9199BB204EBC1079842FB8279
:10211000294A0BD0526E002A93D177E71A699B8A1D
:102120008DF800700292ADF80C3022E7684610225C
:102130000021FDF707FA3B7A012BE94632D0022B4A
:1021400009D1FA89BB89ADF80A309B1A0122ADF892
:1021500008308DF80020AB19DB00E218E358526814
:10216000019248469B68144F00210CE768461022F4
:102170005146FDF7E7F93B7A012BE946DFD13A6991
:10218000BB8A8DF800A00292ADF80C30E3E73E6EFA
:102190000136042E3E663FF408AF7500AB1907EB1D
:1021A000C30309E73A69BB8AADF80C3000218DF80A
:1021B00000100292CFE700BF1829002080290020DC
:1021C00014290020064A4FF0A043105CD3F80435D0
:1021D00023FA00F000F0010080F00100704700BF1A
:1021E000688B0200044B195C4FF0A04201238B4026
:1021F000C2F80C35704700BF688B0200044B195CB5
:102200004FF0A04201238B40C2F80835704700BF51
:10221000688B02004FF0A04310B44FF480204FF4BD
:1022200000344FF400214FF48012C3F80845C3F87E
:102230000805C3F80815C3F808255DF8044B704776
:102240004FF0A04310B44FF480204FF400344FF40B
:1022500000214FF48012C3F80C45C3F80C05C3F8F5
:102260000C15C3F80C255DF8044B7047084B4FF074
:10227000A0411B5CD1F80405012202FA03F323EA12
:1022800000020340C1F80825C1F80C35704700BFB3
:10229000688B020030B44FF0A04303224FF40035A6
:1022A0004FF480244FF400204FF48011C3F84427EA
:1022B000C3F84827C3F84C27C3F85027C3F808557C
:1022C000C3F80845C3F80805C3F8081530BC7047C3
:1022D0000D2809D00E2809D00F2809D010280CBFCE
:1022E00003204FF0FF3070470020704701207047F7
:1022F0000220704730B50478012C83B01FD010D372
:10230000022C0CD1C36827492748019301228DF87C
:10231000004000F08FFF254B68461B68984703B0CC
:1023200030BD2349234800F009F9F0B102A8032386
:1023300000F8083D1D4B1B68984703B030BD43684B
:102340001D4D1978284600F0E1F8A0B9AA68EB689D
:102350009A421ED1A968EB68AA885B1A9A4212D2E7
:10236000164B01221A7003B030BD012210490E48ED
:1023700000F0B4FED3E70D4B01908DF800401B68D0
:1023800068469847E6E701220649074800F052FFF1
:10239000C5E702AB054A03F8080D126818469047D6
:1023A000D8E700BF8C2900208C210020882900203C
:1023B0008429002090290020A4290020A0290020A1
:1023C0002DE9F0432F4C89B02260002952D00C46F1
:1023D00080468A882C480968994600F087F810B131
:1023E00009B0BDE8F083A289A168284800F07EF812
:1023F0000028F5D1264D98F810E0D8F80C70D8F8E0
:1024000008600FCD6C460FC495E80F0098F8115086
:1024100002971EF1000E18BF4FF0010E002D84E848
:102420000F00D8F80050D8F804401A4A1A488DF81E
:102430001C9014BF0E2300238DF815306946D8F880
:1024400014308DF814E0069303968DE8300000F008
:1024500057FD0028C4D1D8F80030104A013310705D
:10246000BED09DF81D304BB101220D490A4800F045
:10247000E1FEB5E7072009B0BDE8F083064800F0AB
:10248000F7FFF1E788290020A429002090290020E7
:102490006C8B0200F52202008C210020A029002074
:1024A0008C29002070B50C4C01460C48267800F0B1
:1024B00045F805460EB9284670BD0023012208499B
:1024C0000848237000F0B6FE0028F4D0064AB9216F
:1024D000FDF7BEFC284670BDA0290020A4290020DD
:1024E0008C2900208C2100208C8B020059B10AB964
:1024F00009207047531E1A40FAD182600160838020
:10250000C260104670470E20704700BF10B4846848
:10251000C26803468088121B904203D204205DF8F3
:10252000044B7047DA681C6802400020A154DA6846
:102530000132DA605DF8044B704700BF03468068E3
:10254000DA68904201D10520704710B49A689888E3
:102550001C6802400020A25C0A709A6801329A60EE
:102560005DF8044B704700BF10B51A4B1A6882B073
:10257000A2B100221A601B6800934FF08043012231
:10258000154C0099C3F80823A368627033B10CCBD3
:102590000020A2609847A368002BF8D10F4B1A685F
:1025A000AAB100221A601B6801934FF080430222F7
:1025B000094C0199C3F8082323690122A27033B1A1
:1025C0000CCB0120226198472369002BF8D102B07F
:1025D00010BD00BF00010040B429002004010040EC
:1025E00058B910B5054CA36833B10CCB0020A260DC
:1025F0009847A368002BF8D110BD7047B42900207C
:1026000010B582B002A80023144C00F8013DFEF77B
:1026100077F9237893B9124A6360E3601068A36086
:1026200010F00100236114D004F0BCFC20B94FF07D
:1026300080430122C3F8182501232370E3689DF825
:10264000070001330122E360A270FEF781F902B0B6
:1026500010BD072100F032F8E6E700BFB4290020E2
:1026600000E100E0014B1B68184700BFC8290020AB
:10267000104B984201D00720704770B582B002A875
:1026800000230D4E00F8013D0D46FEF739F934796F
:102690004CB901239DF807003371FEF759F93560F5
:1026A000204602B070BD9DF80700FEF751F91120D9
:1026B000F7E700BF00300040C8290020002810B410
:1026C00018DB00F1604303F561434901C9B283F8A7
:1026D0000013C3B24009800000F1604000F5614082
:1026E00003F01F0201239340C0F8803103605DF8BE
:1026F000044B7047C3B2044A03F00F04490122445B
:10270000C9B21176E6E700BFFCEC00E030B51D4C25
:1027100094F8545083B015B1082003B030BD4FF089
:10272000FF33FF220721062023636363A363E36370
:1027300023646364A364E36423606360A360E36071
:1027400023616361A361E361236284F850306362B3
:10275000A36284F85230E36284F8533084F8512045
:10276000FFF7ACFF084B094A1D601B6801930198F5
:102770004FF000430121284684F85410C2F8043376
:1027800003B030BDD02900207C61004000600040D3
:10279000034B93F85400003018BF0120704700BF6E
:1027A000D0290020F0B5624C251895F93030002B67
:1027B00001DB0820F0BD91F803E09446BEF1000F64
:1027C00056D02368013300F0A380002508266B1C37
:1027D000574F54F82320013251D0AB1C9E4245D9AB
:1027E00057F8232001324AD0EB1C9E423ED957F8BD
:1027F0002320013243D02B1D9E4237D957F8232086
:1028000001323CD06B1D9E4230D957F823700137FE
:1028100035D0AB1D9E4229D954F82320444F0132B4
:102820002DD0EB1D9E4221D957F82320013226D00E
:1028300005F108039E4219D957F8232001321ED012
:1028400005F109039E4211D957F82320013216D011
:1028500005F10A039E4209D957F8237001370ED0BB
:102860000B35AE4202D9E36A013307D00420F0BD34
:10287000236A013353D008250C26A8E70B2326181A
:102880005DB244F823C086F83050BEF1000F02D18B
:10289000234483F848008B78A3B94A784FF0A046C8
:1028A00000F5E073920046F82320CB78A3B9083DE9
:1028B0002C44097894F8502042EA811284F8502080
:1028C0001846F0BD830003F1A043D3F8002722F09F
:1028D0000202C3F80027E8E7AB0003F1804303F5E9
:1028E000C0430A78D3F8101521F4473121F4407120
:1028F000C3F810151204000202F44031D3F8104559
:1029000000F4F8520A432243C3F810250020F0BD1A
:10291000002385F83030C4F800C01D46BBE7082608
:1029200085F830603346C4F820C03546B0E700BFB4
:10293000D0290020F0B42E4D2E1882B096F93030F8
:10294000072B1CDD2B4493F848309B09032B41D007
:10295000012B14BF4FF440334FF40033800000F1DB
:10296000A040D0F8002722F44032C0F80027D0F869
:1029700000271343C0F8003702B0F0BC7047DAB24A
:10298000072AF9D8980000F1804000F5C04003F113
:1029900040029200D0F8104592B202F18042002726
:1029A00044F0010402F5C042C0F8104501970198B7
:1029B00017600029E0D096F9302055F82220002A2F
:1029C000DAD001220B4902FA03F3C1F8043302B052
:1029D000F0BC70474FF0A043D3F81035C34013F05C
:1029E000010F0CBF4FF400334FF44033B6E700BF84
:1029F000D0290020006000404FF0A043D3F81035EC
:102A000023FA00F000F00100704700BF2DE9F04309
:102A100087B00026C94B01961A68012A00F004828B
:102A2000C74B1A68012A00F0F181C64B1A68012AC7
:102A300000F0DE81C44B1A68012A00F0CB81C34B41
:102A40001A68012A00F0B881C14B1A68012A00F007
:102A5000A581C04B1A68012A00F09281BE4B1A680A
:102A6000012A00F07F81BD4B1A68012A00F05981CC
:102A700016F0FF0F1AD0BA4F01250024A30003F16E
:102A800080432E4203F5C0434FEA45050BD0D3F8EF
:102A9000100557F82420D3F81015C0F30420C1F313
:102AA000014102B190470134082CE7D1002E02DB2E
:102AB00007B0BDE8F083AA4C00224FF0FF33274651
:102AC0000292039301260DF1080894F950104D1C51
:102AD0002DD0C9B221F0C00006AB4FEAD00E03EBF7
:102AE0000E0201F0070312F80CCC06FA03F31CEAFD
:102AF000030F1CD03D18890995F9305057F82590DF
:102B0000B9F1000F00F0E880032900F0E8804FEAF7
:102B1000800E0EF1A04E12F8145CDEF800271D4066
:102B2000C2F3014240F0B580032A00F0A2810025E3
:102B300094F95110481C2FD0C9B221F0C00006AB47
:102B40004FEAD00E03EB0E0201F0070312F80CCC93
:102B500006FA03F31CEA030F1ED007EB000C8909E9
:102B60009CF930C057F82C90B9F1000F00F0C680E6
:102B7000032900F0C6804FEA800E0EF1A04E12F835
:102B800014CCDEF800271CEA030FC2F3014240F028
:102B90008D80032A00F0928194F952104A1C2ED0A5
:102BA000C9B221F0C00006AB4FEAD00E03EB0E0213
:102BB00001F0070312F80CCC06FA03F31CEA030F2A
:102BC0001DD007EB000C89099CF930C057F82C90F8
:102BD000B9F1000F00F08980032900F088804FEAE6
:102BE000800E0EF1A04E12F814CCDEF800271CEA7D
:102BF000030FC2F3014265D1032A00F04C8194F91E
:102C000053104B1C2CD0C9B221F0C00006AB4FEAC8
:102C1000D00E03EB0E0201F0070312F80CCC06FAFB
:102C200003F31CEA030F1BD007EB000C89099CF986
:102C300030C057F82C90B9F1000F69D0032969D042
:102C40004FEA800E0EF1A04E12F814CCDEF80027E9
:102C50001CEA030FC2F3014211D1032A00F0F080F5
:102C6000002D3FF425AF4FF0A043019AD3F8103563
:102C700093423FF41DAF029A0193039225E7022A83
:102C8000EED1032900F02D81B9F1000FE8D0C8473B
:102C9000E6E7022A7FF44BAF032900F02B810025E1
:102CA000B9F1000F3FF444AFC84741E7022A7FF46F
:102CB00073AF032900F01881B9F1000F3FF46CAF36
:102CC000C84769E7022A9AD1032900F01081B9F1B7
:102CD000000F94D0C84792E703297FF428AF18F873
:102CE0000E501D4308F80E5011E7032987D118F83C
:102CF0000EC04CEA030C08F80EC070E703297FF4FD
:102D00004BAF18F80EC04CEA030C08F80EC032E7BF
:102D10000329A5D118F80EC04CEA030C08F80EC020
:102D20008EE700221A601B6805934FF0A043059AB6
:102D3000D3F81035019346F0004699E60061004053
:102D400004610040086100400C61004010610040D7
:102D500014610040186100401C6100407C6100402B
:102D6000D0290020654AD2F8042317067FF57BAEF0
:102D700000221A601B680493049B46F0800672E6EA
:102D80005E4AD2F8042352067FF568AE00221A602C
:102D90001B680493049B46F040065FE6574AD2F84E
:102DA000042391067FF555AE00221A601B68049338
:102DB000049B46F020064CE6504AD2F80423D00685
:102DC0007FF542AE00221A601B680493049B46F014
:102DD000100639E6494AD2F8042314077FF52FAECE
:102DE00000221A601B680493049B46F0080626E63E
:102DF000424AD2F8042355077FF51CAE00221A6020
:102E00001B680493049B46F0040613E63B4AD2F881
:102E1000042397077FF509AE00221A601B6804930C
:102E2000049B46F0020600E63449D1F8041311F081
:102E300001011CD01E601B680493049B1646EFE53D
:102E400003297FF421AF4FF40033DEF8002722F48A
:102E50004032CEF80027DEF8002701351343EDB2EB
:102E6000CEF80037B9F1000F7FF411AFFBE60E4644
:102E7000D6E503297FF414AF4FF40033DEF80027C2
:102E800022F44032CEF80027DEF800271343CEF8B4
:102E90000037012504E703297FF419AF4FF400330D
:102EA000DEF8002722F44032CEF80027DEF80027B3
:102EB00001351343EDB2CEF8003708E703297FF45C
:102EC000FBAE4FF40033DEF8002722F44032CEF898
:102ED0000027DEF8002701351343EDB2CEF80037A6
:102EE000EAE64FF44033B0E74FF44033EBE74FF4FA
:102EF0004033D5E74FF44033C0E700BF00600040E7
:102F0000F0B50479724E6401331987B0DD7E15B1D6
:102F1000082007B0F0BD4D7F1D770D686B1C0BD0EE
:102F20004FF0A0470123AB40C7F808350B6803F505
:102F3000E073032547F823504B685F1C06D003F568
:102F4000E0734FF0A045002745F82370037906EBA6
:102F500043131B7F002B4DD003688D69C3F82455A4
:102F60004F7D0B7D05683B43C5F86C3503680F68E2
:102F70004D68C3F80C75C3F814550B7D012B00F098
:102F80009B80331905465A600B6951483351EAB1A9
:102F90002B79097F2A6800EB4310037F002B65D152
:102FA000C2F81C31D2F81C712A680097009FC2F841
:102FB0004431D2F844212B6846480192019AC3F863
:102FC0000403286840F30730FFF778FB2B792A6861
:102FD00006EB43131B7F002B44D00823C2F80035B7
:102FE000344400200123E376E0752076A075A076B6
:102FF00007B0F0BD05688F69C5F8247591F815E034
:103000000D7D07684EEA0505C7F86C550568D1F8CF
:1030100000E04F68C5F81475C5F80CE50D7D012D6D
:10302000AFD18D686F1C05D005F5E0754FF0A04756
:1030300047F82530CB685D1C0DD001254FF0A04727
:1030400005FA03F3C7F80835CB6803F5E0730325E9
:1030500047F82350CB6805688F68C5F80835C5F870
:1030600010758EE70423C2F80035B9E70023C2F8D3
:103070001031D2F810712A680297029FC2F82031ED
:10308000D2F820712A680397039FC2F82431D2F83E
:1030900024712A680497049FC2F84431D2F844216D
:1030A0002B6805920C48059AC3F80403286840F37E
:1030B0000730FFF703FB89E78B685D1CBAD003F587
:1030C000E0734FF0A045002745F82370B2E700BF3A
:1030D000282A00208000020010030200F0B50379C6
:1030E000534C5B01E51887B02D7F3DB101F0604581
:1030F000B5F1005F02D0102007B0F0BD23444C4F63
:103100009E7D16B1112007B0F0BD9A7599609E8220
:1031100005796D017A19137F13BB0168C1F81C3161
:10312000D1F81C61016804960126049F8E60016835
:10313000D2F808E0C1F81C31D1F81C310593059B89
:10314000968A938A5768B6B201331EF806609BB21E
:103150009382C1F81C65002F2FD0002007B0F0BD6E
:1031600003689168C3F82061D3F820710368019760
:10317000019FC3F85861D3F8586103680296967DA1
:10318000029FC3F84415C3F848650368012199609C
:103190005368002BE1D1036801E0002945D1D3F841
:1031A0002021D3F85811002AF7D0002914BF0F208E
:1031B00000202C440023A3759EE7967D938A9BB242
:1031C0009E4202F1140122D9016804E0938A9BB265
:1031D000B3F5807F03D0D1F81C31002BF6D0938A51
:1031E0009BB2B3F5807FE9D0C1F81C71D1F81C31D6
:1031F0000393039BB2F814C0938A1FFA8CFC01332B
:103200001EF80CC09BB29382C1F81CC5D6E70B8890
:103210009BB2B3F5807F08D00268D2F81C31002B36
:10322000FBD00123D3600020C3E70F20C1E700BF1C
:10323000282A0020F0B403798C4E5B01F41888B082
:10324000257F4DB101F06045B5F1005F59D01022E6
:10325000104608B0F0BC70476568002D42D1334479
:10326000824FDC7D002C2BD1DA75D9605C761C7620
:1032700005796D0173191F7F002F50D19B7E8BB98B
:1032800084B90368C3F82441D3F824210368039266
:10329000039AC3F80841D3F8082103680492012275
:1032A00004991A6071194B68002B6FD003684FF4B2
:1032B0000172C3F804230022104608B0F0BC704726
:1032C0001C7ED4B1002D00F0AA80037907EB4317D0
:1032D0003B7F002B53D003684FF40472C3F80423E0
:1032E0001122B5E704684FF401773344C4F808733A
:1032F000DC7D5E4F002CB7D0E2E719611A7601241D
:10330000B6E76568002DAAD004684FF4047733440B
:10331000C4F80873DC7D554F002CA5D0D0E70368B6
:103320000025C3F81051D3F8107103680197019F6D
:10333000C3F84451D3F8445103680295029DC3F881
:103340003415C3F8382594B9036801221A6002794C
:103350005201B3185B68002B63D003684FF404720A
:10336000C3F804230022104608B0F0BC704702687E
:10337000D2F8003243F02003C2F80032E7E70368D6
:103380004FF40172C3F80423112261E70268C2F806
:103390004431D2F844310593059B0368D3F8247176
:1033A000D3F80841D3F8442144B9002A30D1002F82
:1033B000F4D035440023EB75032249E7002FF8D100
:1033C00042BBCC7DC3F80821D4B1D3F808410694A0
:1033D000069CCF684C7ED3F818353B554B7ECC7D90
:1033E0000133DBB24B764B7E9C42D6D8354400216C
:1033F000AB7EE975002B34D003680121196027E703
:10340000D3F808410794079CD3F818354B7EEDE7B5
:10341000002FCED135440023EB750F2218E711227F
:1034200016E7036801E0A0B9BCB9D3F81011D3F8CE
:103430004401D3F824410029F5D01644002C4FF064
:10344000000314BF03221A469842F37518BF0F22D7
:10345000FEE616440F22F175FAE616440322F075D3
:10346000F6E6036801215960F2E600BF282A002031
:10347000114A037902EB4313197FD9B99B7ECBB96B
:1034800010B4016883B0C1F82431D1F82441016837
:103490000094009CC1F80831D1F80831016801930B
:1034A0000123019C0B60017902EB4112937603B07A
:1034B0005DF8044B704700BF282A002070B59B4C74
:1034C000237F8EB0002B75D1994AD2F80413890559
:1034D00048D4974BD3F80423520704D5D3F80821D6
:1034E000002A40F0CA80924BD3F81C21C2B1A28AB4
:1034F000A07D8E4992B282424FF00002C3F81C2197
:1035000080F0A980D3F81C210692069A888A8A8ABC
:103510008D6880B20132285C92B28A82C3F81C05A1
:10352000834BD3F84421DAB10022C3F84421D3F805
:103530004411A27E04910499002A40F08980E27D22
:103540007A4B6AB10022587ED968DA7501228DF86B
:1035500030000B918DF828200AA893E806009047C8
:103560000EB070BDD2F824110029B2D0C2F82431B7
:10357000D2F82411A37E07914FF401710798C2F885
:1035800008130BB901235360694A02238DF82830D0
:10359000D2F88034C2F88034E07DE2680D930023D5
:1035A0008DF83000E375237621680B9263680AA8D2
:1035B000984798E75E4BD3F82421002A40F0938087
:1035C000D3F8101161B1C3F81021D3F81011039191
:1035D0000399D3F83C15E07DC9B2884200F0AA8077
:1035E000534BD3F84421B2B10022C3F84421D3F89D
:1035F0004411E07D019101994C4960B1D3F83C350B
:10360000C8688DF830300123CA750B908DF82830CA
:103610000AA80AC99847464BD3F82021002A9FD010
:103620000022C3F82021D3F82011A07D0091009939
:103630003E49002894D0D3F84C058B688DF83000B3
:103640008A750B938DF828200AC90AA8984787E73E
:1036500001221A6073E7D3F81C310593059B0028FB
:103660003FF45EAF8B688DF830008A750B938DF850
:1036700028200AC90AA8984752E7E17D2B4A002969
:1036800070D00021C3F80811D3F8081108910899E7
:10369000D068517ED3F818354354537ED17D013321
:1036A000DBB25376627E214B8A427FF41CAF1A7ED6
:1036B000002A6DD19B7E13B91D4B01225A601C4A12
:1036C000E06863684FF40171C2F80813627E8DF8F8
:1036D0003020002501220B902168E5758DF8282007
:1036E0000AA89847FFE60022C3F82421D3F8241142
:1036F000029102218DF828100299D3F88014C3F8A2
:1037000080140D91D3F83C15E368E27522768DF8AC
:1037100030100B93216863680AA89847044BD3F8CC
:103720004421002A3FF477AF5EE700BF282A00203B
:1037300000200040217EF1B1D3F80062E17526F04F
:103740002001E568C3F8001226698DF830000123D6
:103750008DF82830227621680B95E66063680AA808
:1037600098473DE7C3F80811D3F808210992099A50
:10377000D3F8183596E7E268E17501238DF830003B
:103780008DF828300B9294E80A000AA8984727E79A
:10379000DE685D7E1869DA7501210022D8601A762C
:1037A0005A768DF828100B968DF8305093E8060065
:1037B0000AA8904797E600BF10B53B4BD3F8042307
:1037C000D20384B003D5394A116800293CD1364B65
:1037D000D3F80423940303D5354A1168002942D154
:1037E000314BD3F80423500303D5324A1168002922
:1037F00049D12D4BD3F80423D10702D5D3F80021AA
:10380000B2B9294BD3F80423920702D5D3F8042187
:103810000AB904B010BD0022C3F80421264AD3F827
:103820000431019305201368019A984704B010BD34
:103830000022C3F80021204AD3F80031029304206B
:103840001368029A9847DCE74FF480310020C3F8F0
:103850004813194CC3F808131060136803932368C6
:10386000039A9847B3E74FF400310024C3F8481394
:103870001148C3F808131460136803930368039A8C
:1038800001209847ACE74FF480210024C3F8481387
:103890000948C3F808131460136803930368039A74
:1038A00002209847A5E700BF00B0004040B10040AB
:1038B00044B1004048B10040482A00200220FEF7F1
:1038C000D5BC00BF2DE9F0470D460646FEF700FDCA
:1038D00003281ED8012D04461FD00ED3022D1AD165
:1038E0001E4B00EB40041C44657895B11C4B1B68D3
:1038F0007BB12846BDE8F04718471A48FCF7C2FFDD
:103900001649194A04EB44030B44155D9B789D420C
:10391000EBD0BDE8F087BDE8F087DFF840804700D6
:103920003B1808EB030218F8035053782BB92744CF
:1039300047440D4BBA781A55D7E70C4BDFF8309057
:103940001968084801EB810149004A46FCF742FF2B
:103950000028ECD189F80060E9E700BFC02A002008
:10396000782A00207C2A00209C2A0020742A00202B
:10397000702A00207F4B1B68DB0700D4704770B5AE
:103980007D4E7E4D33782C789BB9172C10D8DFE80C
:1039900004F0666B6B879CB0C2AA24152415823193
:1039A0003131313151565ECF0C0CFEF749FC2C7091
:1039B00070BD00233370FEF72DFCE6E701231846A7
:1039C0003370FEF753FC6E4B6E481968002201EB12
:1039D0008101BDE87040FCF7FDBE0123184633703D
:1039E000FEF744FC664B674819680022BDE870404A
:1039F000FCF7F0BE6448FCF745FFD4F11104024621
:103A000000F0A180002840F09E80012C0DD0C82538
:103A10005E4B5B495C48096805FB04F4A3FB044367
:103A20005B0901FB03F1FCF7D5FE0220BDE8704005
:103A3000FEF7D8BBFEF7EEFB12232B7070BDFEF72E
:103A4000E9FB0020FEF7CEFB13232B7070BDFEF7C1
:103A5000E1FB0120FEF7C6FB14232B7070BDFEF7BF
:103A6000D9FB00232B7070BD0020FEF7ABFB0028B4
:103A700079D00020FEF7C2FB022C14BF28231223AA
:103A80003F4A2C7011683F4801FB03F10022BDE85A
:103A90007040FCF79FBEFEF7D3FB0C232B7070BD6C
:103AA0000020FEF78FFB002856D00020FEF7A6FB73
:103AB0000822334B3348196803232B7001FB02F1B2
:103AC000BDE870400022FCF785BE0020FEF77AFBBF
:103AD00000283DD00020FEF791FB2822284B2948E2
:103AE00019680423E9E70020FEF77CFB07232B700D
:103AF00070BD0020FEF766FB90B30020FEF77EFB52
:103B00001F4B2048196805232B7049000022BDE88F
:103B10007040FCF75FBE0020FEF7A8FB184B194869
:103B2000196806232B700022BDE87040FCF752BED6
:103B3000FEF770FB0020FEF755FB0120FEF752FB5D
:103B400015232B7070BD0220BDE87040FEF756BBF8
:103B5000FEF748FB0422C1E7FEF744FB0222A8E778
:103B6000FEF740FBCCE7FEF73DFB022C14BF04231D
:103B7000022385E76C2A0020712A0020722A002087
:103B8000742A00204C2A0020A02A00201F85EB5117
:103B900010B50078FEF79CFB03280BD8064B00EB12
:103BA00040001844407828B1044B1B6813B1BDE8AD
:103BB0001040184710BD00BFC02A0020782A0020FE
:103BC00070B5964B1A6812F0010202D116463046C3
:103BD00070BD934D2B780446E3B9172C00F21C817D
:103BE000DFE814F0E600ED00ED0054006B00820009
:103BF000970046002C001D002C001D00A500AC0005
:103C0000AC00AC00AC00AC00CB00D200DC00390052
:103C10004E004E0000232B70FEF7FCFADDE7012377
:103C200018462B70FEF722FB7E4B7F481968002256
:103C300001EB8101BDE87040FCF7CCBD01231846C3
:103C40002B70FEF713FB774B774819680022BDE80D
:103C50007040FCF7BFBDFEF7DDFA0020FEF7C2FAA8
:103C60000120FEF7BFFA714B15221A700026AEE74D
:103C70000020FEF7B7FA6D4B07221A700026A6E760
:103C8000FEF7DEFA694B00261C70A0E70020FEF765
:103C900099FA002800F0BC800020FEF7AFFA082255
:103CA0006049624B0968604803241C7001FB02F103
:103CB000BDE870400022FCF78DBD0020FEF782FABF
:103CC000002800F09E800020FEF798FA282255492F
:103CD000564B0968544804241C7001FB02F1BDE8EE
:103CE00070400022FCF776BD0020FEF76BFA00283A
:103CF00000F08B800020FEF781FA4A4A4B4B116896
:103D0000494805241C7049000022BDE87040FCF7BA
:103D100061BD0020FEF7AAFA444B424A42481168AE
:103D200006241C700022BDE87040FCF753BDFEF76E
:103D300087FA3E4B0C221A70002648E73C48FCF7F5
:103D4000A1FDD4F11104064650D000284ED1012C1B
:103D50000FD0C825374B33493548096805FB04F4B3
:103D6000A3FB04235B09324601FB03F1FCF732FDA0
:103D700006460220FEF736FA29E7FEF74BFA2B4BF0
:103D800012221A70002622E7FEF744FA0020FEF7FE
:103D900029FA264B13221A70002618E7FEF73AFA82
:103DA0000120FEF71FFA214B14221A7000260EE79D
:103DB000FEF730FA1D4B00221A70164607E7002066
:103DC000FEF700FAB0B10020FEF718FA022C14BF7B
:103DD000282312231349154A09681470124801FB5D
:103DE00003F10022BDE87040FCF7F4BC0220FEF7AE
:103DF00005FAECE6FEF7F6F9022C14BF04230223C1
:103E0000E8E7FEF7EFF9042261E7FEF7EBF974E764
:103E1000FEF7E8F9022243E70026D8E66C2A0020E4
:103E2000712A0020742A00204C2A0020722A0020C7
:103E3000A02A00201F85EB51F0B5214D214E224BC9
:103E40002860044610F0020083B031601A6012D07E
:103E50001E4B1F484A080F270E21102611251970E6
:103E6000DF7004219E715D72FBF784FFA0B1E30750
:103E70001DD403B0F0BDE20719D4164A164800213C
:103E8000FCF796FC0028F4D1144A1548012103B030
:103E9000BDE8F040FCF78CBCFBF7C4FF0028E6D17E
:103EA0000146104A1048FCF783FCE10703D5019056
:103EB000FEF7F0F901980028DFD003B0F0BD00BF95
:103EC0006C2A0020742A0020782A0020C02A0020B2
:103ED000D08B020075390200CC8B0200BD38020085
:103EE000F08B0200913B0200C88B0200032801D92D
:103EF00007207047012A12D0012917D008D30229C0
:103F0000F6D10D4B00EB4000034400205A7070477F
:103F1000094B00EB4000034400209A7070470129D0
:103F200001D00022E8E700F10E02D2B200EB40031C
:103F300001490020CA547047C02A002010B50388E8
:103F4000102B08D0112B05D1264B186801381860AA
:103F500038B110BD10BD234C216881B10131216001
:103F600010BD01220221FFF7C1FF48B3072827D067
:103F70001D4B1B68002BECD0BDE8104018470122F8
:103F80000846FFF7B3FF48B1072807D0164B1B6858
:103F900003B1984721680131216010BD0722022139
:103FA0000120FFF7A3FF08B10728EFD10422022167
:103FB0000020FFF79BFF0028ECD00728E6D1E9E7B7
:103FC000072202210120FFF791FF08B10728CFD176
:103FD000002108460A22FFF789FF0028B9D00728E8
:103FE000C6D110BDD02A0020CC2A0020A0DF704707
:103FF000A2DF7047A6DF704763DF704748B141B169
:104000000B88112B13D0502B04D0102B04BF8B889E
:1040100083827047CB88028A9A420CD082889A4267
:10402000F7D18369002BF4D00A8A123118474FF672
:10403000FF73838270470A8A022AEFD110B50446C3
:104040000846123002F0A6FD10B10123A37510BD81
:10405000A07510BD2DE9F047794B94B09A680646DB
:104060000D4618685968DB6804AC0FC48EB185B181
:104070004FF6FF73B3822B68B361002304A8B375B6
:104080003146FFF7B9FF48B10446204614B0BDE8F9
:10409000F0870E24204614B0BDE8F087324614A9FC
:1040A000012512F8023B21F8485D28468DF80A30B8
:1040B000FFF79CFF04460028ECD121460322684606
:1040C000FBF740FA9DF800709DF801309DF802E082
:1040D00065F3030765F3030365F3071365F3420E06
:1040E000214665F307171C220DA88DF800708DF886
:1040F00001308DF802E0B046FBF724FA9DF8343029
:1041000018F80CEB0E944FF0030A43F0100321460D
:10411000524601A81094119413948DF834308DF800
:104120000EE0CDF848D0ADF80CA0FBF70BFA9DF8E7
:1041300006209DF804E09DF8053065F3420264F323
:10414000C30264F30412D2B242EA050165F3030E1E
:1041500065F3030365F3071E65F3071314228DF857
:10416000061008A821468DF804E08DF805304FF0C0
:104170001409FBF7E7F901AFADF82A40434603AC59
:1041800008AA0DA9708808940997ADF82850ADF8D1
:104190002C90FFF72DFF044600287FF47BAF0146EB
:1041A000B0461C220DA8FBF7CDF99DF8343018F865
:1041B000040B8DF80E0043F00C03214652460227F3
:1041C00001A80E9410941194129413948DF8343025
:1041D000ADF80C70FBF7B6F99DF806209DF80400C9
:1041E0009DF8057065F3420264F3C30264F30412A0
:1041F00065F30300D2B265F3071065F3030742EAE3
:10420000050321464A468DF8040065F3071708A800
:104210008DF806308DF80570FBF794F97088ADF8CD
:104220002A4003AE0896434608AA0DA901AE099696
:10423000ADF82850ADF82C90FFF7DAFE044629E7D8
:10424000F48B020070B586B0ADF8062048B1828AC2
:104250004FF6FF739A4201D0837D2BB9082006B038
:1042600070BD0E2006B070BDBDF80630142B02D90B
:10427000072006B070BD04460D4602A8102200219A
:10428000FBF760F9A689A08A05950DF106020123C6
:1042900002A9ADF8086004928DF80A30FFF7AAFE73
:1042A000DDE700BF73DF704776DF704778DF704768
:1042B0007ADF70477CDF70477FDF7047A8DF704789
:1042C000A9DF704767DF70473EDF7047024A136817
:1042D00001331360704700BF0C320020024A4FF4D4
:1042E000D271FBF7B5BD00BF448C0200F0B5214888
:1042F00097B000F029FF204B04461D6800F0E6FC53
:104300002B14210CADF812004AF60436ADF8145007
:10431000ADF816300C2504AB3C22ADF8181007A8F8
:10432000002141F28B27ADF81A40ADF80460ADF8DA
:10433000085003930425ADF81070FBF703F9002231
:10434000012306260DEB050407A811468DF81E2053
:104350008DF81C308DF848308DF81D608DF81F5099
:10436000119401F0D7FE18B1044AE521FBF770FD66
:1043700017B0F0BD942100200C320020448C0200C4
:10438000F0B5124B12481F6887B000F0DDFE0446FE
:1043900000F09CFC0326054602463B460D4900946E
:1043A0000196002004970594039501F041FC3346E3
:1043B000294603AA41F2111000F090FD20B1064AEF
:1043C00040F20F11FBF744FD07B0F0BD0C320020A6
:1043D00094210020548C0200448C020010B5044645
:1043E000FDF792FD2046BDE8104002F0A3BB00BFE0
:1043F00038B500200D461A4901F01AFC1949002071
:1044000001F016FC6A781849002001F011FC2A78A6
:104410001549002001F00CFC2B786C78134943EA15
:1044200004242246002001F003FC00F04FFC8442EB
:1044300005D30F490020BDE8384001F0F9BB0D4D10
:104440000D492C80002001F0F3FB29880B4800F077
:10445000A7FD0B490246BDE83840002001F0E8BB4B
:10446000888C0200A48C0200D48C0200DC8C020038
:10447000308D020010320020F88C02009C2E0020AB
:10448000108D020008B5037803B108BD064B3B212F
:104490001888FFF709FF0028F7D0044A4FF4CD71C0
:1044A000BDE80840FBF7D4BC9C210020448C0200EE
:1044B00038B50378012B2CD00AD3022B07D14068E2
:1044C000184A4FF40271BDE83840FBF7C1BC38BD53
:1044D000154D164C28782044FDF7E4FF2A78013268
:1044E000D2B214442A7014F8013C0A2B01D0132ACA
:1044F0000ED90E490E48FFF7A5FE30F0080304D090
:10450000084A4FF40071FBF7A3FC00232B7038BD61
:1045100038BD4068034A4FF40371BDE83840FBF7EB
:1045200097BC00BF448C0200982D0020842D0020F1
:104530009C2E002030B5044685B002F01FF92146BC
:104540007C48FFF75BFD2046FFF7F8FC2388013B22
:10455000552B3AD8DFE803F04A6F39393939393900
:10456000393939393939397B2B398C393939393934
:1045700039393939393939393939393939393939AB
:10458000393939393939393939393939393939399B
:1045900039399B3939393939393939393939393929
:1045A0003939393939393939A7C53939393E624844
:1045B000FFF778FE0546002840F0A3805F4901F030
:1045C00037FB5F4B4FF6FF721A80204602F052FA1B
:1045D00005B030BD1321A088FFF766FE0028F4D097
:1045E000584A4FF43371FBF733FCEEE7564D574909
:1045F000002001F01DFB2B8801332B8000F066FBAF
:104600002988884200F28D8000F060FB2B8883426D
:10461000DBD14F4B93E807008DE807000322694682
:104620004448FFF70FFE024600287ED0494900208B
:1046300001F0FEFAC9E70021A088FFF743FE002839
:10464000C3D0404A40F2D121FBF702FCBDE707206E
:10465000FFF7B6FA20B13B4A40F29521FBF7F8FB91
:10466000374BA2881A80204602F004FA05B030BD0C
:10467000334A0023108885211A46FFF71DFE0028C3
:10468000A3D0304A4FF42E71FBF7E2FB9DE71321D4
:10469000A088FFF709FE002897D02A4A40F2C521DA
:1046A000FBF7D6FB91E7A379002B8ED0A27B043ACF
:1046B000022A8AD8022B0CBF022201224FF4C173B6
:1046C0006946A0888DF80020ADF80430FFF7F6FDAC
:1046D00000283FF47AAF1B4A4FF43B71FBF7B8FB5D
:1046E00073E7174A0023108819461A46FFF7E8FDBA
:1046F00000283FF46AAF134A40F2BE21FBF7A8FB43
:1047000063E7104A40F28121FBF7A2FB0B4900202E
:1047100001F08EFA28460B4A40F2B121FBF798FBD4
:104720004FE7044800F03CFC4FE70B4901F080FAEA
:104730004BE700BF9C2E0020742D0020988D0200B6
:104740009C210020448C020010320020608D020069
:10475000048C0200708D02008C8D020008B50020D0
:10476000FBF716F900B908BD024A8D21BDE80840E3
:10477000FBF76EBB448C0200F0B595B0FFF7EEFF7F
:10478000B949002001F054FA00231846B74A052120
:10479000FBF72EFF20B1B64A40F2A131FBF758FBE0
:1047A000002240F6CD410120FFF746FB20B1B04A80
:1047B00040F2A331FBF74CFBAE49AF4CAF4F0020AA
:1047C00001F036FAAE4B01930FCC05AD0FC594E85E
:1047D000030001AE05AC85E80300AA4A03974FF435
:1047E000807531462046072302950495FDF7E8FDC4
:1047F00020B19F4A40F22D21FBF72AFB00231846E7
:10480000A14A0521FBF7F4FE20B1994A40F21911A3
:10481000FBF71EFB9D4A9E480121FBF7C9FF20B113
:10482000934A4FF48E71FBF713FB9A4A9A48012181
:10483000FBF7BEFF20B18E4A40F21F11FBF708FBC9
:10484000964A97480121FBF7B3FF20B1884A4FF4FD
:104850009171FBF7FDFA934B9349002528461D60A3
:1048600001F0E6F9914B9249186801902B465022CD
:10487000304602F09DFB20B17D4A40F22F31FBF71C
:10488000E7FA22460121002002F00CFC20B1784A10
:1048900040F23731FBF7DCFA204602F01BFC20B176
:1048A000734A40F24231FBF7D3FA824802F0CAFB66
:1048B00020B16F4A4FF45271FBF7CAFA7E4802F0FA
:1048C000CBFB20B16A4A40F24E31FBF7C1FA9DF8AA
:1048D00004307A48012262F3030362F307138DF870
:1048E000043003F07FFC754982B23046FFF7E2FCEA
:1048F00020B15F4A40F23F11FBF7AAFA40F2413083
:10490000FFF7D4FC20B15A4A4FF4A171FBF7A0FA8B
:10491000082200212046FAF715FE10253C2100222E
:104920004FF4C8732046ADF81450ADF81610ADF82A
:104930001820ADF81A30FFF7BBFC20B14C4A4FF4F9
:10494000A671FBF785FA5E495E4D002001F070F913
:1049500041F28B23ADF804303C2202230021204693
:10496000ADF808300395FAF7EDFD0023042219464F
:1049700020460E968DF814308DF8172001F0CAFBF2
:1049800020B13B4A4FF41371FBF762FA4E4E0021FF
:104990000D4610223046FAF7D5FD4FF4FA534B4935
:1049A00073812846357075603572B58101F040F924
:1049B000294604222046FAF7C5FD454B4548059394
:1049C0002146FFF747FB20B1294A40F28511FBF74A
:1049D0003FFA4149002001F02BF91C22002120461A
:1049E000FAF7B0FD4FF4203700234FF4702603256B
:1049F0003A493B4A05932046ADF822308DF82430E1
:104A0000069707968DF820500A910B9201F07CFED4
:104A100020B1174A4FF4DD71FBF71AFA3149002033
:104A200001F006F9304800F067FB3049002001F042
:104A3000FFF800224FF420312D48FBF7CBFE20B1C8
:104A40000B4A40F22B11FBF703FA00224FF42031FE
:104A50002848FBF7BFFE00284ED0054A4FF4977157
:104A6000FBF7F6F948E000BFBC8D0200F42A0020F5
:104A7000448C0200D08D0200108C02006C2B0020B0
:104A80009C2D0020B1440200DC2C0020ED420200ED
:104A9000388C020081430200408C0200CD420200AB
:104AA0003C8C02000C320020E88D0200288C0200B1
:104AB0008C2C002035450200DD430200008E0200F0
:104AC000088E0200BC2E0020742D0020208E0200D3
:104AD000F14302009C2E0020348E02008544020027
:104AE000DD4202004C8E020094210020688E0200FC
:104AF0006C2C0020D42A002000224FF4004163488F
:104B0000FBF768FE20B1624A40F23111FBF7A0F9D1
:104B10006049002001F08CF85F48FFF7C3FB0546B1
:104B2000D0B902465D4901F083F85D49002001F0EB
:104B30007FF800F0C1F95B4905460246002001F00C
:104B400077F82DB12846524A40F2CD31FBF780F973
:104B5000554B1B788BB9FEE74D4A40F28121FBF79C
:104B600077F92A464D49002001F062F82846484A64
:104B700040F2C531FBF76CF9D7E741F21110FCF7B1
:104B80009DFF4A4905460246002001F051F82DB12B
:104B900028463F4A40F2D231FBF75AF9FCF7CAFFE8
:104BA000434902460546002001F042F841490020F1
:104BB00001F03EF8404A414B1268414900BF00BF36
:104BC00000BF00BF00BF00BF00BF00BF8A422FD0A0
:104BD00000BF00BF00BF00BF00BF00BF00BF00BFDD
:104BE00000BF00BF00BF00BF00BF00BF00BF00BFCD
:104BF00000BF00BF00BF00BF00BF00BF00BF00BFBD
:104C000000BF00BF00BF00BF00BF00BF00BF00BFAC
:104C100000BF00BF00BF00BF00BF00BF00BF00BF9C
:104C200000BF00BF00BF00BF00BF00BF00BF00BF8C
:104C3000013BC3D12DB12846154A4FF47671FBF7DD
:104C400007F92049002000F0F3FF1F4B93E807000D
:104C5000032384E80700224642F2222141F2111088
:104C600000F03EF820B10A4A40F2DE31FBF7F0F8DE
:104C7000FAF760FF0028FBD1FFF726FB0028F7D0EA
:104C8000034A40F29131FBF7E3F8F1E7542D00209D
:104C9000448C0200848E0200742D0020948E020049
:104CA000A88E0200C08E0200B82E0020D48E020012
:104CB000E88E02002C8D0200A021002040420F004F
:104CC0000024F400F88E02002C8C0200034B1868BC
:104CD00000F50850223080B2704700BFD02E00206F
:104CE00070B505468AB01C46194843B1002352F8F6
:104CF000231040F823100133DBB2A342F7D3166828
:104D00009168536802900194324600910020114945
:104D1000ADF80C4000F08CFF0F4BADF810501B6845
:104D200003F50853223302AC012204A907A8059415
:104D3000ADF81230ADF81820FCF7A2FE044618B901
:104D4000079A064900F074FF20460AB070BD00BF04
:104D5000C02E0020148F0200D02E0020408F0200B1
:104D60002DE9F043002489B00746884616460B46D5
:104D70000246234904942046039400F059FF03ABF4
:104D800005AA41463846FCF70DFF054658BB01A968
:104D900005A8FCF72DFE044648BB059A194900F00A
:104DA00047FF019BDDF808905A8882B125B2164969
