:020000021000EC
:10F0000000000120F1660200196702001B67020080
:10F010001D6702001F670200216702000000000058
:10F020000000000000000000000000002367020054
:10F030002567020000000000276702002967020020
:10F040003D2002002B670200D52902003921020071
:10F050002B6702002B670200E1240200C17402004A
:10F060002B6702002B6702002B6702002B67020050
:10F070002B6702002B6702002B6702002B67020040
:10F080002B6702009DFC01002B6702002B6702002A
:10F090006DFD01002B670200C16B02002B670200AF
:10F0A0002B6702002B6702002B6702002B67020010
:10F0B0002B6702002B670200000000000000000028
:10F0C0002B6702002B6702002B6702002B670200F0
:10F0D0002B6702002B6702002B6702000000000074
:10F0E0000000000000000000000000000000000020
:10F0F0000000000000000000000000000000000010
:10F1000000000000000000000000000000000000FF
:10F1100000000000000000000000000000000000EF
:10F4000010B5054C237833B9044B13B10448AFF35E
:10F4100000800123237010BD342300200000000071
:10F42000049B0200084B10B51BB108490848AFF314
:10F4300000800848036803B910BD074B002BFBD0C0
:10F44000BDE81040184700BF00000000382300202E
:10F45000049B02002023002000000000154B002B1D
:10F4600008BF134B9D46A3F5803A00218B460F46FB
:10F470001348144A121A00F065F80F4B002B00D005
:10F4800098470E4B002B00D0984700200021040025
:10F490000D000D48002802D00C48AFF3008000F0AA
:10F4A0002BF82000290004F035FD00F011F800BF12
:10F4B0000000080000000120000000000000000023
:10F4C00034230020FC2E002000000000000000007B
:10F4D00008B5074B044613B10021AFF30080054B7C
:10F4E0001868836A03B19847204600F033F800BFDC
:10F4F00000000000188C020070B50E4B0E4CE41A90
:10F50000A41000251E46A54204D056F82530984781
:10F510000135F8E709F074FB084C094BE41AA41014
:10F5200000251E46A54204D056F8253098470135DF
:10F53000F8E770BD18230020182300201C230020AA
:10F540001823002002440346934202D003F8011B13
:10F55000FAE77047FEE700BFF0B51746C7B01C4694
:10F56000B9B106AE0B68604A30464FF4807108F0BE
:10F57000A1FE00280ADB4C9B0546062B00F2B28058
:10F58000DFE803F012323B4653637500002047B0BA
:10F59000F0BD4C9B062B00F2A380DFE803F0048B48
:10F5A00090957C8186000025384608F0BDFE431901
:10F5B000FF2B044640F28D80002CE7DB2C44B4F591
:10F5C000807FE3D80A27002506AE22467119002065
:10F5D00005F082FB0544241A08B9013F01D0002C34
:10F5E000F3D1012047B0F0BDC0F5807123683A46E1
:10F5F000701908F05FFE0446DEE7C0F580716268AE
:10F600002368009270193A4608F054FE0446D3E786
:10F61000C0F58071A2682368646800940192701933
:10F620003A4608F047FE0446C6E7C0F58071E26836
:10F630002368D4F808E0646802928DE810403A46E6
:10F64000701908F037FE0446B6E7C0F580712069EE
:10F65000E26823680390D4F808E0646802928DE8B9
:10F6600010403A46701908F025FE0446A4E7C0F59C
:10F6700080716269206923680492E2680390D4F87B
:10F6800008E0646802928DE810403A46701908F06C
:10F6900011FE044690E74FF48071002506AEC6E7E0
:10F6A0004FF48071002506AED1E74FF4807100253C
:10F6B00006AEDEE74FF48071002506AE96E74FF404
:10F6C0008071002506AE9AE74FF48071002506AEE2
:10F6D000A0E706AE39467019224608F0DFFD6BE759
:10F6E00000246FE7002469E71C8C02002DE9F04F2D
:10F6F0001446C7B01D46002900F02381002B00F0FE
:10F7000004810A2302934FF0000B06AF519B539ADA
:10F71000134420261C4602990BEB0103049331335A
:10F72000FB18039307EB0B031A460193002965D0DE
:10F73000534203F003038B4228BF0B46062900F215
:10F74000DB800B46019907F80B600A46012B02F19A
:10F75000010200F0CF80022B4E7001F1020200F096
:10F76000C980032B8E7001F1030200F0C3800A46AA
:10F77000042BCE7002F1040200F0BC80062B0E7147
:10F7800001F1050240F0BE804E718A1D9846029933
:10F7900099422ED00298C3EB0009A9F1040100F1AF
:10F7A000FF3E8908C3EB0E0E0131BEF1020F4FEA96
:10F7B000810C12D95B444FF0203E012907EB030B6B
:10F7C00047F803E005D00229CBF804E001D0CBF8DC
:10F7D00008E0E1456244E0440BD00299167008F15C
:10F7E00001038B4205D208F102008842567000D214
:10F7F0009670019B029A134401931A46039B059746
:10F8000002F1330A274602F1030B544603F10109C2
:10F81000DDF844A10DE00BF8036C0BF8026C0BF85B
:10F82000016C0BF1030BA34509F8016C09F1010907
:10F830002FD0AF42EFD9AA4556D9509B13F8058077
:10F840000BF8016C4FEA28105FFA80FE092808F0D7
:10F850000F00D4BF0EF1300E0EF1370E092894BF01
:10F86000303037300BF803EC0BF8020C08F0FAFCE0
:10F8700040440BF1030B407810F0970F08BF4FF096
:10F880002E08A34509F8018C05F1010509F10109CC
:10F89000CFD1049B039903F1430A019B3C460D22FF
:10F8A0004FF00A0B059F0A7481F811B0A14683F846
:10F8B00030604FF000085446224607EB0801002054
:10F8C00005F00AFA8044241A10B9BBF1010B01D0EB
:10F8D000002CF1D14D454C464FF0000BFFF41BAF0F
:10F8E000284647B0BDE8F08FCAEB0500529B13F8DD
:10F8F0000080A5E798464AE7002B7FF423AF019AE2
:10F90000984647E74FF0050841E706AF0B68114AF4
:10F9100038464FF4807108F0CDFC0028E0DB0A2364
:10F9200006460293204608F0FFFCC22828BFC220EA
:10F93000834602462146B81908F0B0FC0025B344BE
:10F94000E4E61BB902952E4606AFEBE702918B4623
:10F9500006AFDBE61C8C020070B5074D074E2B7816
:10F9600013B13378834205D0044605F07BFB0123B5
:10F9700034702B70002070BD5123002050230020D4
:10F980000048704759F5010000487047EDF6010046
:10F9900038B50120FFF7E0FF044638B9FFF7F0FF64
:10F9A0000546FFF7F1FF024B5D619861204638BDC7
:10F9B0005423002010B5054C82B000230A46646928
:10F9C00000931946A04702B010BD00BF5423002089
:10F9D00030B585B004AB054C43F8042D01250A462B
:10F9E000646900950021A04705B030BD5423002074
:10F9F00030B5064C85B00225029203930A4664692D
:10FA0000009502AB0021A04705B030BD5423002073
:10FA100070B586B0064C0A9E0392032504930A46ED
:10FA200064690596009503AB0021A04706B070BD40
:10FA300054230020F0B587B0074C0C9F0D9E029216
:10FA4000042503930A46646904970596009502AB62
:10FA50000021A04707B0F0BD542300202DE9F84F46
:10FA6000244B1A788AB3DFF890B0DFF89090DFF873
:10FA700090A00024012703E00134E4B2944224D290
:10FA800026B2D9F80050DBF8003015F8360007FA36
:10FA900000FE1EEA030F05EBC608EDD0164A23EA66
:10FAA0000E03136002F012FD15F83650DAF800303C
:10FAB00007FA05F6334000FA05F6B34207D00D4BBE
:10FAC00001341A78E4B29442DAD3BDE8F88FD8F85A
:10FAD0000430002BF3D098F80110A1F10101B1FA24
:10FAE00081F14909091AB1FA81F149092846984773
:10FAF000E5E700BF78230020A02300207423002026
:10FB00009C23002070B50646114800F0A3FD40B9C3
:10FB1000104D01242B68B4401C4203D023EA040496
:10FB20002C6070BD304602F0D1FC0B4A136860B106
:10FB300023432E680949136034432C600448096844
:10FB40000022BDE8704000F02DBD23EA0403F0E779
:10FB50007C230020A02300209C2300207023002071
:10FB6000042A01D8072070472DE9F04182B0884669
:10FB70000546174602F076FB002834D01C4C1D4881
:10FB80001D491E4A1E4B2560002608F1FF340F60F8
:10FB900080F8008016601E60E4B20327B8F1000F01
:10FBA00003D11AE0DBB2C4B11C4623B205EBC30299
:10FBB00015F833009378134A8DF8053001A98DF8B4
:10FBC00004708DF806608DF8076002F055FB631E27
:10FBD0000028E7D002B0BDE8F0810B4A0B480021B5
:10FBE00000F0CEFCF6E702F0FBFA0028C6D0F1E701
:10FBF0007423002078230020702300209C23002001
:10FC0000A023002005FB01005DFA0100248C020006
:10FC100070B5084D2B785BB1074E00243368012185
:10FC200013F8340002F0F0FB2B780134A342F5D82E
:10FC3000002070BD782300207423002000B585B01B
:10FC4000ADF804100292039001AA002144F20100D1
:10FC500000F004F805B05DF804FB00BF10B50B49D7
:10FC600014460120FFF7A6FE224609490120FFF7AE
:10FC7000AFFEBFF34F8F0749074BCA6802F4E0623B
:10FC80001343CB60BFF34F8F00BFFDE7288C02000A
:10FC9000408C020000ED00E00400FA052DE9F84375
:10FCA000294A2A4B0025C2F84051C2F84451C2F8F3
:10FCB0004851C2F84C51C2F80051C2F804511B68B7
:10FCC0001BB32349D2F804250C68224F141B1A6871
:10FCD00024F07F44A242A84609D8197CDE69A41A00
:10FCE0001544A1B91EB133461A68A242F5D91A4B80
:10FCF0001A491A780B789A421ED01949194A41F8C4
:10FD000023504FF48013C2F80031BDE8F883D3F8D4
:10FD1000149083F810803A689B694846194642B1AE
:10FD200090470028DED0104A40F24D11FFF786FFC1
:10FD3000D8E71846C847D5E7531CDBB2022B08BFEB
:10FD400000230B70D9E700BF00100140A82300205A
:10FD5000A4230020AC230020B0230020B1230020E6
:10FD6000BC23002000E100E05C8C02002DE9F04F94
:10FD7000A44AA54913780978A44889B0006800907E
:10FD8000994200F0EB800133DBB2022B08BF002365
:10FD900013709F4A52F82360009B9C4A334423F01F
:10FDA0007F4313604FF0010E9A4B079693F800A023
:10FDB000994BCDF818A0D3F80090964B5B7801933F
:10FDC0001D46944BD3F804B09B7802931C46934B8A
:10FDD0001B7804938D4B00271B68039351464A46BA
:10FDE0004B460597BC4638462646B846A9421AD027
:10FDF00001EB410401311BF83470C9B2B14208BFB4
:10FE00000021022F0BEBC40400F08380032FEDD1FF
:10FE1000002BEBD0DA6918741346002AFAD1A942F4
:10FE20004FF0010CE4D1DDF818A0079E4746BCF165
:10FE3000000F40F0A380059A12B1744A0399116033
:10FE4000002F40F09C82BEF1000F40F0C681B9EB5C
:10FE5000030218BF01220792059375461E466B4A9E
:10FE6000CDF810B0D2F800C06B4ADFF8B891D64692
:10FE7000D2F800A0694A0023127800931F46069228
:10FE80004FF001089B463DB36A68A9682C46ED69AE
:10FE9000CCEB020323F07F434B4572D80B44236025
:10FEA0006760A76084F81080E761002E00F08B8007
:10FEB000316899427ED2304603E01168994269D296
:10FEC0001046C2695B1A002AF7D12360E26133460B
:10FED000C4611E46002DD7D1019B9E4500F0A48031
:10FEE0000EEB4E03049911F83320039210460EF1E5
:10FEF000010E029A5FFA8EFE724508BF4FF0000EA7
:10FF0000012801EBC30364D03346012200921E4650
:10FF1000E0E76468002B3FF469AF9C429A4601D148
:10FF200015E0BA46DAF81C70002F3FF45FAFBC4210
:10FF3000F7D1BA450CD0FC693F68CAF81C40002CC8
:10FF40003FF454AF23683B44236013464EE71F46FB
:10FF5000DA6932B113464FF0010CECE70026B646E1
:10FF600022E72F4B4FF00108C3F80880C446134620
:10FF70000392CDF81080CDF81480DCE726490A60A2
:10FF800059E7C2EB0C0222F07F428A4209D28B1A57
:10FF9000236085E7C91A11602360E2613346C461BA
:10FFA00097E727606760A76084F81080E76156B123
:10FFB00031680023CB1A33602346E661A2464FF036
:10FFC000010B1E4686E72346A2464FF0010B1E4654
:10FFD00080E75C68227C009282B99A686260D96886
:10FFE000A1601869E0605B69A361069B002B00F0CB
:10FFF000F180009A626000932A4649E733461E4624
:020000022000DC
:1000000068E700BFB0230020B1230020A423002014
:10001000BC230020B4230020A8230020B22300200A
:1000200000100140FEFF7F00009B5A46002B40F06D
:10003000AE8112B1824BC3F800A0059BB34200F021
:10004000BF80002E00F00A817E497F4CD1F8040564
:1000500025783368CCEB000222F07F420332002D7A
:1000600050D17A4DDFF8ECE1794F4FF48036C1F88A
:100070004463C1F804634FF40036C5F880612E6014
:1000800001250D60DEF800602F2100BF00BF00BF1A
:1000900000BF00BF00BF00BF00BFBE422FD000BFE7
:1000A00000BF00BF00BF00BF00BF00BF00BF00BF58
:1000B00000BF00BF00BF00BF00BF00BF00BF00BF48
:1000C00000BF00BF00BF00BF00BF00BF00BF00BF38
:1000D00000BF00BF00BF00BF00BF00BF00BF00BF28
:1000E00000BF00BF00BF00BF00BF00BF00BF00BF18
:1000F00000BF00BF00BF00BF00BF00BF00BF01398D
:10010000C3D1257093422CBF9C4494444D492CF09C
:100110007F43C1F84035D1F80425121A1B1A22F08A
:100120007F4223F07F4303329A424DD9D1F8043500
:10013000484AC1F84035126845492F2300BF00BF27
:1001400000BF00BF00BF00BF00BF00BF8A422FD06A
:1001500000BF00BF00BF00BF00BF00BF00BF00BFA7
:1001600000BF00BF00BF00BF00BF00BF00BF00BF97
:1001700000BF00BF00BF00BF00BF00BF00BF00BF87
:1001800000BF00BF00BF00BF00BF00BF00BF00BF77
:1001900000BF00BF00BF00BF00BF00BF00BF00BF67
:1001A00000BF00BF00BF00BF00BF00BF00BF00BF57
:1001B000013BC3D1254B4FF40032C3F8002103E0CB
:1001C000079B002B7FF43DAF234A0023137009B037
:1001D000BDE8F08F039B00935AE6194ADDF800C092
:1001E00017680020054601460446ABB11A68B242C2
:1001F0001BD8D8681C60B61A1144DA6938B10CEB08
:10020000010727F07F47DD6198605F601D46134658
:1002100017467046002BE9D1002840F0BC8000232F
:10022000059301230793059E19E6002840F0AC8052
:10023000921B05931A6001230793059E0FE600BFEA
:10024000A823002000100140C423002000E100E0AA
:100250000024F400A8210020B22300204F4A504B74
:10026000504D51484FF480314FF400370124C3F80A
:100270008070C2F848132F23C2F80813546029680D
:100280001D4600BF00BF00BF00BF00BF00BF00BFD2
:1002900000BF81422FD000BF00BF00BF00BF00BF22
:1002A00000BF00BF00BF00BF00BF00BF00BF00BF56
:1002B00000BF00BF00BF00BF00BF00BF00BF00BF46
:1002C00000BF00BF00BF00BF00BF00BF00BF00BF36
:1002D00000BF00BF00BF00BF00BF00BF00BF00BF26
:1002E00000BF00BF00BF00BF00BF00BF00BF00BF16
:1002F00000BF00BF00BF013DC3D194602B4A166010
:1003000000BF00BF00BF00BF00BF00BF00BF00BFF5
:1003100081422FD000BF00BF00BF00BF00BF00BFA1
:1003200000BF00BF00BF00BF00BF00BF00BF00BFD5
:1003300000BF00BF00BF00BF00BF00BF00BF00BFC5
:1003400000BF00BF00BF00BF00BF00BF00BF00BFB5
:1003500000BF00BF00BF00BF00BF00BF00BF00BFA5
:1003600000BF00BF00BF00BF00BF00BF00BF00BF95
:1003700000BF00BF013BC3D10D4B1E7024E70D4AE7
:100380009DF8101011705EE50B490F6050E70B4BA4
:1003900083F800E04DE6084B1F6040E70010014085
:1003A00000E100E0A82100200024F400A4230020A4
:1003B000C4230020B2230020A8230020B42300205F
:1003C0002DE9F04712F0030402D00720BDE8F087C2
:1003D000002AFAD05F4D604EDFF88891DFF888C1BF
:1003E0004FF4803E4FF400374FF00108C6F880709C
:1003F000C5F848E32F27C5F808E3C5F80480D9F805
:1004000000E0B94600BF00BF00BF00BF00BF00BF93
:1004100000BF00BFE6452FD000BF00BF00BF00BF38
:1004200000BF00BF00BF00BF00BF00BF00BF00BFD4
:1004300000BF00BF00BF00BF00BF00BF00BF00BFC4
:1004400000BF00BF00BF00BF00BF00BF00BF00BFB4
:1004500000BF00BF00BF00BF00BF00BF00BF00BFA4
:1004600000BF00BF00BF00BF00BF00BF00BF00BF94
:1004700000BF00BF00BF00BFB9F10109C2D1C5F87C
:10048000088000BF00BF00BF00BF00BF00BF00BFAB
:1004900000BFE6452FD000BF00BF00BF00BF00BFB8
:1004A00000BF00BF00BF00BF00BF00BF00BF00BF54
:1004B00000BF00BF00BF00BF00BF00BF00BF00BF44
:1004C00000BF00BF00BF00BF00BF00BF00BF00BF34
:1004D00000BF00BF00BF00BF00BF00BF00BF00BF24
:1004E00000BF00BF00BF00BF00BF00BF00BF00BF14
:1004F00000BF00BF00BF013FC3D1DFF870E0DFF8ED
:1005000070A0164FDFF86C90DFF86C80DFF86CC0DD
:100510008EF80040CAF800304FF4801EE023B97016
:100520003C707C70C9F8004088F800408CF80040AE
:100530000B49C6F880E186F81433C6F800E0C5F828
:10054000080586F81133D5F804350B607A6020462B
:10055000BDE8F0870010014000E100E0B423002076
:10056000A4230020A82100200024F400C42300209C
:10057000AC230020A8230020B0230020B1230020BA
:10058000074B5B6823B12AB120B10368187C18B10E
:10059000082070470720704759745A61704700BFA0
:1005A000B42300202DE9F043274C636883B033B1B6
:1005B00028B1042907D8072003B0BDE8F08308203C
:1005C00003B0BDE8F0834369002BF8D0054602A8CC
:1005D0006B7C0026012B00F8016D0CBF8946B146EB
:1005E00090460F4600F074F86378A07821785A1C82
:1005F000D2B2904208BF324691421FD003EB430370
:100600006068DB00C11819D04FF0010E00F803E05C
:100610000E4B4D60D3F804358B609DF80700CF601A
:10062000C1F81090C1F81480627000F079F8084B9E
:100630004FF480123046C3F80021C1E79DF807004F
:1006400000F06EF80420BBE7B42300200010014046
:1006500000E100E0F0B51C4E736883B053B348B3BB
:1006600043693BB3054602A8002400F8014D2C74F1
:1006700000F02EF87378B07831785A1CD2B29042DC
:1006800008BF2246914218D003EB43037168DB0098
:10069000CF1812D00220C8547D609DF807007270F8
:1006A00000F03EF8094B4FF480122046C3F80021B9
:1006B00003B0F0BD082003B0F0BD9DF8070000F0C6
:1006C0002FF80420F7E700BFB423002000E100E08A
:1006D000F0B4EFF3108472B60E4B9A68B2B90E49BB
:1006E00001259D60D1F880700C4D2E463D401D6067
:1006F000C1F88060D1F884505D604FF0FF33C1F8DD
:100700008430027004B962B6F0BC704701230370F4
:10071000F8E700BF642E002000E100E0FC06FFBC0B
:10072000094B9A6872B168B910B4EFF3108272B6CF
:1007300006491C680C605C684C60986002B962B63F
:100740005DF8044B704700BF642E002000E100E01C
:10075000F0B52B4C2B4F6368668883B0002B48D0D4
:1007600036015A88B9190332496803EB820201F550
:100770000050824225D21368013318BF4FF6FF752F
:100780001FD09388AB4213D013888BB162601E4890
:100790005388868801681D480025033300959BB265
:1007A00001EB86010325257001F098F903B0F0BD37
:1007B0005388033302EB8302824202D2136801336F
:1007C000DFD13E44B38963B10F4D1048296802263A
:1007D000324605270023AE80277001F0D7F903B019
:1007E000F0BD0222094801F0D1F90423237003B0BF
:1007F000F0BD3601BB19596801F10802B7E700BF27
:1008000094260020142400205027002024230020B8
:10081000F0B543688E464BB12E4A1468A34205D307
:100820005268934202D813F0030236D000232A4EB6
:10083000AEF800304FF0010C4FF6FF7577680023DB
:1008400007F50054C3B15A88033203EB8203A34275
:1008500016D21A68013213D09A88AA42F3D01A88A5
:10086000002AF0D0026899689142EBD11B4A43609C
:10087000138903810120F0BD07F10803A342E8D3E7
:100880000CF10103AEF800C01FFA83FCBCF1290F84
:1008900006F11006D2D10020F0BD104C0589248944
:1008A000A542C3D105689C68A542BFD10A4801E0B2
:1008B000282AF0D04468A34295B204F5005602F10C
:1008C000010200F11000F3D9B342F1D2AEF80050AA
:1008D0000120F0BD242300201424002094260020B1
:1008E000B3F804C0BCF1270F54D82DE9F043DFF86A
:1008F000AC8091464FF6FF7700224FEA0C1408EBCC
:10090000040E18F80440002C33D11C68002C3CD095
:100910006588DEF80460033504EB850406F50056AF
:10092000A64225D92568013522D0A588BD4219D017
:100930002588BDB11C6018B1A6880588AE42E5D1F6
:1009400019B126880D88AE42E0D1A268C9F800200E
:100950001A68114BC9F804201B89A9F80830002037
:10096000BDE8F0836588033504EB8504B442D9D330
:100970001A600CF1010C1FFA8CFCBCF1280FA3F8D3
:1009800004C0BAD10A20BDE8F083DEF8046006F1A5
:100990000804C3E70A20704794260020142400208E
:1009A0002DE9F04FB04C256FEF007E1BB6008BB0E9
:1009B000A25D531E804604EB060BA146052B00F2F8
:1009C000D282DFE803F06748481E1E03002840F08B
:1009D000D680DFF8B0E29EF83230002B00F01683AC
:1009E0009EF800308EF83200013B062B00F2BA82EE
:1009F000DFE813F0E9029B0292017301B802A6023C
:100A00008002002840F0BC80C5EB070A04EB8A0393
:100A1000029393F804A0BAF1010F00F03883C0F0FC
:100A20002283BAF1020F41F61D5318BF0F2341F67E
:100A30001D518B4200F0AA8019F8061006938B1EF8
:100A4000012B40F2C480013A052A33D8DFE802F0D6
:100A500075907966592F7B1B04EB83038349B3F8A8
:100A600012A001EB0A1A002840F09B80BAF8080097
:100A7000DAF804101B7C01EB80010291062B00F2D6
:100A80007C83DFE813F06101AC018D01F501DF012A
:100A9000CD01CA0100287CD19BF80430032B00F261
:100AA0006A83DFE813F00D01DE00CE009E0005230F
:100AB0008DF814306E4D05F1200655F8043F0BB14A
:100AC00005A89847AE42F8D1206F674DC0EBC00033
:100AD00004EB80001C220021FEF734FD636F43B15C
:100AE0002A6F0132013B02F003026B672A67002B79
:100AF00067D1604A137823F0040313700BB0BDE88C
:100B0000F08F7B1B04EB83030422DB88ADF82030DD
:100B100000238DF81420ADF82230CBE77B1B04EBCB
:100B200083030322D8881989DB680793ADF8200076
:100B3000ADF822108DF81420BCE700238DF8143096
:100B4000B8E77B1B04EB830302211A7C1E899D8876
:100B5000D868ADF82060A2F10603B3FA83F35B090D
:100B60008DF82430ADF8225007908DF81410A1E7CD
:100B70007B1B04EB8303012218899988D4E70622A2
:100B8000012341F61D518B427FF456AF002306939B
:100B900059E738490B78012223F001030B70134603
:100BA00045E7D888BAF80A30BAF8081000F1030E01
:100BB0001B1A033B7144AAF80A30AAF80810012353
:100BC00035E70020FFF7ECFE0BB0BDE8F08F2A4BB5
:100BD0009BF81660186C596C3044891B1864596472
:100BE00031E7DFF8A480254AD8F8001024484FF0F8
:100BF000000A0223CDF800A000F070FF214B1B4932
:100C00005B88D8F800E08BF804A01B01CA1801F833
:100C100003A05368B8F80410C8F800300223C2F8E3
:100C200004E01181A8F8043000283FF467AF7B1B73
:100C300014F823200F490B7823F001030B700E23C7
:100C4000F5E6DFF844800E48D8F8001000230222B1
:100C500000F09CFF02220023A8F804208BF8043047
:100C6000E2E70249002215E0C826002014240020F3
:100C70006027002058270020C8230020A08C0200F5
:100C80002423002094260020502700200132282A07
:100C900000F012824FEA0218DFF8E0A211F80830E3
:100CA000022BF3D10AEB0802B048516800220092EF
:100CB000AF4A00F013FF4FF000030AF80830B3E723
:100CC000AC4BAD4A1968A94800230093022300F0F9
:100CD00005FF01238BF80430A6E7A84BBEF80220DD
:100CE000DFF8A88203EB02129389002B00F0178231
:100CF000A04B9E48196802229A80052388F800308C
:100D0000002300F043FF0346002B3FF4F7AE1C2204
:100D100002FB05F2A25C8FE69649DEF80420B1F8EA
:100D200004C009685388914801EB8C014FF0000C16
:100D3000CDF800C003334FF0030C9BB28EF800C017
:100D400000F0CCFE0346DFE77B1B9B0004EB0308AF
:100D500003930023009302998448012308F10402BD
:100D600000F0BCFE022388F8103000283FF4C6AE25
:100D7000039B834AD25C0E23781B04EB8000BAF8F5
:100D80000A10B0F806E0BAF808000EF1030CCEEB3A
:100D9000010160440339AAF80800AAF80A1046E6DF
:100DA000C5EB07084FEA880802997048002304EB56
:100DB000080208310C320093012300F08FFE04EB8F
:100DC00008036F499A7D002A0CBF012203221A747E
:100DD00000283FF493AE11F808200E23CCE7C5EBB2
:100DE00007084FEA88080299604804EB08031A468E
:100DF00000230431029200930832012300F06EFEBA
:100E000014F808200299032A0CBF052306230B744B
:100E100000283FF473AE0E23AEE741F61D53ABE757
:100E2000584B594A5968514800230093012300F058
:100E300055FE002840F06C817D1B04EB85040623E1
:100E400023745BE67B1B4FEA830804EB08024D4BDF
:100E500092691A601846002205A95A60FFF7D8FC6B
:100E600000287FF471AF464B13F808200A23DEE513
:100E7000DFF81CE1DEF844C0BCF1000F00F0278170
:100E8000DEF8401039485EF83120C5EB070804EB66
:100E900088080EEBC10301310CF1FF3C01F00701A2
:100EA000CEF84010CEF844C00299B8F814E003938D
:100EB00001EB8E014FF0000E9B88CDF800E000F0B2
:100EC0000DFE039A98F81630B8F814109288013B7A
:100ED0000A44DBB2A8F8142088F8163013B90123AD
:100EE00088F8103000283FF409AE7A1B0E2314F85E
:100EF000222041E71F4B204A19681C480023009319
:100F0000CEF8043007238EF80030022300F0E6FD0F
:100F10000346F9E6174ADEF80410938849880B4423
:100F20000333022193808EF80010FFF711FC034673
:100F3000002B3FF4E3AD1C2202FB05F2A25C76E538
:100F4000BEF802300D491B010B44002206205968EF
:100F5000009202238EF80000054A044800F0BEFD0E
:100F60000346D1E606220F2361E500BF24230020BB
:100F7000A08C020050270020988C0200142400202E
:100F8000C826002040270020A88C020094260020BC
:100F9000C8230020BEF8083079487A49002201337E
:100FA000AEF80830AEF802208EF832208B5C10329A
:100FB000B3FA83F35B09B2F5207F00F8013FF5D166
:100FC00001238EF8003000236D496E4A984611F8CF
:100FD000010F1FFA83FC38B1908981F8008018B99D
:100FE000907B002840F0A5800133282B02F11002ED
:100FF000EDD17A1B00238EF80030AEF80230CEF827
:10100000043014F8222041F61D5310E59EF80030FC
:10101000072B3FF6E9AC01A252F823F0950F02002E
:10102000E9090200E9090200150F02003D10020063
:10103000F50E0200F50E0200C10F0200BEF80230EC
:10104000504951481B0101EB030C0268DCF804A075
:10105000B0F80480CCF804200222C0F800A0ACF85C
:101060000880828070E7DB68CDF8188005A80DF154
:101070001201CDF81C800593FFF7CAFB00285ED152
:101080000A237A1B04EB8202022111713CE63F4BDA
:101090001B789B071ED40223082200213C480293A0
:1010A000FEF750FA029B0A2B7FF442AF7A1B41F6FF
:1010B0001D5314F82220BAE4344A137843F0020393
:1010C00023F001031370012241F61D53AFE4DCF855
:1010D0000030FFDE02982E4B063005AA4146FFF78E
:1010E000FFFB03460028D7D153462A4A0699CDF87C
:1010F0000080294800F0F2FC254A224B928803EB3D
:10110000021200280CBF43460E2382F80EA0CAE745
:101110007B1B9B00E1180620E25C08747BE65168AB
:101120001D48022200F032FD0422034688F8002008
:10113000EAE5AEF802C0FFF70BFB0346F8E60699B6
:1011400002988B88C380B1F800E0124ACDF8008085
:101150000123A0F808E0104800F0C0FC094BBDF8DE
:10116000122003EB021200284FF0010114BF0E23DE
:101170000023917385E701225CE50F23FCE500BFA6
:101180009D260020142400205027002058270020EE
:101190005C270020A88C0200242300200846FFF7CB
:1011A000FFBB00BF2DE9F04F0F894C6885B00646A4
:1011B0003D46002F00F0AE80206810F0030040F0A4
:1011C00095809E4604E054F830309B0740F08E80B6
:1011D00001308742F7D17346002A00F08B80B2F8C5
:1011E000009052880094BB466248DFF89CC10768B3
:1011F000DCF87480032B07F10107076003BF306838
:1012000003904FF0040A4FF0000AB8F1030F60D8C2
:10121000DFF864E1DEF844000446C5F108008442CA
:10122000019456D8DCF870000C884988029108EBCC
:10123000000101F00301C1EBC10189000CEB0100C9
:101240000CF80130C280039A826108F10108002382
:10125000BDF8081081804FF003020481C76080F858
:1012600010A0A0F8129080F816B082824381CCF8CA
:101270007480E5B1DEF84020019C144404F00702BC
:10128000009C0EEBC2020EF1380804EBC30103C947
:10129000013302F1080C82E80300424514BF6246A4
:1012A00072469D423449F0D14B6C2B444B6436B1AD
:1012B0000023324A376073601289B3723281304939
:1012C0000B7803F0040202F0FF04002A40D0002053
:1012D00009E02C4B03EB09190820B9F80A30033B4D
:1012E0009A1AA9F80A2005B0BDE8F08F032005B0CE
:1012F000BDE8F08F04EBC70EA08808340244A64571
:1013000092B2F9D1D71CBFB240F2FD70874205D925
:101310000920E8E7002A7FF462AF0327DFF8648042
:101320000025404608F5207C04781FFA85F944B969
:10133000B0F80AE0048974443C44A4B2B4F5006FE8
:101340000ED31030844505F10105EDD10720CAE721
:1013500043F0040320460B70FFF722FB2046C2E750
:1013600008EB051577446F81B1F808B04868009024
:101370005D4639E710240020C82300209426002071
:101380005827002014240020C8260020074A13787C
:10139000082B09D010B4591C054C117044F82300D7
:1013A00000205DF8044B70470C2070474C2700204C
:1013B000642700202DE9F04FA64B1A788BB000234C
:1013C0009607069305930793089309930DD5A24CAE
:1013D00004F1200554F8043F05A803B19847A5423D
:1013E000F8D100200BB0BDE8F08F12F0010BF8D15E
:1013F000984BDFF8889242F001021A7000F012FB5D
:10140000964B974A1B681668CDF808B003F5A322DF
:1014100002F2FC7203F1080803F500500192043B4C
:10142000CDF800B0DE464FF6FF745A688D498A4207
:1014300003F1040527D003F5005202E0934200F0C7
:10144000A78053F8041F0131F8D04FEA0E1303218F
:101450000EF1010E09F803101FFA8EFE1346019AD1
:101460009A4208F5005800F50050DED1BBF1000F9C
:1014700040F01981009B13F0FF0340F0AA800B207D
:101480000BB0BDE8F08F9A6877498A4234D00131B9
:101490008A42D0D1029A002A67D1744F3D604FF042
:1014A000020CA7F804C0DA680132414603D18EE08D
:1014B0000A68551C15D08A88A24207D00A882AB12A
:1014C0008A68B24202D916464FF0010B4A880332AD
:1014D000944401EB82011FFA8CFC8842A7F804C0F7
:1014E000E6D8BCF1020F14BF082204220099114370
:1014F000009103F50052B1E74FEA0E1C09EB0C070F
:101500004FF0000A022109F80CA07D603981DD68E6
:101510000135424612D11AE09568B54202D92E46ED
:101520004FF0010B55880335294402EB850289B23F
:10153000904239810BD91568013508D09588A542AC
:1015400002D01588002DE7D14FF0010AEAE7009A92
:10155000CC4442F002020EF1010E00928CF80EA073
:101560001FFA8EFE03F5005278E74FEA0E173F4947
:1015700009EB07024FF0020C0EF1010E096809F8A1
:1015800007C05160394FA2F808C01FFA8EFE85E7E8
:10159000364B1B68A3B136494FEA0E1309EB03071C
:1015A000A1F802E002210EF1010C09F803101FFA64
:1015B0008CFE7D603981009B43F0010300934DE771
:1015C0002A4902238B8001230D600293F3E7042252
:1015D0008CE7062B54D0013B0A2B09D8DFE803F037
:1015E0000608060834083408313731000023039315
:1015F000204A516F032912D81F4B5B6C082B0ED861
:10160000136F0B4403F00303C3EBC3039B00D01819
:101610000124D45401319DF80C30037151670D4BF6
:101620000C491B7803F0040202F0FF04002A7FF447
:10163000D8AE43F0040320460B70FFF7B1F9204603
:10164000D0E603230393D3E701230393D0E70223D8
:101650000393CDE758270020602700202423002093
:1016600010240020DEC0ADDEFE011EF15027002058
:1016700094260020C8260020C8230020142400201F
:101680000A4B0B4C1B78094A43F0020323F0010379
:10169000137004F1200554F8043F05A803B19847DE
:1016A000A542F8D19DE6034B1E60E3E658270020D3
:1016B000602700201024002060B159B130B583B0FC
:1016C0000C460DF106010546FFF7A2F820B90A20E5
:1016D00003B030BD05207047BDF80620074B686891
:1016E00003EB021301219A890A449A8120606B68F6
:1016F00000200C336360A97203B030BD14240020B5
:1017000050B110B582B00DF106010446FFF780F824
:1017100020B90A2002B010BD05207047BDF8062090
:10172000084B03EB02139A8912B9062002B010BDD0
:10173000A17A0029F9D00021013A9A810846A172C4
:10174000E8E700BF142400200D4B1B789B0701D451
:101750000220704759B110B40C884FF6FF739C42B9
:1017600001D04B882BB904205DF8044B704705204D
:101770007047022300225DF8044BFFF713BD00BF42
:1017800058270020F8B5184A1378990701D4022089
:10179000F8BD30B3154C656F032D20D81449496C42
:1017A00008291CD8216F0768294401F00301C1EB07
:1017B000C10189006618042060540135002003F03F
:1017C0000401F760307101F0FF06656741B943F02D
:1017D000040330461370FFF7E3F83046F8BD0820E5
:1017E000F8BD0520F8BD00BF58270020C8260020FE
:1017F000C8230020F8B51A4A1378990701D40220AB
:10180000F8BD4FF6FF7188421DD0164D6C6F032C4A
:101810001BD81549496C082917D8296F214401F0B4
:101820000301C1EBC10189006F18661C05246C54CB
:10183000012403F004013C71F88001F0FF046E679D
:1018400029B10020F8BD0420F8BD0820F8BD43F000
:10185000040320461370FFF7A3F82046F8BD00BF2D
:1018600058270020C8260020C8230020F8B5184AB1
:101870001378990701D40220F8BD1648416F032957
:101880001BD8154C646C082C17D8046F134D0C44EE
:1018900004F00304C4EBC4042E780131062700F8D9
:1018A0002470416716B1012185F8321003F004015C
:1018B00001F0FF0419B10020F8BD0820F8BD43F085
:1018C000040320461370FFF76BF82046F8BD00BFF5
:1018D00058270020C8260020C82300209426002076
:1018E00010B50C4C82B0ADF806002078ADF80410AD
:1018F000810702D4022002B010BD3AB133B101A970
:101900000DF10600FEF7ECFF02B010BD052002B09D
:1019100010BD00BF5827002029DF704728DF70471F
:1019200070B50C4D696E042911D02B6E0B44032B3E
:1019300088BF043B182202FB035406464B1C20467A
:1019400000216B66FDF7FEFD3460012070BD0020B4
:1019500070BD00BF8827002070B5304C636E84B026
:101960007BB1256E6E00731904EBC3031A7A012A4A
:1019700009D0022A26D19889FFF7D0FF112818D064
:1019800000BB04B070BD70199A8ADB8A04EBC000FA
:10199000D21AC1680069B2F5806F4FEA8303B4BF01
:1019A00092B24FF4806219441844FFF7B5FF112832
:1019B000E6D11B4A137823F0020343F004031370AB
:1019C00004B070BD102268460021FDF7BBFD7319FD
:1019D00004EBC3031A7A012A17D0022A09D19A8983
:1019E000DB89ADF80A20D21A0123ADF808208DF862
:1019F00000303544ED00621963595268019268461F
:101A00009B680921984704B070BD1A699B8A0292AD
:101A100000218DF80010ADF80C30EAE7882700208F
:101A2000842700202DE9F0434FF010235D696B1CE3
:101A300049D0DFF8A48098F800C01CF0010F3FD116
:101A4000DFF890E02248CEEB0000000934D00EEB26
:101A50000011734607461A6812B15A6802B1013F75
:101A600010338B42F7D13FB300260022194B914629
:101A7000F4B206E0596839B10132904203F1100323
:101A80000ED019680029F5D1597B494588BFD4B2D9
:101A900002F1010288BF8946904203F11003F0D1A0
:101AA000240104EB0E0301361A7B5D60B742A5EBFF
:101AB000023544F80E50D8D14CF0010C88F800C023
:101AC0000020BDE8F0834FF080535D692D03B0E73F
:101AD0003423002024230020842700202DE9F04116
:101AE000274C2578EE0782B012D510B1254DA842BB
:101AF00003D2022002B0BDE8F081234DA842F8D203
:101B000052B149B142EA0105AD0707D00620F1E71D
:101B1000012002B0BDE8F0810320EBE70568A9428F
:101B200001D20520E6E7466801EB8305AE42F8D313
:101B30000BB90420DEE7804601A81E4615460F4675
:101B4000FFF7EEFE08B90720D4E701992378C1F822
:101B50000080019A0898486013F006044FF00101D4
:101B6000D560176196821172054A01D00020C1E745
:101B700043F002031370FFF7EFFE2046BAE700BF01
:101B80008427002024230020342300202DE9F04165
:101B9000244C2578ED0782B010D510B1224DA84213
:101BA00003D2022002B0BDE8F081204DA842F8D255
:101BB00041B1C1F30B053DB10620F3E7012002B0AE
:101BC000BDE8F0810320EDE70568A94201D20520B8
:101BD000E8E7466801EB0235AE42F8D30AB90420C3
:101BE000E0E7804601A81E4615460F46FFF798FE1F
:101BF00008B90720D6E701992378C1F80080019A37
:101C00004E600220390B13F0060491811582107288
:101C1000044A01D00020C5E703431370FFF79CFE80
:101C20002046BFE7842700202423002034230020FF
:101C300020B1034B5B6E03600020704703207047A8
:101C4000882700202DE9F047DFF8B082A94C98F8EA
:101C50000030266E990784B079D5022800F0B6804E
:101C6000032840F0AF80A44D2B780133DBB2032B67
:101C70002B7040F2A780002710222F70394668464B
:101C80007500FDF75FFCAB1904EBC303E9461A7A54
:101C9000012A00F0E180022A09D19A89DB89ADF896
:101CA0000A20D21A0123ADF808208DF800303544FF
:101CB000ED0062196359526801929B688D4F484646
:101CC00008219847636E013B6366002B40F0FD805E
:101CD0003A6E98F80010013221F00201042A88F8C7
:101CE00000103A6630D1002626666BB37500AB193A
:101CF00004EBC303AA1904EBC202117A01293DD0F7
:101D000002297FD0102268460021FDF71BFCAB1989
:101D100004EBC303E9461A7A012A7ED0022A09D1CC
:101D20009A89DB89ADF80A20D21A0123ADF8082080
:101D30008DF800303544ED00621963595268019204
:101D400048469B680921984704B0BDE8F0875A07C8
:101D500038D5626E03F0FB0388F80030002AF3D018
:101D6000750043F00203AA1988F8003004EBC2039F
:101D7000AA1904EBC202117A0129C1D1D38AAA1986
:101D800004EBC202A819928A04EBC000D21AC168FF
:101D90000069B2F5806F4FEA8303B4BF92B24FF48B
:101DA000806219441844FFF7B7FD11282FD198F825
:101DB000003023F0020343F0040388F8003004B03D
:101DC000BDE8F087636E002B90D1BDE77500AB19BD
:101DD00004EBC307484A3B7A4FF0000A012B82F814
:101DE00000A023D0022BEDD1FB89BA89398A0133B7
:101DF0009BB201329942FB81BA8155D0636E002BB0
:101E0000A2D03B469889FFF789FD1128CFD0002842
:101E10007FF478AF04B0BDE8F0871A699B8A02921C
:101E200000218DF80010ADF80C3083E7FB8AB88AEA
:101E3000C21AB2F5806FB4BF92B24FF480621344FD
:101E4000A9199BB204EBC1079842FB82294A0BD027
:101E5000526E002A93D177E71A699B8A8DF8007039
:101E60000292ADF80C3022E7684610220021FDF7FF
:101E700069FB3B7A012BE94632D0022B09D1FA8962
:101E8000BB89ADF80A309B1A0122ADF808308DF8F5
:101E90000020AB19DB00E218E35852680192484673
:101EA0009B68144F00210CE7684610225146FDF74D
:101EB00049FB3B7A012BE946DFD13A69BB8A8DF8B1
:101EC00000A00292ADF80C30E3E73E6E0136042E1E
:101ED0003E663FF408AF7500AB1907EBC30309E793
:101EE0003A69BB8AADF80C3000218DF800100292DF
:101EF000CFE700BF88270020F0270020842700209C
:101F0000064A4FF0A043105CD3F8043523FA00F0E2
:101F100000F0010080F00100704700BFB08C0200AB
:101F2000044B195C4FF0A04201238B40C2F80C35E2
:101F3000704700BFB08C0200044B195C4FF0A04208
:101F400001238B40C2F80835704700BFB08C0200F7
:101F50004FF0A04310B44FF480204FF400344FF4FE
:101F600000214FF48012C3F80845C3F80805C3F8F0
:101F70000815C3F808255DF8044B70474FF0A043DF
:101F800010B44FF480204FF400344FF400214FF48C
:101F90008012C3F80C45C3F80C05C3F80C15C3F840
:101FA0000C255DF8044B7047084B4FF0A0411B5CBB
:101FB000D1F80405012202FA03F323EA00020340E8
:101FC000C1F80825C1F80C35704700BFB08C02007D
:101FD00030B44FF0A04303224FF400354FF4802477
:101FE0004FF400204FF48011C3F84427C3F848276A
:101FF000C3F84C27C3F85027C3F80855C3F8084561
:10200000C3F80805C3F8081530BC70470D2809D07F
:102010000E2809D00F2809D010280CBF03204FF03C
:10202000FF30704700207047012070470220704742
:10203000014B185C704700BFAC8C020010B51A4B06
:102040001A6882B0A2B100221A601B6800934FF098
:1020500080430122154C0099C3F80823A3686270DD
:1020600033B10CCB0020A2609847A368002BF8D1B5
:102070000F4B1A68AAB100221A601B6801934FF037
:1020800080430222094C0199C3F8082323690122E5
:10209000A27033B10CCB0120226198472369002B39
:1020A000F8D102B010BD00BF00010040F4270020AD
:1020B0000401004058B910B5054CA36833B10CCBEE
:1020C0000020A2609847A368002BF8D110BD70478C
:1020D000F427002010B582B002A80023144C00F8A9
:1020E000013DFEF7F5FA237893B9124A6360E36085
:1020F0001068A36010F00100236114D004F0FCFC10
:1021000020B94FF080430122C3F818250123237022
:10211000E3689DF8070001330122E360A270FEF737
:10212000FFFA02B010BD072100F032F8E6E700BF69
:10213000F427002000E100E0014B1B68184700BFB6
:1021400008280020104B984201D00720704770B536
:1021500082B002A800230D4E00F8013D0D46FEF7A7
:10216000B7FA34794CB901239DF807003371FEF7B3
:10217000D7FA3560204602B070BD9DF80700FEF723
:10218000CFFA1120F7E700BF0030004008280020F8
:10219000002810B418DB00F1604303F561434901E6
:1021A000C9B283F80013C3B24009800000F1604057
:1021B00000F5614003F01F0201239340C0F8803115
:1021C00003605DF8044B7047C3B2044A03F00F0488
:1021D00049012244C9B21176E6E700BFFCEC00E0F9
:1021E00030B51D4C94F8545083B015B1082003B09D
:1021F00030BD4FF0FF33FF220721062023636363C6
:10220000A363E36323646364A364E36423606360A0
:10221000A360E36023616361A361E361236284F8E7
:1022200050306362A36284F85230E36284F8533022
:1022300084F85120FFF7ACFF084B094A1D601B686A
:10224000019301984FF000430121284684F854106F
:10225000C2F8043303B030BD102800207C61004078
:1022600000600040034B93F85400003018BF012079
:10227000704700BF10280020F0B5624C251895F972
:102280003030002B01DB0820F0BD91F803E09446CC
:10229000BEF1000F56D02368013300F0A380002563
:1022A00008266B1C574F54F82320013251D0AB1C29
:1022B0009E4245D957F8232001324AD0EB1C9E425A
:1022C0003ED957F82320013243D02B1D9E4237D9E7
:1022D00057F8232001323CD06B1D9E4230D957F86D
:1022E0002370013735D0AB1D9E4229D954F82320E5
:1022F000444F01322DD0EB1D9E4221D957F82320A7
:10230000013226D005F108039E4219D957F823203F
:1023100001321ED005F109039E4211D957F823203E
:10232000013216D005F10A039E4209D957F82370ED
:1023300001370ED00B35AE4202D9E36A013307D024
:102340000420F0BD236A013353D008250C26A8E7EA
:102350000B2326185DB244F823C086F83050BEF136
:10236000000F02D1234483F848008B78A3B94A7840
:102370004FF0A04600F5E073920046F82320CB789A
:10238000A3B9083D2C44097894F8502042EA811200
:1023900084F850201846F0BD830003F1A043D3F821
:1023A000002722F00202C3F80027E8E7AB0003F1A0
:1023B000804303F5C0430A78D3F8101521F4473160
:1023C00021F44071C3F810151204000202F44031E8
:1023D000D3F8104500F4F8520A432243C3F81025FD
:1023E0000020F0BD002385F83030C4F800C01D4641
:1023F000BBE7082685F830603346C4F820C0354670
:10240000B0E700BF10280020F0B42E4D2E1882B087
:1024100096F93030072B1CDD2B4493F848309B098C
:10242000032B41D0012B14BF4FF440334FF4003342
:10243000800000F1A040D0F8002722F44032C0F81C
:102440000027D0F800271343C0F8003702B0F0BCD3
:102450007047DAB2072AF9D8980000F1804000F5F9
:10246000C04003F140029200D0F8104592B202F150
:102470008042002744F0010402F5C042C0F8104534
:102480000197019817600029E0D096F9302055F89F
:102490002220002ADAD001220B4902FA03F3C1F804
:1024A000043302B0F0BC70474FF0A043D3F81035AE
:1024B000C34013F0010F0CBF4FF400334FF440330F
:1024C000B6E700BF10280020006000404FF0A04396
:1024D000D3F8103523FA00F000F00100704700BF78
:1024E0002DE9F04387B00026C94B01961A68012AEE
:1024F00000F00482C74B1A68012A00F0F181C64B34
:102500001A68012A00F0DE81C44B1A68012A00F023
:10251000CB81C34B1A68012A00F0B881C14B1A68FD
:10252000012A00F0A581C04B1A68012A00F09281AF
:10253000BE4B1A68012A00F07F81BD4B1A68012A40
:1025400000F0598116F0FF0F1AD0BA4F0125002470
:10255000A30003F180432E4203F5C0434FEA450533
:102560000BD0D3F8100557F82420D3F81015C0F37A
:102570000420C1F3014102B190470134082CE7D196
:10258000002E02DB07B0BDE8F083AA4C00224FF01A
:10259000FF3327460292039301260DF1080894F9B0
:1025A00050104D1C2DD0C9B221F0C00006AB4FEA2F
:1025B000D00E03EB0E0201F0070312F80CCC06FA62
:1025C00003F31CEA030F1CD03D18890995F930501C
:1025D00057F82590B9F1000F00F0E880032900F0CA
:1025E000E8804FEA800E0EF1A04E12F8145CDEF87F
:1025F00000271D40C2F3014240F0B580032A00F0DD
:10260000A281002594F95110481C2FD0C9B221F0A5
:10261000C00006AB4FEAD00E03EB0E0201F0070339
:1026200012F80CCC06FA03F31CEA030F1ED007EBDA
:10263000000C89099CF930C057F82C90B9F1000FB3
:1026400000F0C680032900F0C6804FEA800E0EF12C
:10265000A04E12F814CCDEF800271CEA030FC2F3D8
:10266000014240F08D80032A00F0928194F95210CB
:102670004A1C2ED0C9B221F0C00006AB4FEAD00EE2
:1026800003EB0E0201F0070312F80CCC06FA03F379
:102690001CEA030F1DD007EB000C89099CF930C020
:1026A00057F82C90B9F1000F00F08980032900F051
:1026B00088804FEA800E0EF1A04E12F814CCDEF89E
:1026C00000271CEA030FC2F3014265D1032A00F080
:1026D0004C8194F953104B1C2CD0C9B221F0C0008E
:1026E00006AB4FEAD00E03EB0E0201F0070312F81F
:1026F0000CCC06FA03F31CEA030F1BD007EB000C0B
:1027000089099CF930C057F82C90B9F1000F69D0B5
:10271000032969D04FEA800E0EF1A04E12F814CCB6
:10272000DEF800271CEA030FC2F3014211D1032A8D
:1027300000F0F080002D3FF425AF4FF0A043019A48
:10274000D3F8103593423FF41DAF029A01930392E0
:1027500025E7022AEED1032900F02D81B9F1000FFF
:10276000E8D0C847E6E7022A7FF44BAF032900F020
:102770002B810025B9F1000F3FF444AFC84741E772
:10278000022A7FF473AF032900F01881B9F1000F1A
:102790003FF46CAFC84769E7022A9AD1032900F0D9
:1027A0001081B9F1000F94D0C84792E703297FF454
:1027B00028AF18F80E501D4308F80E5011E70329F2
:1027C00087D118F80EC04CEA030C08F80EC070E769
:1027D00003297FF44BAF18F80EC04CEA030C08F83D
:1027E0000EC032E70329A5D118F80EC04CEA030C3D
:1027F00008F80EC08EE700221A601B6805934FF0A0
:10280000A043059AD3F81035019346F0004699E6A7
:102810000061004004610040086100400C6100401C
:102820001061004014610040186100401C610040CC
:102830007C61004010280020654AD2F80423170666
:102840007FF57BAE00221A601B680493049B46F060
:10285000800672E65E4AD2F8042352067FF568AE1F
:1028600000221A601B680493049B46F040065FE652
:10287000574AD2F8042391067FF555AE00221A601C
:102880001B680493049B46F020064CE6504AD2F89D
:102890000423D0067FF542AE00221A601B68049321
:1028A000049B46F0100639E6494AD2F8042314077F
:1028B0007FF52FAE00221A601B680493049B46F03C
:1028C000080626E6424AD2F8042355077FF51CAED7
:1028D00000221A601B680493049B46F0040613E66A
:1028E0003B4AD2F8042397077FF509AE00221A600D
:1028F0001B680493049B46F0020600E63449D1F8B5
:10290000041311F001011CD01E601B680493049B8A
:102910001646EFE503297FF421AF4FF40033DEF8CC
:10292000002722F44032CEF80027DEF800270135D8
:102930001343EDB2CEF80037B9F1000F7FF411AFB9
:10294000FBE60E46D6E503297FF414AF4FF40033BF
:10295000DEF8002722F44032CEF80027DEF8002708
:102960001343CEF80037012504E703297FF419AF9C
:102970004FF40033DEF8002722F44032CEF800276F
:10298000DEF8002701351343EDB2CEF8003708E733
:1029900003297FF4FBAE4FF40033DEF8002722F466
:1029A0004032CEF80027DEF8002701351343EDB2A0
:1029B000CEF80037EAE64FF44033B0E74FF4403347
:1029C000EBE74FF44033D5E74FF44033C0E700BFA7
:1029D0000060004070B59B4C237F8EB0002B75D1FA
:1029E000994AD2F80413890548D4974BD3F80423A5
:1029F000520704D5D3F80821002A40F0CA80924B30
:102A0000D3F81C21C2B1A28AA07D8E4992B2824223
:102A10004FF00002C3F81C2180F0A980D3F81C21DC
:102A20000692069A888A8A8A8D6880B20132285C6A
:102A300092B28A82C3F81C05834BD3F84421DAB1E1
:102A40000022C3F84421D3F84411A27E04910499D2
:102A5000002A40F08980E27D7A4B6AB10022587EDC
:102A6000D968DA7501228DF830000B918DF8282095
:102A70000AA893E8060090470EB070BDD2F8241162
:102A80000029B2D0C2F82431D2F82411A37E0791D4
:102A90004FF401710798C2F808130BB90123536072
:102AA000694A02238DF82830D2F88034C2F8803485
:102AB000E07DE2680D9300238DF83000E375237606
:102AC00021680B9263680AA8984798E75E4BD3F891
:102AD0002421002A40F09380D3F8101161B1C3F88B
:102AE0001021D3F8101103910399D3F83C15E07D20
:102AF000C9B2884200F0AA80534BD3F84421B2B146
:102B00000022C3F84421D3F84411E07D01910199DA
:102B10004C4960B1D3F83C35C8688DF8303001239A
:102B2000CA750B908DF828300AA80AC99847464BF9
:102B3000D3F82021002A9FD00022C3F82021D3F807
:102B40002011A07D009100993E49002894D0D3F82F
:102B50004C058B688DF830008A750B938DF8282012
:102B60000AC90AA8984787E701221A6073E7D3F8D1
:102B70001C310593059B00283FF45EAF8B688DF8F0
:102B800030008A750B938DF828200AC90AA8984747
:102B900052E7E17D2B4A002970D00021C3F80811CB
:102BA000D3F8081108910899D068517ED3F81835E8
:102BB0004354537ED17D0133DBB25376627E214B89
:102BC0008A427FF41CAF1A7E002A6DD19B7E13B916
:102BD0001D4B01225A601C4AE06863684FF4017182
:102BE000C2F80813627E8DF83020002501220B9078
:102BF0002168E5758DF828200AA89847FFE600228D
:102C0000C3F82421D3F82411029102218DF8281051
:102C10000299D3F88014C3F880140D91D3F83C15B1
:102C2000E368E27522768DF830100B9321686368B3
:102C30000AA89847044BD3F84421002A3FF477AF01
:102C40005EE700BF6828002000200040217EF1B12F
:102C5000D3F80062E17526F02001E568C3F80012A0
:102C600026698DF8300001238DF8283022762168FE
:102C70000B95E66063680AA898473DE7C3F808111A
:102C8000D3F808210992099AD3F8183596E7E26833
:102C9000E17501238DF830008DF828300B9294E80F
:102CA0000A000AA8984727E7DE685D7E1869DA758A
:102CB00001210022D8601A765A768DF828100B96DA
:102CC0008DF8305093E806000AA8904797E600BFB9
:102CD0000220FFF769B900BF2DE9F0470D4606460F
:102CE000FFF794F903281ED8012D04461FD00ED3F8
:102CF000022D1AD11E4B00EB40041C44657895B19F
:102D00001C4B1B687BB12846BDE8F04718471A48A2
:102D1000FDF7A0FC1649194A04EB44030B44155D6A
:102D20009B789D42EBD0BDE8F087BDE8F087DFF8E7
:102D3000408047003B1808EB030218F80350537813
:102D40002BB9274447440D4BBA781A55D7E70C4B9B
:102D5000DFF830901968084801EB810149004A46C4
:102D6000FDF720FC0028ECD189F80060E9E700BFFE
:102D7000FC280020B4280020B8280020D8280020F3
:102D8000B0280020AC2800207F4B1B68DB0700D454
:102D9000704770B57D4E7E4D33782C789BB9172CDB
:102DA00010D8DFE804F0666B6B879CB0C2AA2415CC
:102DB000241582313131313151565ECF0C0CFFF781
:102DC000DDF82C7070BD00233370FFF7C1F8E6E723
:102DD000012318463370FFF7E7F86E4B6E48196809
:102DE000002201EB8101BDE87040FDF7DBBB012350
:102DF00018463370FFF7D8F8664B67481968002209
:102E0000BDE87040FDF7CEBB6448FDF723FCD4F16C
:102E10001104024600F0A180002840F09E80012CA1
:102E20000DD0C8255E4B5B495C48096805FB04F47E
:102E3000A3FB04435B0901FB03F1FDF7B3FB022095
:102E4000BDE87040FFF76CB8FFF782F812232B70D3
:102E500070BDFFF77DF80020FFF762F813232B7099
:102E600070BDFFF775F80120FFF75AF814232B7097
:102E700070BDFFF76DF800232B7070BD0020FFF7C9
:102E80003FF8002879D00020FFF756F8022C14BF35
:102E9000282312233F4A2C7011683F4801FB03F19D
:102EA0000022BDE87040FDF77DBBFFF767F80C23FB
:102EB0002B7070BD0020FFF723F8002856D00020AB
:102EC000FFF73AF80822334B3348196803232B7075
:102ED00001FB02F1BDE870400022FDF763BB00205A
:102EE000FFF70EF800283DD00020FFF725F8282234
:102EF000284B294819680423E9E70020FFF710F858
:102F000007232B7070BD0020FEF7FAFF90B300205E
:102F1000FFF712F81F4B2048196805232B70490052
:102F20000022BDE87040FDF73DBB0020FFF73CF8F4
:102F3000184B1948196806232B700022BDE8704011
:102F4000FDF730BBFFF704F80020FEF7E9FF012092
:102F5000FEF7E6FF15232B7070BD0220BDE8704020
:102F6000FEF7EABFFEF7DCFF0422C1E7FEF7D8FF59
:102F70000222A8E7FEF7D4FFCCE7FEF7D1FF022C30
:102F800014BF0423022385E7A8280020AD280020D1
:102F9000AE280020B028002088280020DC2800204F
:102FA0001F85EB5110B50078FFF730F803280BD8D8
:102FB000064B00EB40001844407828B1044B1B68D6
:102FC00013B1BDE81040184710BD00BFFC28002019
:102FD000B428002070B5964B1A6812F0010202D195
:102FE0001646304670BD934D2B780446E3B9172C36
:102FF00000F21C81DFE814F0E600ED00ED00540063
:103000006B008200970046002C001D002C001D0064
:10301000A500AC00AC00AC00AC00AC00CB00D20012
:10302000DC0039004E004E0000232B70FEF790FFAD
:10303000DDE7012318462B70FEF7B6FF7E4B7F4875
:103040001968002201EB8101BDE87040FDF7AABAC2
:10305000012318462B70FEF7A7FF774B77481968B6
:103060000022BDE87040FDF79DBAFEF771FF002019
:10307000FEF756FF0120FEF753FF714B15221A7021
:103080000026AEE70020FEF74BFF6D4B07221A70BB
:103090000026A6E7FEF772FF694B00261C70A0E72A
:1030A0000020FEF72DFF002800F0BC800020FEF776
:1030B00043FF08226049624B0968604803241C7082
:1030C00001FB02F1BDE870400022FDF76BBA002061
:1030D000FEF716FF002800F09E800020FEF72CFF70
:1030E00028225549564B0968544804241C7001FB9A
:1030F00002F1BDE870400022FDF754BA0020FEF74F
:10310000FFFE002800F08B800020FEF715FF4A4AE2
:103110004B4B1168494805241C7049000022BDE84A
:103120007040FDF73FBA0020FEF73EFF444B424A95
:103130004248116806241C700022BDE87040FDF76B
:1031400031BAFEF71BFF3E4B0C221A70002648E7EF
:103150003C48FDF77FFAD4F11104064650D0002810
:103160004ED1012C0FD0C825374B3349354809685B
:1031700005FB04F4A3FB04235B09324601FB03F1C6
:10318000FDF710FA06460220FEF7CAFE29E7FEF711
:10319000DFFE2B4B12221A70002622E7FEF7D8FE24
:1031A0000020FEF7BDFE264B13221A70002618E7FA
:1031B000FEF7CEFE0120FEF7B3FE214B14221A705B
:1031C00000260EE7FEF7C4FE1D4B00221A701646BD
:1031D00007E70020FEF794FEB0B10020FEF7ACFE3A
:1031E000022C14BF282312231349154A09681470AE
:1031F000124801FB03F10022BDE87040FDF7D2B98F
:103200000220FEF799FEECE6FEF78AFE022C14BFC0
:1032100004230223E8E7FEF783FE042261E7FEF7BA
:103220007FFE74E7FEF77CFE022243E70026D8E625
:10323000A8280020AD280020B028002088280020E1
:10324000AE280020DC2800201F85EB51F0B5214D71
:10325000214E224B2860044610F0020083B03160FA
:103260001A6012D01E4B1F484A080F270E21102645
:1032700011251970DF7004219E715D72FCF770FCDE
:10328000A0B1E3071DD403B0F0BDE20719D4164A7C
:1032900016480021FDF774F90028F4D1144A1548A6
:1032A000012103B0BDE8F040FDF76AB9FCF7B0FCBE
:1032B0000028E6D10146104A1048FDF761F9E10700
:1032C00003D50190FEF784FE01980028DFD003B0FB
:1032D000F0BD00BFA8280020B0280020B42800209E
:1032E000FC280020BC8C0200892D0200B88C020052
:1032F000D12C0200DC8C0200A52F0200B48C02004D
:10330000032801D907207047012A12D0012917D0BC
:1033100008D30229F6D10D4B00EB400003440020F6
:103320005A707047094B00EB4000034400209A702C
:103330007047012901D00022E8E700F10E02D2B265
:1033400000EB400301490020CA547047FC280020CC
:1033500008B5FEF76DFE800000F1A0430020D3F811
:10336000002722F44032C3F80027D3F8002742F4A4
:103370004032C3F8002708BD08B50020FFF7E8FF7A
:1033800010B1062800D008BD0120FFF7E1FF00289A
:10339000F9D0062808BF002008BD00BF10B503887B
:1033A000102B08D0112B05D1264B18680138186056
:1033B00038B110BD10BD234C216881B101312160AD
:1033C00010BD01220221FFF79BFF48B3072827D039
:1033D0001D4B1B68002BECD0BDE8104018470122A4
:1033E0000846FFF78DFF48B1072807D0164B1B682A
:1033F00003B1984721680131216010BD07220221E5
:103400000120FFF77DFF08B10728EFD10422022138
:103410000020FFF775FF0028ECD00728E6D1E9E788
:10342000072202210120FFF76BFF08B10728CFD147
:10343000002108460A22FFF763FF0028B9D00728B9
:10344000C6D110BD0C29002008290020A0DF70473C
:10345000A2DF7047A6DF704763DF704748B141B114
:103460000B88112B13D0502B04D0102B04BF8B884A
:1034700083827047CB88028A9A420CD082889A4213
:10348000F7D18369002BF4D00A8A123118474FF61E
:10349000FF73838270470A8A022AEFD110B504466F
:1034A0000846123003F020F910B10123A37510BDB6
:1034B000A07510BD2DE9F047794B94B09A68064687
:1034C0000D4618685968DB6804AC0FC48EB185B12D
:1034D0004FF6FF73B3822B68B361002304A8B37562
:1034E0003146FFF7B9FF48B10446204614B0BDE8A5
:1034F000F0870E24204614B0BDE8F087324614A9A8
:10350000012512F8023B21F8485D28468DF80A3063
:10351000FFF79CFF04460028ECD1214603226846B1
:10352000FCF710F89DF800709DF801309DF802E05E
:1035300065F3030765F3030365F3071365F3420EB1
:10354000214665F307171C220DA88DF800708DF831
:1035500001308DF802E0B046FBF7F4FF9DF83430FF
:1035600018F80CEB0E944FF0030A43F010032146B9
:10357000524601A81094119413948DF834308DF8AC
:103580000EE0CDF848D0ADF80CA0FBF7DBFF9DF8BE
:1035900006209DF804E09DF8053065F3420264F3CF
:1035A000C30264F30412D2B242EA050165F3030ECA
:1035B00065F3030365F3071E65F3071314228DF803
:1035C000061008A821468DF804E08DF805304FF06C
:1035D0001409FBF7B7FF01AFADF82A40434603AC2F
:1035E00008AA0DA9708808940997ADF82850ADF87D
:1035F0002C90FFF72DFF044600287FF47BAF014697
:10360000B0461C220DA8FBF79DFF9DF8343018F83A
:10361000040B8DF80E0043F00C032146524602279E
:1036200001A80E9410941194129413948DF83430D0
:10363000ADF80C70FBF786FF9DF806209DF804009E
:103640009DF8057065F3420264F3C30264F304124B
:1036500065F30300D2B265F3071065F3030742EA8E
:10366000050321464A468DF8040065F3071708A8AC
:103670008DF806308DF80570FBF764FF7088ADF8A3
:103680002A4003AE0896434608AA0DA901AE099642
:10369000ADF82850ADF82C90FFF7DAFE044629E784
:1036A000E08C020070B586B0ADF8062048B1828A81
:1036B0004FF6FF739A4201D0837D2BB9082006B0E4
:1036C00070BD0E2006B070BDBDF80630142B02D9B7
:1036D000072006B070BD04460D4602A81022002146
:1036E000FBF730FFA689A08A05950DF1060201239C
:1036F00002A9ADF8086004928DF80A30FFF7AAFE1F
:10370000DDE700BF73DF704774DF704776DF704717
:1037100078DF70477ADF70477CDF70477FDF704764
:10372000A8DF7047A9DF704767DF704732DF704757
:103730003EDF704700283ED01F4B204A1B6800BF69
:1037400000BF00BF00BF00BF00BF00BF00BF93426B
:103750002FD000BF00BF00BF00BF00BF00BF00BF31
:1037600000BF00BF00BF00BF00BF00BF00BF00BF61
:1037700000BF00BF00BF00BF00BF00BF00BF00BF51
:1037800000BF00BF00BF00BF00BF00BF00BF00BF41
:1037900000BF00BF00BF00BF00BF00BF00BF00BF31
:1037A00000BF00BF00BF00BF00BF00BF00BF00BF21
:1037B00000BF0138C3D17047A82100200024F400C5
:1037C000024A136801331360704700BF742E002053
:1037D000024A40F2DB11FCF731BA00BF0C8D020047
:1037E000F0B5214B21481F6887B001F0D9F8044695
:1037F00001F0E4F9631C2DD040EA042085B200F00A
:1038000023FE240C240406461949039613202C4356
:1038100005940497FCF7CEF80599049B039A009150
:1038200004201449FCF7F4F8314603AA032341F2BB
:10383000111000F067FF78B94FF6FE7141F21110D8
:1038400000F030FF03AA03234FF6FE7141F211107E
:1038500000F00CFE07B0F0BD024607490120FCF75E
:10386000B7F807B0F0BD00BF742E00209C210020E7
:103870001C8D0200248D0200608D020010B50446EC
:10388000FEF7E0F92046BDE8104002F0BDBE00BFE3
:1038900038B503200D462A49FCF78CF82949032046
:1038A000FCF788F86A7828491320FCF791F82A7801
:1038B00025491320FCF78CF824491320FCF77AF8EB
:1038C0002B786C78224943EA042422460320FCF733
:1038D0007FF800F0B9FD1F4B8442188029D2A0F573
:1038E000FF531F3BA342C4BFA0F5005080B21A4D46
:1038F0001A49CCBF04462046224628800320FCF704
:1039000067F82988164800F08FFF044680B1012827
:1039100007D12B88124801339BB219462B8000F047
:1039200083FF22460F490120BDE83840FCF750B81C
:1039300038BD0D490220BDE83840FCF73BB800BF58
:10394000808D0200A48D0200DC8D02007C960200B6
:10395000E48D0200702E0020782E0020088E0200D8
:10396000D82A0020348E0200548E020008B5037855
:1039700003B108BD064B3B211888FFF7C7FE00289E
:10398000F7D0044A40F2D111BDE80840FCF756B91F
:10399000A42100200C8D0200043838B506280BD86D
:1039A000DFE800F0301F0A040A0A0B00334B1A88C4
:1039B0004FF6FF739A4254D038BD0020FFF70AFB40
:1039C00000283BD1FFF7D8FC00283DD1FFF7AEFE21
:1039D0000028F1D02A4A40F20321BDE83840FCF724
:1039E0002DB9284C2378E3B123789BB3FFF78CFEE5
:1039F0000546002DE0D1257023490320BDE838405D
:103A0000FBF7D8BF1D4B13211888FFF77FFE30F05E
:103A10000803D1D01A4A40F23231BDE83840FCF7F1
:103A20000DB91A48FFF76EFE0028C5D10123237097
:103A300017490320BDE83840FBF7BCBF104A40F2ED
:103A4000FB11FCF7FBF8BDE70D4A40F2FF11FCF754
:103A5000F5F8BBE70F490220FBF7ACFF002DABD117
:103A6000C9E702F001FE30F00803A5D0044A40F295
:103A70003B31BDE83840FCF7E1B800BFA42100208D
:103A80000C8D02001C2A0020F88E0200402A002023
:103A9000908E0200B08E020030B5044685B002F070
:103AA000D5FB21469848FFF7D9FC2146974801F0FD
:103AB00005F92046FFF772FC2388013B552B6CD893
:103AC000DFE813F07C0099006B006B006B006B006B
:103AD0006B006B006B006B006B006B006B006B008E
:103AE0006B005600A5006B00BA006B006B006B000A
:103AF0006B006B006B006B006B006B006B006B006E
:103B00006B006B006B006B006B006B006B006B005D
:103B10006B006B006B006B006B006B006B006B004D
:103B20006B006B006B006B006B006B006B006B003D
:103B30006B006B006B006B00C9006B006B006B00CF
:103B40006B006B006B006B006B006B006B006B001D
:103B50006B006B006B006B006B006B006B006B000D
:103B60006B00D500DC00FA006B006B006B0070008E
:103B7000674B002207201A70FFF72CFA20B1654A24
:103B800040F26321FCF75AF8634BA2881A804FF089
:103B9000A0434FF48022C3F80825204602F0D4FC4D
:103BA00005B030BD1321A088FFF7B0FD0028F4D088
:103BB000584A40F2A321FCF741F8EEE7574D584927
:103BC0000320FBF7F7FE2988564B01311B8889B289
:103BD00099422980C0F08C80DFD14FF6FD714A48B0
:103BE00000F022FE002800F0878002464E490120A6
:103BF000FBF7EEFED1E70021A088FFF795FD002836
:103C0000CBD0444A4FF42A71FCF718F8C5E74FF0BF
:103C1000A0434FF48022C3F80C254448FFF772FDFF
:103C2000002859D0024642490120FBF7D1FE3A4B09
:103C30004FF6FF721A80B0E7374A002310888521BB
:103C40001A46FFF76BFD0028A7D0324A40F28F21B9
:103C5000FBF7F4FFA1E71321A088FFF757FD002829
:103C60009BD02C4A4FF42771FBF7E8FF95E7238997
:103C7000A27C3049002001F043FD8EE7A279002AA2
:103C80008BD0A37B043B022B87D8022A0CBF0222D5
:103C900001224FF4C1736946A0888DF80020ADF869
:103CA0000430FFF73DFD00283FF477AF194A40F29A
:103CB000C321FBF7C3FF70E7174A0023108819469A
:103CC0001A46FFF72FFD00283FF467AF114A40F274
:103CD0009521FBF7B3FF60E70D4B17490122032045
:103CE0001A70FBF767FE15490320FBF763FE9EE79A
:103CF000054800F099FD50E711490320FBF75AFEF3
:103D00002B8801332B8048E7D82A0020502A002036
:103D10001C2A00200C8D0200A4210020782E0020F7
:103D2000188F0200702E0020348F0200402A0020DD
:103D3000BC8F02009C8F0200908E0200708F0200E8
:103D40005C8F0200F0B54C4897B000F029FE0446A5
:103D500000F034FF631C3BD0484B40EA04201E684F
:103D600085B200F071FB321404ABADF81200240CE4
:103D700041F28B2EADF81A50ADF816200C253C22DE
:103D8000002107A84AF60437ADF81460ADF81840D2
:103D9000ADF8085003930425ADF810E0ADF80470B9
:103DA000FBF7D0FB0022012306260DEB050407A834
:103DB00011468DF81E208DF81C308DF848308DF896
:103DC0001D608DF81F50119401F00CFF00284ED19A
:103DD0002B4B1B78002B48D04FF0A0424FF4002112
:103DE0002848C2F8081541F288330068264C00BF05
:103DF00000BF00BF00BF00BF00BF00BF00BFA042A8
:103E00002FD000BF00BF00BF00BF00BF00BF00BF7A
:103E100000BF00BF00BF00BF00BF00BF00BF00BFAA
:103E200000BF00BF00BF00BF00BF00BF00BF00BF9A
:103E300000BF00BF00BF00BF00BF00BF00BF00BF8A
:103E400000BF00BF00BF00BF00BF00BF00BF00BF7A
:103E500000BF00BF00BF00BF00BF00BF00BF00BF6A
:103E600000BF013BC3D1C2F80C1517B0F0BD074A23
:103E7000CF21FBF7E3FEABE79C210020742E00204E
:103E80001C2A0020A82100200024F4000C8D020030
:103E900008B50020FBF77CFD00B908BD024A85216A
:103EA000BDE80840FBF7CABE0C8D020010B584B017
:103EB00000240C2301AA4FF6FE7141F21110019467
:103EC0000294039400F0F6FA019AA2F50853223BFB
:103ED0004CF6CB418B4209D840B9029B0B4C501C8D
:103EE000013380B2236000F0B9FA06E0074C0023EA
:103EF00042F22220236000F0B1FA2368BDF80420CA
:103F000003490320FBF774FD04B010BD742E00209C
:103F1000F88F0200F0B593B0FEF75AF8BC48FFF7EF
:103F200009FCFFF7B5FFBB490320FBF743FDBA4986
:103F30000320FBF73FFD00231846B84A0521FCF794
:103F40003FFA20B1B64A40F26E31FBF777FE00220D
:103F500040F6CD410120FFF779F920B1B04A4FF486
:103F60005C71FBF76BFEAF490320FBF723FD0023D9
:103F70001846AD4A0521FCF723FA20B1A84A40F2C1
:103F80003F11FBF75BFEA94AA9480121FCF7F8FAAB
:103F900020B1A34A4FF4A171FBF750FEA54AA648F1
:103FA0000121FCF7EDFA20B19D4A40F24511FBF7E3
:103FB00045FEA24AA2480121FCF7E2FA20B1984A44
:103FC0004FF4A471FBF73AFE9E490320FBF7F2FC85
:103FD0009D4A40F6CD410320FFF738F902460028FC
:103FE00000F0028299490120FBF7F2FC984B9949B5
:103FF000186800900023684650226C4602F082FD4B
:1040000020B1874A40F20231FBF718FE03AA0121D2
:10401000002002F0F1FD20B1814A40F20931FBF7A6
:104020000DFE022303A8ADF80C3002F0FDFD20B117
:104030007B4A40F21131FBF701FE874802F0ACFDEC
:1040400020B1774A40F21631FBF7F8FD834802F0C1
:10405000ADFD20B1724A40F21A31FBF7EFFD9DF839
:1040600000307F48012262F3030362F307138DF8E7
:10407000003004F059F97A4982B22046FFF74CFB30
:1040800020B1674A40F26511FBF7D8FD40F241309C
:10409000FFF73EFB20B1624A4FF4B471FBF7CEFD4F
:1040A0000822002103A8FBF74DFA0625082100226B
:1040B0004FF4C87303A8ADF80C50ADF80E10ADF86E
:1040C0001020ADF81230FFF725FB20B1544A4FF411
:1040D000B971FBF7B3FD6349634D0320FBF76AFC3D
:1040E00000F046FD41F28B23ADF800303C22022364
:1040F000002103A8ADF804300295FBF723FA002352
:104100000422194603A80C948DF80C308DF80F206A
:1041100001F068FD20B1424A40F22221FBF78EFDFA
:10412000524D102200212846FBF70CFA00264FF4CE
:104130007A634F496B8103202E706E602E72AE81C0
:10414000FBF738FC0422314603A8FBF7FBF9494B87
:104150004948039303A9FFF7ADF9024618B147494F
:104160000120FBF735FC1C22002103A8FBF7EAF92C
:104170004FF4004700234FF4F01605254049414A0B
:10418000039303A8ADF81A308DF81C3004970596F8
:104190008DF818500891099202F01EF820B1204ABB
:1041A00040F2F111FBF74AFD37490320FBF702FC0F
:1041B000364800F0D5FB36490320FBF7FBFB00F047
:1041C0008FFA0546002800F00A8102463149012095
:1041D000FBF7FEFB2846124A4FF46671FBF72EFDF3
:1041E000002000F099FB2C490320FBF7E3FB41F290
:1041F0001110FDF7FFFA2949054602460120FBF799
:10420000E7FB002D4ED02846054A40F2A33147E097
:1042100080841E002C90020048900200602A00203A
:104220000C8D02006890020010290020453D02001C
:10423000008D0200E1370200088D0200C137020044
:10424000048D02008890020099390200A8900200B3
:10425000F08C020088290020993A02007D38020083
:10426000E4900200EC900200F82A0020402A00208E
:104270001091020091380200D82A00202C910200EF
:104280006D390200D1370200509102009C210020BC
:104290007491020098910200D491020004920200ED
:1042A000FBF7CCFC56491320FBF784FB052000F0FC
:1042B00033FB54490320FBF77DFB534B93E8070086
:1042C000032384E8070022464FF6FD7141F21110E6
:1042D00000F0CCF820B14D4A40F2AB31FBF7AEFC18
:1042E000012000F019FB4A490320FBF763FB00247F
:1042F00042F2232503AA03234FF6FE7141F2111067
:1043000003950494059400F0B1F820B13F4A40F2BF
:10431000B331FBF793FC012000F0FEFA3D49032086
:10432000FBF748FB3C48FFF705FAFFF7BFFD3A48AB
:10433000FFF700FA00224FF4A0313848FCF732F9B9
:1043400020B1324A40F25111FBF778FC00224FF4C1
:1043500096013348FCF726F920B12C4A4FF4AA7194
:10436000FBF76CFC00224FF400412E48FCF71AF9D1
:1043700020B1264A40F25711FBF760FC2A4903207E
:10438000FBF718FB2948FFF7BDF90446D0B10246F8
:1043900027490320FBF71CFB20461C4A40F2C5318D
:1043A000FBF74CFC23490320FBF704FBFDF7E6FD7C
:1043B000FFF7BEF90028FBD0144A40F25D31FBF74D
:1043C0003DFCF5E71C4B1D49012203201A70FBF749
:1043D000F1FA224616490320FBF7FAFAE2E71849F8
:1043E0000320FBF7E7FAFBE605220221FEF788FF30
:1043F00008B10246F6E513490320FBF7DBFAF5E5C1
:104400002492020028920200F48C02000C8D02001B
:10441000549202008092020040420F00DC290020EA
:10442000FC290020202A0020AC920200402A002013
:10443000C8920200E89202001C2A0020908E02001E
:10444000B8910200C8900200034B186800F50850AC
:10445000223080B2704700BF7C2E0020A0F50850AB
:10446000014B2238186070477C2E002070B50E4634
:1044700088B005460E4C00213BB152F8210044F8AB
:1044800021000131C9B29942F7D3012202A905A83E
:104490000094ADF80430ADF80850ADF80A60CDF8DE
:1044A0000CD0ADF81020FDF74FF908B070BD00BF7B
:1044B000FC2A00202DE9F0438BB0002380460F46F4
:1044C00016460693059305AB07AA39464046FDF705
:1044D00007FA00282FD103A907A8FDF7EDF8044635
:1044E00068BB079B009342463B4619490320FBF7F4
:1044F0008FFA039BDDF810905B8883B125B21549D4
:1045000059F825201320FBF763FA59F8253046F8AF
:104510002530039B01345B88E4B2A342EED813201C
:104520000D49FBF747FA07A8FDF7EAF80028CAD0BB
:104530000BB0BDE8F08300200BB0BDE8F08302466D
:1045400006490120FBF744FA20460BB0BDE8F08392
:1045500030930200709302007C96020008930200E0
:10456000F0B587B001788689C58982680023044642
:10457000039304930593052923D8DFE801F04F0343
:10458000562468424368002B67D13A4C3A48236866
:10459000019392B2012700922B46324637490770A9
:1045A0000320FBF747FAEB1C9BB2BB42294630467F
:1045B0004FF0000303AA47D9FFF77CFF23683B4471
:1045C000236007B0F0BD43682D490420FBF710FAC3
:1045D0006368002BF5D1A2682A4BA3FB0213DB080A
:1045E00003EB830303EB8303D31A012B0CD84FF6A1
:1045F000FE739A4208D024490320FBF7DBF9FDF74C
:1046000035F96368002BDCD1628920490420FBF76F
:10461000DFF91F4B01221A7007B0F0BD426822BBC0
:104620001C4B01221A7007B0F0BD4368002BC8D1A3
:1046300092B200922B46324617490320FBF7E8F965
:1046400029463046002303AAFFF734FFB9E7436841
:10465000002BB6D1FDF70AF9B3E7009332462B469B
:104660000E490120FBF7D4F9ABE70D490120FBF718
:10467000AFF9A6E77C2E00205C2A0020C49302003C
:10468000849402001F85EB51E4940200B894020068
:10469000D8290020F42A00204C940200089402003B
:1046A00098930200F0B587B006AD002407460E4689
:1046B00045F8144DADF8084002E003A8FDF762F894
:1046C0002B4603AA31463846FDF70AF9A3B2013456
:1046D0000028F2D0B3FA83F0400907B0F0BD00BF64
:1046E00008B5064B064800221A60FCF74FFE00B1E1
:1046F00008BDBDE80840FCF75DBE00BF7C2E002071
:10470000614502002DE9F0473F490D6888B008AEC9
:10471000C5F30C05002405F5085507469146984653
:10472000223546F8184DADF80C4002E005A8FDF71B
:1047300029F8334605AA29463846FDF7D1F8A3B231
:1047400001340028F2D033BB30490420FBF732F9A2
:104750002F4C0023B8F1000F07D059F8232044F85C
:1047600023200133DBB29845F7D80123314605A851
:104770000094ADF80480ADF80870ADF80A50CDF89B
:104780000CD0ADF81030FCF7DFFF08B1072807D0D8
:1047900008B0BDE8F0871F490420FBF70BF9D7E705
:1047A0001D490220FBF706F9FDF760F81B4A137854
:1047B000002BFCD0DFF86CA000238AF80030B8F1A1
:1047C000000F07D059F8232044F823200133DBB22F
:1047D0009845F7D80123314605A80094ADF8048028
:1047E000ADF80870ADF80A50CDF80CD0ADF8103027
:1047F000FCF7AAFF0A4A1378002BFCD000238AF8A2
:10480000003008B0BDE8F0877C2E002088950200BB
:10481000FC2A00205C9502002C950200D82900207B
:104820005C2A0020F42A0020F0B587B04FF6FD7214
:1048300000AF002391423B607B60BB6016D0A1F5C6
:1048400008512E4B22390B40002B49DB2C4A1268B1
:1048500002F5085203F508532232223392B29342F2
:1048600003D300201C37BD46F0BD99B205463A4639
:10487000002341F21110FFF71DFE044610BB97E81C
:104880001400BB68FA60394628460C223C617B6103
:10489000FEF708FF6E46044648BB1A490320FBF7A3
:1048A00089F807F10C0407F1180514F8012B1649D3
:1048B0001320FBF78DF8AC42F7D100201C37B5462A
:1048C000BD46F0BD024611490120FBF781F8012CDD
:1048D000C7D1022022460E49FBF77AF82046C1E7ED
:1048E000013B6FEAC3436FEAD3430133AEE70246AD
:1048F00008490120FBF76CF82046B3E7FF1F008052
:104900007C2E002030960200DC8D0200B49502005F
:10491000D895020008960200012812D009D3052874
:1049200006D10C4A1378002BFCD00B4B00221A70D6
:10493000704709490B78084A002BFBD000231370FD
:104940007047064A1378002BFCD0034B00221A70E4
:10495000EEE700BFD8290020F42A00205C2A0020BE
:10496000F0B585B00024039423462246694602240C
:104970001D271E264FF0CC758DF80C400097019630
:10498000029502F053FA044620B102460349012081
:10499000FBF71EF8204605B0F0BD00BFD096020020
:1049A00070B586B0054602F0FBFB2D4B0126198839
:1049B000ADF80C10002400962846022303AA4421D7
:1049C000ADF81440049402F017FCB0BB04AA06230F
:1049D0004421284602F0D0FC40B10246214930462D
:1049E000FAF7F6FF4FF0FF3006B070BD284602F030
:1049F000E7FB9DF811309DF810001B4C03EB0020E5
:104A000003F084F912A3D3E9002303F00FFB12A3F0
:104A1000D3E9002303F02CF803F0F0FB9DF81420F9
:104A20009DF8133002EB032384FB0324DB17C3EB55
:104A3000242444EA004006B070BD044622463046B5
:104A40000A49FAF7C5FF204606B070BDAFF30080F3
:104A5000EC51B81E85EB0D40000000000094B14001
:104A60005096020010970200FB110E64F0960200AF
:104A7000037803B1704710B54068B0F9004004EB0B
:104A800084040121C4EB041402F05AFFE40048BF7F
:104A900004F2FF34A31203EB43035B0003F58773B7
:104AA0009BB240F6B73293420DD9642228B92B4904
:104AB0000420BDE81040FAF78BBF29490120BDE86A
:104AC0001040FAF777BF40F6543293421AD840F6B6
:104AD000B422934225D840F68812934230D840F64B
:104AE0003402934238D9C3F51863083303EB430308
:104AF0001C4A5B0082FB0312DB17A3EBE2120632B7
:104B0000D2B2D3E7C3F53B633A210833164A01FB1F
:104B100003F382FB0312DB17A3EB62126432D2B2FF
:104B2000C4E7C3F53563043303EB43030F4ADB00EB
:104B300082FB0312DB17A3EBA2122A32D2B2B5E733
:104B4000C3F52B63084A043382FB0312DB17A3EB84
:104B5000E2021232D2B2A9E70022A7E7749702005C
:104B60003C970200616060601F85EB516766666676
:104B700000B50F4985B0002002F098FD90B90D4BAB
:104B8000186859681A7A01AB03C301A900201A708A
:104B900002F0D8FD18B1084AAE21FBF74FF805B076
:104BA0005DF804FB044AA921FBF748F8E7E700BFDA
:104BB000714A020030970200AC97020000B583B042
:104BC0000DF10601002002F0EBFDB8BBBDF9063087
:104BD00003EB8303C3EB0313DB0048BF03F2FF3394
:104BE0009B1203EB43035B0003F587739BB240F614
:104BF000B732934203D9642003B05DF804FB40F65A
:104C00005432934223D840F6B422934230D840F62F
:104C1000881293423DD840F63402934237D9C3F507
:104C20001863083303EB430320485B0080FB032039
:104C3000DB17A3EBE0100630C0B2DDE702461C49EB
:104C40000120FAF7C5FE012003B05DF804FBC3F5AF
:104C50003B633A220833174802FB03F380FB03202F
:104C6000DB17A3EB60106430C0B203B05DF804FB47
:104C7000C3F53563043303EB43030F48DB0080FBCC
:104C80000320DB17A3EBA0102A30C0B2B4E700204A
:104C9000B2E7C3F52B630748043380FB0320DB171F
:104CA000A3EBE0001230C0B2A6E700BF6160606015
:104CB000C89702001F85EB51676666660B88102B4C
:104CC00006D0112B03D14FF6FF7303807047704756
:104CD0008B880380704700BF2DE9F84F4300DFF851
:104CE00070A11E180AEBC6068846F16A012917460C
:104CF00041D031D3022939D1013000EB4000756A2F
:104D00004FEAC0094FF0000B1CE0326A641BBC4242
:104D10000AEB09012346A2EB050428BF3B469C424F
:104D2000486828BF1C4628444146224603F0B6FA8C
:104D3000336A25449D4208BF00253F1BA344A0447D
:104D4000756215D0B36AAB4203F1FF34DDD8326A25
:104D50001344013B5C1BDAE7B16A726A91429CBF63
:104D6000346A091901398A1A974236D94FF0000B73
:104D70005846BDE8F88FB16A756AA94227D901394A
:104D8000326AC5EB010B03440AEBC30ABB45DAF8F0
:104D900024502F4B28BFBB46561B0130B34500EBB8
:104DA00040003BD303EBC0043246606841462844D0
