:020000040001F9
:10F00000306D002015F401001DF401001FF4010013
:10F0100021F4010023F4010025F4010000000000A8
:10F0200000000000000000000000000027F40100C4
:10F0300029F40100000000002BF401002DF4010070
:10F04000D5FA01002FF40100DD01020001FF0100EB
:10F050002FF401002FF40100D1F8010051FB010051
:10F060002FF401002FF401002FF401002FF4010010
:10F070002FF401002FF401002FF401002FF4010000
:10F080002FF401002DFB01002FF401002FF40100EB
:10F090000DFF01002FF4010011FF01002FF401000A
:10F0A0002FF401002FF401002FF401002FF40100D0
:10F0B0002FF401002FF40100000000000000000008
:10F0C0002FF401002FF401002FF401002FF40100B0
:10F0D0002FF401002FF401002FF4010000000000C4
:10F0E0000000000000000000000000000000000020
:10F0F0000000000000000000000000000000000010
:10F1000000000000000000000000000000000000FF
:10F1100000000000000000000000000000000000EF
:10F40000DFF80CD000F052FA00480047B13102009A
:10F41000306D00200648804706480047FEE7FEE7BB
:10F42000FEE7FEE7FEE7FEE7FEE7FEE7FEE7FEE7B4
:10F4300041FF010001F4010000487047006902002B
:10F4400040EA01039B0703D009E008C9121F08C066
:10F45000042AFAD203E011F8013B00F8013B521EE6
:10F46000F9D27047D2B201E000F8012B491EFBD25D
:10F4700070470022F6E710B513460A4604461946BF
:10F48000FFF7F0FF204610BD421C10F8011B0029B9
:10F49000FBD1801A7047034611F8012B00F8012BAD
:10F4A000002AF9D1184670472DE9FE4F804681EABF
:10F4B0000300C00F0C46009021F0004123F00045EE
:10F4C000B8EB0200A94105D24046214690461C46B1
:10F4D0000B46024623F00040104347D0270DC7F3E8
:10F4E0000A00C3F30A510290401A019040286BDAD7
:10F4F000C3F3130040F4801B0098924620B1002310
:10F50000D2EB030A63EB0B0B01985946C0F14002A2
:10F51000504600F03CF906460D4650465946019AC1
:10F5200000F054F910EB08006141002487EA115201
:10F5300084EAE7731A4340D0009A62B3019A012A21
:10F540004FEA075215DC001B61EB02014FF000424D
:10F5500002EA0752CDE90042001C41F58011324613
:10F560002B4600F054F903B0BDE8F08F4046214629
:10F57000F9E7001B61EB0201001C41F58013001844
:10F580005B412018A2F5001747EB030140EAD57054
:10F59000B6196D4111E06D084FEA360645EAC075AF
:10F5A0004FEA0752001B61EB0201001C41F580117C
:10F5B00049084FEA30000019514132462B4603B04A
:10F5C000BDE8F04F00F014B900980122400000237C
:10F5D000D0EB020263EBE073009821464FEAE0743F
:10F5E000B8EB000061EB0401E9E783F000435BE75F
:10F5F00081F0004158E72DE9F04D81EA030404F061
:10F60000004B21F0004514464FF0000A23F0004162
:10F6100050EA050220D054EA01021DD0C5F30A5772
:10F620000246C5F31303C1F31300C1F30A5640F4B5
:10F63000801543F48013A7EB0608101BD64608F28A
:10F64000FD3873EB050002D308F1010801E09218C0
:10F650005B41B8F1000F03DA00200146BDE8F08DF0
:10F6600000204FF48011064684460EE0171B73EB12
:10F67000050705D3121B63EB050306434CEA010C97
:10F6800049084FEA300092185B4150EA0107EDD17A
:10F6900052EA030012D082EA040083EA050108431B
:10F6A00005D0101BAB4106D20122002306E0002248
:10F6B0004FF0004302E06FF0010253101AEB060016
:10F6C0004CEB085110EB0A0041EB0B01BDE8F04D8B
:10F6D00000F08EB80EB540F2334102910021CDE921
:10F6E00000110A460B4600F092F803B000BD70B559
:10F6F000C1F30A5201F000450024C1F3130140F2A6
:10F70000FF3341F480119A4201DA002070BD40F2CB
:10F7100033439A42A2F2334203DC524200F046F8ED
:10F7200000E090402C43F1D0404270BD2DE9F05FE5
:10F730000546002092469B46884606468146402460
:10F740001BE0284641464746224600F02FF8534624
:10F750005A46C01A914110D311461846224600F06D
:10F7600016F82D1A67EB01084F46224601200021AA
:10F7700000F00DF817EB00094E41201EA4F1010422
:10F78000DFDC484631462A464346BDE8F09F202A42
:10F7900004DB203A00FA02F1002070479140C2F1E8
:10F7A000200320FA03F3194390407047202A04DB1A
:10F7B000203A21FA02F00021704721FA02F3D040EA
:10F7C000C2F120029140084319467047202A06DB07
:10F7D000CB17203A41FA02F043EAE07306E041FA1F
:10F7E00002F3D040C2F1200291400843194670470D
:10F7F00010B5141E73F1000408DA401C41F1000139
:10F8000092185B411A4301D120F0010010BD2DE98F
:10F81000F04D92469B4611B1B1FA81F202E0B0FA86
:10F8200080F220329046FFF7B2FF04460F4640EACE
:10F830000A0041EA0B0153465A46084313D01146C9
:10F8400053EA010019D0C8F140025046FFF7AEFF5D
:10F8500005460E46504659464246FFF798FF084374
:10F8600005D0012004E020463946BDE8F08D002097
:10F87000054346EAE0762C4337430A986305E40AD9
:10F88000A0EB08000022FD0A44EA47540A3002D5E2
:10F8900000200146E9E7010510196941DDE9084545
:10F8A00000196941BDE8F04DA2E70000064C074D84
:10F8B00006E0E06840F0010394E807009847103440
:10F8C000AC42F6D3FFF7A0FD706A0200906A020016
:10F8D0002DE9F04700268CB0DFF86091B0464FF478
:10F8E0008075012437460696284604F0BFFC38B1DF
:10F8F000D9F80403204203D0284604F0ADFC264387
:10F900002D1D64007F1CADB2082FEDD34FF4BE74E3
:10F91000204604F0ABFC48B1204604F09DFC46F0C4
:10F92000004606AA0121002004F082FC444D16F096
:10F93000FF0F15D00127002437420DD009EB8401B9
:10F94000D1F81005D1F81015C0F3042055F8242083
:10F95000C1F3014102B190477F00641C082CEBD336
:10F96000002E67DA4FF0FF30CDE9088000263446DC
:10F97000281910F8507F90F9000027F0C008401CAB
:10F9800044D009A9404603F0BDFF58B34FEA971988
:10F99000404602F06DF955F820701FB1B9F1030F20
:10F9A00003D00FE0B9F1030F30D108A84FEAD80215
:10F9B00008F00703815C4FF0010C0CFA03FC41EAEC
:10F9C0000C0181544FF0A04101EB8800D0F80007F2
:10F9D00006A9C0F3014A404603F094FF18B1BAF1FA
:10F9E000020F03D012E0BAF1030F0FD1B9F1030FE8
:10F9F00008D1BAF1020F1BD00221404604F0E9FB06
:10FA0000761CF6B217B149464046B847641C042C30
:10FA1000AED3002E0ED06A460121002004F008FC6F
:10FA200006990098884205D00690089809909DE7AD
:10FA30000321E2E70CB0BDE8F08700000060004061
:10FA40008825002000F01F0201219140400980001C
:10FA500000F1E020C0F88012704700F01F02012181
:10FA600091404009800000F1E020C0F8801170470B
:10FA700000F01F02012191404009800000F1E020C8
:10FA8000C0F80011704700F01F02012191404009A9
:10FA9000800000F1E020C0F80011704700F01F0264
:10FAA000012191404009800000F1E020C0F80012DF
:10FAB00070474907090E002806DA00F00F0000F130
:10FAC000E02080F8141D704700F1E02080F8001459
:10FAD000704700002DE9F0414FF48077384603F07D
:10FAE00019FF0124104EA50748B1384603F019FF4D
:10FAF0000120C5F808037470002002F01DF94FF4CE
:10FB00008277384603F006FF00280BD0384603F012
:10FB100008FF0220C5F80803B470BDE8F0410120D9
:10FB200002F00AB9BDE8F0817425002007480021E1
:10FB3000C0F84011C0F84411C0F84811C0F84C1189
:10FB4000C0F80011C0F8041105F0BABF0010014060
:10FB50002DE9FE434FF48278404604F04BFD504FB0
:10FB60000025504C012600B3404604F04BFD94F8AC
:10FB70002B0010B194F82C10D1B18DF800506168B1
:10FB800001912189ADF80810E16829B16160A18A6D
:10FB90002181E56018B103E084F8295000E03E605F
:10FBA00021686846884784F82C5094F82B0098B355
:10FBB0004FF48077384604F01DFD68B3384604F0F2
:10FBC00021FDE28A72B194F82A108A4210D9A2EB80
:10FBD000010080B2E0822289A2EB0000626802EBA1
:10FBE00040000BE0208994F82A10A0EB0100F0E718
:10FBF00007D1E06828B184F82C60E58204F0B4FCF9
:10FC000004E08A4202D184F82C60E582404604F088
:10FC1000F9FC2348001D06604FF48877384604F04D
:10FC2000E9FC50B1384604F0EDFC84F8295002207C
:10FC30008DF800002168684688474FF48A77384677
:10FC400004F0D8FC30B1384604F0DCFC84F82950CC
:10FC5000BDE8FE834FF000484FF48C7927691CE023
:10FC6000B7FA87F028FA00F109EB80058F432846A0
:10FC700004F0C0FC88B1284604F0C4FCA5F58C75DE
:10FC8000E8088DF8040045F38000401C8DF8006002
:10FC90008DF80500216868468847002FE0D1D7E736
:10FCA000007000402826002003480078002801D179
:10FCB00000F0A2BA70470000B82C0020F8B5064644
:10FCC0000C4814460D46007808B900F095FA002358
:10FCD00000938DF80030684601F098F922462946D5
:10FCE000304600F009F804469DF8000001F0B2F932
:10FCF0002046F8BDB82C002070B50E46144900EB24
:10FD0000400001EBC0051446E86A183520B101280F
:10FD10000FD0022805D113E0284600F0A1FAA04236
:10FD200001D2002411E022463146284600F0C0FBF3
:10FD30000BE0284600F094FAA042F4D20446F2E721
:10FD40003146284600F087FB0446204670BD00007F
:10FD5000B82C00200FB408B504A900916A46039995
:10FD600000F004F801B05DF814FB00002DE9F0414B
:10FD700098B0064607A8029040200025CDE903056B
:10FD8000CDE9055690460C4614F8011B002971D0A8
:10FD9000252908D002A800F03FFB05980028F3DAD7
:10FDA00018B0BDE8F0810020217823291BD02B2931
:10FDB00016D02D290ED030290FD000222178A1F1A4
:10FDC00030030A2B13D202EB820201EB4202303ADB
:10FDD000641CF3E740F0010007E040F0020004E09B
:10FDE00040F0040001E040F00800641CDCE7002360
:10FDF000CFB22E2F0CD100BF14F8011FA1F1300794
:10FE00000A2F05D203EB830301EB4303303BF3E7F7
:10FE10006C290DD068290BD0702954D00BDC252912
:10FE200016D0582931D063290CD0642913D114E09D
:10FE300014F8011BECE7732934D075291BD07829FD
:10FE400009D122E0D8F80000011DC8F8001001789F
:10FE500002A800F0E1FA641C9FE7D8F800100F1D1B
:10FE6000C8F800700968CDE900200A2202A800F055
:10FE700003FAF0E733E0D8F800100F1DC8F800705F
:10FE80000968CDE900200A2208E0D8F800100F1D0B
:10FE9000C8F800700968CDE90020102202A800F01F
:10FEA0004DFAD8E7D8F80000011DC8F8001007681F
:10FEB00017F8011B0029CED002A800F0ADFA059872
:10FEC0000028F5DAC7E7D8F80000011DC8F80010CF
:10FED00001680820CDE9000503461022DEE70598F9
:10FEE00000287FF75DAF049820B1024607A930468D
:10FEF000FFF7E4FEDDE904010844059050E7000047
:10FF00000148006800470000AC21002005F050BD0A
:10FF1000094810B5406848B1804700280AD0BDE8BC
:10FF20001040064A4FF4C77100F0C6BFBDE810404C
:10FF300002F068BF10BD000004220020186A020011
:10FF4000F0B598480023021D01780125101D4FF0DF
:10FF50008056062907D11478240704D10478C4F305
:10FF60000314032C02D0062904D00FE08F4F8E4CCF
:10FF70007C670EE01478240708D10478C4F30314D6
:10FF8000032C06D0042C04D0052C02D0062907D05F
:10FF90000EE0D6F84442864FC4F342343C6002E09F
:10FFA0001478240704D10478C4F30314032C02D07A
:10FFB000062906D011E07F4C276827F0807727605C
:10FFC0000EE01478240708D10478C4F30314032C3A
:10FFD00006D0042C04D0052C02D006290AD011E04A
:10FFE0004FF08044C4F80C31C4F81031704C241F19
:10FFF000236002E01478240704D10478C4F30314C6
:020000040002F8
:10000000032C02D0062905D00CE0694F0324643785
:100010003C600AE01478240704D10478C4F3031484
:10002000032C02D006290DD014E0634F05243C6058
:10003000614C78342560604C083423603F243F1DB8
:100040003C6002E01478240704D10478C4F303145C
:10005000052C02D0062957D068E058490968584A4B
:1000600011605649091D0968121D11605349083174
:100070000968121D116051490C310968121D116087
:100080004E4910310968121D11604C49143109683C
:10009000121D1160494918310968494A203211601E
:1000A00046491C310968121D116044492031096814
:1000B000121D1160414924310968121D11603F4928
:1000C00028310968121D11603C492C310968121D44
:1000D00011603A4930310968394A40321160374974
:1000E00034310968121D1160344938310968121D14
:1000F000116032493C310968121D11602F494031AD
:100100000968121D116002E0117809070ED100780C
:10011000C0F30310032803D0042801D0052805D11B
:10012000D6F85802274900F04F000860214874387B
:10013000016841F470010160BFF34F8FBFF36F8F0F
:100140004FF01021D1F80002002803DBD1F804029F
:10015000002822DA1C4A15601C480468002CFCD0D8
:100160001524C1F800420568002DFCD0C1F80442F6
:1001700001680029FCD0136001680029FCD0BFF39E
:100180004F8F0C48F0380168114A01F4E0611143C7
:100190000160BFF34F8F00BFFDE70F490D480860B6
:1001A000F0BD0000E00F00F00DF0ADBA00C0074058
:1001B0003C050040FCED00E0105600400404001037
:1001C00020C50040E40E004004E5014000E4014089
:1001D0000400FA050090D003182200200448017F93
:1001E00004480029024901D006F05DB805F0CCBFF3
:1001F000E02500200020004010B5124C02202061B4
:10020000606111A0A061A4F50470E0614FF400707A
:1002100020620020A06260620BA1A164E062A4F1F0
:100220001001E16410212165A0656065E06509A108
:10023000E01DFFF730F908A12046FFF72CF9202038
:10024000A07110BDB82C00205465726D696E616C90
:1002500000000000525454005345474745520000E7
:100260000269C1688A4203D88068401A104400E0DD
:10027000501A401E704700002DE9FC5F0E008146B9
:10028000DDE90C47C6F1000098469346824600D44B
:100290000846012503E000BFB0FBFBF06D1C58458C
:1002A000FAD2A84500D9454624B1002E01DB7807D3
:1002B00000D5641EB80702D5B8F1000F10D0F807BA
:1002C0000ED16CB12046641EA84209D920214846AF
:1002D00000F0A2F8D9F80C000028F2DABDE8FC9F83
:1002E000002E02DA56462D2102E0780707D52B2191
:1002F000484600F091F8D9F80C000028EEDB07F032
:100300000300022810D1B8F1000F0DD164B12046CE
:10031000641EA84208D93021484600F07DF8D9F87B
:100320000C000028F2DAD9E7CDE9004743465A46E7
:100330003146484600F002F8D0E700002DE9F84FBA
:100340008246DDE90A4B0126984691460D4608464D
:10035000374602E0B0FBF9F07F1C4845FAD2B845B9
:1003600000D947465FEACB701CD1DCB15FEA8B70E5
:1003700002D5B8F1000F02D0202000900AE0302012
:10038000FBE75046009900F047F8DAF80C00002827
:100390003EDB3CB12046641EB842F2D802E000BF0A
:1003A00006FB09F6B5FBF6F1494501D3012100E052
:1003B00000214246A8F10108012A01DD012000E0E8
:1003C00000200143ECD1DFF84C8000BFB5FBF6F014
:1003D00000FB165518F80010504600F01DF8DAF82A
:1003E0000C00002803DBB6FBF9F6002EEED15FEA25
:1003F000CB700DD0002C0BD02046641EB84207D91C
:100400002021504600F008F8DAF80C000028F1DA54
:10041000BDE8F88F6C68020010B50446D4E90130DD
:10042000421C934205DB23681954A260E068401C1B
:10043000E060D4E90102824209D121682069FFF716
:100440003DFCA168884203D04FF0FF30E06010BD52
:100450000020A06010BD2DE9F047C468174689460A
:1004600006464FF000083069A04201D9051B02E0A2
:10047000B168201A0D1AB0686D1E001BA84200D882
:100480000546BD4200D33D4670682A462044494691
:10049000FEF7D6FFB0687F1B2C44A844A944A042B5
:1004A00000D10024F460002FDDD14046BDE8F08784
:1004B0002DE9F041C6680446174688468068851BCA
:1004C0006068BD4206D93044FEF7BAFFF019E0601B
:1004D000BDE8F0812A463044FEF7B2FF7E1B08EBF0
:1004E000050132466068FEF7ABFFE660F0E700000A
:1004F0000FB41CB50246002007AC00290BD0491EE2
:10050000CDE90021054B6A462146069800F02AF8FD
:10051000009A002111701CBC5DF814FBC709020091
:1005200002E008C8121F08C1002AFAD170477047BC
:10053000002001E001C1121F002AFBD1704700001A
:100540000121202803DA81400548014003E04028CA
:1005500002DA2038814009B101207047002070473D
:10056000FC06FFBC2DE9FF4F8DB00F460546002667
:1005700006E025280BD0DDE90F1290476D1C761C94
:1005800028780028F5D111B03046BDE8F08F00245E
:10059000A246A1460122EC4900E0044315F8013FC0
:1005A000203B02FA03F00842F7D128782A2810D01D
:1005B0006FF02F022878A0F13001092914D80AEB36
:1005C0008A0102EB410144F0020400EB010A6D1CB8
:1005D000F0E701CF5FEA000A03D544F40054CAF102
:1005E000000A44F002046D1C28782E2817D115F853
:1005F000010F44F004042A280ED06FF02F0228784F
:10060000A0F1300109290AD809EB890102EB410167
:1006100000EB01096D1CF2E757F8049B6D1C28786C
:100620006C280FD006DC4C2817D068280DD06A281B
:1006300014D104E0742810D07A280FD10DE044F4CE
:1006400000140AE044F4801401E044F44014697892
:10065000814202D104F580146D1C6D1C2A786E2A2B
:100660001FD00CDC632A31D004DC002A8BD0582A3E
:1006700011D1A3E0642A68D0692A0CD165E0732AFD
:100680002ED004DC6F2A73D0702A04D19BE0752A27
:100690006FD0782A6ED01046DDE90F129047761C95
:1006A00050E1C4F30250022806D0032809D00428E0
:1006B00001CF09D0066045E101CFF117C0E9006123
:1006C00040E101CF06803DE106703BE117F8040BE5
:1006D0008DF8000000208DF80100EB46012003E0BA
:1006E00057F804BB4FF0FF3061074FF0000102D410
:1006F0000DE008F10101884649450FDA8045F8DB35
:100700001BF808100029F4D108E008F1010188461F
:100710008142FADB1BF808100029F6D1DDE90F232E
:10072000AAEB08008146214600F036F9304400EB80
:10073000080604E0DDE90F121BF8010B9047B8F141
:100740000108F7D221464846F7E00A21C4F30253D4
:100750004FF0000B0891022B04D001CFC117032BDF
:1007600009D00AE0FF1D27F00707F7E8020108E0BB
:1007700032E01FE020E000B2C117042B01D140B2EB
:10078000C117031E71F1000307DA4FF0000CD0EB24
:100790000C006CEB01012D2302E0230504D52B2373
:1007A0008DF82430012303E0E30701D02023F7E78D
:1007B000984658E00A2110E010210EE010204FF07A
:1007C000000B08900CE010214FF0000B44F00404E3
:1007D0004FF00809089103E008214FF0000B089141
:1007E000C4F30253022B04D001CF0021032B06D007
:1007F00006E0FF1D27F00707F7E8020103E080B2DB
:10080000042B00D1C0B24FF0000823072BD5702A6B
:1008100007D0DDF820C08CF0100C5CEA0B0C05D082
:100820000EE040238DF82430012308E050EA010354
:1008300006D030238DF824308DF8252002239846E9
:10084000DDF820C08CF0080C5CEA0B0C0BD150EAF0
:10085000010301D1630706D530238DF824304FF012
:100860000108A9F10109582A04D038A20B9208AA5C
:100870000A920BE03AA2F9E75B46089AFEF756FFA8
:100880000B9B9B5C0A9A521E0A92137050EA01025B
:10089000F2D10A98ADEB000000F1200B600702D501
:1008A00024F4803401E04FF00109D94502DDA9EBC1
:1008B0000B0000E0002000EB0B0141440890AAEB84
:1008C000010AE00306D4DDE90F232146504600F07B
:1008D00063F806444FF0000908E009A911F809007F
:1008E000DDE90F12904709F10109761CC145F4DBDF
:1008F000E0030CD5DDE90F232146504600F04CF80B
:10090000064404E0DDE90F1230209047761C089978
:10091000481E08900029F5DC08E00A980A9900783A
:10092000491C0A91DDE90F129047761CBBF10001CA
:10093000ABF1010BF1DC21465046DDE90F2300F05D
:1009400019F806446D1C1BE60928010030313233CA
:1009500034353637383961626364656600000000FB
:1009600030313233343536373839414243444546E5
:10097000000000002DE9F041044600251E46174600
:10098000880404D405E039462020B0476D1C641E5D
:10099000F9D52846BDE8F0812DE9F041044600254F
:1009A0001E469046C80301D5302700E02027880462
:1009B00004D505E041463846B0476D1C641EF9D5A4
:1009C0002846BDE8F0814A68002A06D00A68531C10
:1009D0000B6010704868401E486070470EB50C49A7
:1009E000002003F06BFA18B10AA2A92100F064FA02
:1009F0000F4A07CA8DE807006946002003F03CFA59
:100A0000002803D003A2AE2100F056FA0EBD00006C
:100A1000355502002E2E5C2E2E5C2E2E5C626174EB
:100A2000746572795F6C6576656C2E6300000000FA
:100A3000E46702002DE9FC4700251788064615806B
:100A400090F82D001446894630B13A462146484672
:100A500000F0ECFC050009D1B0784FF00C0A18B397
:100A60002088C846001DB84202D95046BDE8FC8720
:100A7000684679DF0028F9D12088032108F80010A2
:100A800020881921401C80B2208008F8001020889E
:100A9000401C80B2208000EB0801BDF8000005F08A
:100AA0007AFC218808442080F0780222C8B121888D
:100AB00096F9033001F1030C4846BC45D5D84254A1
:100AC00021884FF0010C491C89B2218000F801C037
:100AD0002188491C89B2218009F801302088401CF6
:100AE00020807068B8B1218890F9003001F1030CC2
:100AF0004846BC45B9D8425421880A22491C89B2CB
:100B0000218042542188491C89B2218009F8013092
:100B10002088401C2080308950B1CDE900474B46E9
:100B20000622022106F1080005F082FC05009DD195
:100B3000308A50B1CDE900474B460722032106F128
:100B4000100005F075FC050090D1308B50B1CDE957
:100B500000474B461522142106F1180005F068FCE9
:100B6000050083D1306A30B13B462246494601F048
:100B70004DF90500DBD1706A30B13B46224649464B
:100B800002F03AFD0500D2D196F82C0038B13B4670
:100B900022464946304604F0A5FD0500C7D130780D
:100BA00038B13B4622464946304602F05DFE05001C
:100BB000BDD128465AE70000134A0021535C0BB10F
:100BC000012203E0491C0629F8D300220F4901281D
:100BD00006D0022809D003280CD0042812D10DE039
:100BE000487810B10AB101207047887810B10AB175
:100BF00002207047C87808B103207047087908B10F
:100C00000420704700207047A5210020C024002048
:100C10002DE9F04196B04FF00408254801F0C6FFD9
:100C2000044601F07FFF611C3ED040EA04252048C5
:100C3000260C1038C468270C01F0B0FF1D4B0DF1D5
:100C40003C0C0ECB8CE80E00ADF83E004AF60430AA
:100C5000ADF848000C20ADF84C000FA8ADF84040AE
:100C6000ADF844601490ADF84270ADF846503C21A8
:100C70006846FEF7FEFB00208DF8020001208DF88B
:100C8000000006218DF801108DF82C008DF80380EE
:100C900012A80A900021684600F03DFA002803D00F
:100CA000054ACD2100F008F916B0BDE8F08100003A
:100CB00048210020BC670200A031020010B5FFF7F8
:100CC000A7FFBDE8104002F025B810B501220221AF
:100CD000002000F051FE08B1072810D107220221A0
:100CE000012000F049FE08B1072808D100210A229E
:100CF000084600F041FE08B1072800D1002010BDD1
:100D000030B593B041F28B20ADF83C0014481190FF
:100D10000220ADF8400004253C216846FEF7A9FBFF
:100D200000240FA88DF8004009908DF8035021464B
:100D3000684600F0F0F920B10A4A40F21D2100F0A7
:100D4000BBF809484FF47A618466C4660467446757
:100D50006830047004724181848113B030BD00009A
:100D60003C210020A03102009423002010B5064849
:100D700073DF040006D105490120087004A1032097
:100D800003F0B4FB204610BDFC23002038210020D6
:100D90004150503A494E464F3A4164766572746903
:100DA00073696E672073746172746564000000007B
:100DB000022000F06BBC000070B50024064D06E078
:100DC0006868012110F8340002F00CFF641C2878D8
:100DD0008442F5D3002070BDB4210020F8B515463B
:100DE0000C460646052A01D20720F8BD02F0E0FFB6
:100DF00018B902F0AFFF0028F7D1104900204E606B
:100E00000C70C1E902500E4D08610DE006EBC40004
:100E10006968009181788DF801100078094A694667
:100E200002F032FF0028E0D1641EE4B2EED2BDE849
:100E3000F840054A0021024800F04AB8B4210020D9
:100E400050680200A52C02009121020014460BA15B
:100E5000012003F04BFB22460EA1012003F04AFBC8
:100E6000BFF34F8F12480168124A01F4E061114349
:100E70000160BFF34F8F00BFFDE700004150505F9E
:100E80004552524F523A4552524F523A466174615E
:100E90006C0D0A004150505F4552524F523A455234
:100EA000524F523A496E666F203A2025730D0A0060
:100EB0000CED00E00400FA050EB5ADF80010CDE928
:100EC00001206A46002144F20100FFF7BFFF0EBD7A
:100ED000074B5B6823B12AB120B10068037C1BB1CA
:100EE0000820704707207047417442610020704716
:100EF000D82100202DE9F047074698461446894638
:100F000090074FF0000526D12CB304F061FA134E80
:100F100006F11000C6F80C800570457080F802904C
:100F200044607560357075701420FEF78BFD0721E5
:100F30001420FEF7BEFD1420FEF79AFD0848076056
:100F400007211120FEF7B5FD0548001F0068B060BD
:100F50000020BDE8F0870720FBE70000C821002043
:100F6000081501402DE9FC47DFF87890D9F80430E6
:100F700073B368B3052902D20720BDE8FC87436933
:100F800033B3437C012B25D0002704460025884637
:100F900016468DF80050684600F038F801A805F0B4
:100FA0002FFAC8B1012101700F4944600968C0E9F6
:100FB0000218C0E904769DF8040089F801009DF844
:100FC000000000F047F81420FEF768FD2846D4E73B
:100FD0000820D2E70F46D8E704259DF8000000F06E
:100FE00039F8F3E7D8210020041501400649496883
:100FF00039B130B1416921B100210174022104F0FD
:101000003BBD082070470000D821002030B5EFF329
:10101000108172B60D4A9468012324B1037000292F
:1010200000D162B630BD93604FF0E023D3F8805119
:10103000074C25401560C3F88041D3F884415460C3
:101040005A17C3F8842100220270E8E778260020AE
:10105000FC06FFBC0B498A68002A11D000280FD17A
:10106000EFF3108072B60B684FF0E022C2F8003147
:101070004B68C2F8043100228A60002800D162B6B1
:10108000704700007826002040F6B831884201D32E
:101090006420704740F6543188420AD96FF0390114
:1010A000A0F6B8304843642190FBF1F0C0F1640031
:1010B0000DE040F6B42188420BD9A0F65430A0EBE5
:1010C0008000C000A02190FBF1F0C0F12A00C0B266
:1010D000704740F6881188420BD9A0F6B420A0EBE7
:1010E000800080004FF4967190FBF1F0C0F1120087
:1010F000EDE740F6340188420BD9A0F68810A0EB4A
:10110000800040004FF4AA7190FBF1F0C0F106009E
:10111000DDE700207047F0B50C4693B01F2107268D
:10112000ADF80010ADF80410002750B1C1784907A0
:101130000DD56A4602A9FFF77DFC002808D102AD53
:1011400002E00025ADF800706CB1E07810B13046D7
:1011500013B0F0BD01AA0AA92046FFF76BFC0028D6
:10116000F6D10AAA02E00022ADF80470BDF804002E
:10117000C3B2BDF80000C1B2284672DFE8E7000044
:1011800010B50188144C102918D011291CD01B2926
:1011900019D1007A002816D1E0780521401CB0FB57
:1011A000F1F201FB120000BF00F050F800280AD055
:1011B0006169002907D0BDE810400847C17B0129BB
:1011C00001D18088208110BD002161718088218932
:1011D0008842F8D10120E7E78C21002010B50228D1
:1011E00001D0032810D1094C607800280CD00020D1
:1011F0006070E07800F02AF8002805D061690029C5
:1012000002D0BDE81040084710BD00008C2100202E
:1012100010B574DF0B4C01200B4960710020E071A8
:101220000620C87000210848FFF775FF002807D185
:10123000E07800F00BF810B1616901B18847002037
:1012400010BD00008C210020E02400202DE9F04199
:101250003D4C804686B0207848B184F8038004A8CD
:1012600001F0B2FA0498012628B1667067E0082000
:1012700006B0BDE8F0810025A561344FA583A577B0
:10128000787810B1E078012806D0B87858B1E078C5
:10129000012801D0022806D1216919B12671082040
:1012A000884700E025714046FFF786FCE070216921
:1012B00039B1032801D0042803D1387808B1607906
:1012C00090B1A57100950295019503958DF8005098
:1012D0008DF808501C48E1781830052925D2DFE840
:1012E00001F03008111D2100E571A6710720884723
:1012F000E8E7A67001908DF80060ADF80C50ADF8ED
:101300000A5014E00221A17001908DF80060B889A4
:10131000ADF80C003889ADF80A0008E0684604F022
:1013200025FA02E0684604F045FAE07818B168460C
:1013300073DF00289CD1216909B1A078884700207B
:1013400096E7A570F7E700008C210020C02400205C
:1013500070B5054601461C220F48FEF771F80F4C88
:1013600000262670286830B1016861604068A0607E
:10137000201D7ADF02E00948001D7BDF00280AD12A
:101380004FF6FF7060806670BDE87040044A00212F
:101390000448FFF79DBD70BDA424002078210020E3
:1013A000A16302002468020070B51E4C0688002369
:1013B0001B49E289102E15D01B4D112E1CD0122E68
:1013C00029D0502E17D130F8061F914213D14189F0
:1013D000022910D10C3000F0FAF888B1BDE8704055
:1013E00000F066BD84884C800469CC604069086167
:1013F0004B70002AF2D070BD4FF6FF7048804B70E2
:101400002868FFF7F3FD0028F5D0A1690029F2D084
:10141000BDE8704008478268CA60C0680861DDE7BF
:1014200078210020A4240020246802007CB5054611
:1014300008880C460930904201D90C207CBD6846D2
:101440006DDF0028FAD121880820685420881B21EC
:10145000401C80B2208029542088401C80B220800B
:101460002844DDF801100160BDF805108180208856
:10147000801D80B220809DF80010490800D0012115
:1014800029542088401C208000207CBD10B50446D3
:10149000FFF78AFF2146094800F044F80748214633
:1014A0001C3000F0E1F8204600F05CF9204603F023
:1014B00059FA2046BDE81040FFF762BED423002051
:1014C00030B5174B0D4604000FCB85B08DE80F00EB
:1014D00023D015B34FF6FF70A0822868A0610020CA
:1014E000A0752146684663DF002814D120788DF866
:1014F00012000120ADF81000A21C04A9A0DF0028F2
:1015000009D12946204603F09AFF002803D1294635
:10151000204604F0DBFD05B030BD0E20FBE70000E7
:101520002868020010B5002822D0002920D00A889F
:10153000102A18D0112A18D0502A19D104468A1D11
:10154000C888238A1231984202D15389022B10D0C5
:10155000A38898420CD1A369002B09D05289204658
:10156000BDE810401847898801E04FF6FF7181827D
:1015700010BD084600F02BF800B10120A07510BD89
:1015800007B584B068B1828AA2F57F43FF3B0AD0D9
:10159000827D42B1BDF81820142A06D9072007B071
:1015A00000BD0E20FBE70820F9E70022009201921F
:1015B000029203928289039106A90291ADF800205C
:1015C00001218DF80210808A6946A6DFE7E70078DE
:1015D00000F001007047000000B51E4889B00023EC
:1015E000C068079050221C4907A804F095F920B163
:1015F0001A4A40F2F921FFF75FFC6A4601210020F8
:1016000004F074F920B1154A4FF44071FFF754FC0F
:101610000220ADF80000684604F0F8F820B10F4A47
:101620004FF44271FFF748FC0D4804F0E5F820B193
:101630000A4A40F20D31FFF73FFC0A4804F0A4F9D2
:10164000002804D0054A40F21131FFF735FC09B0FB
:1016500000BD0000AC6702000C230020A031020096
:101660008D1402009D5902000A88102A05D0112A03
:1016700002D14FF6FF71018070478988FBE70000B7
:101680000149085C70470000F167020007490B5CE4
:101690004FF0A041D1F804250120984020EA020330
:1016A000C1F808351040C1F80C057047ED6702001D
:1016B0000249085C012102F0AFBD0000ED670200A5
:1016C0000249085C002102F0A7BD0000ED6702009E
:1016D0000649095C4FF0A040D0F80405C84010F05E
:1016E000010000D0012080F001007047ED6702008A
:1016F0007CB50024084E25460122305D009500236C
:101700001146019502F030FD641C042CF4D3BDE8B1
:101710007C4000F003B80000ED67020010B5002423
:101720002046FFF7C5FF641C042CF9D310BD10B58B
:1017300000242046FFF7C4FF641C042CF9D310BD1D
:1017400010B50246064B4FF0FF3000215C5C94421E
:1017500001D1084610BD491C0429F7D310BD000073
:10176000F167020010B51A4C0188606810290ED08C
:1017700011292BD1401E606028D1FFF7A6FA00285E
:1017800024D02168002921D0BDE810400847D0B9F5
:1017900000210122084600F0EFF808B107280FD118
:1017A00007220221012000F0E7F808B1072807D13D
:1017B00004220221002000F0DFF820B1072802D027
:1017C000216801B188476068401C606010BD00005E
:1017D0007021002010B5002000F002FA08B10628A0
:1017E00006D1012000F0FCF908B1062800D1002044
:1017F00010BD00002DE9F0470D468146FFF7A0FF20
:101800000446042838D2DFF878801C481D4EA8F121
:10181000100735B3012D0ED0022D2DD104EB44005D
:1018200030444578002D27D0F968002924D0284677
:10183000BDE8F047084704EB4401755C0E4471783D
:1018400059B179680E4A01EB810149000E3A80686E
:10185000FFF788FB08B987F80290B17808F8041000
:10186000E0E78068FFF7C2FB04EB4401314418F85D
:1018700004008D78A842D5D0BDE8F087F867020053
:101880006C2100205824002070B52C4C01460429FE
:10189000608836D005291BD007293CD00A294BD1B6
:1018A000002000F08BF820B1254A4FF4FB71FFF7C0
:1018B00003FBFFF78FFF20B1214A4FF4FD71FFF7C3
:1018C000FBFA32DF002837D01D4A4FF4FF712FE0BA
:1018D000207820B1207830B174DF054607E0BDE8FC
:1018E0007040FFF743BA1749022002F0FFFD002DB8
:1018F00022D100202070BDE8704013A1032002F027
:10190000F5BD132176DF082816D0002814D016A2C2
:1019100040F229310CE0A0F57F41FF390CD1FFF7EF
:1019200077FC082808D0002806D00FA240F23231F8
:10193000BDE87040FFF7C0BA70BD0000382100203C
:10194000A0310200046902004150503A494E464F0E
:101950003A4164766572746973696E672073746F57
:1019600070706564000000002E2E5C2E2E5C2E2E02
:101970005C6D61696E2E630070B50023042810D27F
:101980000D4D00EB4004012A02D101290CD00022A8
:10199000094E00EB4000304461B1012906D0022914
:1019A00006D00723184670BD0E30C2B22A55F9E79B
:1019B0004270F7E78270F5E758240020044A014698
:1019C0000020127AD20702D0084600F04FB87047C4
:1019D0005C2100202DE9F04106461F4800240F46F7
:1019E0004160C0E90262B0071FD5002501221146FF
:1019F0002846FFF7C1FF6D1C0446042D02D2002CBF
:101A0000F4D012E08CB97A0804211448FFF7E6F903
:101A100004000AD1FFF7D0F9040006D10F48104A9C
:101A20000021001FFFF754FA0446F00701D0FFF72A
:101A30005FFE74B909480B4A00210C38FFF748FAD9
:101A4000040006D10548084A01210838FFF740FA8A
:101A500004462046BDE8F0815C21002004680200B5
:101A6000031C020011300200B10D02002DE9F04705
:101A7000594C05460026607818B100206070FFF7C9
:101A80004DFE0120554F4FF47A694FF4C87A4FF05C
:101A90006408182D2CD2DFE805F0890C0C2C3A478D
:101AA00051565A615A619B6969696969898C8F923B
:101AB0009B9B0020FFF70CFE00284FF0000008D091
:101AC000FFF7F6FD022D02D14FF4E16006E0484633
:101AD00004E0FFF7F5FD022D2ED05046B0FBF8F1E3
:101AE00025706068414300223868FFF73BFA0646DC
:101AF00059E00020FFF7ECFD28B10020FFF7D8FDEA
:101B00004FF44870EAE70020FFF7DAFD14E0002008
:101B1000FFF7DEFD00284FF0000002D0FFF7C8FD00
:101B2000D5E7FFF7CDFDD8E70020FFF7D1FD00286E
:101B3000E9D00020FFF7BCFDC820CFE70020FFF769
:101B4000A5FD257007E000203FE025702BE06070C8
:101B50000120FFF79BFD00226168C5E7607001204E
:101B6000FFF794FD606800EB8001BCE77868FFF741
:101B70003DFA0646D5F1110000D01EB10220FFF754
:101B800097FD10E001280BD9C82110FB01F1B1FB32
:101B9000F8F16068002241437868FFF7E3F90646F0
:101BA0000220FFF78DFD3046BDE8F087FFF7B6FD58
:101BB000CBE7FFF7B3FDC6E7FFF7B0FD04E0FFF7A3
:101BC000ADFD0020FFF77CFD0120FFF779FDBCE7AC
:101BD000FFF7ADFDB9E700005C210020F8670200C7
:101BE00010B5FFF74DFD032102F0E2FA002010BD11
:101BF000002901DA002070470268114401600120C9
:101C0000704700780221FFF7F5BD000005494FF04D
:101C1000FF32082841F8202002D3084480F84820E9
:101C20007047000088250020F0B54FF0FF3512B155
:101C30000023082601E008230C260C4C05E000BF19
:101C400054F823707F1C04D05B1CB342F8D32846A1
:101C5000F0BD26185DB286F8305044F82310002AF3
:101C6000F5D1E11881F84800F1E70000882500204F
:101C70000249084490F93000704700008825002090
:101C800038B10549814204D80449814201D9012073
:101C900070470020704700002422002034220020DA
:101CA0000E4802780E48008822B1012A06D0022A86
:101CB0000ED110E088420CD309D00CE0884204D940
:101CC0004DF6FF720A44904205D3884201D10220AA
:101CD0007047012070470020704700003921002024
:101CE0003E2100200D4A10B5108040B1A1F50054EE
:101CF000A3B2884205D8A04206DB002010BD022016
:101D000010BDB1F5005F01D91380F6E74DF6FF7302
:101D10001944884200D21180012010BD3E210020CC
:101D2000044A0168914201D0083101E00149383983
:101D3000016070476027002070B5084C050009D08D
:101D400010342168002907D00868206049682846B7
:101D50008847F6E70834F4E770BD000074250020DA
:101D60002DE9F05F26484168F1B3DFF898B00E68BE
:101D70008146DBF8004087688078E11B21F07F45D1
:101D8000ED1CB0B9DFF880804FF48030C8F8440310
:101D9000C8F804031120FDF755FE1120FDF768FE79
:101DA0004FF0010AC8F800A02F2001F053FE89F877
:101DB00002A0B54200D23546124BE8193C3320F060
:101DC0007F401860DBF800105A46091B21F07F4164
:101DD000001B20F07F40C91C81420FD91068186099
:101DE0002F2001F037FE00E004E0BDE8F05F112095
:101DF000FDF754BEBDE8F05F03F0EABABDE8F09F1E
:101E0000C821002004150140001001402DE9F041D7
:101E100017880646B81D14460D46984202D90C2074
:101E2000BDE8F0813188072206290AD34FF4486CB7
:101E30004FF6FF73614501D9994202D17088062897
:101E400001D21046ECE7604501D99842F9D1994298
:101E500003D0984201D08142F3D80520E85520886C
:101E60001221401C80B2208029542088401C80B25E
:101E700020804119308804F08EFA2188084480B20D
:101E800020804119708804F086FA21880844208057
:101E90000020C5E702A24FF4EB71FFF70DB8000078
:101EA0002E2E5C2E2E5C2E2E5C6D61696E2E6300D4
:101EB000F8B5134801F098F8114D0026114C0C3D6F
:101EC00030B16169B9B101208DF80000684611E0B8
:101ED000287820B1616971B18DF80060F6E7687803
:101EE00058B1A168084800220068FFF73BF810B11C
:101EF000A16901B188472E70F8BD6168F2E7000062
:101F000084210020A4240020246802002DE9F0414F
:101F100007461A481D4616468088C0F30C04641C08
:101F20002146384600F0DCF9002825D0012821D1CF
:101F300013A1042002F0DAFA2B4632462146384635
:101F400000F052FB002815D0072813D117A102205A
:101F500002F0CCFA00F0E0F9052004F0D1FA2B46AB
:101F600032462146384600F03FFB0446012004F08B
:101F7000C7FA2046BDE8F08118A1DAE75421002015
:101F8000424C4544423A44454255473A4E657720D3
:101F90007265636F72642077696C6C20626520776C
:101FA00072697474656E200D0A000000424C45444D
:101FB000423A5741524E494E473A4E6F2073706134
:101FC000636520696E20666C6173682C2072756E83
:101FD0006E696E672047430D0A000000424C45447D
:101FE000423A44454255473A4F6C64207265636FEC
:101FF00072642077696C6C2062652075706174650D
:102000006420200D0A0000002DE9FF411F48C5682B
:10201000103000F0CBFD044600F084FD611C24D09C
:1020200040EA0420260C87B200F0B8FD0446019077
:1020300047EA0640CDE9025015A1132002F056FAF6
:1020400003980090DDE9012313A1042002F061FA56
:102050002146032301AA41F21110FFF757FF0200A6
:1020600005D01CA1012002F045FABDE8FF814FF622
:10207000FE7441F212152146284600F031F903237F
:1020800001AA2146284600F0AFFAEEE738210020E9
:102090000D0A0A0A000000004150503A44454255DA
:1020A000473A4461746120746F2044423A2052657B
:1020B000634B657920253038782C2074696D652054
:1020C000253038782C206461746120253038780DF3
:1020D0000A0000004150503A4552524F523A446172
:1020E0007461546F4442206572726F72203A2025E9
:1020F000640000002DE9FF410C4618B1012004B036
:10210000BDE8F08120790027DFF87C80012638B116
:1021100041F61D5501281ED0022829D00F20EEE7D8
:1021200002970397E0680190694601A803F09CF8C4
:1021300068B102988188E18000882081029803F0CC
:1021400007F9BDF8002008EB02118E7300E00A20A9
:1021500002212171D3E70D4B6A460021A01D03F037
:102160003DF838B1094908398F60CF600A28C6D1D7
:102170002846C4E7019803F0EBF804498A8808EB85
:1021800002118E73F2E7000070270020F02100207A
:102190002DE9F04100260125144C22E060682269F7
:1021A00000EBC607387805FA00F1114217D08A43D0
:1021B000226101F0C5FD02463878E36805FA00F1B6
:1021C000194002FA00F3994209D17978012901D026
:1021D000012100E0002151407A6802B19047761C4D
:1021E000F6B220788642D9D3BDE8F081B421002030
:1021F0000E4910B50A784C780023A24212D0521C26
:10220000D2B20A70022A00D10B70084A0B78183239
:1022100052F8232002608868104420F07F408860D4
:10222000012010BD0360002010BD0000C821002067
:1022300010B503780022072B06D2DFE803F005046F
:10224000060C1C252B000A7010BD01220A700289A1
:102250008A81828814E002220A7002898A81828837
:10226000CA81C2688A60007C062802D000200874F7
:1022700010BD0120FBE703220A70C2888A8102890F
:10228000CA81C068886010BD04230B70C088888133
:10229000CA8110BD0520087010BD000070B5064D44
:1022A0000646002455F8241009B130468847641CBE
:1022B000082CF7D370BD000090260020064910B509
:1022C00000204860054800F07DF9002803D1BDE8F2
:1022D000104000F043B810BD542100205D360200CC
:1022E00070B586B000240D460646ADF8084001944E
:1022F00004E003A800F018F9641CA4B201AB03AA1F
:102300002946304600F032F90028F2D014B10020FE
:1023100006B070BD0120FBE700B50E4887B000781D
:10232000800702D4022007B000BD06208DF800000F
:1023300000221146684602F0B5FC48B10648017813
:1023400011B1012180F8321002F01CFF0020EAE7F1
:102350000820E8E7E8210020F029002000B58DB032
:1023600014216846FDF785F81E480078810703D5DB
:102370006846FFF793FF33E0C00731D1012000F03A
:102380005DF900F0C9F902F029FD70B106280FD0FF
:1023900001218DF814100C281BD2DFE800F01A1070
:1023A0001A101A181A181A1216120B200DB000BDA6
:1023B000022000F043F9012000F038F9D8E70020AE
:1023C00000E003208DF8180003E00220FAE78DF802
:1023D00018100022114605A802F064FC02F0D2FE9B
:1023E0000020E3E7E82100202DE9F04188B0804695
:1023F000002015460E460690079032E004A901A879
:1024000000F0BCF8040008D002461BA1012002F035
:1024100071F8204608B0BDE8F0810198009033467D
:1024200042461FA1032002F074F80024059F0BE030
:1024300057F824202AA1132002F05CF857F8240052
:1024400045F82400641CE4B204984088A042EFD808
:1024500025A1132002F04AF801A800F047F800284F
:10246000D8D106AB01AA3146404600F07FF80028DB
:10247000C4D00020CEE70000424C4544423A4552C9
:10248000524F523A6572726F72206F70656E696E4C
:1024900067207265636F72643A2025750A00000038
:1024A000424C4544423A494E464F3A446174612099
:1024B00072656164206261636B2066726F6D206675
:1024C000696C652C7265632C7265634944205B25D9
:1024D0003034782C253034782C25645D203D200064
:1024E00025303878200000000D0A000038B50400BF
:1024F00011D0694602F0B8FE88B10A48BDF8001054
:1025000000EB0110818941B1A27A32B1491E81816B
:102510000020A07238BD052038BD062038BD0A2035
:1025200038BD00007027002000B50F4987B009783A
:10253000890702D4022007B000BD80B104218DF8C4
:10254000001000218DF80410006803900A466846C8
:1025500002F0A8FB28B102F015FE0020EBE70520F1
:10256000E9E70820E7E70000E82100201FB501A9FE
:10257000684602F033FE04B010BD000038B50D46C9
:10258000040015D0A5B1694602F06EFE90B10A496B
:10259000BDF80020606801EB02129189491C91810D
:1025A000286060680C3068600120A072002038BD8F
:1025B000052038BD0A2038BD7027002002230022E4
:1025C00003F0BABF064A5178082906D0054B43F8F4
:1025D0002100491C5170002070470C2070470000FA
:1025E000E82100209026002070B588B000240E4D10
:1025F00006E000BF52F8246045F82460641CE4B291
:102600009C42F7D3ADF8000003A801900120ADF87B
:102610000210ADF808000395ADF81030694605A822
:10262000FFF7CCFF08B070BD0C24002002490A78E7
:1026300082430A7070470000E821002002490A78AE
:1026400002430A7070470000E821002010B50028FE
:1026500021D0114B0022001F196803E0814203D8EA
:102660000A4649680029F9D152B11368841A9C427C
:1026700004D1006818441060104602E0506000E089
:10268000186039B102680B1A934203D10B681A44DF
:1026900002604968416010BD1C220020F8B5064662
:1026A0001A481F46154600780C46C00708D0304629
:1026B000FFF7E6FA30B13CB1200507D00620F8BD9F
:1026C0000120F8BD0220F8BD0320F8BD3068A0420B
:1026D00004D8716804EB0530884201D90520F8BDA3
:1026E0007DB1684602F09CFC68B100980221C0E907
:1026F00000670172210B8181058202F053FD0020E9
:10270000F8BD0420F8BD0720F8BD0000002200201D
:10271000084602F0A1BC00002DE9F0472748284CEC
:102720004FF01021001B0209496910464B1C03D1D0
:102730004FF0805149690903DFF888A09AF80070CA
:10274000FB0702D00020BDE8F0870023A14607E088
:1027500009EB0314256815B1646804B1401E5B1CC5
:102760009342F5D3002422E0002504F0FF0C2B4611
:1027700013E000BF09EB0316D6F80080B8F1000F94
:1027800004D0D6F80480B8F1000F05D1767BAE42B4
:1027900002D9354603F0FF0C5B1C9342EAD309EBE8
:1027A0000C13641C59601D7BA1EB05311960844238
:1027B000DAD347F001018AF80010C3E73422002081
:1027C000242200200022002020B10349496E01602C
:1027D0000020704703207047242A00202DE9F84389
:1027E00007461D48DDF820801E46007815460C4639
:1027F000C0070CD03846FFF743FA50B15DB154B171
:1028000045EA0400800708D00620BDE8F8830120CF
:10281000FBE70220F9E70320F7E73868A04204D875
:10282000786804EB8601884201D20520EDE77EB18D
:10283000684602F0F5FB68B100980121C0E9007814
:102840000172C0E90354868202F0ACFC0020DCE790
:102850000420DAE70720D8E70022002070B5174AE5
:1028600017490446106E0B7800EB400002EBC000E5
:102870009D0715D5022C02D0032C1BD102E002F0DB
:10288000E7F917E04A78521CD2B24A70032A11D9EC
:1028900000224A70082102F0E7FE02F0ABFB09E0DB
:1028A000580707D523F004000870526E12B140F0AB
:1028B00002000870BDE8704002F02CBC242A002001
:1028C000002200200EB51BA19DF8080020F00F008B
:1028D000401C20F0F00010308DF80800062202A8FD
:1028E0007CDF20B1154A4FF4B271FEF7E5FA40F2F1
:1028F000413078DF20B1114A40F26711FEF7DCFA6F
:102900000020009001900621ADF80400ADF8001001
:102910004FF4C8700A21ADF80600ADF80210684601
:102920007ADF002804D0054A40F27111FEF7C4FA9C
:102930000EBD00005854303635440000A03102006E
:1029400070B508B1012070BD194C002594F8320013
:1029500010B184F8325001E000F0A4F82078082883
:1029600023D2DFE800F02204080C1022141DBDE879
:10297000704000F021B8BDE8704000F081B8BDE8BB
:10298000704000F063B8BDE8704000F039B860886E
:10299000084901EB00104068BDE8704002F0FEB944
:1029A0006560BDE8704002F007BA0F2070BD0000FE
:1029B000F0290020702700201049F0B48A1C002064
:1029C0000346A1F520750C18A67A3EB1A37205EB5B
:1029D0000014A68916B9A47B012C0AD0401C80B231
:1029E0002828F0D30B704B804B60F0BC41F61D5093
:1029F00070471080F0BC00F043B80000F0290020C0
:102A000010B50F4CA4F52071608801EB001081898E
:102A100061B1052020700B480221002381800168EC
:102A2000BDE8104002220848FFF738BE4168002385
:102A300002220548FFF732FE0421217010BD00007C
:102A4000F0290020F82100202422002038B50A496E
:102A5000084803240B684268898803EB8101538886
:102A600004700020DB1C00909BB20448FFF7B6FE08
:102A700038BD0000F0290020F82100202422002089
:102A8000074910B54888091D02F03CFC18B1BDE8A3
:102A90001040FFF7DBBFBDE81040FFF7B1BF0000FB
:102AA000F0290020F0B51D481D49012506780224B3
:102AB0008B88A0F52072082E18D2DFE806F00417E4
:102AC000171A212C2C160189491C018100214180F3
:102AD00080F8321002EB01131B7843B10023441835
:102AE000491C89B2A3722829F4D30570F0BD0123D3
:102AF000F5E742685288D21C1A448A800470F0BDFF
:102B000046880D6802EB061256680E605560138108
:102B10008C80062100E007210170F0BDF029002023
:102B2000F821002038B56946002001F00BFA0200B8
:102B300005D001240DA1204601F0DCFC13E0BDF816
:102B400000004FF4167110FB01F0C11700EB91501B
:102B5000801200EB40004FF4877101EB400080B21F
:102B6000FEF792FA0446204638BD00004241545414
:102B70004552595F4C4556454C3A4552524F523A90
:102B80004144432073696E676C6520636F6E7620E5
:102B90006572726F72203A202564000002488088B6
:102BA000401C80B270470000542100207FB50546CC
:102BB00001F040FA00200190029025A00223006855
:102BC00003900120009003AA4421284601F0A8FAAE
:102BD000040007D002461FA1012001F08BFC204613
:102BE00004B070BD062301AA4421284601F086FAEC
:102BF000020006D01FA1012001F07CFC4FF0FF3045
:102C0000EEE7284601F0FEF99DF805009DF8041056
:102C100000EB0120FCF75EFD9FED1E1B53EC112B1A
:102C2000FCF7E9FC9FED1D1B53EC112BFCF7DDFCC1
:102C3000FCF75DFD9DF808109DF8072001EB0221CF
:102C400040F28F22B1FBF2F189B241EA0040C7E7BE
:102C50002C06000053485433313A4552524F523AF1
:102C6000493243207478206572723A2025640D0A37
:102C70000000000053485433313A4552524F523A03
:102C8000493243207278206572723A2025640D0A19
:102C900000000000EC51B81E85EB0D400000000064
:102CA0000094B1402DE9F041124E07460125BD4088
:102CB0003068FEF79BF900280DD10F4C206928429F
:102CC00007D1384601F03CF80028E06805D02843D9
:102CD00004E0A8432061BDE8F081A843E0602069DA
:102CE00028432061A1683068BDE8F0410022FEF76A
:102CF00039B9000050680200B42100208188A1F594
:102D00007F42FF3A03D0008808B1012070470020BD
:102D100070470000094810B5007800280CD0012148
:102D2000132001F06EFA052000F003FE0021BDE83B
:102D30001040132001F065BA10BD000038210020BA
:102D40002DE9F0410F4628B10120FFF76FFC01206B
:102D5000BDE8F081397961B10026264D01290DD0F9
:102D6000254C4FF002080229206822D003293BD1CC
:102D700028E002F021F80121397133E05FF0000012
:102D800005EB0011097802290CD0401C80B22828DC
:102D9000F6D30220FFF752FC0120FFF747FC41F673
:102DA0001D50D5E705EB0014606801F0F7FF2670B1
:102DB00018E00146002302221048FFF76FFCA4F838
:102DC00004800EE001F0EAFF0D492268498805EB16
:102DD00001114B6823604A60A2880A81A4F804802C
:102DE0000E703E710028B3D00120FFF71FFC0E20AB
:102DF000AEE7000070270020F821002024220020E8
:102E0000F0290020F8B51E4C2078002836D0E06864
:102E1000002668B10025607800282FD1684648DF79
:102E2000052807D040B1174A8921FEF745F80AE086
:102E30000125F0E7012606E0009800F08DFE2169EB
:102E400009B100988847ADB96078002816D160882C
:102E5000ADF800006946A06861DF052805D030B1F3
:102E6000084AAE21FEF728F804E0012502E0D4E983
:102E700002018847002ECED0002DE4D0F8BD00001E
:102E800004220020186A02000149024800F004B838
:102E900000260020003000402DE9FF470D464FF48A
:102EA00092770446394601F0B7FB4FF002094FF024
:102EB00001084FF4827640B13946204601F0B1FB5B
:102EC0003146204601F0A8FBB0B3B2463146204659
:102ED00001F0A2FB4FF0FF36002770B351462046A9
:102EE00001F09FFB05F10C0001AB07C883E8070068
:102EF00095F8230078B1287B01282DD0D4F84C0513
:102F0000C0B28DF80600287B022828D0D4F84C05E2
:102F1000C0B28DF807004FF4B071204601F081FB7C
:102F20004FF4AE71204601F07CFB95F8250080B38C
:102F300095F8230068BB3CE000E013E0A868C4F803
:102F40000803C5F80890A868C4F80403C4F82080F2
:102F5000C4F81480BDE8FF87D4F83C05D0E7D4F866
:102F60003C05D5E74FF4A471204601F05AFB287BBD
:102F700080B14FF40070C4F80002801CA860C4F84F
:102F80000863A868C4F80403C4F80880C4F8208063
:102F9000E0E708E005F10C0001AB07C883E8070093
:102FA00095F8250028B90020C4F80002AF60C4F8E5
:102FB0000863D4F8C404C4F8C404810702D58DF8AA
:102FC000008006E0400702D58DF8009001E08DF802
:102FD000007095F8250008B985F82470D5E900211E
:102FE00068469047B6E70000054940880A88904245
:102FF00004D34988884201D80120704700207047D7
:103000007C210020800701D00020704701207047FC
:103010000348017AC90702D00078FEF727BD704740
:103020005C2100202DE9F043264CA4F11009227800
:10303000D9F8048099F80350404694F801C0D9F8B3
:10304000086031E002EB42036168521C01EBC301EE
:10305000A378D2B2934200D100220B78022B02D087
:10306000032B21D11DE003464F68194603E0B94206
:1030700003D00B46C969B9B1F9E7A9B18B4205D1B3
:10308000C06918B9104E0125B56000260F68C969DE
:10309000D96149B10B683B440B6005E00174C0691C
:1030A00000E000210028F9D19445CBD1C9E90106FF
:1030B00089F80350404502D00120BDE8F08300208C
:1030C000FBE70000D8210020001001402DE9F0416D
:1030D0002A4F0446002607F11005D7F804803EE089
:1030E00002D02046E4691DE02878696800EB4002C0
:1030F000401CC0B201EBC2012870AA78904200D1F6
:103100002E700A784868012A2BD1027C4ABB8A6853
:103110004260CA6882600A69C26049698161F9785F
:1031200001B146604368BA68DFF854C0991A21F0CB
:103130007F41614502D28268114406E0D11A82685B
:1031400021F07F418A4202D9511A016000E00660F5
:103150004660012186600174C66102F06FFC002C9C
:10316000BED1287869788842BED17968414502D0BD
:103170000120BDE8F0810020FBE70000C82100200D
:10318000FFFF7F0010B5002001F0DCF9002805D01A
:10319000BDE8104002A28321FDF78EBE10BD0000E5
:1031A0002E2E5C2E2E5C2E2E5C6D61696E2E6300C1
:1031B00088B0FEF79DFA4FF4FA6000F0BAFBFFF713
:1031C000E1FF68A1032001F091F96DA1032001F056
:1031D0008DF90023724A05211846FDF78BFE20B1B8
:1031E00070A240F26531FDF767FE40F6CD44002243
:1031F00021460120FEF7EEFB20B16AA240F26731C2
:10320000FDF75AFE6BA1032001F070F902F0BCFC3F
:1032100070A1032001F06AF9764A21460320FEF7E7
:10322000D9FB30B9052202210020FEF7A5FB0028BA
:103230005CD0024670A1012001F05CF9FEF7CCF9E8
:10324000FFF740FB74A1032001F050F9FDF7C6FB26
:10325000FDF756FD79A1032001F048F97E48009062
:103260004F48002469467830FEF72AF920B102461B
:103270007AA1012001F03EF91C216846FCF7F9F81B
:103280004FF40040CDE900404FF47020029014202C
:103290008DF80C007A4805907A480690ADF80E40FB
:1032A0008DF810406846FEF753F820B1764A4FF487
:1032B000F671FDF701FE75A1032001F017F97C48B6
:1032C00002F0ACFD7BA1032001F010F9FEF7F6FF40
:1032D000040010D0024680A1012001F00BF9204625
:1032E00030A240F28F31FDF7E7FD08E082A1032014
:1032F00001F0FCF8A2E787A1032001F0F7F8002015
:1033000003F0FEF84FF47A74204600F012FB02F04E
:10331000C3FC204600F00DFB02F076FC84A10320E4
:1033200001F0E4F8FDF722FD0446024687A10320E0
:1033300001F0E0F8200004D01AA24FF46F71FDF7FD
:10334000BBFD8AA1032001F0D1F8FEF7F0F94FF49C
:1033500055743EDF0028FCD04B4A2146FDF7ACFDFA
:10336000F7E700004150503A494E464F3A537461D6
:103370007274696E67204C6F6767696E670A000038
:103380004150503A494E464F3A0D0A0A0A0A496ED0
:10339000697469616C697A696E67202E2E2E0A0045
:1033A0005C2300202E2E5C2E2E5C2E2E5C6D61691F
:1033B0006E2E63004150503A494E464F3A496E696D
:1033C0007469616C697A696E672054696D6572739E
:1033D000200A00004150503A494E464F3A54696D18
:1033E00065727320496E697469616C697A656420DD
:1033F0000A000000891802004150503A4552524FCD
:10340000523A42535020696E6974206572726F722D
:103410002025640D0A0000004150503A494E464FA5
:103420003A626C6520737461636B20496E697469DC
:10343000616C697A6564200A000000004150503ACE
:10344000494E464F3A41647620496E697469616C11
:10345000697A6564200A00001D4702004150503A15
:103460004552524F523A53657276696365732069CB
:103470006E6974206572726F722025640D0A0000F7
:103480001D4C0200951E0200A03102004150503A2E
:10349000494E464F3A436F6E6E20506172616D73B4
:1034A00020496E697469616C697A6564200A00005C
:1034B000482100204150503A494E464F3A53485413
:1034C000333127732049324320496E697469616C36
:1034D000697A6564200A00004150503A4552524FC3
:1034E000523A66647320696E6974206572723A207C
:1034F0002564200A000000004150503A494E464FD2
:103500003A42535020496E697469616C697A656406
:10351000200A00004150503A494E464F3A666473C3
:1035200020696E697469616C697A65640D0A0000CE
:103530004150503A494E464F3A54696D6573205395
:10354000746172742E2E200A000000004150503A1F
:10355000494E464F3A6164762073746172742065F7
:1035600072723A202564200A000000004150503A4F
:10357000494E464F3A5374617274656420416476D3
:103580006572746973696E67200A0000F0B50B30CC
:10359000154D20F007010024144A0FE003688B4208
:1035A0000BD38B4205D95E1A43184768C3E90067FD
:1035B00000E04368136002C004E0021D10680028A8
:1035C000ECD12046002802D1286808B10020F0BDC7
:1035D000064A07481060074A121A22F00702C0E99B
:1035E000002401202860D7E7202200201C22002090
:1035F000342D0020304D002070B5144682880E46D0
:1036000005462088111D0144921C994201D8FE2ACA
:1036100001D90C2070BD521C32542088FF21401C5F
:1036200080B2208031542088401C80B220808119D3
:10363000288802F0B0FE2188084480B22080AA8841
:1036400042B1A96841B13044FBF7FAFE2088A9884D
:1036500008442080002070BD072070BD2DE9F04196
:1036600086B004460020029003900490A26821785E
:10367000B4F80C80E589012690B24FF6FE77062952
:103680000AD2DFE801F0030E3B4C4665626832B1B6
:1036900035A1012000F02EFF06B0BDE8F0813D48C5
:1036A0005FE0616839B100912B4642463A490120FA
:1036B00000F02FFFF0E739490E70394C2B46424697
:1036C0006168CDE900013749032000F02BFFBD42BE
:1036D0000DD0A5F57F40FF3809D04B4602AA2946F8
:1036E0004046FEF781FE6068401C6060D4E74B46B0
:1036F00002AA29464046FEF777FECDE76168002919
:10370000CAD100902B46424627A1032000F001FFBA
:10371000EDE760680028BFD1FEF7FEFDBCE730A1F1
:103720000420636800F0EDFE60680028B4D1A06852
:103730001921B0FBF1F201FB120002280BD2E08943
:10374000B84208D033A1032000F0D0FEFEF7E4FD1C
:1037500060680028A0D1628937A1042000F0CAFE69
:103760004048067098E70000424C4544423A4552B2
:10377000524F523A46445320496E697469616C69EC
:103780007A6174696F6E204661696C656420256496
:103790000A00000050210020906902005221002000
:1037A000542100204C690200424C4544423A494EA3
:1037B000464F3A557064617465642066696C652C87
:1037C0007265636F72642C72656349443A202530D8
:1037D00034782C253034782C2564200D0A00000024
:1037E000424C4544423A44454255473A44656C652B
:1037F000746564207265636F72642049443A2025C1
:10380000642C20726573756C743A202564200D0A4F
:1038100000000000424C4544423A494E464F3A535C
:1038200063686564756C6564204743206265696EF2
:10383000672072756E0D0A00424C4544423A444579
:103840004255473A474320446F6E652C20737061A0
:103850006365207265636C61696D65642025640A27
:103860000000000051210020F8B50E4601781446F2
:103870000546012901D1687830B12088821C9A421E
:103880002DD8012902D006E00720F8BD697801444F
:10389000891C994223D8181A801E87B2ADF800708F
:1038A0002188B01C084469467DDF0028EDD12878C6
:1038B000022805D1BDF80010B94201D809210AE05B
:1038C0000821012805D16878B84202D8ADF8000077
:1038D00001E0ADF80070BDF80000FE2801D90C2011
:1038E000F8BD2288401CB0542088401C80B2208043
:1038F00031542088401C2080BDF8001008442080EE
:103900000020F8BDC20800F007030120895C984040
:103910000840704700F180400068002800D0012076
:10392000704708B500F180400021016000680090F8
:1039300008BD4FF47A714843AFF3008000283ED0B1
:103940001F49204A096800BF00BF00BF00BF00BF79
:1039500000BF00BF00BF91422FD000BF00BF00BF1B
:1039600000BF00BF00BF00BF00BF00BF00BF00BF5F
:1039700000BF00BF00BF00BF00BF00BF00BF00BF4F
:1039800000BF00BF00BF00BF00BF00BF00BF00BF3F
:1039900000BF00BF00BF00BF00BF00BF00BF00BF2F
:1039A00000BF00BF00BF00BF00BF00BF00BF00BF1F
:1039B00000BF00BF00BF00BF00BF401EC3D17047A3
:1039C000182200200024F40000283ED01F49204A7D
:1039D000096800BF00BF00BF00BF00BF00BF00BF3D
:1039E00000BF91422FD000BF00BF00BF00BF00BF8B
:1039F00000BF00BF00BF00BF00BF00BF00BF00BFCF
:103A000000BF00BF00BF00BF00BF00BF00BF00BFBE
:103A100000BF00BF00BF00BF00BF00BF00BF00BFAE
:103A200000BF00BF00BF00BF00BF00BF00BF00BF9E
:103A300000BF00BF00BF00BF00BF00BF00BF00BF8E
:103A400000BF00BF00BF401EC3D170471822002036
:103A50000024F40000283ED01F49204A096800BF16
:103A600000BF00BF00BF00BF00BF00BF00BF91424A
:103A70002FD000BF00BF00BF00BF00BF00BF00BF0E
:103A800000BF00BF00BF00BF00BF00BF00BF00BF3E
:103A900000BF00BF00BF00BF00BF00BF00BF00BF2E
:103AA00000BF00BF00BF00BF00BF00BF00BF00BF1E
:103AB00000BF00BF00BF00BF00BF00BF00BF00BF0E
:103AC00000BF00BF00BF00BF00BF00BF00BF00BFFE
:103AD00000BF401EC3D17047182200200024F4000C
:103AE00070B50F4C0025207808B1852516E000211F
:103AF000A16061602161E1604FF0E020D0F8000139
:103B0000012610F0010F03D10721002000F029F851
:103B100001F034FF08B9034806602670284670BDDE
:103B2000742500201805004038B500208DF80000ED
:103B30006846FDF76BFA074C207808B9FFF7D0FF0D
:103B4000E068401CE0600120A0709DF80000FDF7D7
:103B500081FA38BD74250020002801D1FEF7ECB8A9
:103B600070474907090E002806DA00F00F0202F13B
:103B7000E02282F8141D03E000F1E02282F8001434
:103B800000F01F02012191404009800000F1E02077
:103B9000C0F88012C0F800117047000038B50F4A15
:103BA000904218D100208DF800000D466846FDF7C0
:103BB0002DFA0B4C207928B19DF80000FDF74AFA48
:103BC000112038BD012020719DF80000FDF742FA58
:103BD0000020256038BD072038BD000000300040BF
:103BE000AC2100202DE9F0418846054601F0EAF9B4
:103BF000234E002828461AD0FEF73AF8304490F8B1
:103C000048008009032802D001280ED007E04FF0B9
:103C1000A040D0F81005E84010F0010F05D00321B6
:103C20002846BDE8F04100F0D4BA0221F8E701F0DF
:103C3000D5F9002822D02846FEF71AF804464FF49A
:103C4000807000EB84000F4F81B207EB8400D0F846
:103C5000102542F00102C0F81025084600F0FCFAD9
:103C6000B8F1000F0AD02846FEF702F856F82000F7
:103C7000002803D00120A040C7F80403BDE8F0816C
:103C800088250020006000402DE9FC41DFF8A48079
:103C9000044608EB0400002790F930001346C017D3
:103CA0000E46401C01D0082741E0F2781946204614
:103CB000FDF7BAFF0546401C38D0B07850B14FF040
:103CC000A04000EB8400D0F8001721F00201C0F8FA
:103CD000001707E000217378204600910A46019101
:103CE00000F054FAF078C0B11348317800EB850049
:103CF000D0F81025114B1A40C0F810254FF4F85297
:103D00004FF4403302EA042203EA01410A43D0F8A7
:103D100010150A43C0F8102509E008EB05003278B9
:103D200010F8481F41EA8211017000E0042738466C
:103D3000BDE8FC818825002000600040FFE0FCFF1A
:103D40004FF0A041D1F81015C14011F0010000D092
:103D50000120704770B5144D95F8540008B1082043
:103D600070BD0020411E2A18401CC0B282F83010DD
:103D70002028F8D300242046FDF748FF641CE4B255
:103D80000C2CF8D307210620FFF7EBFE4FF4BE7092
:103D900000F062FA05494FF00040C1F80403012029
:103DA00085F85400002070BD882500200060004088
:103DB000034890F85400002800D00120704700000C
:103DC000882500200121B1EB507F01D101207047EF
:103DD000002070472DE9F041254C064612200D4683
:103DE000C4F80803234890F82920022A18D0014675
:103DF0004FF4807891F82B10012A13D00222C4F8D6
:103E00000423012780F82970466005810022C260E2
:103E100021B3C58290F82A10304600F0A5FB25E0BA
:103E2000122002E0C2682AB10220C4F80403112063
:103E3000BDE8F081C660858261B94746384600F02A
:103E4000D9FB0028FAD0384600F0DCFB2946304682
:103E500000F08AFB0220C4F8040307E0294630463C
:103E600000F082FB404600F0CDFB27600020DFE73A
:103E7000007000402826002070B50F4A05460C4609
:103E800092F8290008B1112070BD02EB4501087EAF
:103E900018B912F82A0F401C1070E0790876207AC1
:103EA00048762146284600F067FB227AE1792846C9
:103EB00000F096FB002070BD282600202DE9F0417F
:103EC0001C4C054694F8280010B10820BDE8F0818C
:103ED00009B115B102E00720F8E7174D44F8101BAF
:103EE000164928780860091D68780860E878E07647
:103EF0000127277600206076A0762060104E20777C
:103F00006FF00040C6F808034FF4827000F07AFBAF
:103F1000A9780720FFF725FE0220C6F80403E07EFB
:103F200010B10120C6F804030448F03807600020EF
:103F3000CCE70000282600204C680200F075004005
:103F4000007000402DE9F0412C4D80460B4695F85D
:103F5000290010B11120BDE8F0810124284E85F818
:103F600029400322C6F808232146184600F0FCFA2F
:103F700095F82A00012809D9002700221146384661
:103F800000F02EFB7F1CFFB2082FF6D305EB480094
:103F9000427E017E404600F023FB00273460184833
:103FA000001D046042F210744FF4827800E0641E39
:103FB000404600F01FFB08B9002CF8D1404600F045
:103FC00021FB95F82A0001280BD9002405EB4400B9
:103FD000427E017E204600F003FB641CE4B2082C04
:103FE000F4D395F82B0008B1032000E00220C6F8B6
:103FF0000403384685F82970ADE700002826002024
:104000000070004001790A4A01EB810102EBC10115
:10401000006800228A60531EC0F80833D0F80032CE
:10402000C0F80022C0F80025012081F82200704766
:10403000002600200179064A01EB8101006802EBAD
:10404000C1010622C0F80025022081F82200704735
:10405000002600202DE9F0410646174600790D465E
:10406000244A00EB800102EBC104984694F8221028
:1040700011B10820BDE8F0811F4951F820103068C7
:10408000FFF78CFD08B11120F4E7C4E900780020A7
:10409000A06084F8250084F82400A87B84F8270019
:1040A000687B10B1284601F063FE296840F20C607D
:1040B000890001F1A041C1F800076968890001F198
:1040C000A041C1F80007D5E900123068C0F8081512
:1040D000C0F80C25A968C0F82415206828B13068FC
:1040E000297B000B40B2FFF73CFD012084F8220041
:1040F0000020BFE7002600203C6802003EB5074DC7
:104100006C68ED6800948DF80110019202958DF8AD
:1041100002300022694600F015F83EBD3C680200FE
:104120003EB500250095069C8DF8011002958DF88E
:10413000023001920CB1202200E00022694600F01A
:1041400001F83EBD30B40379064C03EB830304EB66
:10415000C304006813460A460146204630BC01F0FD
:1041600085BE00000026002070B541EA4201DDE96D
:1041700004564FF0A04441EA830141EA052104EBD3
:10418000800041EA0641C0F8001770BD70B541EAF1
:104190004201DDE904564FF0A04441EA830141EABF
:1041A000052104EB800041EA0641C0F8001770BD0C
:1041B0004FF0A04202EB8000D0F8002722F44032FA
:1041C000C0F80027D0F8002742EA0141C0F80017E4
:1041D00070474FF0A04202EB8000D0F8002722F495
:1041E0004032C0F80027D0F8002742EA0141C0F869
:1041F000001770474FF0A04201218140C2F8081516
:10420000704701224FF0A043824011B1C3F8082546
:104210007047C3F80C25704701224FF0A04382403D
:1042200011B1C3F808257047C3F80C25704700008A
:1042300018B5084B6C4601441B68009306E000BFAC
:1042400054F82030D3F81035401C08C28142F7D80A
:1042500018BD000038680200034908B50844002171
:1042600001600068009008BD0060004002494058AD
:10427000012800D0002070470060004000487047CF
:10428000A942020070B5074D0446287810B168783D
:10429000844204D0FBF708FD012028706C700020D8
:1042A00070BD0000022200202DE9F04FC1B017467A
:1042B0004FF00002080040924D994B9A1E4602EBC7
:1042C000010A01D00A2100E0002188466D46AEB9FE
:1042D000294640AA01F0C6FC00286FD03846FBF7FB
:1042E000D3F8C22800D9C220044640982246284468
:1042F0003946FBF7A5F84098204440904FF0200B3A
:10430000409901EB080231320DEB01040DEB02057F
:10431000002002E004F801BB401C4045FAD300270E
:10432000564508D304F801BB04F801BB04F801BBEF
:1043300005F801BB2DE04B98864202D24A98805D79
:1043400002E0311A4C98405C012181460246880007
:1043500022FA00F000F00F00092801D9373000E000
:104360003030C1F1010C234604F80C00491EEED296
:104370009C1C04F801BBFBF75FF8016811F8090009
:1043800010F03E0F01D0484600E02E2005F8010B4A
:10439000761C7F1C102FC3D30D2028700A20687054
:1043A00084F800B04099684641444331409101F09F
:1043B00081F918B1002040905645A1D341B0304654
:1043C000BDE8F08F2DE9F041C6B0904608460025C3
:1043D00005AE1C464C9F314645AA459501F042FC6E
:1043E000002835D0072F27D2DFE807F004121B354D
:1043F000424F5D004046FBF747F8459905460844A3
:10440000FF2819D870182A464146FBF719F813E01F
:1044100045982368C0F5807130444246FCF768F83F
:1044200009E06068009045982368C0F580713044C9
:104430004246FCF75DF80546294645A8FDF7D8FB3E
:10444000459978B3B1F5807F3ED805A801F032F9DF
:1044500046B0BDE8F081D4E90101CDE900014598FD
:104460002368C0F5807130444246FCF741F8E2E72A
:10447000201D07C88DE8070045982368C0F58071A6
:1044800030444246FCF734F8D5E7201D0FC88DE8CC
:104490000F0045982368C0F5807130444246FCF710
:1044A00027F8C8E710E004F1080001AD0FC885E85F
:1044B0000F006068009045982368C0F58071304413
:1044C0004246FCF715F8B6E70020C1E70048704700
:1044D000C543020038B50D460093034B00215C69CB
:1044E00013462A46A04738BD8C2A002000231A46CE
:1044F000FFF7F0BF08B5012300926A46FFF7EAFF15
:1045000008BD1CB5CDE9002302236A46FFF7E2FF90
:104510001CBD3EB5069C8DE81C0003236A46FFF7D0
:10452000D9FF3EBD7FB5DDE908458DE83C00042399
:104530006A46FFF7CFFF7FBD014AC2E90501704718
:104540008C2A002070B50120FFF79CFE040008D1E2
:10455000FFF7BCFF0546FFF791FE01462846FFF72F
:10456000EBFF204670BD0000024A1060101D016084
:10457000704700002C76004010B50A784B78302444
:1045800002F0030204EA03131A438B784FF4E06449
:1045900004EA03231A43CB784FF4805404EA03332C
:1045A0001A430B794FF4E02404EA03431A434B798E
:1045B0004FF4801404EA03531A438B79240104EA6C
:1045C00003631A43030105481844C0F81825CA7943
:1045D000097AC0F81415C0F8102510BD007000400D
:1045E000030103481844C0F81425C0F8101570479B
:1045F0000070004002494058002800D00120704758
:1046000000700040034908B50844002202600068B9
:10461000009008BD007000404058002800D00120E4
:10462000704708B5002242504058009008BD4058DD
:10463000002800D00120704708B5002242504058A1
:10464000009008BDD0F80403084000D00120704756
:104650004058002800D00120704708B50022425081
:104660004058009008BD00002DE9F04107460C2598
:104670000C462846FEF78AFF06460020215C31548E
:10468000401CC0B2A842F9D32A4621463846FCF75E
:1046900077FF040005D002460CA10120FFF72AFF96
:1046A0000DE014A10320FFF721FF002719A1F25DFF
:1046B0001320FFF71FFF7F1CFFB2AF42F6D3304637
:1046C000FDF7C4FF2046BDE8F0810000424C4544A0
:1046D000423A4552524F523A4E55532073747269C2
:1046E0006E672073656E64206572726F723A202562
:1046F00064000000424C4544423A494E464F3A4419
:104700006174612073656E74206F766572204E55FA
:10471000533A0000253032780000000070B50D4695
:10472000164620A10320FFF7E1FE27A10320FFF793
:10473000DDFE002408E000BFC4F1010030A12A5CC6
:104740001320FFF7D7FE641CB442F5D31DA113203C
:10475000FFF7CCFE2D882CA12A460320FFF7CAFEC6
:10476000FEF71CFA314C014620812846FDF7BAFAC3
:104770006070607802280BD06378E2882CA1032057
:10478000FFF7BFFEE188BDE87040384800F0A4BBE9
:1047900037A10220FFF7AAFEBDE87040012133488F
:1047A00000F080B84150503A494E464F3A496E7336
:1047B000696465206E757320646174612068616E40
:1047C000646C65720D0A00004150503A494E464FE4
:1047D0003A646174612066726F6D2063656E7472F5
:1047E000616C20284F6E6C79203220627974657379
:1047F000207573656420627920636F6465293A00CF
:1048000025303278000000004150503A494E464F62
:104810003A5374617274207265636F7264203A2037
:104820003078253034780D0A00000000382100204F
:104830004150503A494E464F3A5374617274696E12
:10484000672064617461207472616E7366657220A2
:1048500066726F6D20253034782C2073796E635426
:104860007970652025640D0A00000000D423002023
:104870004150503A5741524E494E473A496E76613F
:104880006C696420696E707574207265634B65791C
:104890002C2053656E64696E6720454F4D0D0A0AE2
:1048A00000000000FEB51A4B07460C250DCB8DE825
:1048B0000D004FF0FF3000906C462846FEF766FE74
:1048C00006460020215C3154401CC0B2A842F9D3F6
:1048D0002A4621463846FCF753FE040005D002461E
:1048E0000CA10120FFF706FE0DE014A10320FFF745
:1048F000FDFD002719A1F25D1320FFF7FBFD7F1CD2
:10490000FFB2AF42F6D33046FDF7A0FE2046FEBD13
:10491000C8670200424C4544423A4552524F523A0F
:104920004E555320737472696E672073656E6420F0
:104930006572726F723A202564000000424C454453
:10494000423A494E464F3A446174612073656E7431
:10495000206F766572204E55533A0000253032782C
:1049600000000000F0B56E4D044600886F8889B0E5
:104970003B287DD024DC4FF00006102831D010DC1D
:10498000012841D0022874D1A088002167DF0028C7
:104990007CD064A240F29F2109B0BDE8F040FCF752
:1049A0008BBA11285AD0132870D100231A468521BA
:1049B00038467FDF002869D05AA240F28621EBE713
:1049C000502870D0512879D0522861D056285DD116
:1049D000A088132176DF002858D052A240F29A21F5
:1049E000DAE72E700720FCF7E9FF20B14DA240F274
:1049F0005F21FCF761FAA088688009B00121BDE859
:104A0000F0401220FFF7FDBB4AA10320FFF76EFD27
:104A1000E888401C80B2E8802989FDF741F9012827
:104A20000ED0022832D100214948FFF73BFF020097
:104A30000DD009B047A1BDE8F0400120FFF75ABDF5
:104A4000E98809B04248BDE8F04000F045BA09B035
:104A50004AA1BDE8F0400320FFF748BD0021122025
:104A6000FFF7CFFB6E70FCF781F9020007D001E081
:104A70001BE00BE047A10120FFF73CFD03E054A140
:104A80000320FFF733FD4FF6FF70688009B0F0BDDB
:104A900000231A4619463846A9DF0028F6D021A27D
:104AA0004FF4237178E730E008E0A088132176DF27
:104AB0000028EBD01BA240F293216DE71022A11D2C
:104AC00004A8FAF7BDFC9DF810100029DED09DF86F
:104AD0001800042803D0062801D00528D6D10229C1
:104AE00011D001208DF800004FF4C170ADF8040022
:104AF000A0886946A8DF0028C8D00AA240F2BA21DF
:104B0000FCF7DAF9C2E70220ECE72189A27C09B0C0
:104B10008BB2BDE8F04039A10020FBF71BB90000C3
:104B2000382100202E2E5C2E2E5C2E2E5C6D6169AD
:104B30006E2E63004150503A494E464F3A0D0A548A
:104B40005820436F6D706C6574650D0A000000009D
:104B5000D42300204150503A4552524F523A4572A8
:104B6000722073656E64696E6720656F6D20706179
:104B7000636B6167653A2025640D0A004150503A25
:104B8000494E464F3A454F4D2073656E74200D0ACD
:104B9000000000004150503A4552524F523A416491
:104BA000762072657374617274206661696C6564E5
:104BB00020616674657220646973636F6E6E6574DC
:104BC00020657272636F64653A2025640D0A0000E7
:104BD0004150503A494E464F3A41647620726573CF
:104BE00074617274656420616674657220646973AF
:104BF000636F6E6E6563740D0A0A00000D0A4368E8
:104C000061722076616C75652025642C207575694C
:104C10006420253034780D0A000000000078002858
:104C20000AD106483B21408876DF002804D004A240
:104C30004FF4E671FCF740B97047000038210020BE
:104C40002E2E5C2E2E5C2E2E5C6D61696E2E630006
:104C5000134A10B500215170017A012912D002299E
:104C60001DD18189491C8181C189491C89B2C181B9
:104C7000028A914213D1002100F0F6FCBDE81040F9
:104C800000F0B8B9838AC28A4FF480619C1A8C42C2
:104C900000DAA1B2114489B2C1829942EBD010BDB1
:104CA00000220020F8B51E4D17460E4601466A6FD9
:104CB0000020032A33D805F17804C6F1080C636C90
:104CC00063452CD895F87000104400F00300C0EB49
:104CD000C00005EB80001C22FAF7B2FB686F401C95
:104CE0006867DEB194F8440094F84010002308444B
:104CF00000F0070004EBC00000900AE007EBC302DD
:104D00000098D2E90012C0E900126846FDF708F8E1
:104D10005B1CB342F2D3606C304460640120F8BD88
:104D2000B02600200389CA1C1A4402814289511A04
:104D3000C91E4181704700002DE9F04700F500557C
:104D4000002700F10804022090460E460880DFF894
:104D5000489012E02046FDF7D1FFD0B1A068D9F805
:104D60000420904201D9C9F804006088318804EB1E
:104D700080040844C01C30800C34AC4202D220684D
:104D8000401CE7D1B8F1000F01D088F80070BDE8F1
:104D9000F0870127E9E70000E821002008B500219D
:104DA000009101460223024A0248FDF717FD08BDA3
