:020000040001F9
:10F00000986A002015F401001DF401001FF40100AE
:10F0100021F4010023F4010025F4010000000000A8
:10F0200000000000000000000000000027F40100C4
:10F0300029F40100000000002BF401002DF4010070
:10F04000D5FA01002FF40100DD01020001FF0100EB
:10F050002FF401002FF40100D1F8010051FB010051
:10F060002FF401002FF401002FF401002FF4010010
:10F070002FF401002FF401002FF401002FF4010000
:10F080002FF401002DFB01002FF401002FF40100EB
:10F090000DFF01002FF4010011FF01002FF401000A
:10F0A0002FF401002FF401002FF401002FF40100D0
:10F0B0002FF401002FF40100000000000000000008
:10F0C0002FF401002FF401002FF401002FF40100B0
:10F0D0002FF401002FF401002FF4010000000000C4
:10F0E0000000000000000000000000000000000020
:10F0F0000000000000000000000000000000000010
:10F1000000000000000000000000000000000000FF
:10F1100000000000000000000000000000000000EF
:10F40000DFF80CD000F052FA004800477D2E0200D1
:10F41000986A00200648804706480047FEE7FEE756
:10F42000FEE7FEE7FEE7FEE7FEE7FEE7FEE7FEE7B4
:10F4300041FF010001F4010000487047405C0200F8
:10F4400040EA01039B0703D009E008C9121F08C066
:10F45000042AFAD203E011F8013B00F8013B521EE6
:10F46000F9D27047D2B201E000F8012B491EFBD25D
:10F4700070470022F6E710B513460A4604461946BF
:10F48000FFF7F0FF204610BD421C10F8011B0029B9
:10F49000FBD1801A7047034611F8012B00F8012BAD
:10F4A000002AF9D1184670472DE9FE4F804681EABF
:10F4B0000300C00F0C46009021F0004123F00045EE
:10F4C000B8EB0200A94105D24046214690461C46B1
:10F4D0000B46024623F00040104347D0270DC7F3E8
:10F4E0000A00C3F30A510290401A019040286BDAD7
:10F4F000C3F3130040F4801B0098924620B1002310
:10F50000D2EB030A63EB0B0B01985946C0F14002A2
:10F51000504600F03CF906460D4650465946019AC1
:10F5200000F054F910EB08006141002487EA115201
:10F5300084EAE7731A4340D0009A62B3019A012A21
:10F540004FEA075215DC001B61EB02014FF000424D
:10F5500002EA0752CDE90042001C41F58011324613
:10F560002B4600F054F903B0BDE8F08F4046214629
:10F57000F9E7001B61EB0201001C41F58013001844
:10F580005B412018A2F5001747EB030140EAD57054
:10F59000B6196D4111E06D084FEA360645EAC075AF
:10F5A0004FEA0752001B61EB0201001C41F580117C
:10F5B00049084FEA30000019514132462B4603B04A
:10F5C000BDE8F04F00F014B900980122400000237C
:10F5D000D0EB020263EBE073009821464FEAE0743F
:10F5E000B8EB000061EB0401E9E783F000435BE75F
:10F5F00081F0004158E72DE9F04D81EA030404F061
:10F60000004B21F0004514464FF0000A23F0004162
:10F6100050EA050220D054EA01021DD0C5F30A5772
:10F620000246C5F31303C1F31300C1F30A5640F4B5
:10F63000801543F48013A7EB0608101BD64608F28A
:10F64000FD3873EB050002D308F1010801E09218C0
:10F650005B41B8F1000F03DA00200146BDE8F08DF0
:10F6600000204FF48011064684460EE0171B73EB12
:10F67000050705D3121B63EB050306434CEA010C97
:10F6800049084FEA300092185B4150EA0107EDD17A
:10F6900052EA030012D082EA040083EA050108431B
:10F6A00005D0101BAB4106D20122002306E0002248
:10F6B0004FF0004302E06FF0010253101AEB060016
:10F6C0004CEB085110EB0A0041EB0B01BDE8F04D8B
:10F6D00000F08EB80EB540F2334102910021CDE921
:10F6E00000110A460B4600F092F803B000BD70B559
:10F6F000C1F30A5201F000450024C1F3130140F2A6
:10F70000FF3341F480119A4201DA002070BD40F2CB
:10F7100033439A42A2F2334203DC524200F046F8ED
:10F7200000E090402C43F1D0404270BD2DE9F05FE5
:10F730000546002092469B46884606468146402460
:10F740001BE0284641464746224600F02FF8534624
:10F750005A46C01A914110D311461846224600F06D
:10F7600016F82D1A67EB01084F46224601200021AA
:10F7700000F00DF817EB00094E41201EA4F1010422
:10F78000DFDC484631462A464346BDE8F09F202A42
:10F7900004DB203A00FA02F1002070479140C2F1E8
:10F7A000200320FA03F3194390407047202A04DB1A
:10F7B000203A21FA02F00021704721FA02F3D040EA
:10F7C000C2F120029140084319467047202A06DB07
:10F7D000CB17203A41FA02F043EAE07306E041FA1F
:10F7E00002F3D040C2F1200291400843194670470D
:10F7F00010B5141E73F1000408DA401C41F1000139
:10F8000092185B411A4301D120F0010010BD2DE98F
:10F81000F04D92469B4611B1B1FA81F202E0B0FA86
:10F8200080F220329046FFF7B2FF04460F4640EACE
:10F830000A0041EA0B0153465A46084313D01146C9
:10F8400053EA010019D0C8F140025046FFF7AEFF5D
:10F8500005460E46504659464246FFF798FF084374
:10F8600005D0012004E020463946BDE8F08D002097
:10F87000054346EAE0762C4337430A986305E40AD9
:10F88000A0EB08000022FD0A44EA47540A3002D5E2
:10F8900000200146E9E7010510196941DDE9084545
:10F8A00000196941BDE8F04DA2E70000064C074D84
:10F8B00006E0E06840F0010394E807009847103440
:10F8C000AC42F6D3FFF7A0FD9C5C0200BC5C0200DA
:10F8D0002DE9F04700268CB0DFF86091B0464FF478
:10F8E0008075012437460696284604F031F938B170
:10F8F000D9F80403204203D0284604F01FF9264318
:10F900002D1D64007F1CADB2082FEDD34FF4BE74E3
:10F91000204604F01DF948B1204604F00FF946F0E6
:10F92000004606AA0121002004F0F4F8444D16F028
:10F93000FF0F15D00127002437420DD009EB8401B9
:10F94000D1F81005D1F81015C0F3042055F8242083
:10F95000C1F3014102B190477F00641C082CEBD336
:10F96000002E67DA4FF0FF30CDE9088000263446DC
:10F97000281910F8507F90F9000027F0C008401CAB
:10F9800044D009A9404603F02FFC58B34FEA971919
:10F99000404602F04BF955F820701FB1B9F1030F42
:10F9A00003D00FE0B9F1030F30D108A84FEAD80215
:10F9B00008F00703815C4FF0010C0CFA03FC41EAEC
:10F9C0000C0181544FF0A04101EB8800D0F80007F2
:10F9D00006A9C0F3014A404603F006FC18B1BAF18B
:10F9E000020F03D012E0BAF1030F0FD1B9F1030FE8
:10F9F00008D1BAF1020F1BD00221404604F05BF897
:10FA0000761CF6B217B149464046B847641C042C30
:10FA1000AED3002E0ED06A460121002004F07AF801
:10FA200006990098884205D00690089809909DE7AD
:10FA30000321E2E70CB0BDE8F08700000060004061
:10FA40008825002000F01F0201219140400980001C
:10FA500000F1E020C0F88012704700F01F02012181
:10FA600091404009800000F1E020C0F8801170470B
:10FA700000F01F02012191404009800000F1E020C8
:10FA8000C0F80011704700F01F02012191404009A9
:10FA9000800000F1E020C0F80011704700F01F0264
:10FAA000012191404009800000F1E020C0F80012DF
:10FAB00070474907090E002806DA00F00F0000F130
:10FAC000E02080F8141D704700F1E02080F8001459
:10FAD000704700002DE9F0414FF48077384603F07D
:10FAE0008BFB0124104EA50748B1384603F08BFB71
:10FAF0000120C5F808037470002002F0BBF84FF431
:10FB00008277384603F078FB00280BD0384603F0A4
:10FB10007AFB0220C5F80803B470BDE8F04101206B
:10FB200002F0A8B8BDE8F081742500200748002144
:10FB3000C0F84011C0F84411C0F84811C0F84C1189
:10FB4000C0F80011C0F8041105F09CB90010014084
:10FB50002DE9FE434FF48278404604F08BF9504F74
:10FB60000025504C012600B3404604F08BF994F870
:10FB70002B0010B194F82C10D1B18DF800506168B1
:10FB800001912189ADF80810E16829B16160A18A6D
:10FB90002181E56018B103E084F8295000E03E605F
:10FBA00021686846884784F82C5094F82B0098B355
:10FBB0004FF48077384604F05DF968B3384604F0B6
:10FBC00061F9E28A72B194F82A108A4210D9A2EB44
:10FBD000010080B2E0822289A2EB0000626802EBA1
:10FBE00040000BE0208994F82A10A0EB0100F0E718
:10FBF00007D1E06828B184F82C60E58204F0F4F8BD
:10FC000004E08A4202D184F82C60E582404604F088
:10FC100039F92348001D06604FF48877384604F010
:10FC200029F950B1384604F02DF984F82950022002
:10FC30008DF800002168684688474FF48A77384677
:10FC400004F018F930B1384604F01CF984F8295052
:10FC5000BDE8FE834FF000484FF48C7927691CE023
:10FC6000B7FA87F028FA00F109EB80058F432846A0
:10FC700004F000F988B1284604F004F9A5F58C7564
:10FC8000E8088DF8040045F38000401C8DF8006002
:10FC90008DF80500216868468847002FE0D1D7E736
:10FCA000007000402826002003480078002801D179
:10FCB00000F0A2BA70470000202A0020F8B50646DE
:10FCC0000C4814460D46007808B900F095FA002358
:10FCD00000938DF80030684601F05EF9224629460F
:10FCE000304600F009F804469DF8000001F078F96C
:10FCF0002046F8BD202A002070B50E46144900EBBE
:10FD0000400001EBC0051446E86A183520B101280F
:10FD10000FD0022805D113E0284600F0A1FAA04236
:10FD200001D2002411E022463146284600F0C0FBF3
:10FD30000BE0284600F094FAA042F4D20446F2E721
:10FD40003146284600F087FB0446204670BD00007F
:10FD5000202A00200FB408B504A900916A4603992F
:10FD600000F004F801B05DF814FB00002DE9F0414B
:10FD700098B0064607A8029040200025CDE903056B
:10FD8000CDE9055690460C4614F8011B002971D0A8
:10FD9000252908D002A800F03FFB05980028F3DAD7
:10FDA00018B0BDE8F0810020217823291BD02B2931
:10FDB00016D02D290ED030290FD000222178A1F1A4
:10FDC00030030A2B13D202EB820201EB4202303ADB
:10FDD000641CF3E740F0010007E040F0020004E09B
:10FDE00040F0040001E040F00800641CDCE7002360
:10FDF000CFB22E2F0CD100BF14F8011FA1F1300794
:10FE00000A2F05D203EB830301EB4303303BF3E7F7
:10FE10006C290DD068290BD0702954D00BDC252912
:10FE200016D0582931D063290CD0642913D114E09D
:10FE300014F8011BECE7732934D075291BD07829FD
:10FE400009D122E0D8F80000011DC8F8001001789F
:10FE500002A800F0E1FA641C9FE7D8F800100F1D1B
:10FE6000C8F800700968CDE900200A2202A800F055
:10FE700003FAF0E733E0D8F800100F1DC8F800705F
:10FE80000968CDE900200A2208E0D8F800100F1D0B
:10FE9000C8F800700968CDE90020102202A800F01F
:10FEA0004DFAD8E7D8F80000011DC8F8001007681F
:10FEB00017F8011B0029CED002A800F0ADFA059872
:10FEC0000028F5DAC7E7D8F80000011DC8F80010CF
:10FED00001680820CDE9000503461022DEE70598F9
:10FEE00000287FF75DAF049820B1024607A930468D
:10FEF000FFF7E4FEDDE904010844059050E7000047
:10FF00000148006800470000AC21002004F032BF27
:10FF1000094810B5406848B1804700280AD0BDE8BC
:10FF20001040064A4FF4C77100F08CBFBDE8104086
:10FF300002F0CEBD10BD000004220020445C02008F
:10FF4000F0B598480023021D01780125101D4FF0DF
:10FF50008056062907D11478240704D10478C4F305
:10FF60000314032C02D0062904D00FE08F4F8E4CCF
:10FF70007C670EE01478240708D10478C4F30314D6
:10FF8000032C06D0042C04D0052C02D0062907D05F
:10FF90000EE0D6F84442864FC4F342343C6002E09F
:10FFA0001478240704D10478C4F30314032C02D07A
:10FFB000062906D011E07F4C276827F0807727605C
:10FFC0000EE01478240708D10478C4F30314032C3A
:10FFD00006D0042C04D0052C02D006290AD011E04A
:10FFE0004FF08044C4F80C31C4F81031704C241F19
:10FFF000236002E01478240704D10478C4F30314C6
:020000040002F8
:10000000032C02D0062905D00CE0694F0324643785
:100010003C600AE01478240704D10478C4F3031484
:10002000032C02D006290DD014E0634F05243C6058
:10003000614C78342560604C083423603F243F1DB8
:100040003C6002E01478240704D10478C4F303145C
:10005000052C02D0062957D068E058490968584A4B
:1000600011605649091D0968121D11605349083174
:100070000968121D116051490C310968121D116087
:100080004E4910310968121D11604C49143109683C
:10009000121D1160494918310968494A203211601E
:1000A00046491C310968121D116044492031096814
:1000B000121D1160414924310968121D11603F4928
:1000C00028310968121D11603C492C310968121D44
:1000D00011603A4930310968394A40321160374974
:1000E00034310968121D1160344938310968121D14
:1000F000116032493C310968121D11602F494031AD
:100100000968121D116002E0117809070ED100780C
:10011000C0F30310032803D0042801D0052805D11B
:10012000D6F85802274900F04F000860214874387B
:10013000016841F470010160BFF34F8FBFF36F8F0F
:100140004FF01021D1F80002002803DBD1F804029F
:10015000002822DA1C4A15601C480468002CFCD0D8
:100160001524C1F800420568002DFCD0C1F80442F6
:1001700001680029FCD0136001680029FCD0BFF39E
:100180004F8F0C48F0380168114A01F4E0611143C7
:100190000160BFF34F8F00BFFDE70F490D480860B6
:1001A000F0BD0000E00F00F00DF0ADBA00C0074058
:1001B0003C050040FCED00E0105600400404001037
:1001C00020C50040E40E004004E5014000E4014089
:1001D0000400FA050090D003182200200448017F93
:1001E00004480029024901D005F0F3B905F062B9CD
:1001F000E02500200020004010B5124C02202061B4
:10020000606111A0A061A4F50470E0614FF400707A
:1002100020620020A06260620BA1A164E062A4F1F0
:100220001001E16410212165A0656065E06509A108
:10023000E01DFFF730F908A12046FFF72CF9202038
:10024000A07110BD202A00205465726D696E616C2A
:1002500000000000525454005345474745520000E7
:100260000269C1688A4203D88068401A104400E0DD
:10027000501A401E704700002DE9FC5F0E008146B9
:10028000DDE90C47C6F1000098469346824600D44B
:100290000846012503E000BFB0FBFBF06D1C58458C
:1002A000FAD2A84500D9454624B1002E01DB7807D3
:1002B00000D5641EB80702D5B8F1000F10D0F807BA
:1002C0000ED16CB12046641EA84209D920214846AF
:1002D00000F0A2F8D9F80C000028F2DABDE8FC9F83
:1002E000002E02DA56462D2102E0780707D52B2191
:1002F000484600F091F8D9F80C000028EEDB07F032
:100300000300022810D1B8F1000F0DD164B12046CE
:10031000641EA84208D93021484600F07DF8D9F87B
:100320000C000028F2DAD9E7CDE9004743465A46E7
:100330003146484600F002F8D0E700002DE9F84FBA
:100340008246DDE90A4B0126984691460D4608464D
:10035000374602E0B0FBF9F07F1C4845FAD2B845B9
:1003600000D947465FEACB701CD1DCB15FEA8B70E5
:1003700002D5B8F1000F02D0202000900AE0302012
:10038000FBE75046009900F047F8DAF80C00002827
:100390003EDB3CB12046641EB842F2D802E000BF0A
:1003A00006FB09F6B5FBF6F1494501D3012100E052
:1003B00000214246A8F10108012A01DD012000E0E8
:1003C00000200143ECD1DFF84C8000BFB5FBF6F014
:1003D00000FB165518F80010504600F01DF8DAF82A
:1003E0000C00002803DBB6FBF9F6002EEED15FEA25
:1003F000CB700DD0002C0BD02046641EB84207D91C
:100400002021504600F008F8DAF80C000028F1DA54
:10041000BDE8F88FAC5B020010B50446D4E90130AA
:10042000421C934205DB23681954A260E068401C1B
:10043000E060D4E90102824209D121682069FFF716
:100440003DFCA168884203D04FF0FF30E06010BD52
:100450000020A06010BD2DE9F047C468174689460A
:1004600006464FF000083069A04201D9051B02E0A2
:10047000B168201A0D1AB0686D1E001BA84200D882
:100480000546BD4200D33D4670682A462044494691
:10049000FEF7D6FFB0687F1B2C44A844A944A042B5
:1004A00000D10024F460002FDDD14046BDE8F08784
:1004B0002DE9F041C6680446174688468068851BCA
:1004C0006068BD4206D93044FEF7BAFFF019E0601B
:1004D000BDE8F0812A463044FEF7B2FF7E1B08EBF0
:1004E000050132466068FEF7ABFFE660F0E700000A
:1004F0000FB41CB50246002007AC00290BD0491EE2
:10050000CDE90021054B6A462146069800F02AF8FD
:10051000009A002111701CBC5DF814FBC709020091
:1005200002E008C8121F08C1002AFAD170477047BC
:10053000002001E001C1121F002AFBD1704700001A
:100540000121202803DA81400548014003E04028CA
:1005500002DA2038814009B101207047002070473D
:10056000FC06FFBC2DE9FF4F8DB00F460546002667
:1005700006E025280BD0DDE90F1290476D1C761C94
:1005800028780028F5D111B03046BDE8F08F00245E
:10059000A246A1460122EC4900E0044315F8013FC0
:1005A000203B02FA03F00842F7D128782A2810D01D
:1005B0006FF02F022878A0F13001092914D80AEB36
:1005C0008A0102EB410144F0020400EB010A6D1CB8
:1005D000F0E701CF5FEA000A03D544F40054CAF102
:1005E000000A44F002046D1C28782E2817D115F853
:1005F000010F44F004042A280ED06FF02F0228784F
:10060000A0F1300109290AD809EB890102EB410167
:1006100000EB01096D1CF2E757F8049B6D1C28786C
:100620006C280FD006DC4C2817D068280DD06A281B
:1006300014D104E0742810D07A280FD10DE044F4CE
:1006400000140AE044F4801401E044F44014697892
:10065000814202D104F580146D1C6D1C2A786E2A2B
:100660001FD00CDC632A31D004DC002A8BD0582A3E
:1006700011D1A3E0642A68D0692A0CD165E0732AFD
:100680002ED004DC6F2A73D0702A04D19BE0752A27
:100690006FD0782A6ED01046DDE90F129047761C95
:1006A00050E1C4F30250022806D0032809D00428E0
:1006B00001CF09D0066045E101CFF117C0E9006123
:1006C00040E101CF06803DE106703BE117F8040BE5
:1006D0008DF8000000208DF80100EB46012003E0BA
:1006E00057F804BB4FF0FF3061074FF0000102D410
:1006F0000DE008F10101884649450FDA8045F8DB35
:100700001BF808100029F4D108E008F1010188461F
:100710008142FADB1BF808100029F6D1DDE90F232E
:10072000AAEB08008146214600F036F9304400EB80
:10073000080604E0DDE90F121BF8010B9047B8F141
:100740000108F7D221464846F7E00A21C4F30253D4
:100750004FF0000B0891022B04D001CFC117032BDF
:1007600009D00AE0FF1D27F00707F7E8020108E0BB
:1007700032E01FE020E000B2C117042B01D140B2EB
:10078000C117031E71F1000307DA4FF0000CD0EB24
:100790000C006CEB01012D2302E0230504D52B2373
:1007A0008DF82430012303E0E30701D02023F7E78D
:1007B000984658E00A2110E010210EE010204FF07A
:1007C000000B08900CE010214FF0000B44F00404E3
:1007D0004FF00809089103E008214FF0000B089141
:1007E000C4F30253022B04D001CF0021032B06D007
:1007F00006E0FF1D27F00707F7E8020103E080B2DB
:10080000042B00D1C0B24FF0000823072BD5702A6B
:1008100007D0DDF820C08CF0100C5CEA0B0C05D082
:100820000EE040238DF82430012308E050EA010354
:1008300006D030238DF824308DF8252002239846E9
:10084000DDF820C08CF0080C5CEA0B0C0BD150EAF0
:10085000010301D1630706D530238DF824304FF012
:100860000108A9F10109582A04D038A20B9208AA5C
:100870000A920BE03AA2F9E75B46089AFEF756FFA8
:100880000B9B9B5C0A9A521E0A92137050EA01025B
:10089000F2D10A98ADEB000000F1200B600702D501
:1008A00024F4803401E04FF00109D94502DDA9EBC1
:1008B0000B0000E0002000EB0B0141440890AAEB84
:1008C000010AE00306D4DDE90F232146504600F07B
:1008D00063F806444FF0000908E009A911F809007F
:1008E000DDE90F12904709F10109761CC145F4DBDF
:1008F000E0030CD5DDE90F232146504600F04CF80B
:10090000064404E0DDE90F1230209047761C089978
:10091000481E08900029F5DC08E00A980A9900783A
:10092000491C0A91DDE90F129047761CBBF10001CA
:10093000ABF1010BF1DC21465046DDE90F2300F05D
:1009400019F806446D1C1BE60928010030313233CA
:1009500034353637383961626364656600000000FB
:1009600030313233343536373839414243444546E5
:10097000000000002DE9F041044600251E46174600
:10098000880404D405E039462020B0476D1C641E5D
:10099000F9D52846BDE8F0812DE9F041044600254F
:1009A0001E469046C80301D5302700E02027880462
:1009B00004D505E041463846B0476D1C641EF9D5A4
:1009C0002846BDE8F0814A68002A06D00A68531C10
:1009D0000B6010704868401E486070470EB50C49A7
:1009E000002002F0DDFE18B10AA2A92100F02AFAC7
:1009F0000F4A07CA8DE807006946002002F0AEFEE4
:100A0000002803D003A2AE2100F01CFA0EBD0000A6
:100A1000AB4902002E2E5C2E2E5C2E2E5C62617481
:100A2000746572795F6C6576656C2E6300000000FA
:100A3000045B02002DE9FC47002517880646158057
:100A400090F82D001446894630B13A462146484672
:100A500000F0B2FC050009D1B0784FF00C0A18B3D1
:100A60002088C846001DB84202D95046BDE8FC8720
:100A7000684679DF0028F9D12088032108F80010A2
:100A800020881921401C80B2208008F8001020889E
:100A9000401C80B2208000EB0801BDF8000004F08B
:100AA00010FE218808442080F0780222C8B12188F5
:100AB00096F9033001F1030C4846BC45D5D84254A1
:100AC00021884FF0010C491C89B2218000F801C037
:100AD0002188491C89B2218009F801302088401CF6
:100AE00020807068B8B1218890F9003001F1030CC2
:100AF0004846BC45B9D8425421880A22491C89B2CB
:100B0000218042542188491C89B2218009F8013092
:100B10002088401C2080308950B1CDE900474B46E9
:100B20000622022106F1080004F018FE05009DD1FE
:100B3000308A50B1CDE900474B460722032106F128
:100B4000100004F00BFE050090D1308B50B1CDE9C0
:100B500000474B461522142106F1180004F0FEFD53
:100B6000050083D1306A30B13B462246494601F048
:100B7000EBF80500DBD1706A30B13B4622464946AE
:100B800002F05AFA0500D2D196F82C0038B13B4653
:100B900022464946304603F09BFF0500C7D1307816
:100BA00038B13B4622464946304602F0CFFA0500AE
:100BB000BDD128465AE70000134A0021535C0BB10F
:100BC000012203E0491C0629F8D300220F4901281D
:100BD00006D0022809D003280CD0042812D10DE039
:100BE000487810B10AB101207047887810B10AB175
:100BF00002207047C87808B103207047087908B10F
:100C00000420704700207047A5210020C024002048
:100C10002DE9F04196B04FF00408254801F05AFE46
:100C2000044601F031FE611C3ED040EA0425204814
:100C3000260C1038C468270C01F042FE1D4B0DF144
:100C40003C0C0ECB8CE80E00ADF83E004AF60430AA
:100C5000ADF848000C20ADF84C000FA8ADF84040AE
:100C6000ADF844601490ADF84270ADF846503C21A8
:100C70006846FEF7FEFB00208DF8020001208DF88B
:100C8000000006218DF801108DF82C008DF80380EE
:100C900012A80A900021684600F003FA002803D049
:100CA000054ACF2100F0CEF816B0BDE8F081000073
:100CB00048210020E85A02006C2E020010B5FFF710
:100CC000A7FFBDE8104001F08DBE10B50122022142
:100CD000002000F02FFE08B1072810D107220221C2
:100CE000012000F027FE08B1072808D100210A22C0
:100CF000084600F01FFE08B1072800D1002010BDF3
:100D000030B593B041F28B20ADF83C0014481190FF
:100D10000220ADF8400004253C216846FEF7A9FBFF
:100D200000240FA88DF8004009908DF8035021464B
:100D3000684600F0B6F920B10A4A4FF4087100F095
:100D400081F809484FF4C8518466C4660467446753
:100D50006830047004724181848113B030BD00009A
:100D60003C2100206C2E020094230020034873DFF6
:100D7000002802D1024A012111707047FC23002093
:100D800038210020022000F07FBC000070B5002454
:100D9000064D06E06868012110F8340002F094FB6B
:100DA000641C28788442F5D3002070BDB421002053
:100DB000F8B515460C460646052A01D20720F8BDAF
:100DC00002F068FC18B902F037FC0028F7D110498E
:100DD00000204E600C70C1E902500E4D08610DE01C
:100DE00006EBC4006968009181788DF801100078E5
:100DF000094A694602F0BAFB0028E0D1641EE4B259
:100E0000EED2BDE8F840054A0021024800F026B8BD
:100E1000B4210020905B020075290200A91F020086
:100E2000BFF34F8F05480168054A01F4E0611143A3
:100E30000160BFF34F8F00BFFDE700000CED00E045
:100E40000400FA050EB5ADF80010CDE901206A46A0
:100E5000002144F20100FFF7E3FF0EBD074B5B6882
:100E600023B12AB120B10068037C1BB10820704770
:100E7000072070474174426100207047D82100204C
:100E80002DE9F047074698461446894690074FF0EB
:100E9000000526D12CB303F0D7FC134E06F1100049
:100EA000C6F80C800570457080F80290446075604B
:100EB000357075701420FEF7C5FD07211420FEF76C
:100EC000F8FD1420FEF7D4FD084807600721112023
:100ED000FEF7EFFD0548001F0068B0600020BDE888
:100EE000F0870720FBE70000C8210020081501401B
:100EF0002DE9FC47DFF87890D9F8043073B368B374
:100F0000052902D20720BDE8FC87436933B3437C3F
:100F1000012B25D0002704460025884616468DF86B
:100F20000050684600F038F801A804F0FFFBC8B193
:100F3000012101700F4944600968C0E90218C0E945
:100F400004769DF8040089F801009DF8000000F087
:100F500047F81420FEF7A2FD2846D4E70820D2E780
:100F60000F46D8E704259DF8000000F039F8F3E7B4
:100F7000D8210020041501400649496839B130B133
:100F8000416921B100210174022103F057BF0820FB
:100F900070470000D821002030B5EFF3108172B601
:100FA0000D4A9468012324B10370002900D162B670
:100FB00030BD93604FF0E023D3F88051074C2540BB
:100FC0001560C3F88041D3F8844154605A17C3F8C0
:100FD000842100220270E8E778260020FC06FFBC8E
:100FE0000B498A68002A11D000280FD1EFF3108036
:100FF00072B60B684FF0E022C2F800314B68C2F8BD
:10100000043100228A60002800D162B670470000D7
:101010007826002040F6B831884201D3642070471A
:1010200040F6543188420AD96FF03901A0F6B83041
:101030004843642190FBF1F0C0F164000DE040F6FC
:10104000B42188420BD9A0F65430A0EB8000C00038
:10105000A02190FBF1F0C0F12A00C0B2704740F629
:10106000881188420BD9A0F6B420A0EB8000800044
:101070004FF4967190FBF1F0C0F11200EDE740F6ED
:10108000340188420BD9A0F68810A0EB8000400004
:101090004FF4AA7190FBF1F0C0F10600DDE70020EB
:1010A0007047F0B50C4693B01F210726ADF800102D
:1010B000ADF80410002750B1C17849070DD56A4634
:1010C00002A9FFF7B7FC002808D102AD02E0002515
:1010D000ADF800706CB1E07810B1304613B0F0BDDF
:1010E00001AA0AA92046FFF7A5FC0028F6D10AAA02
:1010F00002E00022ADF80470BDF80400C3B2BDF8F0
:101100000000C1B2284672DFE8E7000010B5018890
:10111000144C102918D011291CD01B2919D1007A80
:10112000002816D1E0780521401CB0FBF1F201FB4C
:10113000120000BF00F050F800280AD061690029B1
:1011400007D0BDE810400847C17B012901D1808844
:10115000208110BD00216171808821898842F8D1E9
:101160000120E7E78C21002010B5022801D00328D8
:1011700010D1094C607800280CD000206070E07815
:1011800000F02AF8002805D06169002902D0BDE8E6
:101190001040084710BD00008C21002010B574DFFE
:1011A0000B4C01200B4960710020E0710620C870D3
:1011B00000210848FFF775FF002807D1E07800F00C
:1011C0000BF810B1616901B18847002010BD000023
:1011D0008C210020E02400202DE9F0413D4C804688
:1011E00086B0207848B184F8038004A801F0A2F901
:1011F0000498012628B1667067E0082006B0BDE8B3
:10120000F0810025A561344FA583A577787810B1CA
:10121000E078012806D0B87858B1E078012801D0EC
:10122000022806D1216919B126710820884700E0FB
:1012300025714046FFF7C0FCE070216939B10328F1
:1012400001D0042803D1387808B1607990B1A57134
:1012500000950295019503958DF800508DF8085082
:101260001C48E1781830052925D2DFE801F0300864
:10127000111D2100E571A67107208847E8E7A670D7
:1012800001908DF80060ADF80C50ADF80A5014E0F4
:101290000221A17001908DF80060B889ADF80C00B2
:1012A0003889ADF80A0008E0684603F055FC02E012
:1012B000684603F075FCE07818B1684673DF0028D3
:1012C0009CD1216909B1A0788847002096E7A570D4
:1012D000F7E700008C210020C024002070B50546EF
:1012E00001461C220F48FEF7ABF80F4C0026267073
:1012F000286830B1016861604068A060201D7ADF15
:1013000002E00948001D7BDF00280AD14FF6FF707C
:1013100060806670BDE87040044A00210448FFF711
:101320009DBD70BDA424002078210020CD56020070
:10133000645B020070B51E4C068800231B49E289DD
:10134000102E15D01B4D112E1CD0122E29D0502E30
:1013500017D130F8061F914213D14189022910D1CB
:101360000C3000F0FAF888B1BDE8704000F03EBDE6
:1013700084884C800469CC60406908614B70002A05
:10138000F2D070BD4FF6FF7048804B702868FFF7B1
:10139000F3FD0028F5D0A1690029F2D0BDE8704026
:1013A00008478268CA60C0680861DDE778210020CC
:1013B000A4240020645B02007CB5054608880C4626
:1013C0000930904201D90C207CBD68466DDF0028B1
:1013D000FAD121880820685420881B21401C80B243
:1013E000208029542088401C80B220802844DDF8C9
:1013F00001100160BDF8051081802088801D80B239
:1014000020809DF80010490800D00121295420882F
:10141000401C208000207CBD10B50446FFF78AFFE9
:101420002146094800F044F8074821461C3000F0E6
:1014300019F9204600F094F9204602F07DFD20467F
:10144000BDE81040FFF762BED423002030B5174B33
:101450000D4604000FCB85B08DE80F0023D015B3E7
:101460004FF6FF70A0822868A0610020A075214679
:10147000684663DF002814D120788DF8120001201F
:10148000ADF81000A21C04A9A0DF002809D129464C
:10149000204603F010FA002803D12946204603F025
:1014A000ABFF05B030BD0E20FBE70000685B02001B
:1014B00010B5002822D0002920D00A88102A18D080
:1014C000112A18D0502A19D104468A1DC888238AA7
:1014D0001231984202D15389022B10D0A38898422E
:1014E0000CD1A369002B09D052892046BDE81040D9
:1014F0001847898801E04FF6FF71818210BD0846C8
:1015000000F02BF800B10120A07510BD07B584B024
:1015100068B1828AA2F57F43FF3B0AD0827D42B147
:10152000BDF81820142A06D9072007B000BD0E20E8
:10153000FBE70820F9E70022009201920292039251
:101540008289039106A90291ADF8002001218DF84E
:101550000210808A6946A6DFE7E7007800F0010004
:101560007047000000B51E4889B00023C06807908E
:1015700050221C4907A803F05FFB20B11A4A40F231
:10158000FF21FFF75FFC6A460121002003F03EFBCC
:1015900020B1154A40F20631FFF754FC0220ADF8A5
:1015A0000000684603F028FB20B10F4A40F20E31DC
:1015B000FFF748FC0D4803F015FB20B10A4A40F242
:1015C0001331FFF73FFC0A4803F06EFB002804D0FC
:1015D000054A40F21731FFF735FC09B000BD0000A5
:1015E000D85A02000C2300206C2E020019140200AD
:1015F000BD4C020010B51A4B044686B00FCB8DE8E7
:101600000F004AF62F30ADF810000DF112016846B8
:1016100063DF002821D14FF6FF702080A21C04A9AF
:101620000120A0DF002818D11E224AF630312046C2
:1016300003F04EFB002810D11E224AF6313120461D
:1016400003F046FB002808D11E224AF6323120461C
:1016500003F03EFB002800D0002006B010BD0000C3
:10166000205B02000A88102A05D0112A02D14FF609
:10167000FF71018070478988FBE700000149085C21
:1016800070470000345B020007490B5C4FF0A0413B
:10169000D1F804250120984020EA0203C1F808355A
:1016A0001040C1F80C057047305B02000249085C2D
:1016B000012102F023BA0000305B02000249085CFD
:1016C000002102F01BBA0000305B02000649095CF1
:1016D0004FF0A040D0F80405C84010F0010000D041
:1016E000012080F001007047305B02007CB50024CF
:1016F000084E25460122305D0095002311460195D4
:1017000002F0A4F9641C042CF4D3BDE87C4000F082
:1017100003B80000305B020010B500242046FFF73C
:10172000C5FF641C042CF9D310BD10B5002420465D
:10173000FFF7C4FF641C042CF9D310BD10B502469A
:10174000064B4FF0FF3000215C5C944201D108460B
:1017500010BD491C0429F7D310BD0000345B020002
:1017600010B51A4C0188606810290ED011292BD1B0
:10177000401E606028D1FFF7A8FA002824D0216815
:10178000002921D0BDE810400847D0B9002101222E
:10179000084600F0CFF808B107280FD10722022130
:1017A000012000F0C7F808B1072807D10422022160
:1017B000002000F0BFF820B1072802D0216801B155
:1017C00088476068401C606010BD000070210020E8
:1017D00010B5002000F0E2F908B1062806D101207A
:1017E00000F0DCF908B1062800D1002010BD00008F
:1017F0002DE9F0470D468146FFF7A0FF0446042877
:1018000038D2DFF878801C481D4EA8F1100735B398
:10181000012D0ED0022D2DD104EB4400304445782B
:10182000002D27D0F968002924D02846BDE8F047CC
:10183000084704EB4401755C0E44717859B179682E
:101840000E4A01EB810149000E3A8068FFF750FB18
:1018500008B987F80290B17808F80410E0E78068CA
:10186000FFF78AFB04EB4401314418F804008D783B
:10187000A842D5D0BDE8F087385B02006C2100207B
:101880005824002010B5254C0146042960882AD030
:1018900005291BD0072930D00A291FD1002000F0CC
:1018A0006BF820B11E4A40F2F911FFF7CBFAFFF7AF
:1018B0008FFF20B11A4A40F2FD11FFF7C3FA32DF61
:1018C00000280BD0164A40F2012123E0207830B1E5
:1018D000217801B174DF002800D1207010BDBDE86F
:1018E0001040FFF743BA132176DF0828F6D000280E
:1018F000F4D00CA240F22F310CE0A0F57F41FF396B
:10190000ECD1FFF74BFC0828E8D00028E6D005A270
:101910004FF44E71BDE81040FFF794BA3821002013
:101920006C2E02002E2E5C2E2E5C2E2E5C6D6169BC
:101930006E2E630070B50023042810D20D4D00EB0D
:101940004004012A02D101290CD00022094E00EBEB
:101950004000304461B1012906D0022906D0072396
:10196000184670BD0E30C2B22A55F9E74270F7E74B
:101970008270F5E758240020044A01460020127ABC
:10198000D20702D0084600F04FB870475C21002013
:101990002DE9F04106461F4800240F464160C0E98A
:1019A0000262B0071FD50025012211462846FFF725
:1019B000C1FF6D1C0446042D02D2002CF4D012E0AD
:1019C0008CB97A0804211448FFF7F2F904000AD10F
:1019D000FFF7DCF9040006D10F48104A0021001F70
:1019E000FFF73CFA0446F00701D0FFF77FFE74B919
:1019F00009480B4A00210C38FFF730FA040006D1E1
:101A00000548084A01210838FFF728FA044620460D
:101A1000BDE8F0815C210020445B0200BF1B020096
:101A2000DD2C0200850D02002DE9F047594C0546DA
:101A30000026607818B100206070FFF76DFE01206D
:101A4000554F4FF47A694FF4C87A4FF06408182D57
:101A50002CD2DFE805F0890C0C2C3A4751565A611C
:101A60005A619B6969696969898C8F929B9B002087
:101A7000FFF72CFE00284FF0000008D0FFF716FEFD
:101A8000022D02D14FF4E16006E0484604E0FFF782
:101A900015FE022D2ED05046B0FBF8F1257060687F
:101AA000414300223868FFF723FA064659E0002038
:101AB000FFF70CFE28B10020FFF7F8FD4FF4487047
:101AC000EAE70020FFF7FAFD14E00020FFF7FEFD33
:101AD00000284FF0000002D0FFF7E8FDD5E7FFF740
:101AE000EDFDD8E70020FFF7F1FD0028E9D0002048
:101AF000FFF7DCFDC820CFE70020FFF7C5FD25700C
:101B000007E000203FE025702BE060700120FFF728
:101B1000BBFD00226168C5E760700120FFF7B4FDDE
:101B2000606800EB8001BCE77868FFF725FA06469D
:101B3000D5F1110000D01EB10220FFF7B7FD10E073
:101B400001280BD9C82110FB01F1B1FBF8F1606845
:101B5000002241437868FFF7CBF906460220FFF7E1
:101B6000ADFD3046BDE8F087FFF7D6FDCBE7FFF7C8
:101B7000D3FDC6E7FFF7D0FD04E0FFF7CDFD002061
:101B8000FFF79CFD0120FFF799FDBCE7FFF7CDFDB6
:101B9000B9E700005C210020385B020010B5FFF7B8
:101BA0006DFD032101F076FF002010BD002901DA50
:101BB00000207047026811440160012070470078DE
:101BC0000221FFF715BE000005494FF0FF3208283B
:101BD00041F8202002D3084480F8482070470000D4
:101BE00088250020F0B54FF0FF3512B100230826FC
:101BF00001E008230C260C4C05E000BF54F82370CC
:101C00007F1C04D05B1CB342F8D32846F0BD2618D5
:101C10005DB286F8305044F82310002AF5D1E1185F
:101C200081F84800F1E700008825002002490844B7
:101C300090F93000704700008825002038B1054930
:101C4000814204D80449814201D901207047002013
:101C5000704700002422002034220020044A01683A
:101C6000914201D0083101E00149383901607047E3
:101C70006027002070B5084C050009D01034216899
:101C8000002907D008682060496828468847F6E799
:101C90000834F4E770BD0000742500202DE9F05FE2
:101CA00026484168F1B3DFF898B00E688146DBF84A
:101CB000004087688078E11B21F07F45ED1CB0B9BA
:101CC000DFF880804FF48030C8F84403C8F804037C
:101CD0001120FDF7B7FE1120FDF7CAFE4FF0010AF3
:101CE000C8F800A02F2001F027FB89F802A0B54218
:101CF00000D23546124BE8193C3320F07F40186083
:101D0000DBF800105A46091B21F07F41001B20F030
:101D10007F40C91C81420FD9106818602F2001F044
:101D20000BFB00E004E0BDE8F05F1120FDF7B6BE5C
:101D3000BDE8F05F02F088BDBDE8F09FC82100203B
:101D400004150140001001402DE9F04117880646B6
:101D5000B81D14460D46984202D90C20BDE8F0810A
:101D60003188072206290AD34FF4486C4FF6FF73D7
:101D7000614501D9994202D17088062801D21046E6
:101D8000ECE7604501D99842F9D1994203D09842D5
:101D900001D08142F3D80520E85520881221401C4B
:101DA00080B2208029542088401C80B220804119B4
:101DB000308803F086FC2188084480B220804119D5
:101DC000708803F07EFC2188084420800020C5E74D
:101DD00002A240F2D911FFF735B800002E2E5C2E7A
:101DE0002E5C2E2E5C6D61696E2E6300F8B5134873
:101DF00000F060FF114D0026114C0C3D30B16169BF
:101E0000B9B101208DF80000684611E0287820B1B2
:101E1000616971B18DF80060F6E7687858B1A16822
:101E2000084800220068FFF763F810B1A16901B10A
:101E300088472E70F8BD6168F2E700008421002019
:101E4000A4240020645B02002DE9F04107461648F7
:101E500042F222211D460079164600F07F00441808
:101E60002146384600F048F908B1012819D12B461F
:101E700032462146384600F06DFA002811D0072876
:101E80000FD100F055F9052003F0D0FC2B46324667
:101E90002146384600F05EFA0446012003F0C6FCF5
:101EA0002046BDE8F081000054210020FEB5164810
:101EB000C568103000F00EFD044600F0E5FC611C22
:101EC00020D0260C40EA042084B200F0F9FC44EA59
:101ED00006410090CDE90151014641F2111403235E
:101EE0006A462046FFF7B0FF00280BD14FF6FE757B
:101EF0002946204600F000F903236A462946204679
:101F000000F028FAFEBD0000382100202DE9FF4135
:101F10000C4618B1012004B0BDE8F08120790027FB
:101F2000DFF87C80012638B141F61D5501281ED00E
:101F3000022829D00F20EEE702970397E06801906E
:101F4000694601A802F0CCFB68B102988188E18063
:101F500000882081029802F037FCBDF8002008EBD1
:101F600002118E7300E00A2002212171D3E70D4B8C
:101F70006A460021A01D02F06FFB38B109490839FB
:101F80008F60CF600A28C6D12846C4E7019802F0C6
:101F90001BFC04498A8808EB02118E73F2E70000EB
:101FA00070270020F02100202DE9F04100260125B6
:101FB000144C22E06068226900EBC607387805FA05
:101FC00000F1114217D08A43226101F02BFB024637
:101FD0003878E36805FA00F1194002FA00F39942F3
:101FE00009D17978012901D0012100E00021514077
:101FF0007A6802B19047761CF6B220788642D9D32F
:10200000BDE8F081B42100200E4910B50A784C7863
:102010000023A24212D0521CD2B20A70022A00D16E
:102020000B70084A0B78183252F823200260886837
:10203000104420F07F408860012010BD0360002024
:1020400010BD0000C821002010B503780022072B26
:1020500006D2DFE803F00504060C1C252B000A70ED
:1020600010BD01220A7002898A81828814E002224E
:102070000A7002898A818288CA81C2688A60007C6B
:10208000062802D00020087410BD0120FBE70322BF
:102090000A70C2888A810289CA81C068886010BDBE
:1020A00004230B70C0888881CA8110BD0520087088
:1020B00010BD000070B5064D0646002455F82410EA
:1020C00009B130468847641C082CF7D370BD000066
:1020D00090260020064910B500204860054800F011
:1020E00027F9002803D1BDE8104000F043B810BD27
:1020F000542100209D30020070B586B000240D46AA
:102100000646ADF80840019404E003A800F0C2F8C8
:10211000641CA4B201AB03AA2946304600F0DCF8E7
:102120000028F2D014B1002006B070BD0120FBE7FA
:1021300000B50E4887B00078800702D4022007B0AF
:1021400000BD06208DF8000000221146684602F00E
:1021500011F840B10648017809B10121C17202F0BD
:1021600055FA0020EBE70820E9E70000E82100200D
:102170008027002000B58DB014216846FDF779F95D
:102180001E480078810703D56846FFF793FF33E0C8
:10219000C00731D1012000F007F900F073F902F017
:1021A00085F870B106280FD001218DF814100C2885
:1021B0001BD2DFE800F01A101A101A181A181A1297
:1021C00016120B200DB000BD022000F0EDF801202A
:1021D00000F0E2F8D8E7002000E003208DF81800B6
:1021E00003E00220FAE78DF818100022114605A836
:1021F00001F0C0FF02F00AFA0020E3E7E821002026
:1022000070B588B00646002014460D460290039033
:1022100017E0694604A800F067F800281AD10023E7
:10222000019805E050F8231044F823105B1CDBB242
:10223000009949889942F5D804A800F00DF80028C3
:1022400008D102AB04AA2946304600F045F8002820
:10225000DFD0002008B070BD38B5040011D0694649
:1022600002F03EFA88B10A48BDF8001000EB0110F8
:10227000818941B1A27A32B1491E81810020A072C8
:1022800038BD052038BD062038BD0A2038BD000005
:102290007027002000B50F4987B00978890702D45C
:1022A000022007B000BD80B104218DF8001000218C
:1022B0008DF80410006803900A46684601F05AFF42
:1022C00028B102F0A3F90020EBE70520E9E7082098
:1022D000E7E70000E82100201FB501A9684602F0E9
:1022E000BBF904B010BD000038B50D46040015D090
:1022F000A5B1694602F0F4F990B10A49BDF8002091
:10230000606801EB02129189491C91812860606824
:102310000C3068600120A072002038BD052038BD57
:102320000A2038BD702700200223002203F09ABA49
:10233000064A5178082906D0054B43F82100491C6C
:102340005170002070470C2070470000E8210020E9
:102350009026002070B588B000240E4D06E000BF26
:1023600052F8246045F82460641CE4B29C42F7D320
:10237000ADF8000003A801900120ADF80210ADF8FF
:1023800008000395ADF81030694605A8FFF7CCFFAB
:1023900008B070BD0C24002002490A7882430A70FC
:1023A00070470000E821002002490A7802430A70C1
:1023B00070470000E821002010B5002821D0114B03
:1023C0000022001F196803E0814203D80A464968C9
:1023D0000029F9D152B11368841A9C4204D10068D3
:1023E00018441060104602E0506000E0186039B1F7
:1023F00002680B1A934203D10B681A4402604968C1
:10240000416010BD1C220020F8B506461A481F4640
:10241000154600780C46C00708D03046FFF70EFC82
:1024200030B13CB1200507D00620F8BD0120F8BD31
:102430000220F8BD0320F8BD3068A04204D87168BE
:1024400004EB0530884201D90520F8BD7DB168460E
:1024500002F02AF868B100980221C0E90067017211
:10246000210B8181058202F0E1F80020F8BD0420F3
:10247000F8BD0720F8BD000000220020084602F049
:102480002FB800002DE9F0472748284C4FF01021C5
:10249000001B0209496910464B1C03D14FF08051C3
:1024A00049690903DFF888A09AF80070FB0702D099
:1024B0000020BDE8F0870023A14607E009EB0314E4
:1024C000256815B1646804B1401E5B1C9342F5D3C6
:1024D000002422E0002504F0FF0C2B4613E000BF8F
:1024E00009EB0316D6F80080B8F1000F04D0D6F837
:1024F0000480B8F1000F05D1767BAE4202D9354693
:1025000003F0FF0C5B1C9342EAD309EB0C13641C31
:1025100059601D7BA1EB053119608442DAD347F085
:1025200001018AF80010C3E7342200202422002091
:102530000022002020B10349496E0160002070474D
:10254000032070478C2700202DE9F84307461D48DB
:10255000DDF820801E46007815460C46C0070CD0DA
:102560003846FFF76BFB50B15DB154B145EA04004A
:10257000800708D00620BDE8F8830120FBE7022091
:10258000F9E70320F7E73868A04204D8786804EB3D
:102590008601884201D20520EDE77EB1684601F050
:1025A00083FF68B100980121C0E900780172C0E999
:1025B0000354868202F03AF80020DCE70420DAE7D0
:1025C0000720D8E70022002070B5174A17490446B3
:1025D000106E0B7800EB400002EBC0009D0715D594
:1025E000022C02D0032C1BD102E001F099FD17E070
:1025F0004A78521CD2B24A70032A11D900224A707A
:10260000082102F027FA01F039FF09E0580707D541
:1026100023F004000870526E12B140F002000870FE
:10262000BDE8704001F0BABF8C27002000220020D6
:102630000EB51BA19DF8080020F00F00401C20F0F3
:10264000F00010308DF80800062202A87CDF20B1CF
:10265000154A40F26511FEF7F5FB40F2413078DF94
:1026600020B1114A4FF4B471FEF7ECFB002000904A
:1026700001900621ADF80400ADF800104FF4C870C9
:102680000821ADF80600ADF8021068467ADF002890
:1026900004D0054A4FF4B971FEF7D4FB0EBD00001B
:1026A00058543541464400006C2E020070B508B104
:1026B000012070BD184C0025E07A08B1E57201E0F8
:1026C00000F0A2F82078082824D2DFE800F02304E4
:1026D000080C1023141EBDE8704000F01FB8BDE8C0
:1026E000704000F07FB8BDE8704000F061B8BDE810
:1026F000704000F037B808496088103901EB0010CD
:102700004068BDE8704001F0B1BD6560BDE8704053
:1027100001F0BABD0F2070BD802700201049F0B431
:102720008A1C00200346A1F110050C18A67A3EB1C0
:10273000A37205EB0014A68916B9A47B012C0AD05C
:10274000401C0004000CF0D00B704B804B60F0BCC0
:1027500041F61D5070471080F0BC00F043B80000F7
:102760008027002010B50F4CA4F11001608801EB08
:102770000010818961B1052020700B4802210023DF
:1027800081800168BDE8104001220848FFF73CBE87
:102790004168002301220548FFF736FE042121701D
:1027A00010BD000080270020F821002024220020F6
:1027B00038B50A49084803240B684268898803EB46
:1027C0008101538804700020DB1C00909BB20448F8
:1027D000FFF7BAFE38BD000080270020F821002056
:1027E00024220020074910B54888091D01F0C6FFC2
:1027F00018B1BDE81040FFF7DBBFBDE81040FFF7A0
:10280000B1BF000080270020F0B51D481D490125FB
:10281000067802248B88A0F11002082E18D2DFE877
:1028200006F00417171A212C2C160189491C018166
:102830000021418080F80B1002EB01131B7843B19B
:1028400000234418491C0904A372090CF4D0057034
:10285000F0BD0123F5E742685288D21C1A448A80F1
:102860000470F0BD46880D6802EB061256680E60D3
:10287000556013818C80062100E007210170F0BDB6
:1028800080270020F821002008B56946002000F0CC
:10289000CBFF08B1012008BDBDF800004FF4167150
:1028A00010FB01F0C11700EB9150801200EB4000CB
:1028B0004FF4877101EB400080B2FEF7ABFB08BD1F
:1028C000034842F222218088084480B27047000009
:1028D000542100201FB5044601F01EF8002001908D
:1028E00002901FA00223006803900120009003AA19
:1028F0004421204601F086F8002808D1062301AAC9
:102900004421204601F06CF818B14FF0FF3004B0BC
:1029100010BD204600F0E8FF9DF805009DF804106A
:1029200000EB0120FCF7D6FE9FED0E1B53EC112BA4
:10293000FCF761FE9FED0D1B53EC112BFCF755FED0
:10294000FCF7D5FE9DF808109DF8072001EB022149
:1029500040F28F22B1FBF2F189B241EA0040D6E7A2
:102960002C060000EC51B81E85EB0D400000000065
:102970000094B1402DE9F041124E07460125BD40BB
:102980003068FEF7F9FA00280DD10F4C2069284273
:1029900007D1384600F046FE0028E06805D02843FD
:1029A00004E0A8432061BDE8F081A843E06020690D
:1029B00028432061A1683068BDE8F0410022FEF79D
:1029C00097BA0000905B0200B42100208188A1F535
:1029D0007F42FF3A03D0008808B1012070470020F1
:1029E00070470000094810B5007800280CD001217C
:1029F000132001F078F8052000F00DFC0021BDE85F
:102A00001040132001F06FB810BD000038210020E5
:102A10002DE9F0410F4628B10120FFF7BDFC012050
:102A2000BDE8F081397961B10026264D01290DD02C
:102A3000254C4FF002080229206822D003293CD1FE
:102A400028E001F021FC0121397134E05FF0000041
:102A500005EB0011097802290CD0401C0004000C81
:102A6000F6D00220FFF7A0FC0120FFF795FC41F60D
:102A70001D50D5E705EB0014606801F0F7FB2670E8
:102A800019E00146002301221048FFF7BDFCA4F81D
:102A900004800FE001F0EAFB0A49226810314988FE
:102AA00005EB01114B6823604A60A2880A81A4F8F3
:102AB00004800E703E710028B2D00120FFF76CFC3C
:102AC0000E20ADE770270020F821002024220020EE
:102AD000F8B51E4C2078002836D0E068002668B192
:102AE0000025607800282FD1684648DF052807D0E8
:102AF00040B1174A8921FEF7A5F90AE00125F0E760
:102B0000012606E0009800F099FC216909B10098BF
:102B10008847ADB96078002816D16088ADF800000C
:102B20006946A06861DF052805D030B1084AAE21AA
:102B3000FEF788F904E0012502E0D4E902018847A4
:102B4000002ECED0002DE4D0F8BD000004220020DD
:102B5000445C02000149024800F004B8002600204D
:102B6000003000402DE9FF470D464FF492770446B0
:102B7000394601F091F94FF002094FF001084FF486
:102B8000827640B13946204601F08BF93146204625
:102B900001F082F9B0B3B2463146204601F07CF92B
:102BA0004FF0FF36002770B35146204601F079F907
:102BB00005F10C0001AB07C883E8070095F8230076
:102BC00078B1287B01282DD0D4F84C05C0B28DF8FF
:102BD0000600287B022828D0D4F84C05C0B28DF816
:102BE00007004FF4B071204601F05BF94FF4AE716D
:102BF000204601F056F995F8250080B395F823009A
:102C000068BB3CE000E013E0A868C4F80803C5F81E
:102C10000890A868C4F80403C4F82080C4F814809D
:102C2000BDE8FF87D4F83C05D0E7D4F83C05D5E7EC
:102C30004FF4A471204601F034F9287B80B14FF4A1
:102C40000070C4F80002801CA860C4F80863A8687B
:102C5000C4F80403C4F80880C4F82080E0E708E062
:102C600005F10C0001AB07C883E8070095F82500C3
:102C700028B90020C4F80002AF60C4F80863D4F893
:102C8000C404C4F8C404810702D58DF8008006E0AE
:102C9000400702D58DF8009001E08DF8007095F89E
:102CA000250008B985F82470D5E9002168469047C9
:102CB000B6E70000054940880A88904204D3498855
:102CC000884201D801207047002070477C210020F5
:102CD000800701D000207047012070470348017A27
:102CE000C90702D00078FEF79FBE70475C21002024
:102CF0002DE9F043264CA4F110092278D9F804807C
:102D000099F80350404694F801C0D9F8086031E0C2
:102D100002EB42036168521C01EBC301A378D2B2FB
:102D2000934200D100220B78022B02D0032B21D139
:102D30001DE003464F68194603E0B94203D00B4635
:102D4000C969B9B1F9E7A9B18B4205D1C06918B910
:102D5000104E0125B56000260F68C969D96149B1D7
:102D60000B683B440B6005E00174C06900E0002182
:102D70000028F9D19445CBD1C9E9010689F803505F
:102D8000404502D00120BDE8F0830020FBE70000B1
:102D9000D8210020001001402DE9F0412A4F0446BF
:102DA000002607F11005D7F804803EE002D0204647
:102DB000E4691DE02878696800EB4002401CC0B25D
:102DC00001EBC2012870AA78904200D12E700A78D7
:102DD0004868012A2BD1027C4ABB8A684260CA68D3
:102DE00082600A69C26049698161F97801B146600F
:102DF0004368BA68DFF854C0991A21F07F416145F1
:102E000002D28268114406E0D11A826821F07F4123
:102E10008A4202D9511A016000E006604660012131
:102E200086600174C66101F0EBFF002CBED12878EA
:102E300069788842BED17968414502D00120BDE859
:102E4000F0810020FBE70000C8210020FFFF7F0089
:102E500010B5002000F0B6FF002805D0BDE81040F6
:102E600002A28521FDF7EEBF10BD00002E2E5C2EC4
:102E70002E5C2E2E5C6D61696E2E630088B0FEF7AD
:102E800035FC4FF4FA6000F0C6F9FFF7E1FF0023CC
:102E9000434A05211846FDF7F3FF20B141A240F255
:102EA0006B31FDF7CFFF40F6CD44002221460120D3
:102EB000FEF76EFD20B13BA240F26D31FDF7C2FF7F
:102EC00002F044F83B4A21460320FEF761FD20B999
:102ED000052202210020FEF72DFDFEF743FBFFF740
:102EE000A7FBFDF77BFDFDF70BFF334800902C4857
:102EF000002469467830FEF7A9FA18B928489430BA
:102F0000FEF778FB1C216846FCF7B3FA4FF400404B
:102F1000CDE900404FF47020029003208DF80C00A2
:102F20002648059026480690ADF80E408DF81040D2
:102F30006846FEF7D3F920B1224A40F2EF11FDF7BF
:102F400081FF214802F01AF9FFF7C4F820B115A259
:102F500040F29531FDF776FF002002F067FC4FF458
:102F60007A74204600F057F902F078F8204600F015
:102F700052F902F02BF8FDF7F9FE20B109A240F258
:102F8000C231FDF75FFFFEF7D0FB40F25A343EDF5F
:102F90000028FCD00B4A2146FDF754FFF7E700005C
:102FA0005C2300202E2E5C2E2E5C2E2E5C6D616923
:102FB0006E2E630085180200E93E0200ED4002001B
:102FC000D11D02006C2E020048210020F0B50B300C
:102FD000154D20F007010024144A0FE003688B42CE
:102FE0000BD38B4205D95E1A43184768C3E90067C3
:102FF00000E04368136002C004E0021D106800286E
:10300000ECD12046002802D1286808B10020F0BD8C
:10301000064A07481060074A121A22F00702C0E960
:10302000002401202860D7E7202200201C22002055
:103030009C2A0020984A002070B5144682880E46CB
:1030400005462088111D0144921C994201D8FE2A90
:1030500001D90C2070BD521C32542088FF21401C25
:1030600080B2208031542088401C80B22080811999
:10307000288802F026FB2188084480B22080AA8894
:1030800042B1A96841B13044FCF7DAF92088A98837
:1030900008442080002070BD072070BDFEB50446A6
:1030A00000200090019002902778A689E1890125EF
:1030B000A0684FF6FE72062F1CD2DFE807F0030867
:1030C000212B25396068002814D11C4834E0606841
:1030D00000280FD11A48057091420CD0A1F57F400D
:1030E000FD3808D06A463046FFF78AF8154841682F
:1030F000491C4160FEBD6A463046FFF781F8FEBDBF
:1031000060680028F7D0FEBD60680028FBD1FFF79B
:103110000FF8FEBD61680029FBD11921B0FBF1F366
:1031200001FB1301022906D2904204D0FFF700F8F8
:1031300060680028EDD104480570FEBD50210020D4
:10314000522100205421002051210020F8B50E46C4
:10315000017814460546012901D1687830B12088EC
:10316000821C9A422DD8012902D006E00720F8BD22
:1031700069780144891C994223D8181A801E87B2A5
:10318000ADF800702188B01C084469467DDF002836
:10319000EDD12878022805D1BDF80010B94201D838
:1031A00009210AE00821012805D16878B84202D82F
:1031B000ADF8000001E0ADF80070BDF80000FE2899
:1031C00001D90C20F8BD2288401CB0542088401C36
:1031D00080B2208031542088401C2080BDF800102F
:1031E000084420800020F8BDC20800F00703012039
:1031F000895C98400840704700F1804000680028D2
:1032000000D00120704708B500F180400021016026
:103210000068009008BD4FF47A714843AFF3008016
:1032200000283ED01F49204A096800BF00BF00BFE8
:1032300000BF00BF00BF00BF00BF91422FD000BF42
:1032400000BF00BF00BF00BF00BF00BF00BF00BF86
:1032500000BF00BF00BF00BF00BF00BF00BF00BF76
:1032600000BF00BF00BF00BF00BF00BF00BF00BF66
:1032700000BF00BF00BF00BF00BF00BF00BF00BF56
:1032800000BF00BF00BF00BF00BF00BF00BF00BF46
:1032900000BF00BF00BF00BF00BF00BF00BF401E97
:1032A000C3D17047182200200024F40000283ED02B
:1032B0001F49204A096800BF00BF00BF00BF00BF10
:1032C00000BF00BF00BF91422FD000BF00BF00BFB2
:1032D00000BF00BF00BF00BF00BF00BF00BF00BFF6
:1032E00000BF00BF00BF00BF00BF00BF00BF00BFE6
:1032F00000BF00BF00BF00BF00BF00BF00BF00BFD6
:1033000000BF00BF00BF00BF00BF00BF00BF00BFC5
:1033100000BF00BF00BF00BF00BF00BF00BF00BFB5
:1033200000BF00BF00BF00BF00BF401EC3D1704739
:10333000182200200024F40000283ED01F49204A13
:10334000096800BF00BF00BF00BF00BF00BF00BFD3
:1033500000BF91422FD000BF00BF00BF00BF00BF21
:1033600000BF00BF00BF00BF00BF00BF00BF00BF65
:1033700000BF00BF00BF00BF00BF00BF00BF00BF55
:1033800000BF00BF00BF00BF00BF00BF00BF00BF45
:1033900000BF00BF00BF00BF00BF00BF00BF00BF35
:1033A00000BF00BF00BF00BF00BF00BF00BF00BF25
:1033B00000BF00BF00BF401EC3D1704718220020CD
:1033C0000024F40070B50F4C0025207808B1852545
:1033D00016E00021A16061602161E1604FF0E02012
:1033E000D0F80001012610F0010F03D107210020C1
:1033F00000F029F801F052FC08B903480660267075
:10340000284670BD742500201805004038B50020FE
:103410008DF800006846FDF7BFFD074C207808B91D
:10342000FFF7D0FFE068401CE0600120A0709DF82D
:103430000000FDF7D5FD38BD74250020002801D11E
:10344000FEF718BC70474907090E002806DA00F09D
:103450000F0202F1E02282F8141D03E000F1E022E5
:1034600082F8001400F01F02012191404009800001
:1034700000F1E020C0F88012C0F800117047000091
:1034800038B50F4A904218D100208DF800000D4643
:103490006846FDF781FD0B4C207928B19DF80000AE
:1034A000FDF79EFD112038BD012020719DF8000020
:1034B000FDF796FD0020256038BD072038BD0000CF
:1034C00000300040AC2100202DE9F041884605463F
:1034D00000F0BCFF234E002828461AD0FEF7A6FBBA
:1034E000304490F848008009032802D001280ED00B
:1034F00007E04FF0A040D0F81005E84010F0010FB1
:1035000005D003212846BDE8F04100F0D4BA0221DD
:10351000F8E700F0A7FF002822D02846FEF786FB38
:1035200004464FF4807000EB84000F4F81B207EB2C
:103530008400D0F8102542F00102C0F8102508469A
:1035400000F0FCFAB8F1000F0AD02846FEF76EFB37
:1035500056F82000002803D00120A040C7F804033B
:10356000BDE8F08188250020006000402DE9FC4185
:10357000DFF8A480044608EB0400002790F930002F
:103580001346C0170E46401C01D0082741E0F278D0
:1035900019462046FEF726FB0546401C38D0B07879
:1035A00050B14FF0A04000EB8400D0F8001721F09C
:1035B0000201C0F8001707E000217378204600914F
:1035C0000A46019100F054FAF078C0B113483178FE
:1035D00000EB8500D0F81025114B1A40C0F81025DB
:1035E0004FF4F8524FF4403302EA042203EA014157
:1035F0000A43D0F810150A43C0F8102509E008EB7B
:103600000500327810F8481F41EA8211017000E08D
:1036100004273846BDE8FC81882500200060004072
:10362000FFE0FCFF4FF0A041D1F81015C14011F0B0
:10363000010000D00120704770B5144D95F854007A
:1036400008B1082070BD0020411E2A18401CC0B2DD
:1036500082F830102028F8D300242046FEF7B4FA70
:10366000641CE4B20C2CF8D307210620FFF7EBFE14
:103670004FF4BE7000F062FA05494FF00040C1F807
:103680000403012085F85400002070BD8825002027
:1036900000600040034890F85400002800D001204A
:1036A00070470000882500200121B1EB507F01D137
:1036B00001207047002070472DE9F041254C064657
:1036C00012200D46C4F80803234890F82920022A46
:1036D00018D001464FF4807891F82B10012A13D0AE
:1036E0000222C4F80423012780F82970466005816E
:1036F0000022C26021B3C58290F82A10304600F043
:1037000073FB25E0122002E0C2682AB10220C4F84F
:1037100004031120BDE8F081C660858261B9474687
:10372000384600F0A7FB0028FAD0384600F0AAFB84
:103730002946304600F058FB0220C4F8040307E095
:103740002946304600F050FB404600F09BFB2760C6
:103750000020DFE7007000402826002070B50F4AE7
:1037600005460C4692F8290008B1112070BD02EB05
:103770004501087E18B912F82A0F401C1070E07934
:103780000876207A48762146284600F035FB227AD2
:10379000E179284600F064FB002070BD2826002057
:1037A0002DE9F0411C4C054694F8280010B1082082
:1037B000BDE8F08109B115B102E00720F8E7174D27
:1037C00044F8101B164928780860091D68780860BD
:1037D000E878E0760127277600206076A0762060E2
:1037E000104E20776FF00040C6F808034FF4827047
:1037F00000F048FBA9780720FFF725FE0220C6F855
:103800000403E07E10B10120C6F804030448F03838
:1038100007600020CCE70000282600208C5B020017
:10382000F0750040007000402DE9F0412C4D8046BD
:103830000B4695F8290010B11120BDE8F081012454
:10384000284E85F829400322C6F808232146184649
:1038500000F0CAFA95F82A00012809D900270022A9
:103860001146384600F0FCFA7F1CFFB2082FF6D351
:1038700005EB4800427E017E404600F0F1FA002749
:1038800034601848001D046042F210744FF48278CE
:1038900000E0641E404600F0EDFA08B9002CF8D1B3
:1038A000404600F0EFFA95F82A0001280BD90024D1
:1038B00005EB4400427E017E204600F0D1FA641CF4
:1038C000E4B2082CF4D395F82B0008B1032000E0F3
:1038D0000220C6F80403384685F82970ADE70000D9
:1038E000282600200070004001790A4A01EB81017E
:1038F00002EBC101006800228A60531EC0F8083341
:10390000D0F80032C0F80022C0F80025012081F86C
:1039100022007047002600200179064A01EB810150
:10392000006802EBC1010622C0F80025022081F8E0
:1039300022007047002600202DE9F0410646174678
:1039400000790D46244A00EB800102EBC104984641
:1039500094F8221011B10820BDE8F0811F4951F8F8
:1039600020103068FFF78CFD08B11120F4E7C4E99E
:1039700000780020A06084F8250084F82400A87B4B
:1039800084F82700687B10B1284601F0A1FB296864
:1039900040F20C60890001F1A041C1F8000769689C
:1039A000890001F1A041C1F80007D5E90012306893
:1039B000C0F80815C0F80C25A968C0F824152068BF
:1039C00028B13068297B000B40B2FFF73CFD012095
:1039D00084F822000020BFE7002600207C5B020064
:1039E0003EB5074D6C68ED6800948DF801100192AA
:1039F00002958DF802300022694600F015F83EBDB0
:103A00007C5B02003EB500250095069C8DF80110F8
:103A100002958DF8023001920CB1202200E00022C4
:103A2000694600F001F83EBD30B40379064C03EB63
:103A3000830304EBC304006813460A46014620468C
:103A400030BC01F0A9BB00000026002070B541EA9F
:103A50004201DDE904564FF0A04441EA830141EA06
:103A6000052104EB800041EA0641C0F8001770BD53
:103A700070B541EA4201DDE904564FF0A04441EA45
:103A8000830141EA052104EB800041EA0641C0F8C8
:103A9000001770BD4FF0A04202EB8000D0F8002765
:103AA00022F44032C0F80027D0F8002742EA014152
:103AB000C0F8001770474FF0A04202EB8000D0F82A
:103AC000002722F44032C0F80027D0F8002742EA4D
:103AD0000141C0F8001770474FF0A042012181401A
:103AE000C2F80815704701224FF0A043824011B17F
:103AF000C3F808257047C3F80C25704701224FF022
:103B0000A043824011B1C3F808257047C3F80C25C3
:103B10007047000018B5084B6C4601441B680093C1
:103B200006E000BF54F82030D3F81035401C08C21E
:103B30008142F7D818BD0000785B0200034908B540
:103B40000844002101600068009008BD006000404A
:103B500002494058012800D0002070470060004012
:103B6000004870478D3B020070B5074D0446287829
:103B700010B16878844204D0FCF796F801202870D0
:103B80006C70002070BD0000022200202DE9F04F73
:103B9000C1B017464FF00002080040924D994B9A71
:103BA0001E4602EB010A01D00A2100E000218846EE
:103BB0006D46AEB9294640AA01F036FA00286FD00A
:103BC0003846FBF761FCC22800D9C2200446409861
:103BD000224628443946FBF733FC40982044409065
:103BE0004FF0200B409901EB080231320DEB01043C
:103BF0000DEB0205002002E004F801BB401C40452B
:103C0000FAD30027564508D304F801BB04F801BBDA
:103C100004F801BB05F801BB2DE04B98864202D2A7
:103C20004A98805D02E0311A4C98405C012181463F
:103C30000246880022FA00F000F00F00092801D99E
:103C4000373000E03030C1F1010C234604F80C009D
:103C5000491EEED29C1C04F801BBFBF7EDFB01688A
:103C600011F8090010F03E0F01D0484600E02E2068
:103C700005F8010B761C7F1C102FC3D30D20287074
:103C80000A20687084F800B0409968464144433186
:103C9000409100F005FF18B1002040905645A1D397
:103CA00041B03046BDE8F08F2DE9F041C6B09046F6
:103CB0000846002505AE1C464C9F314645AA459551
:103CC00001F0B2F9002835D0072F27D2DFE807F03E
:103CD00004121B35424F5D004046FBF7D5FB45996A
:103CE00005460844FF2819D870182A464146FBF7B4
:103CF000A7FB13E045982368C0F580713044424625
:103D0000FCF7F6FB09E06068009045982368C0F571
:103D1000807130444246FCF7EBFB0546294645A836
:103D2000FDF744FF459978B3B1F5807F3ED805A8EB
:103D300000F0B6FE46B0BDE8F081D4E90101CDE95E
:103D4000000145982368C0F5807130444246FCF775
:103D5000CFFBE2E7201D07C88DE8070045982368E0
:103D6000C0F5807130444246FCF7C2FBD5E7201D08
:103D70000FC88DE80F0045982368C0F58071304466
:103D80004246FCF7B5FBC8E710E004F1080001ADBE
:103D90000FC885E80F006068009045982368C0F55B
:103DA000807130444246FCF7A3FBB6E70020C1E730
:103DB00000487047A93C0200014AC2E9050170476A
:103DC000F427002070B50120FFF7CEFE040008D1D3
:103DD000FFF7EEFF0546FFF7C3FE01462846FFF753
:103DE000EBFF204670BD0000024A1060101D01600C
:103DF000704700002C76004010B50A784B783024CC
:103E000002F0030204EA03131A438B784FF4E064D0
:103E100004EA03231A43CB784FF4805404EA0333B3
:103E20001A430B794FF4E02404EA03431A434B7915
:103E30004FF4801404EA03531A438B79240104EAF3
:103E400003631A43030105481844C0F81825CA79CA
:103E5000097AC0F81415C0F8102510BD0070004094
:103E6000030103481844C0F81425C0F81015704722
:103E70000070004002494058002800D001207047DF
:103E800000700040034908B5084400220260006841
:103E9000009008BD007000404058002800D001206C
:103EA000704708B5002242504058009008BD405865
:103EB000002800D00120704708B500224250405829
:103EC000009008BDD0F80403084000D001207047DE
:103ED0004058002800D00120704708B50022425009
:103EE0004058009008BD000070B50020401C02281A
:103EF000FCD30D88FEF7E4FC0D4C8542208116D2E0
:103F00008038854201DDE58000E0E080E1880948F5
:103F100000F048FA00280AD0012808D1E088401CA7
:103F200081B2E180BDE87040024800F03BBA70BD4C
:103F300038210020D423002070B55E4D044600884F
:103F40006E8888B03B2878D022DC102831D010DC75
:103F5000012842D0022858D1A088002167DF00281C
:103F600053D055A240F2A52108B0BDE87040FCF73F
:103F700069BF11284BD0132847D100231A46852149
:103F800030467FDF002840D04BA24FF42371EBE78F
:103F900050287CD0512859D0522842D0562834D1AC
:103FA000A088132176DF00282FD043A24FF4287178
:103FB000DAE7002028700720FDF7DEFC20B13EA2E2
:103FC0004FF41871FCF73EFFA088688008B001210B
:103FD000BDE870401220FFF786BDE888401C81B222
:103FE000E9802889814205D208B03748BDE8704091
:103FF00000F0D8B909D14FF6FD71334800F0D2F97D
:10400000002802D1E888401CE88008B070BD00217B
:104010001220FFF768FDFCF7A9FE4FF6FF706880DD
:10402000F3E700231A4619463046A9DF0028ECD0F2
:1040300021A240F2922197E7FFE7A088132176DFC3
:104040000028E2D01CA240F299218DE71022A11D88
:1040500004A8FBF7F5F99DF810100029D5D09DF8BC
:104060001800042803D0062801D00528CDD1022944
:1040700013D001208DF800004FF4C170ADF804009A
:10408000A0886946A8DF0028BFD00BA200E006E0A8
:104090004FF43071FCF7D6FEB7E70220EAE721893A
:1040A000A27C08B08BB2BDE8704008A10020FBF7ED
:1040B00051BE0000382100202E2E5C2E2E5C2E2EAC
:1040C0005C6D61696E2E6300D42300200D0A436885
:1040D00061722076616C75652025642C2075756988
:1040E0006420253034780D0A000000000078002894
:1040F0000AD106483B21408876DF002804D004A27C
:1041000040F2CF11FCF79EBE70470000382100201E
:104110002E2E5C2E2E5C2E2E5C6D61696E2E630041
:10412000134A10B500215170017A012912D00229D9
:104130001DD18189491C8181C189491C89B2C181F4
:10414000028A914213D1002100F084FCBDE81040A6
:1041500000F094B9838AC28A4FF480619C1A8C4221
:1041600000DAA1B2114489B2C1829942EBD010BDEC
:1041700000220020F8B51E4D17460E4601466A6F14
:104180000020032A33D805F17804C6F1080C636CCB
:1041900063452CD895F87000104400F00300C0EB84
:1041A000C00005EB80001C22FBF74AF9686F401C39
:1041B0006867DEB194F8440094F840100023084486
:1041C00000F0070004EBC00000900AE007EBC30218
:1041D0000098D2E90012C0E900126846FDF73EFDE2
:1041E0005B1CB342F2D3606C304460640120F8BDC4
:1041F000B02600200389CA1C1A4402814289511A40
:10420000C91E4181704700002DE9F04700F5805537
:10421000002700F10804022090460E460880DFF8CF
:10422000489012E02046FEF7D1FBD0B1A068D9F843
:104230000420904201D9C9F804006088318804EB59
:1042400080040844C01C30800C34AC4202D2206888
:10425000401CE7D1B8F1000F01D088F80070BDE82C
:10426000F0870127E9E70000E821002008B50021D8
:10427000009101460223024A0248FEF765F908BD93
:10428000A45B02002422002008B50020009004480E
:104290000223044A01680448FEF756F908BD0000ED
:1042A000F82100209C5B0200242200202DE9F05F11
:1042B0000025374FDFF8DC80DFF8DC90DFF8DCB07A
:1042C0002C46AA462E46386800EB06300268424566
:1042D00005D1334A4168891830D001290DD0002119
:1042E0004FF4806250F821305B1C33D009EB04118D
:1042F00003200870641CA4B219E0BAF1000F09D0C1
:10430000022209EB0411641C0A70DBF800304B60D8
:104310000A81A4B200220BF10401CBF80000FFF7E0
:1043200073FFBBF80400022830D008200543761C38
:10433000B6B2022EC7D3E8B2BDE8F09F09EB041174
:10434000002201F8042B01C18A1DFFF75DFF45F033
:104350000205CFE7491C9142C4D3DBF8002059463F
:104360005AB109EB041102220A7048600A480A8116
:1043700010304480641CA4B205E008600220ABF851
:1043800004004FF0010A45F00105D0E70420CDE715
:1043900024220020DEC0ADDE70270020F82100209E
:1043A00002FEE10EFEB5064600200090019002904C
:1043B000254842F222234FF6FD728088914218442C
:1043C00080B207D0C91ACD1701EB556525F07F05DE
:1043D000491B1944814201D2012000E00020914292
:1043E00001D1012200E0002210432AD0E3B289B2B9
:1043F0006A4641F21110FDF703FF10B1012820D1E8
:10440000FEBD0C246F462046FEF7E0FD0546002069
:10441000395C2954401CC0B2A042F9D32246394627
:104420003046FDF773F828B104462846FDF7C4FF6F
:104430002046FEBD401CC0B2A042FBD32846FDF77B
:10444000BBFF0020FEBD00005421002004490844A9
:1044500090F93000082801DB0120704700207047E8
:10446000882500200449084490F93000082801D22A
:104470000120704700207047882500200848416EC1
:10448000491E416604D107490A7822F002020A70E7
:10449000016E491C0166042901D1002101667047A3
:1044A0008C2700200022002070B50C490446486E7D
:1044B000042811D00A6E0244042A00D3121F401CA3
:1044C000486602EB420001EBC00005461821FAF7EE
:1044D000D0FF0120256070BD002070BD8C2700201A
:1044E000F0B52D4C002785B0216F41F61D56C1EB6C
:1044F000C10104EB81052978072919D2DFE801F011
:10450000180408080C0C10002946FEF781FA09E08F
:10451000294601F039FA05E02946FDF7F7FC01E0EC
:10452000FEF7C4F8002831D0B04202D1019710E064
:104530000F2001902878022801D0032809D11648BD
:10454000AA7D7830016C11440164AA7D416C891AFE
:10455000416469462846FDF777FD6846FDF7AAFDE8
:10456000206F1C21C0EBC00004EB8000FAF781FF34
:10457000606F68B194F87010491C01F00301401E8F
:10458000C4E91C1004D00020FFF7AAFF05B0F0BD5D
:104590000420FDF701FFF9E7B0260020194830B4E8
:1045A000016E01EB410100EBC104406E002827D0F1
:1045B000207A012802D0022816D10FE0A18AE08AD1
:1045C0004FF48062091A914200DA8AB2E1682369E5
:1045D00001EB800103EB800029DF01E0A08928DFE7
:1045E000112806D000280BD0204630BC092100F04D
:1045F00031BA0549087820F0020040F00400087044
:1046000030BC70478C27002000220020064810B5DF
:104610000078400707D40420FDF7C6FEBDE810402F
:104620000020FFF75DBF10BDE82100200549087894
:1046300010F0060F04D140F002000870FFF7AEBF83
:1046400070470000002200200249A0F508502238DF
:1046500048607047542100202DE9F04707461E4866
:104660001C46154600780E46800702D40220BDE89D
:10467000F08745B13CB1DFF864804FF00009A088B5
:1046800018B10A20F3E70520F1E708EB00100078E5
:10469000E8B914E020681FB181883A8891420ED1B0
:1046A0001EB101883288914209D180682860206853
:1046B00068600A481030008928810020D7E7A08868
:1046C000214600F05BF80028E4D1C4F80090A088EF
:1046D000401CA080D3E70000E821002070270020C4
:1046E000F8B505464068234F0C46002638B32249EA
:1046F0000A68824223D84968814220D3FEF7E8FA4B
:10470000E8B128893989884219D1D5E900018A6838
:10471000904214D10020A7F1100300BF03EB001258
:1047200052688A4205D202F580528A4201D920801D
:1047300011E0401C0004000CF0D00020F8BD2680E1
:1047400000960AE0009829688068884205D10098A0
:104750006860388928810120F8BD2088694600F00A
:104760000DF80028EED12088401C0004000C2080A9
:10477000E6D0E2E7802700202422002070B50E4614
:104780000A68104901EB00151AB1508802EB800449
:104790000CE06C6808340AE02046FEF717F910B107
:1047A0000120346070BD608804EB80040C346868BC
:1047B00000F58050A04202D92068401CECD10020B6
:1047C00070BD00007027002008B50021009101464F
:1047D0000123044A0448FDF7B7FE002800D00E204C
:1047E00008BD0000985B02002422002038B5044672
:1047F00013480025426C42B1036C00EBC3055B1CFF
:1048000003F00703521EC0E9103200200090A08A76
:10481000AB8801EB80010B482A68FDF795FEA18A61
:10482000AA881144A182A17D491E11F0FF01A17542
:1048300001D101212174002800D00E2038BD0000D4
:10484000282700202422002070B5012670044FF094
:10485000E0210025C1F88001084C4010C4F848034D
:10486000C4F8080366602F20FEF766FDA660044CBE
:104870002F20A560FEF760FDA57070BD00100140FF
:10488000C821002070B50546C87D0C4600284FF4AD
:10489000847128460AD0FFF70FFBD5F81805627E11
:1048A000E1688854607E401C607670BDFFF704FBB1
:1048B000D5F8180570BD30B58FB0002405460794B3
:1048C0009DF81C001C2120F00F00401C20F0F0007F
:1048D00010308DF81C009DF81D0020F00F00401CCA
:1048E00020F0F00010308DF81D009DF81E0020F023
:1048F0000600801C8DF81E006846FAF7BAFD9DF888
:104900000000019440F010008DF8000007A8CDE9E8
:1049100004400394069428788DF83A000320ADF8FB
:1049200038000D949DF83400142120F00F00401C35
:1049300020F0F00010308DF834009DF8350020F0A4
:104940000F00401C20F0F00010308DF835009DF86D
:10495000360020F00600801C20F0180040F0010016
:104960008DF8360008A8FAF784FD0EA808900DA867
:1049700009900120ADF828001420ADF82A40ADF8C8
:104980002C00688805F10C0308AA6946A2DF0FB065
:1049900030BD1FB501238DF800308DF8081001924D
:1049A000D0E90012684690471FBD10B50178002974
:1049B00017D1406801210488FEF77EFE4FF416707F
:1049C00014FB00F0C11700EB9150801200EB400087
:1049D0004FF4877101EB4000BDE8104080B2FCF756
:1049E00019BB10BD10B50446FBF7AAFD40B1002C61
:1049F00009DA04F00F0000F1E02090F8140D06E051
:104A000042F2010010BD04F1E02090F800044109D9
:104A1000082914D299B1012911D004290FD00529F0
:104A20000DD00B480122816861B1610950F8213035
:104A300004F01F04A240134340F8213005E042F285
:104A4000020010BD2046FBF71EF8002010BD00003C
:104A5000782600201FB50022009201920292039254
:104A6000037A012B02D0022B13D107E08DF800202E
:104A700002690292828AADF80C200AE001228DF8C8
:104A800000208289C389D21AADF808208289ADF846
:104A90000A204268019200688268684690471FBDFC
:104AA0002DE9F041002507464FF001080C460A2683
:104AB000791922460020FBF71FF90544241A08B98A
:104AC000761E01D0002CF3D14046BDE8F0810000F5
:104AD0002DE9F0410746806A14468846C8B3002590
:104AE00031E000BFB96A05EB450001EB8006B088F4
:104AF000801CFE2802D90C20BDE8F0812288401CD1
:104B000008F8020020881622401C80B2208008F895
:104B100000202088401C80B2208000EB08013088F3
:104B200000F0CFFD2188084480B22080B28842B1D5
:104B3000B16871B14044FAF783FC2088B188084419
:104B400020806D1CEDB297F82C00A842CAD8002036
:104B5000D2E7FFE70720CFE710B50F490F4C0A8ACD
:104B600042818A8A8281097891B1617981B9E1793A
:104B700071B102210172084904202031C870064831
:104B800000212030FCF78DFA002804D1052000E038
:104B90000320A070002010BDC02400208C21002024
:104BA00010B50E490E4C0A8B42818A8B82810A789D
:104BB000042182B1627972B9E27962B10222027291
:104BC00006482030C1700021FCF76BFA002804D1A0
:104BD0000620A07000E0A170002010BDC0240020BD
:104BE0008C21002018B10349C860002070470E20B6
:104BF00070470000042200201CB503490191009178
:104C0000694660DF1CBD00003821002070B50E46EB
:104C1000054614461C211046FAF72BFC0120208083
:104C20000021A16121752672657205B1A072002074
:104C300070BDFCF7F5B800002DE9F041074619B149
:104C400088074FF0000402D00720BDE8F081114D25
:104C50004FF0E0200126A9606A806B60D0F8000167
:104C600010F0010F03D034460020FAF7F6FE0A498F
:104C7000384610DF070005D014B10020FAF703FF13
:104C80003846E2E72E70FEF7C1FBBDE8F041162082
:104C9000FFF7A8BE04220020334C02000148007830
:104CA000704700000422002018B103490861002069
:104CB00070470E20704700000422002010B5044603
:104CC000FDF782FC2046BDE81040FCF74DBA00001D
:104CD00070B5274D164604462DCD94B00DF11C0C31
:104CE0008CE82D00ADF830100CAD07A8A91C63DFCF
:104CF00000283BD11C216846FAF7BBFB9DF8000059
:104D0000142140F00A008DF80000002012909DF858
:104D10004A0020F00600801C8DF84A009DF84800EB
:104D200020F00F00401C20F0F00010308DF84800FB
:104D30009DF8490020F00F00401C20F0F0001030DA
:104D40008DF849000DA8FAF794FB12A8CDE90D5093
:104D50000120ADF84000ADF83C0013A88DF84C6080
:104D600011906088231D0DAA6946A2DF14B070BDA2
:104D7000105B02002DE9F84F204C00256846D4E96D
:104D800001B6FDF741F98046FDF7B2FF0746A94697
:104D9000B8F1000F25D00023009ACC46606819E0D6
:104DA00007680146974202D9BA1A026014E0C1F8B6
