:020000040001F9
:10F00000C870002015F401001DF401001FF4010078
:10F0100021F4010023F4010025F4010000000000A8
:10F0200000000000000000000000000027F40100C4
:10F0300029F40100000000002BF401002DF4010070
:10F04000C9FA01002FF4010089000200ADFD0100A2
:10F050002FF401002FF40100C5F801002FF4010086
:10F060002FF401002FF401002FF4010021FB010017
:10F070002FF401002FF401002FF401002FF4010000
:10F080002FF4010031FB01002FF401002FF40100E7
:10F09000B9FD01002FF40100BDFD01002FF40100B6
:10F0A0002FF401002FF401002FF401002FF40100D0
:10F0B0002FF401002FF40100000000000000000008
:10F0C0002FF401002FF401002FF401002FF40100B0
:10F0D0002FF401002FF401002FF4010000000000C4
:10F0E0000000000000000000000000000000000020
:10F0F0000000000000000000000000000000000010
:10F1000000000000000000000000000000000000FF
:10F1100000000000000000000000000000000000EF
:10F40000DFF80CD000F04CFA00480047712F0200E2
:10F41000C87000200648804706480047FEE7FEE720
:10F42000FEE7FEE7FEE7FEE7FEE7FEE7FEE7FEE7B4
:10F43000EDFD010001F4010000487047A4660200E0
:10F4400040EA01039B0703D009E008C9121F08C066
:10F45000042AFAD203E011F8013B00F8013B521EE6
:10F46000F9D27047D2B201E000F8012B491EFBD25D
:10F4700070470022F6E710B513460A4604461946BF
:10F48000FFF7F0FF204610BD421C10F8011B0029B9
:10F49000FBD1801A7047034611F8012B00F8012BAD
:10F4A000002AF9D1184670472DE9FE4F804681EABF
:10F4B0000300C00F0C46009021F0004123F00045EE
:10F4C000B8EB0200A94105D24046214690461C46B1
:10F4D0000B46024623F00040104347D0270DC7F3E8
:10F4E0000A00C3F30A510290401A019040286BDAD7
:10F4F000C3F3130040F4801B0098924620B1002310
:10F50000D2EB030A63EB0B0B01985946C0F14002A2
:10F51000504600F036F906460D4650465946019AC7
:10F5200000F04EF910EB08006141002487EA115207
:10F5300084EAE7731A4340D0009A62B3019A012A21
:10F540004FEA075215DC001B61EB02014FF000424D
:10F5500002EA0752CDE90042001C41F58011324613
:10F560002B4600F04EF903B0BDE8F08F404621462F
:10F57000F9E7001B61EB0201001C41F58013001844
:10F580005B412018A2F5001747EB030140EAD57054
:10F59000B6196D4111E06D084FEA360645EAC075AF
:10F5A0004FEA0752001B61EB0201001C41F580117C
:10F5B00049084FEA30000019514132462B4603B04A
:10F5C000BDE8F04F00F00EB9009801224000002382
:10F5D000D0EB020263EBE073009821464FEAE0743F
:10F5E000B8EB000061EB0401E9E783F000435BE75F
:10F5F00081F0004158E72DE9F04D81EA030404F061
:10F60000004B21F0004514464FF0000A23F0004162
:10F6100050EA050220D054EA01021DD0C5F30A5772
:10F620000246C5F31303C1F31300C1F30A5640F4B5
:10F63000801543F48013A7EB0608101BD64608F28A
:10F64000FD3873EB050002D308F1010801E09218C0
:10F650005B41B8F1000F03DA00200146BDE8F08DF0
:10F6600000204FF48011064684460EE0171B73EB12
:10F67000050705D3121B63EB050306434CEA010C97
:10F6800049084FEA300092185B4150EA0107EDD17A
:10F6900052EA030012D082EA040083EA050108431B
:10F6A00005D0101BAB4106D20122002306E0002248
:10F6B0004FF0004302E06FF0010253101AEB060016
:10F6C0004CEB085110EB0A0041EB0B01BDE8F04D8B
:10F6D00000F088B80EB540F2334102910021CDE927
:10F6E00000110A460B4600F08CF803B000BDC1F3D0
:10F6F0000A5210B5C1F3130140F2FF3341F48011F7
:10F700009A4201DA002010BD40F233439A42A2F23D
:10F71000334203DC524200F043F810BD904010BD6C
:10F720002DE9F05F0546002092469B468846064636
:10F73000814640241BE0284641464746224600F0C9
:10F740002FF853465A46C01A914110D31146184615
:10F75000224600F016F82D1A67EB01084F462246A4
:10F760000120002100F00DF817EB00094E41201E8A
:10F77000A4F10104DFDC484631462A464346BDE891
:10F78000F09F202A04DB203A00FA02F100207047A3
:10F790009140C2F1200320FA03F3194390407047CF
:10F7A000202A04DB203A21FA02F00021704721FAD6
:10F7B00002F3D040C2F1200291400843194670473D
:10F7C000202A06DBCB17203A41FA02F043EAE07325
:10F7D00006E041FA02F3D040C2F120029140084312
:10F7E0001946704710B5141E73F1000408DA401C66
:10F7F00041F1000192185B411A4301D120F0010050
:10F8000010BD2DE9F04D92469B4611B1B1FA81F23F
:10F8100002E0B0FA80F220329046FFF7B2FF0446D1
:10F820000F4640EA0A0041EA0B0153465A46084394
:10F8300013D0114653EA010019D0C8F140025046D6
:10F84000FFF7AEFF05460E46504659464246FFF7C3
:10F8500098FF084305D0012004E020463946BDE862
:10F86000F08D0020054346EAE0762C4337430A98A2
:10F870006305E40AA0EB08000022FD0A44EA4754AD
:10F880000A3002D500200146E9E701051019694157
:10F89000DDE9084500196941BDE8F04DA2E7000027
:10F8A000064C074D06E0E06840F0010394E80700CD
:10F8B00098471034AC42F6D3FFF7A6FD506702001C
:10F8C000706702002DE9F04700268CB0DFF86091E8
:10F8D000B0464FF48075012437460696284604F05A
:10F8E00045FC38B1D9F80403204203D0284604F07F
:10F8F00033FC26432D1D64007F1CADB2082FEDD3D1
:10F900004FF4BE74204604F031FC48B1204604F0A8
:10F9100023FC46F0004606AA0121002004F008FC62
:10F92000444D16F0FF0F15D00127002437420DD0AB
:10F9300009EB8401D1F81005D1F81015C0F30420AB
:10F9400055F82420C1F3014102B190477F00641CA7
:10F95000082CEBD3002E67DA4FF0FF30CDE908809A
:10F9600000263446281910F8507F90F9000027F03F
:10F97000C008401C44D009A9404603F0EBFD58B331
:10F980004FEA9719404602F0D3F855F820701FB19E
:10F99000B9F1030F03D00FE0B9F1030F30D108A87C
:10F9A0004FEAD80208F00703815C4FF0010C0CFA13
:10F9B00003FC41EA0C0181544FF0A04101EB8800A7
:10F9C000D0F8000706A9C0F3014A404603F0C2FD83
:10F9D00018B1BAF1020F03D012E0BAF1030F0FD140
:10F9E000B9F1030F08D1BAF1020F1BD00221404632
:10F9F00004F07BFB761CF6B217B149464046B84787
:10FA0000641C042CAED3002E0ED06A4601210020C7
:10FA100004F08EFB06990098884205D0069008985D
:10FA200009909DE70321E2E70CB0BDE8F0870000F4
:10FA3000006000409827002000F01F020121914043
:10FA40004009800000F1E020C0F88012704700F00B
:10FA50001F02012191404009800000F1E020C0F820
:10FA60008011704700F01F02012191404009800081
:10FA700000F1E020C0F80011704700F01F020121E2
:10FA800091404009800000F1E020C0F8001170476B
:10FA900000F01F02012191404009800000F1E020A8
:10FAA000C0F8001270474907090E002806DA00F076
:10FAB0000F0000F1E02080F8141D704700F1E020F5
:10FAC00080F80014704700002DE9F0414FF4807772
:10FAD000384603F047FD0124104EA50748B13846CB
:10FAE00003F047FD0120C5F808037470002002F000
:10FAF00043F84FF48277384603F034FD00280BD0EA
:10FB0000384603F036FD0220C5F80803B470BDE89E
:10FB1000F041012002F030B8BDE8F08184270020D8
:10FB200003220021014803F0CBBF000000B00040D9
:10FB300007480021C0F84011C0F84411C0F848112E
:10FB4000C0F84C11C0F80011C0F8041105F04CBE0B
:10FB50000010014003480078002801D100F0A2BA4B
:10FB60007047000050300020F8B506460C48144697
:10FB70000D46007808B900F095FA002300938DF83F
:10FB80000030684601F018FA22462946304600F057
:10FB900009F804469DF8000001F032FA2046F8BD4D
:10FBA0005030002070B50E46144900EB400001EBC8
:10FBB000C0051446E86A183520B101280FD0022884
:10FBC00005D113E0284600F0A1FAA04201D200249A
:10FBD00011E022463146284600F0C0FB0BE02846E3
:10FBE00000F094FAA042F4D20446F2E731462846E7
:10FBF00000F087FB0446204670BD00005030002016
:10FC00000FB408B504A900916A46039900F004F8FE
:10FC100001B05DF814FB00002DE9F04198B00646F4
:10FC200007A8029040200025CDE90305CDE905563F
:10FC300090460C4614F8011B002971D0252908D0E4
:10FC400002A800F03FFB05980028F3DA18B0BDE8E1
:10FC5000F0810020217823291BD02B2916D02D29B3
:10FC60000ED030290FD000222178A1F130030A2BC9
:10FC700013D202EB820201EB4202303A641CF3E73A
:10FC800040F0010007E040F0020004E040F0040012
:10FC900001E040F00800641CDCE70023CFB22E2F07
:10FCA0000CD100BF14F8011FA1F130070A2F05D2B3
:10FCB00003EB830301EB4303303BF3E76C290DD0E7
:10FCC00068290BD0702954D00BDC252916D058296F
:10FCD00031D063290CD0642913D114E014F8011B2E
:10FCE000ECE7732934D075291BD0782909D122E09B
:10FCF000D8F80000011DC8F80010017802A800F033
:10FD0000E1FA641C9FE7D8F800100F1DC8F80070D6
:10FD10000968CDE900200A2202A800F003FAF0E702
:10FD200033E0D8F800100F1DC8F800700968CDE95D
:10FD300000200A2208E0D8F800100F1DC8F8007053
:10FD40000968CDE90020102202A800F04DFAD8E79A
:10FD5000D8F80000011DC8F80010076817F8011B4B
:10FD60000029CED002A800F0ADFA05980028F5DAF7
:10FD7000C7E7D8F80000011DC8F800100168082086
:10FD8000CDE9000503461022DEE7059800287FF73D
:10FD90005DAF049820B1024607A93046FFF7E4FEA4
:10FDA000DDE904010844059050E7000001480068BF
:10FDB000004700009421002005F08EBC094810B5D2
:10FDC000406848B1804700280AD0BDE81040064A84
:10FDD0004FF4C77100F08ABFBDE8104002F0B6BE14
:10FDE00010BD00000C220020F8660200F0B5984813
:10FDF0000023021D01780125101D4FF080560629B1
:10FE000007D11478240704D10478C4F30314032C15
:10FE100002D0062904D00FE08F4F8E4C7C670EE095
:10FE20001478240708D10478C4F30314032C06D0F3
:10FE3000042C04D0052C02D0062907D00EE0D6F8F9
:10FE40004442864FC4F342343C6002E014782407F5
:10FE500004D10478C4F30314032C02D0062906D07D
:10FE600011E07F4C276827F0807727600EE0147838
:10FE7000240708D10478C4F30314032C06D0042CFF
:10FE800004D0052C02D006290AD011E04FF080449E
:10FE9000C4F80C31C4F81031704C241F236002E008
:10FEA0001478240704D10478C4F30314032C02D07B
:10FEB000062905D00CE0694F032464373C600AE052
:10FEC0001478240704D10478C4F30314032C02D05B
:10FED00006290DD014E0634F05243C60614C783452
:10FEE0002560604C083423603F243F1D3C6002E0E5
:10FEF0001478240704D10478C4F30314052C02D029
:10FF0000062957D068E058490968584A116056498F
:10FF1000091D0968121D1160534908310968121D35
:10FF2000116051490C310968121D11604E491031A0
:10FF30000968121D11604C4914310968121D1160C5
:10FF4000494918310968494A2032116046491C3133
:10FF50000968121D1160444920310968121D1160A1
:10FF6000414924310968121D11603F49283109684F
:10FF7000121D11603C492C310968121D11603A496B
:10FF800030310968394A40321160374934310968E3
:10FF9000121D1160344938310968121D116032494F
:10FFA0003C310968121D11602F4940310968121D4A
:10FFB000116002E0117809070ED10078C0F3031038
:10FFC000032803D0042801D0052805D1D6F858020B
:10FFD000274900F04F00086021487438016841F457
:10FFE00070010160BFF34F8FBFF36F8F4FF010218F
:10FFF000D1F80002002803DBD1F80402002822DA3D
:020000040002F8
:100000001C4A15601C480468002CFCD01524C1F85B
:1000100000420568002DFCD0C1F8044201680029A7
:10002000FCD0136001680029FCD0BFF34F8F0C484F
:10003000F0380168114A01F4E06111430160BFF337
:100040004F8F00BFFDE70F490D480860F0BD00006D
:10005000E00F00F00DF0ADBA00C007403C050040D5
:10006000FCED00E0105600400404001020C50040E4
:10007000E40E004004E5014000E401400400FA05FC
:100080000090D003202200200448017F044800296A
:10009000024901D005F0C9BF05F038BFF0270020A4
:1000A0000020004010B5124C02202061606111A0B8
:1000B000A061A4F50470E0614FF40070206200209C
:1000C000A06260620BA1A164E062A4F11001E1648E
:1000D00010212165A0656065E06509A1E01DFFF7BD
:1000E000DAF908A12046FFF7D6F92020A07110BD4B
:1000F000503000205465726D696E616C0000000024
:100100005254540053454747455200000269C168A4
:100110008A4203D88068401A104400E0501A401EFA
:10012000704700002DE9FC5F0E008146DDE90C47B9
:10013000C6F1000098469346824600D40846012541
:1001400003E000BFB0FBFBF06D1C5845FAD2A84598
:1001500000D9454624B1002E01DB780700D5641E86
:10016000B80702D5B8F1000F10D0F8070ED16CB166
:100170002046641EA84209D92021484600F0A2F872
:10018000D9F80C000028F2DABDE8FC9F002E02DA54
:1001900056462D2102E0780707D52B21484600F06E
:1001A00091F8D9F80C000028EEDB07F003000228D4
:1001B00010D1B8F1000F0DD164B12046641EA842E1
:1001C00008D93021484600F07DF8D9F80C00002805
:1001D000F2DAD9E7CDE9004743465A463146484668
:1001E00000F002F8D0E700002DE9F84F8246DDE983
:1001F0000A4B0126984691460D460846374602E0CE
:10020000B0FBF9F07F1C4845FAD2B84500D9474603
:100210005FEACB701CD1DCB15FEA8B7002D5B8F11C
:10022000000F02D0202000900AE03020FBE750466B
:10023000009900F047F8DAF80C0000283EDB3CB1EA
:100240002046641EB842F2D802E000BF06FB09F661
:10025000B5FBF6F1494501D3012100E000214246FA
:10026000A8F10108012A01DD012000E0002001437E
:10027000ECD1DFF84C8000BFB5FBF6F000FB165563
:1002800018F80010504600F01DF8DAF80C000028AD
:1002900003DBB6FBF9F6002EEED15FEACB700DD092
:1002A000002C0BD02046641EB84207D920215046AE
:1002B00000F008F8DAF80C000028F1DABDE8F88F51
:1002C0001066020010B50446D4E90130421C934286
:1002D00005DB23681954A260E068401CE060D4E9A3
:1002E0000102824209D121682069FFF73DFCA16823
:1002F000884203D04FF0FF30E06010BD0020A060C6
:1003000010BD2DE9F047C4681746894606464FF0F0
:1003100000083069A04201D9051B02E0B168201A2B
:100320000D1AB0686D1E001BA84200D80546BD42DC
:1003300000D33D4670682A4620444946FFF780F8BE
:10034000B0687F1B2C44A844A944A04200D10024DB
:10035000F460002FDDD14046BDE8F0872DE9F04183
:10036000C6680446174688468068851B6068BD429B
:1003700006D93044FFF764F8F019E060BDE8F08179
:100380002A463044FFF75CF87E1B08EB0501324635
:100390006068FFF755F8E660F0E700000FB41CB5A1
:1003A0000246002007AC00290BD0491ECDE90021F0
:1003B000054B6A462146069800F02AF8009A00216B
:1003C00011701CBC5DF814FB7308020002E008C841
:1003D000121F08C1002AFAD170477047002001E0BF
:1003E00001C1121F002AFBD1704700000121202803
:1003F00003DA81400548014003E0402802DA203852
:10040000814009B10120704700207047FC06FFBC05
:100410002DE9FF4F8DB00F460546002606E0252842
:100420000BD0DDE90F1290476D1C761C2878002850
:10043000F5D111B03046BDE8F08F0024A246A146A8
:100440000122EC4900E0044315F8013F203B02FA89
:1004500003F00842F7D128782A2810D06FF02F0235
:100460002878A0F13001092914D80AEB8A0102EB9F
:10047000410144F0020400EB010A6D1CF0E701CFDA
:100480005FEA000A03D544F40054CAF1000A44F0BC
:1004900002046D1C28782E2817D115F8010F44F09E
:1004A00004042A280ED06FF02F022878A0F1300122
:1004B00009290AD809EB890102EB410100EB010986
:1004C0006D1CF2E757F8049B6D1C28786C280FD040
:1004D00006DC4C2817D068280DD06A2814D104E017
:1004E000742810D07A280FD10DE044F400140AE0EB
:1004F00044F4801401E044F440146978814202D14C
:1005000004F580146D1C6D1C2A786E2A1FD00CDC3B
:10051000632A31D004DC002A8BD0582A11D1A3E001
:10052000642A68D0692A0CD165E0732A2ED004DCD5
:100530006F2A73D0702A04D19BE0752A6FD0782A75
:100540006ED01046DDE90F129047761C50E1C4F3DF
:100550000250022806D0032809D0042801CF09D070
:10056000066045E101CFF117C0E9006140E101CF2C
:1005700006803DE106703BE117F8040B8DF80000A2
:1005800000208DF80100EB46012003E057F804BB82
:100590004FF0FF3061074FF0000102D40DE008F189
:1005A0000101884649450FDA8045F8DB1BF8081041
:1005B0000029F4D108E008F1010188468142FADB04
:1005C0001BF808100029F6D1DDE90F23AAEB08007B
:1005D0008146214600F036F9304400EB080604E07D
:1005E000DDE90F121BF8010B9047B8F10108F7D2B3
:1005F00021464846F7E00A21C4F302534FF0000BAE
:100600000891022B04D001CFC117032B09D00AE0B7
:10061000FF1D27F00707F7E8020108E032E01FE0BE
:1006200020E000B2C117042B01D140B2C117031E54
:1006300071F1000307DA4FF0000CD0EB0C006CEB0B
:1006400001012D2302E0230504D52B238DF824304E
:10065000012303E0E30701D02023F7E7984658E0A1
:100660000A2110E010210EE010204FF0000B08903E
:100670000CE010214FF0000B44F004044FF0080987
:10068000089103E008214FF0000B0891C4F30253D6
:10069000022B04D001CF0021032B06D006E0FF1D62
:1006A00027F00707F7E8020103E080B2042B00D12E
:1006B000C0B24FF0000823072BD5702A07D0DDF811
:1006C00020C08CF0100C5CEA0B0C05D00EE040232F
:1006D0008DF82430012308E050EA010306D03023CE
:1006E0008DF824308DF8252002239846DDF820C0AF
:1006F0008CF0080C5CEA0B0C0BD150EA010301D121
:10070000630706D530238DF824304FF00108A9F196
:100710000109582A04D038A20B9208AA0A920BE0C9
:100720003AA2F9E75B46089AFEF7FAFF0B9B9B5C3F
:100730000A9A521E0A92137050EA0102F2D10A98E4
:10074000ADEB000000F1200B600702D524F48034EB
:1007500001E04FF00109D94502DDA9EB0B0000E0F3
:10076000002000EB0B0141440890AAEB010AE003D2
:1007700006D4DDE90F232146504600F063F8064415
:100780004FF0000908E009A911F80900DDE90F128E
:10079000904709F10109761CC145F4DBE0030CD553
:1007A000DDE90F232146504600F04CF8064404E0F2
:1007B000DDE90F1230209047761C0899481E0890FA
:1007C0000029F5DC08E00A980A990078491C0A918A
:1007D000DDE90F129047761CBBF10001ABF1010B74
:1007E000F1DC21465046DDE90F2300F019F80644FC
:1007F0006D1C1BE6092801003031323334353637A1
:10080000383961626364656600000000303132335C
:1008100034353637383941424344454600000000FC
:100820002DE9F041044600251E461746880404D4ED
:1008300005E039462020B0476D1C641EF9D52846D6
:10084000BDE8F0812DE9F041044600251E469046A2
:10085000C80301D5302700E02027880404D505E02F
:1008600041463846B0476D1C641EF9D52846BDE8A0
:10087000F0814A68002A06D00A68531C0B60107089
:100880004868401E486070472DE9FC4700251788DE
:100890000646158090F82D001446894630B13A4638
:1008A0002146484600F08EFD050009D1B0784FF092
:1008B0000C0A18B32088C846001DB84202D9504619
:1008C000BDE8FC87684679DF0028F9D1208803213C
:1008D00008F8001020881921401C80B2208008F8F8
:1008E00000102088401C80B2208000EB0801BDF879
:1008F000000005F012FC218808442080F0780222D4
:10090000C8B1218896F9033001F1030C4846BC4573
:10091000D5D8425421884FF0010C491C89B221805E
:1009200000F801C02188491C89B2218009F80130F2
:100930002088401C20807068B8B1218890F9003070
:1009400001F1030C4846BC45B9D8425421880A221B
:10095000491C89B2218042542188491C89B22180D6
:1009600009F801302088401C2080308950B1CDE941
:1009700000474B460622022106F1080005F01AFC4A
:1009800005009DD1308A50B1CDE900474B46072282
:10099000032106F1100005F00DFC050090D1308B0D
:1009A00050B1CDE900474B461522142106F118003D
:1009B00005F000FC050083D1306A30B13B46224689
:1009C000494601F043F90500DBD1706A30B13B467E
:1009D0002246494602F0D2FC0500D2D196F82C00FE
:1009E00038B13B4622464946304604F00FFD05002B
:1009F000C7D1307838B13B4622464946304602F0EE
:100A00005BFD0500BDD128465AE70000134A0021CE
:100A1000535C0BB1012203E0491C0629F8D30022E4
:100A20000F49012806D0022809D003280CD0042839
:100A300012D10DE0487810B10AB1012070478878D2
:100A400010B10AB102207047C87808B1032070477E
:100A5000087908B104207047002070478D210020DC
:100A6000D02600202DE9F04196B04FF0040822482E
:100A700001F06CFF0446060C1F480C3885682F0CEB
:100A800001F05AFF1D4B0DF13C0C0ECB8CE80E0013
:100A9000ADF83E004AF60430ADF848000C20ADF841
:100AA0004C000FA8ADF84050ADF844601490ADF87C
:100AB0004270ADF846403C216846FEF7DAFC002063
:100AC0008DF8020001208DF8000006218DF801103C
:100AD0008DF82C008DF8038012A80A90002168463A
:100AE00000F004FB002803D0054AE52100F0FEF8E1
:100AF00016B0BDE8F0810000342100200865020036
:100B0000602F0200FFF7AEBF10B5012202210020C6
:100B100000F05CFE08B1072810D107220221012055
:100B200000F054FE08B1072808D100210A22084627
:100B300000F04CFE08B1072800D1002010BD0000D5
:100B400030B593B041F28B20ADF83C0014481190C1
:100B50000220ADF8400004253C216846FEF789FCE0
:100B600000240FA88DF8004009908DF8035021460D
:100B7000684600F0BBFA20B10A4A4FF4137100F046
:100B8000B5F809484FF4FA51046744678467C467AD
:100B90007030047004724181848113B030BD000054
:100BA0002C210020602F02009C25002010B5054854
:100BB00073DF041E04D0044A40F2812100F096F84D
:100BC000204610BD0C260020602F0200022000F0FD
:100BD0000FBD000070B50024064D06E068680121D5
:100BE00010F8340002F06CFE641C28788442F5D3BF
:100BF000002070BDA4210020F8B515460C4606461D
:100C0000052A01D20720F8BD02F040FF18B902F012
:100C10000FFF0028F7D1104900204E600C70C1E989
:100C200002500E4D08610DE006EBC40069680091AA
:100C300081788DF801100078094A694602F092FE29
:100C40000028E0D1641EE4B2EED2BDE8F840054AC7
:100C50000021024800F07EB8A4210020B065020007
:100C60001D2A0200F51E0200144611A1012003F006
:100C700057FC224614A1012003F078FC03F0AAFBE4
:100C800003F0ACFB0028FBD116480068C00700D079
:100C900000BEBFF34F8F1348E4380168124A01F4D5
:100CA000E06111430160BFF34F8F00BFFDE700001B
:100CB0004150505F4552524F523A4552524F523A6C
:100CC000466174616C0D0A004150505F4552524FAD
:100CD000523A4552524F523A496E666F203A202599
:100CE000730D0A00F0ED00E00400FA050EB5ADF852
:100CF0000010CDE901206A46002144F20100FFF70F
:100D0000B3FF0EBD10B58268C368934203D001F0F3
:100D100087FB002010BD052010BD29B112B1531E64
:100D2000134203D0092070470E2070470160838072
:100D300000218160C1600846704710B58268C368B1
:100D40009A1A83889A4203D801F074FB002010BDE0
:100D5000042010BD074B5B6823B12AB120B10068A5
:100D6000037C1BB108207047072070474174426123
:100D700000207047C82100202DE9F047074698461B
:100D80001446894690074FF0000526D12CB304F095
:100D900005FA134E06F11000C6F80C800570457078
:100DA00080F8029044607560357075701420FEF70D
:100DB00043FE07211420FEF776FE1420FEF752FEB4
:100DC0000848076007211120FEF76DFE0548001F47
:100DD0000068B0600020BDE8F0870720FBE7000056
:100DE000B8210020081501402DE9FC47DFF8789074
:100DF000D9F8043073B368B3052902D20720BDE8DF
:100E0000FC87436933B3437C012B25D0002704467C
:100E10000025884616468DF80050684600F0CCF84C
:100E200001A805F0AFF9C8B1012101700F49446074
:100E30000968C0E90218C0E904769DF8040089F841
:100E400001009DF8000000F0DBF81420FEF720FE02
:100E50002846D4E70820D2E70F46D8E704259DF8B6
:100E6000000000F0CDF8F3E7C82100200415014090
:100E70000649496839B130B1416921B10021017495
:100E8000022104F08DBC082070470000C82100201A
:100E900070B50B4E01460B48B578FFF733FF04469B
:100EA0005DB10020B070711C0122C81D02F026FF48
:100EB00018B105A2B921FFF719FF204670BD000047
:100EC000F4210020082A00202E2E5C2E2E5C2E2ECF
:100ED0005C2E2E5C2E2E5C2E2E5C636F6D706F6E02
:100EE000656E74735C6C69627261726965735C755E
:100EF0006172745C6170705F756172745F6669665F
:100F00006F2E6300F0B5284E89B01F460D000446D1
:100F100072603BD0A888296882B22448FFF7FDFEA2
:100F2000002834D1A889A96882B220481030FFF780
:100F3000F4FE00282BD120221D496846FEF780FAD6
:100F400060690690207C00B101208DF814008DF8B6
:100F50001C70607C00B10E208DF81500E0680290D6
:100F6000A068039020680190606800900E48114AC4
:100F70006946083002F08EFE002808D1B070206863
:100F8000401C04D09DF81D0018B106E0072009B0F0
:100F9000F0BD0548083002F009FF03490122491C51
:100FA000C81D02F0ABFEF2E7F4210020082A002061
:100FB000CC6502006D5E020030B5EFF3108172B6B1
:100FC0000D4A9468012324B10370002900D162B650
:100FD00030BD93604FF0E023D3F88051074C25409B
:100FE0001560C3F88041D3F8844154605A17C3F8A0
:100FF000842100220270E8E758280020FC06FFBC8C
:101000000B498A68002A11D000280FD1EFF3108015
:1010100072B60B684FF0E022C2F800314B68C2F89C
:10102000043100228A60002800D162B670470000B7
:10103000582800202DE9F041064608680C46411C5E
:101040004FF0A0474FF0010506D005FA00F1C7F8B0
:101050000815206803F03FF86068411C02D00021A9
:1010600003F030F83079204901EB4010A169007F8E
:1010700000283068C0F8241525D0607D227D3168B5
:101080001043C1F86C05D4E900123068C0F80C15A3
:10109000C0F8142524E0A068411C02D0002103F010
:1010A00011F8E068411C05D08540C7F80855E06894
:1010B00003F011F8D4E902123068C0F80825C0F82E
:1010C0001015BDE8F081607D217D32680843C2F8CB
:1010D0006C05D4E900123068C0F81425C0F80C156E
:1010E000207D0128D7D0ECE7F0270020F0B50C4692
:1010F00093B01F210726ADF80010ADF804100027AB
:1011000050B1C17849070DD56A4602A9FFF7BCFB6B
:10111000002808D102AD02E00025ADF800706CB1E6
:10112000E07810B1304613B0F0BD01AA0AA92046FC
:10113000FFF7AAFB0028F6D10AAA02E00022ADF8C8
:101140000470BDF80400C3B2BDF80000C1B2284667
:1011500072DFE8E710B50188144C102918D0112966
:101160001CD01B2919D1007A002816D1E07805215E
:10117000401CB0FBF1F201FB120000BF00F032F89E
:1011800000280AD06169002907D0BDE8104008474F
:10119000C17B012901D18088208110BD00216171AE
:1011A000808821898842F8D10120E7E77421002056
:1011B00010B5022801D0032810D1094C607800280E
:1011C0000CD000206070E07800F00CF8002805D00A
:1011D0006169002902D0BDE81040084710BD000039
:1011E000742100202DE9F0413D4C804686B02078E6
:1011F00048B184F8038004A801F0F4F904980126AA
:1012000028B1667067E0082006B0BDE8F0810025CF
:10121000A561344FA583A577787810B1E0780128CF
:1012200006D0B87858B1E078012801D0022806D15C
:10123000216919B126710820884700E025714046D0
:10124000FFF7E4FBE070216939B1032801D00428DD
:1012500003D1387808B1607990B1A57100950295F5
:10126000019503958DF800508DF808501C48E178E1
:101270001830052925D2DFE801F03008111D2100C2
:10128000E571A67107208847E8E7A67001908DF800
:101290000060ADF80C50ADF80A5014E00221A170C6
:1012A00001908DF80060B889ADF80C003889ADF870
:1012B0000A0008E0684604F0EDF802E0684604F031
:1012C0000DF9E07818B1684673DF00289CD12169D8
:1012D00009B1A0788847002096E7A570F7E70000DD
:1012E00074210020D026002070B5054601461C223E
:1012F0000F48FEF7A5F80F4C00262670286830B17D
:10130000016861604068A060201D7ADF02E0094842
:10131000001D7BDF00280AD14FF6FF7060806670E9
:10132000BDE87040044A00210448FFF713BD70BDBA
:10133000B42600206021002025610200886502009B
:1013400070B51E4C068800231B49E289102E15D06B
:101350001B4D112E1CD0122E29D0502E17D130F833
:10136000061F914213D14189022910D10C3000F09F
:10137000F6F888B1BDE8704000F0BABC84884C80B3
:101380000469CC60406908614B70002AF2D070BDDE
:101390004FF6FF7048804B702868FFF769FD002802
:1013A000F5D0A1690029F2D0BDE8704008478268F5
:1013B000CA60C0680861DDE760210020B426002013
:1013C000886502007CB5054608880C4609309042C5
:1013D00001D90C207CBD68466DDF0028FAD1218838
:1013E0000820685420881B21401C80B2208029548A
:1013F0002088401C80B220802844DDF80110016064
:10140000BDF8051081802088801D80B220809DF865
:101410000010490800D0012129542088401C208058
:1014200000207CBD10B50446FFF78AFF214607481F
:1014300000F040F8204600F047F9204603F0B2F9EA
:101440002046BDE81040FFF785BE0000F0250020D3
:1014500030B5174B0D4604000FCB85B08DE80F005B
:1014600023D015B34FF6FF70A0822868A06100203A
:10147000A0752146684663DF002814D120788DF8D6
:1014800012000120ADF81000A21C04A9A0DF002862
:1014900009D12946204603F0B8FE002803D1294689
:1014A000204604F043FC05B030BD0E20FBE70000F1
:1014B0008C65020010B5002822D0002920D00A88AF
:1014C000102A18D0112A18D0502A19D104468A1D82
:1014D000C888238A1231984202D15389022B10D036
:1014E000A38898420CD1A369002B09D052892046C9
:1014F000BDE810401847898801E04FF6FF718182EE
:1015000010BD084600F02BF800B10120A07510BDF9
:1015100007B584B068B1828AA2F57F43FF3B0AD049
:10152000827D42B1BDF81820142A06D9072007B0E1
:1015300000BD0E20FBE70820F9E70022009201928F
:10154000029203928289039106A90291ADF80020CC
:1015500001218DF80210808A6946A6DFE7E700784E
:1015600000F001007047000000B51C4889B000235E
:10157000C068079050221A4907A804F061F820B10A
:10158000184A40F23231FFF7B1FB6A4601210020D0
:1015900004F040F820B1134A40F23A31FFF7A6FBBD
:1015A000684603F0C7FF20B10E4A40F24531FFF70D
:1015B0009DFB0D4803F0B4FF20B10A4A40F24B31C5
:1015C000FFF794FB094804F073F8002804D0054A9B
:1015D00040F25131FFF78AFB09B000BDF864020008
:1015E00028250020602F020025140200C5560200A5
:1015F00007490B5C4FF0A041D1F804250120984029
:1016000020EA0203C1F808351040C1F80C05704704
:10161000546502000249085C012102F07EBD000011
:10162000546502000249085C002102F076BD00000A
:10163000546502000649095C4FF0A040D0F804054B
:10164000C84010F0010000D0012080F00100704778
:10165000546502007CB50024084E25460122305D09
:10166000009500231146019502F0F6FC641C042C41
:10167000F4D3BDE87C4000F003B8000054650200DC
:1016800010B500242046FFF7C5FF641C042CF9D3D5
:1016900010BD10B500242046FFF7C4FF641C042CC5
:1016A000F9D310BD10B50246064B4FF0FF300021B4
:1016B0005C5C944201D1084610BD491C0429F7D353
:1016C00010BD00005865020010B51A4C0188606812
:1016D00010290ED011292BD1401E606028D1FFF7B0
:1016E00013FA002824D02168002921D0BDE8104039
:1016F0000847D0B900210122084600F067F808B178
:1017000007280FD107220221012000F05FF808B15D
:10171000072807D104220221002000F057F820B149
:10172000072802D0216801B188476068401C6060CA
:1017300010BD0000582100202DE9F0470D468146DC
:10174000FFF7B0FF0446042838D2DFF878801C4841
:101750001D4EA8F1100735B3012D0ED0022D2DD14D
:1017600004EB440030444578002D27D0F968002967
:1017700024D02846BDE8F047084704EB4401755CD7
:101780000E44717859B179680E4A01EB8101490024
:101790000E3A8068FFF728FB08B987F80290B17805
:1017A00008F80410E0E78068FFF762FB04EB4401EF
:1017B000314418F804008D78A842D5D0BDE8F087F0
:1017C0005C650200542100206826002070B50023CB
:1017D000042810D20D4D00EB4004012A02D101294A
:1017E0000CD00022094E00EB4000304461B10129C9
:1017F00006D0022906D00723184670BD0E30C2B2AB
:101800002A55F9E74270F7E78270F5E7682600206D
:10181000044A01460020127AD20702D0084600F09E
:101820004FB87047442100202DE9F04106461F487B
:1018300000240F464160C0E90262B0071FD50025B1
:10184000012211462846FFF7C1FF6D1C0446042DF6
:1018500002D2002CF4D012E08CB97A08042114488A
:10186000FFF7CAF904000AD1FFF7B4F9040006D162
:101870000F48104A0021001FFFF76CFA0446F007DA
:1018800001D0FFF7E7FE74B909480B4A00210C3874
:10189000FFF760FA040006D10548084A012108381C
:1018A000FFF758FA04462046BDE8F08144210020A5
:1018B00068650200C51A0200D12D0200CD0B02009E
:1018C0002DE9F047594C05460026607818B10020F4
:1018D0006070FFF7D5FE0120554F4FF47A694FF441
:1018E000C87A4FF06408182D2CD2DFE805F0890C77
:1018F0000C2C3A4751565A615A619B69696969696A
:10190000898C8F929B9B0020FFF794FE00284FF05C
:10191000000008D0FFF77EFE022D02D14FF4E160F7
:1019200006E0484604E0FFF77DFE022D2ED050462B
:10193000B0FBF8F125706068414300223868FFF77A
:1019400053FA064659E00020FFF774FE28B1002044
:10195000FFF760FE4FF44870EAE70020FFF762FEF1
:1019600014E00020FFF766FE00284FF0000002D0D0
:10197000FFF750FED5E7FFF755FED8E70020FFF749
:1019800059FE0028E9D00020FFF744FEC820CFE729
:101990000020FFF72DFE257007E000203FE02570B6
:1019A0002BE060700120FFF723FE00226168C5E78D
:1019B00060700120FFF71CFE606800EB8001BCE74F
:1019C0007868FFF755FA0646D5F1110000D01EB130
:1019D0000220FFF71FFE10E001280BD9C82110FBE1
:1019E00001F1B1FBF8F16068002241437868FFF72C
:1019F000FBF906460220FFF715FE3046BDE8F087EA
:101A0000FFF73EFECBE7FFF73BFEC6E7FFF738FEEA
:101A100004E0FFF735FE0020FFF704FE0120FFF78A
:101A200001FEBCE7FFF735FEB9E7000044210020C6
:101A30005C650200002901DA002070470268114449
:101A40000160012070470000F8B5461C00208DF8A9
:101A500000000D4601246846FFF7AEFA114A1068EF
:101A60002860D2E900109568081A2B1A701C5B1CBC
:101A700098420FD963B10C480C4B294000681B6891
:101A800002EB810163F39F20C8601068401C106066
:101A9000002401E0881910609DF80000FFF7B0FAFB
:101AA0002046F8BD282A0020EC650200082200200C
:101AB000034803C8814201D10120704700207047CC
:101AC000282A002000780221FFF736BE05494FF092
:101AD000FF32082841F8202002D3084480F848202B
:101AE0007047000098270020F0B54FF0FF3512B185
:101AF0000023082601E008230C260C4C05E000BF5B
:101B000054F823707F1C04D05B1CB342F8D32846E2
:101B1000F0BD26185DB286F8305044F82310002A34
:101B2000F5D1E11881F84800F1E70000982700207E
:101B30000249084490F930007047000098270020BF
:101B400038B10549814204D80449814201D90120B4
:101B500070470020704700002C2200203C2200200B
:101B6000044A0168914201D0083101E00149383945
:101B7000016070474029002070B5084C050009D06D
:101B800010342168002907D0086820604968284679
:101B90008847F6E70834F4E770BD0000842700208A
:101BA0002DE9F05F26484168F1B3DFF898B00E6880
:101BB0008146DBF8004087688078E11B21F07F4593
:101BC000ED1CB0B9DFF880804FF48030C8F84403D2
:101BD000C8F804031120FDF72FFF1120FDF742FF85
:101BE0004FF0010AC8F800A02F2001F09DFD89F8F0
:101BF00002A0B54200D23546124BE8193C3320F022
:101C00007F401860DBF800105A46091B21F07F4125
:101C1000001B20F07F40C91C81420FD9106818605A
:101C20002F2001F081FD00E004E0BDE8F05F11200D
:101C3000FDF72EBFBDE8F05F03F0B0BABDE8F09F3E
:101C4000B821002004150140001001402DE9F041A9
:101C500017880646B81D14460D46984202D90C2036
:101C6000BDE8F0813188072206290AD34FF4486C79
:101C70004FF6FF73614501D9994202D17088062859
:101C800001D21046ECE7604501D99842F9D199425A
:101C900003D0984201D08142F3D80520E85520882E
:101CA0001221401C80B2208029542088401C80B220
:101CB00020804119308804F030FA2188084480B22D
:101CC00020804119708804F028FA21880844208077
:101CD0000020C5E702A24FF4D271FFF707B8000059
:101CE0002E2E5C2E2E5C2E2E5C6D61696E2E630096
:101CF000F8B5134801F058F8114D0026114C0C3D71
:101D000030B16169B9B101208DF80000684611E079
:101D1000287820B1616971B18DF80060F6E76878C4
:101D200058B1A168084800220068FFF75DF810B1BB
:101D3000A16901B188472E70F8BD6168F2E7000023
:101D40006C210020B426002088650200F8B51048F8
:101D500041F21115690080881446084486B29068E3
:101D600000901F46D4E900230AA10020FDF748FF98
:101D70003B4622463146284600F0F8FA30B10128A9
:101D800001D0072802D1284600F05CF90020F8BDF8
:101D90003C21002064617461546F4442206461748A
:101DA000614172726179203A2025303878202530DF
:101DB000387820253038780D0A000000F0B5144836
:101DC00085B084680C3000F0C1FD060C85B200F0CF
:101DD000B3FD074645EA0640CDE9034003218DE8FF
:101DE000830023463A460BA10020FDF709FF394640
:101DF000032302AA41F21110FFF7A8FF002804D024
:101E000011A240F20F11FEF771FF05B0F0BD000006
:101E1000282100205265634B6579203A202530380F
:101E2000782C2074696D653A20253038782C206430
:101E3000617461203A20253038782C206C656E3A28
:101E40002025640D0A0000002E2E5C2E2E5C2E2E06
:101E50005C6D61696E2E63002DE9FF410C4618B17F
:101E6000012004B0BDE8F08120790027DFF87C80F4
:101E7000012638B141F61D5501281ED0022829D06F
:101E80000F20EEE702970397E0680190694601A8EA
:101E900003F0D0F868B102988188E1800088208141
:101EA000029803F03BF9BDF8002008EB02118E7395
:101EB00000E00A2002212171D3E70D4B6A46002180
:101EC000A01D03F073F838B1094908398F60CF605D
:101ED0000A28C6D12846C4E7019803F01FF904492F
:101EE0008A8808EB02118E73F2E700005029002067
:101EF000E02100202DE9F04100260125144C22E0CC
:101F00006068226900EBC607387805FA00F11142D3
:101F100017D08A43226101F081FD02463878E368D8
:101F200005FA00F1194002FA00F3994209D17978D3
:101F3000012901D0012100E0002151407A6802B15D
:101F40009047761CF6B220788642D9D3BDE8F0815E
:101F5000A42100200E4910B50A784C780023A24233
:101F600012D0521CD2B20A70022A00D10B70084A59
:101F70000B78183252F8232002608868104420F051
:101F80007F408860012010BD0360002010BD00006C
:101F9000B821002010B503780022072B06D2DFE815
:101FA00003F00504060C1C252B000A7010BD01224D
:101FB0000A7002898A81828814E002220A700289EA
:101FC0008A818288CA81C2688A60007C062802D021
:101FD0000020087410BD0120FBE703220A70C288AC
:101FE0008A810289CA81C068886010BD04230B7091
:101FF000C0888881CA8110BD0520087010BD00000E
:1020000070B5064D0646002455F8241009B1304637
:102010008847641C082CF7D370BD0000702800208E
:10202000064910B500204860054800F08DF90028E9
:1020300003D1BDE8104000F06BB810BD3C2100207A
:10204000E133020010B580B200F01AF8040006D0A7
:10205000024605A10020FDF7D3FD204610BD00F08B
:1020600035F80446F9E70000466C61736820636C3C
:1020700065616E7570206572726F723A256400003A
:1020800000B5114987B00978890702D4022007B04A
:1020900000BDA0F57F41FF3911D005218DF800105A
:1020A00001218DF80410ADF80600002211466846A3
:1020B00002F0CEFC28B102F053FF0020E7E7042035
:1020C000E5E70820E3E70000D821002000B50E482E
:1020D00087B00078800702D4022007B000BD062038
:1020E0008DF8000000221146684602F0B1FC40B1B4
:1020F0000648017809B10121817302F031FF002007
:10210000EBE70820E9E70000D82100209029002013
:1021100000B58DB014216846FDF7ABF91E48007874
:10212000810703D56846FFF76BFF33E0C00731D165
:10213000012000F091F900F0FDF902F025FD70B1E9
:1021400006280FD001218DF814100C281BD2DFE8CF
:1021500000F01A101A101A181A181A1216120B2058
:102160000DB000BD022000F077F9012000F06CF9FD
:10217000D8E7002000E003208DF8180003E00220DB
:10218000FAE78DF818100022114605A802F060FC4D
:1021900002F0E6FE0020E3E7D82100202DE9F0411F
:1021A000804688B0002015460E460B4605904246F4
:1021B00020A10690FDF724FD31E003A9684600F058
:1021C0009FF8040008D0024625A10020FDF718FD65
:1021D000204608B0BDE8F08128A10020009AFDF754
:1021E0000FFD0024049F0BE057F824202BA10020B2
:1021F000FDF706FD57F8240045F82400641CE4B2FE
:1022000003984088A042EFD8039826A18278002046
:10221000FDF7F6FC684600F04DF80028D9D105AB73
:102220006A463146404600F063F80028C5D00020D9
:10223000CFE7000053656172636820666F722046C5
:10224000494C4549443A20253034782C20524543A6
:102250004B45593A2025303478200D0A0000000003
:102260006572726F72206F70656E696E672072653D
:10227000636F72643A2025750A000000446174613E
:1022800020726561642066726F6D207265636F7283
:10229000644944202564203D200000002530387822
:1022A00020000000646174614C656E3D25640D0A78
:1022B0000000000038B5040011D0694602F0BAFEF3
:1022C00088B10A48BDF8001000EB0110818941B1C6
:1022D000A27A32B1491E81810020A07238BD05204A
:1022E00038BD062038BD0A2038BD00005029002026
:1022F0001FB501A9684602F059FE04B010BD0000E8
:1023000038B50D46040015D0A5B1694602F092FE1D
:1023100090B10A49BDF80020606801EB0212918972
:10232000491C9181286060680C3068600120A072AF
:10233000002038BD052038BD0A2038BD50290020B6
:102340000223002203F09EBF064A5178082906D0D6
:10235000054B43F82100491C5170002070470C20A8
:1023600070470000D82100207028002030B50446B6
:102370008BB00021174805E052F8215040F8215059
:10238000491CC9B29942F7D30890ADF8243090683F
:10239000CDE900030CCA10A10020FDF731FC19485B
:1023A000ADF8144042F2222180880844ADF81600AE
:1023B00008A806900120ADF81C0005A902A8FFF7A7
:1023C000BFFF002804D110A1029AFDF719FC0020DC
:1023D0000BB030BD1C260020577269746520646103
:1023E0007461496E3A20253038782C2025303878B1
:1023F0002C20253038782C2053697A653A25640DD5
:102400000A0000003C21002057726F74652072653D
:10241000636F726449443A2564200D0A000000008D
:10242000826883881A4003689A5C0A708168491C34
:1024300081607047C26883881A4003689954C168F4
:10244000491CC1607047000002490A7882430A7043
:1024500070470000D821002002490A7802430A7020
:1024600070470000D821002010B5002821D0114B62
:102470000022001F196803E0814203D80A46496818
:102480000029F9D152B11368841A9C4204D1006822
:1024900018441060104602E0506000E0186039B146
:1024A00002680B1A934203D10B681A440260496810
:1024B000416010BD24220020F8B506461A481F4688
:1024C000154600780C46C00708D03046FFF738FBA9
:1024D00030B13CB1200507D00620F8BD0120F8BD81
:1024E0000220F8BD0320F8BD3068A04204D871680E
:1024F00004EB0530884201D90520F8BD7DB168465E
:1025000002F07CFC68B100980221C0E9006701720A
:10251000210B8181058202F033FD0020F8BD0420EB
:10252000F8BD0720F8BD0000F0210020084602F0A9
:1025300081BC00002DE9F0472748284C4FF01021BE
:10254000001B0209496910464B1C03D14FF0805112
:1025500049690903DFF888A09AF80070FB0702D0E8
:102560000020BDE8F0870023A14607E009EB031433
:10257000256815B1646804B1401E5B1C9342F5D315
:10258000002422E0002504F0FF0C2B4613E000BFDE
:1025900009EB0316D6F80080B8F1000F04D0D6F886
:1025A0000480B8F1000F05D1767BAE4202D93546E2
:1025B00003F0FF0C5B1C9342EAD309EB0C13641C81
:1025C00059601D7BA1EB053119608442DAD347F0D5
:1025D00001018AF80010C3E73C2200202C220020D1
:1025E000F021002020B10349496E016000207047AE
:1025F00003207047A02900202DE9F84307461D4815
:10260000DDF820801E46007815460C46C0070CD029
:102610003846FFF795FA50B15DB154B145EA040070
:10262000800708D00620BDE8F8830120FBE70220E0
:10263000F9E70320F7E73868A04204D8786804EB8C
:102640008601884201D20520EDE77EB1684602F09E
:10265000D5FB68B100980121C0E900780172C0E99A
:102660000354868202F08CFC0020DCE70420DAE7C9
:102670000720D8E7F021002070B5174A1749044613
:10268000106E0B7800EB400002EBC0009D0715D5E3
:10269000022C02D0032C1BD102E002F0AFF917E0AC
:1026A0004A78521CD2B24A70032A11D900224A70C9
:1026B000082102F06DFE02F08BFB09E0580707D5F8
:1026C00023F004000870526E12B140F0020008704E
:1026D000BDE8704002F00CBCA0290020F0210020D1
:1026E0000EB51BA19DF8080020F00F00401C20F043
:1026F000F00010308DF80800062202A87CDF20B11F
:10270000154A40F23F11FEF7F1FA40F2413078DF0E
:1027100020B1114A4FF4A171FEF7E8FA00200090B1
:1027200001901021ADF80400ADF800104FF4C8700E
:102730003C21ADF80600ADF8021068467ADF0028AB
:1027400004D0054A4FF4A671FEF7D0FA0EBD000082
:102750005854303030320000602F020070B508B19C
:10276000012070BD184C0025A07B08B1A57301E0C5
:1027700000F0A2F82078082824D2DFE800F0230433
:10278000080C1023141EBDE8704000F01FB8BDE80F
:10279000704000F07FB8BDE8704000F061B8BDE85F
:1027A000704000F037B808496088403901EB0010EC
:1027B0004068BDE8704002F0C7B96560BDE8704090
:1027C00002F0D0B90F2070BD902900201049F0B45C
:1027D0008A1C00200346A1F140050C18A67A3EB1E0
:1027E000A37205EB0014A68916B9A47B012C0AD0AC
:1027F000401C80B20428F0D30B704B804B60F0BCBF
:1028000041F61D5070471080F0BC00F043B8000046
:102810009029002010B50F4CA4F14001608801EB15
:102820000010818961B1052020700B48022100232E
:1028300081800168BDE8104001220848FFF73CBED6
:102840004168002301220548FFF736FE042121706C
:1028500010BD000090290020E82100202C2200203B
:1028600038B50A49084803240B684268898803EB95
:102870008101538804700020DB1C00909BB2044847
:10288000FFF7BAFE38BD000090290020E8210020A3
:102890002C220020074910B54888091D02F018FCB9
:1028A00018B1BDE81040FFF7DBBFBDE81040FFF7EF
:1028B000B1BF000090290020F0B51D481D49012539
:1028C000067802248B88A0F14002082E18D2DFE897
:1028D00006F00417171A212C2C160189491C0181B6
:1028E0000021418080F80E1002EB01131B7843B1E8
:1028F00000234418491C89B2A3720429F4D305703B
:10290000F0BD0123F5E742685288D21C1A448A8040
:102910000470F0BD46880D6802EB061256680E6022
:10292000556013818C80062100E007210170F0BD05
:1029300090290020E8210020034842F222218088CB
:10294000084480B2704700003C2100207FB5054656
:1029500000200190029022A0022300680390012031
:10296000009003AA4421284601F070F9040002D027
:1029700002461CA109E0062301AA4421284601F0D1
:1029800053F9040007D002461BA10020FDF738F9D7
:10299000204604B070BD9DF805009DF8041000EBC2
:1029A0000120FCF797FE9FED191B53EC112BFCF750
:1029B00022FE9FED181B53EC112BFCF716FEFCF7C3
:1029C00096FE9DF808109DF8072001EB022140F2C9
:1029D0008F22B1FBF2F189B241EA0040D9E7000051
:1029E0002C060000493243207478206572723A2028
:1029F00025640D0A000000004932432072782065EA
:102A000072723A2025640D0A00000000EC51B81ED5
:102A100085EB0D40000000000094B1402DE9F0412D
:102A2000124E07460125BD403068FEF721FA002806
:102A30000DD10F4C2069284207D1384600F0EEFF37
:102A40000028E06805D0284304E0A8432061BDE8E1
:102A5000F081A843E060206928432061A1683068C4
:102A6000BDE8F0410022FEF7BFB90000B0650200EA
:102A7000A42100208188A1F57F42FF3A03D000887D
:102A800008B1012070470020704700002DE9F04197
:102A90000F4628B10120FFF7D7FC0120BDE8F081E7
:102AA000397961B10026264D01290DD0254C4FF012
:102AB00002080229206822D003293CD128E002F034
:102AC00051F80121397134E05FF0000005EB00118D
:102AD000097802290CD0401C80B20428F6D30220C9
:102AE000FFF7BAFC0120FFF7AFFC41F61D50D5E718
:102AF00005EB0014606802F027F8267019E0014623
:102B0000002301221048FFF7D7FCA4F804800FE04F
:102B100002F01AF80A4922684031498805EB011190
:102B20004B6823604A60A2880A81A4F804800E7072
:102B30003E710028B2D00120FFF786FC0E20ADE7E1
:102B400050290020E82100202C220020F8B51E4C3E
:102B50002078002836D0E068002668B1002560782B
:102B600000282FD1684648DF052807D040B1174A12
:102B70008921FEF7BBF80AE00125F0E7012606E00F
:102B8000009800F053FE216909B100988847ADB95B
:102B90006078002816D16088ADF800006946A0680A
:102BA00061DF052805D030B1084AAE21FEF79EF856
:102BB00004E0012502E0D4E902018847002ECED0CE
:102BC000002DE4D0F8BD00000C220020F8660200C1
:102BD00070B50E460446007918494FF4A27501EB12
:102BE0004010017F2068A1B14FF4887101F02BFDE6
:102BF0004FF49071206801F026FD4FF49271206827
:102C000001F021FD2946206801F01DFD0C492068D6
:102C100009E04FF48E7101F005FD2946206801F0AE
:102C200001FD08492068C0F80413206800F044FE44
:102C30003146BDE8704000F0FEBD0000F0270020E6
:102C400010030200800002000149024800F004B8AD
:102C500010280020003000402DE9FF470D464FF4BA
:102C600092770446394601F0CDFC4FF002094FF04F
:102C700001084FF4827640B13946204601F0C7FC86
:102C80003146204601F0BEFCB0B3B2463146204684
:102C900001F0B8FC4FF0FF36002770B351462046D4
:102CA00001F0B5FC05F10C0001AB07C883E8070093
:102CB00095F8230078B1287B01282DD0D4F84C0555
:102CC000C0B28DF80600287B022828D0D4F84C0525
:102CD000C0B28DF807004FF4B071204601F097FCA8
:102CE0004FF4AE71204601F092FC95F8250080B3B8
:102CF00095F8230068BB3CE000E013E0A868C4F846
:102D00000803C5F80890A868C4F80403C4F8208034
:102D1000C4F81480BDE8FF87D4F83C05D0E7D4F8A8
:102D20003C05D5E74FF4A471204601F070FC287BE8
:102D300080B14FF40070C4F80002801CA860C4F891
:102D40000863A868C4F80403C4F80880C4F82080A5
:102D5000E0E708E005F10C0001AB07C883E80700D5
:102D600095F8250028B90020C4F80002AF60C4F827
:102D70000863D4F8C404C4F8C404810702D58DF8EC
:102D8000008006E0400702D58DF8009001E08DF844
:102D9000007095F8250008B985F82470D5E9002160
:102DA00068469047B6E70000054940880A88904287
:102DB00004D34988884201D8012070470020704719
:102DC00064210020800701D0002070470120704757
:102DD0000348017AC90702D00078FEF771BD704739
:102DE000442100202DE9F043264CA4F1100922785B
:102DF000D9F8048099F80350404694F801C0D9F8F6
:102E0000086031E002EB42036168521C01EBC30130
:102E1000A378D2B2934200D100220B78022B02D0C9
:102E2000032B21D11DE003464F68194603E0B94248
:102E300003D00B46C969B9B1F9E7A9B18B4205D1F5
:102E4000C06918B9104E0125B56000260F68C96920
:102E5000D96149B10B683B440B6005E00174C0695E
:102E600000E000210028F9D19445CBD1C9E9010641
:102E700089F80350404502D00120BDE8F0830020CE
:102E8000FBE70000C8210020001001402DE9F041BF
:102E90002A4F0446002607F11005D7F804803EE0CB
:102EA00002D02046E4691DE02878696800EB400202
:102EB000401CC0B201EBC2012870AA78904200D138
:102EC0002E700A784868012A2BD1027C4ABB8A6896
:102ED0004260CA6882600A69C26049698161F978A2
:102EE00001B146604368BA68DFF854C0991A21F00E
:102EF0007F41614502D28268114406E0D11A82689E
:102F000021F07F418A4202D9511A016000E0066037
:102F10004660012186600174C66102F023FC002C2A
:102F2000BED1287869788842BED17968414502D0FF
:102F30000120BDE8F0810020FBE70000B82100205F
:102F4000FFFF7F0010B5002001F044FB002805D0F2
:102F5000BDE8104002A28D21FDF7C8BE10BD0000E3
:102F60002E2E5C2E2E5C2E2E5C6D61696E2E630003
:102F700090B0FFF7E7FF82A10020FCF741FE00239D
:102F8000844A05211846FDF7F7FE20B182A24FF4CE
:102F90006971FDF7ABFE002240F6CD410120FEF73E
:102FA00043FC20B17CA240F2A631FDF79FFE7EA13A
:102FB0000020FCF725FE182281496846FCF740FAFC
:102FC000804809904FF480707F490C90CDE90A0148
:102FD00007237E4A09A96846FDF794FF20B17C4A81
:102FE00040F22D21FDF782FE02F062FC794D0024B3
:102FF00079A12046AC60FCF703FEFEF7B5FAFFF7B7
:103000006FFB7BA10020FCF7FBFDFDF799FD7EA186
:103010000020FCF7F5FD814800905E486946783055
:10302000FEF716FA20B16A4A40F28511FDF75EFEFE
:103030007BA10020FCF7E4FD1C2109A8FCF719FA8C
:103040004FF42030CDE909404FF470200B9003205D
:103050008DF8300078480E9078480F90ADF83240E7
:103060008DF8344009A8FEF73FF920B1584A4FF4D3
:10307000DD71FDF73BFE72A10020FCF7C1FD554854
:103080000C3002F0FBFC75A10020FCF7B9FD02F04A
:103090004FFC79A10020FCF7B3FDFDF787FD044646
:1030A000024679A10020FCF7ABFD200004D03AA233
:1030B0004FF47271FDF71AFE78A10020FCF7A0FD15
:1030C000FEF7AEFF044602467AA10020FCF798FD09
:1030D000200004D030A24FF47471FDF707FE287869
:1030E0000028FDD041F211152846FEF7C9FF04461D
:1030F000024675A10020FCF783FD200004D026A223
:1031000040F2D531FDF7F2FDFEF7E0FF044602463E
:1031100072A10020FCF774FD74A10020FCF770FD83
:10312000734800F02FFA200004D01BA240F2DB31DC
:10313000FDF7DCFD6FA10020FCF762FD204A0DF1D8
:10314000180C2432032307CA8CE8070006AA42F2AF
:1031500022212846FFF70AF920B10FA240F2E131FF
:10316000FDF7C4FD4FF4657401F038F90028FBD178
:103170003EDF0028F8D0164A2146FDF7B7FDF3E7F9
:10318000496E697469616C697A696E67202E2E2EAA
:103190000A000000782500202E2E5C2E2E5C2E2E9C
:1031A0005C6D61696E2E6300496E697469616C695A
:1031B0007A696E672054696D657273200A00000099
:1031C000146502002823002028240020E95D020065
:1031D000602F02002821002054696D657273204918
:1031E0006E697469616C697A6564200A0000000088
:1031F000626C6520737461636B20496E69746961E8
:103200006C697A6564200A0041647620496E6974AD
:1032100069616C697A6564200A0000005546020005
:10322000736572766963657320496E697469616C50
:10323000697A6564200A0000C9490200D51C0200B1
:10324000436F6E6E20506172616D7320496E6974B8
:1032500069616C697A6564200A0000005348543340
:103260003127732049324320496E697469616C6962
:103270007A6564200A00000054696D6573205374F8
:103280006172742E2E200A0061647620737461725C
:1032900074206572723A202564200A0053746172AA
:1032A000746564204164766572746973696E672021
:1032B0000A00000066647320696E6974206572728A
:1032C0003A202564200A000066696C652064656CFC
:1032D000206572723A202564200A00006763206529
:1032E00072723A202564200A000000000D0A0A00CC
:1032F00040420F00546573742077726974696E6779
:10330000206461746120746F2052414D3A0D0A00AF
:10331000F0B50B30154D20F007010024144A0FE0E2
:1033200003688B420BD38B4205D95E1A431847685A
:10333000C3E9006700E04368136002C004E0021DB7
:1033400010680028ECD12046002802D1286808B176
:103350000020F0BD064A07481060074A121A22F002
:103360000702C0E9002401202860D7E728220020B6
:1033700024220020CC300020C850002070B5144614
:1033800082880E4605462088111D0144921C9942F0
:1033900001D8FE2A01D90C2070BD521C325420885D
:1033A000FF21401C80B2208031542088401C80B214
:1033B00020808119288802F0B0FE2188084480B25C
:1033C0002080AA8842B1A96841B13044FCF738F89E
:1033D0002088A98808442080002070BD072070BD87
:1033E0003EB500210091019102910278012152B174
:1033F000012A0FD0042A25D0052A0AD140680028C6
:1034000007D114A122E0406808B115A11EE01B48B5
:1034100001703EBD40680028FBD1194C6170A08846
:1034200042F22221084481B26A4641F21110FEF7AD
:10343000B5FE14A100206268FCF7E2FB6068401C46
:1034400060603EBD40680028FBD117A10020FCF75A
:10345000D7FB3EBD474320446F6E650A0000000065
:1034600046445320496E697469616C697A61746974
:103470006F6E204661696C6564200A002821002077
:103480003C21002057726974652066696E69736813
:1034900065642E20726563436F756E7465723A20A1
:1034A0002564200D0A0A0A0046696C652044656C93
:1034B000657465640A000000F8B50E46017814468C
:1034C0000546012901D1687830B12088821C9A42D2
:1034D0002DD8012902D006E00720F8BD6978014403
:1034E000891C994223D8181A801E87B2ADF8007043
:1034F0002188B01C084469467DDF0028EDD128787A
:10350000022805D1BDF80010B94201D809210AE00E
:103510000821012805D16878B84202D8ADF800002A
:1035200001E0ADF80070BDF80000FE2801D90C20C4
:10353000F8BD2288401CB0542088401C80B22080F6
:1035400031542088401C2080BDF8001008442080A1
:103550000020F8BDC20800F007030120895C9840F4
:103560000840704700F180400068002800D001202A
:10357000704708B500F180400021016000680090AC
:1035800008BD000000283ED01F49204A096800BF3E
:1035900000BF00BF00BF00BF00BF00BF00BF91421F
:1035A0002FD000BF00BF00BF00BF00BF00BF00BFE3
:1035B00000BF00BF00BF00BF00BF00BF00BF00BF13
:1035C00000BF00BF00BF00BF00BF00BF00BF00BF03
:1035D00000BF00BF00BF00BF00BF00BF00BF00BFF3
:1035E00000BF00BF00BF00BF00BF00BF00BF00BFE3
:1035F00000BF00BF00BF00BF00BF00BF00BF00BFD3
:1036000000BF401EC3D17047202200200024F400D8
:1036100000283ED01F49204A096800BF00BF00BFF4
:1036200000BF00BF00BF00BF00BF91422FD000BF4E
:1036300000BF00BF00BF00BF00BF00BF00BF00BF92
:1036400000BF00BF00BF00BF00BF00BF00BF00BF82
:1036500000BF00BF00BF00BF00BF00BF00BF00BF72
:1036600000BF00BF00BF00BF00BF00BF00BF00BF62
:1036700000BF00BF00BF00BF00BF00BF00BF00BF52
:1036800000BF00BF00BF00BF00BF00BF00BF401EA3
:10369000C3D17047202200200024F40000283ED02F
:1036A0001F49204A096800BF00BF00BF00BF00BF1C
:1036B00000BF00BF00BF91422FD000BF00BF00BFBE
:1036C00000BF00BF00BF00BF00BF00BF00BF00BF02
:1036D00000BF00BF00BF00BF00BF00BF00BF00BFF2
:1036E00000BF00BF00BF00BF00BF00BF00BF00BFE2
:1036F00000BF00BF00BF00BF00BF00BF00BF00BFD2
:1037000000BF00BF00BF00BF00BF00BF00BF00BFC1
:1037100000BF00BF00BF00BF00BF401EC3D1704745
:10372000202200200024F40000283ED01F49204A17
:10373000096800BF00BF00BF00BF00BF00BF00BFDF
:1037400000BF91422FD000BF00BF00BF00BF00BF2D
:1037500000BF00BF00BF00BF00BF00BF00BF00BF71
:1037600000BF00BF00BF00BF00BF00BF00BF00BF61
:1037700000BF00BF00BF00BF00BF00BF00BF00BF51
:1037800000BF00BF00BF00BF00BF00BF00BF00BF41
:1037900000BF00BF00BF00BF00BF00BF00BF00BF31
:1037A00000BF00BF00BF401EC3D1704720220020D1
:1037B0000024F40070B50F4C0025207808B1852551
:1037C00016E00021A16061602161E1604FF0E0201E
:1037D000D0F80001012610F0010F03D107210020CD
:1037E00000F029F801F05EFF08B903480660267072
:1037F000284670BD842700201805004038B50020F9
:103800008DF800006846FDF7D7FB074C207808B913
:10381000FFF7D0FFE068401CE0600120A0709DF839
:103820000000FDF7EDFB38BD84270020002801D102
:10383000FEF7A2B970474907090E002806DA00F022
:103840000F0202F1E02282F8141D03E000F1E022F1
:1038500082F8001400F01F0201219140400980000D
:1038600000F1E020C0F88012C0F80011704700009D
:1038700038B50F4A904218D100208DF800000D464F
:103880006846FDF799FB0B4C207928B19DF80000A4
:10389000FDF7B6FB112038BD012020719DF8000016
:1038A000FDF7AEFB0020256038BD072038BD0000C5
:1038B0000030004094210020000B40B2704700000F
:1038C0002DE9F0418846054601F06AFA234E0028AA
:1038D00028461AD0FEF72CF9304490F848008009A9
:1038E000032802D001280ED007E04FF0A040D0F806
:1038F0001005E84010F0010F05D003212846BDE86F
:10390000F04100F0F2BB0221F8E701F055FA00287F
:1039100022D02846FEF70CF904464FF4807000EBE5
:1039200084000F4F81B207EB8400D0F8102542F0DD
:103930000102C0F81025084600F00EFCB8F1000F97
:103940000AD02846FEF7F4F856F82000002803D0E5
:103950000120A040C7F80403BDE8F08198270020AB
:10396000006000402DE9FC41DFF8A480044608EB2C
:103970000400002790F930001346C0170E46401C83
:1039800001D0082741E0F27819462046FEF7ACF84E
:103990000546401C38D0B07850B14FF0A04000EB45
:1039A0008400D0F8001721F00201C0F8001707E0EA
:1039B00000217378204600910A46019100F05EFBD9
:1039C000F078C0B11348317800EB8500D0F81025AD
:1039D000114B1A40C0F810254FF4F8524FF4403301
:1039E00002EA042203EA01410A43D0F810150A430F
:1039F000C0F8102509E008EB0500327810F8481FE0
:103A000041EA8211017000E004273846BDE8FC81DC
:103A10009827002000600040FFE0FCFF4FF0A0412D
:103A2000D1F81015C14011F0010000D001207047FD
:103A300070B5144D95F8540008B1082070BD0020F1
:103A4000411E2A18401CC0B282F830102028F8D33A
:103A500000242046FEF73AF8641CE4B20C2CF8D39C
:103A600007210620FFF7E7FE4FF4BE7000F074FB5D
:103A700005494FF00040C1F80403012085F85400C7
:103A8000002070BD9827002000600040034890F897
:103A90005400002800D00120704700009827002023
:103AA0000121B1EB507F01D1012070470020704708
:103AB0000121B1EB507F01D10120704700207047F8
:103AC0002DE9F0479146884604464FF480354FF47F
:103AD000A0760027DFF884A016E000BFD4F8040326
:103AE00028420DD0A05958B1C4F84853C4F808531F
:103AF0003146204600F080FD5AF82810F8B2884779
:103B0000361D6D00B6B27F1C4F45E7D3D4F80403D1
:103B10004FF4807110F0010F09D0D4F8000130B1DA
:103B2000204600F069FD5AF8281004208847D4F890
:103B300004034FF4827110F0020F0CD0D4F804018A
:103B4000002808D0204600F057FD5AF82810BDE89C
:103B5000F04705200847BDE8F0870000A0210020BD
:103B60000179064A01EB8101006802EBC1010622DE
:103B7000C0F80025022081F822007047102800209C
:103B80002DE9F0410646174600790D46244A00EB20
:103B9000800102EBC104984694F8221011B108206C
:103BA000BDE8F0811F4951F820103068FFF760FE32
:103BB00008B11120F4E7C4E900780020A06084F87F
:103BC000250084F82400A87B84F82700687B10B1C6
:103BD000284601F0FDFE296840F20C60890001F1E1
:103BE000A041C1F800076968890001F1A041C1F84E
:103BF0000007D5E900123068C0F80815C0F80C2598
:103C0000A968C0F82415206828B13068297B000B0A
:103C100040B2FFF710FE012084F822000020BFE729
:103C200010280020A06502003EB5074D6C68ED68C5
:103C300000948DF80110019202958DF80230002257
:103C4000694600F015F83EBDA06502003EB50025AE
:103C50000095069C8DF8011002958DF802300192B6
:103C60000CB1202200E00022694600F001F83EBDC0
:103C700030B40379064C03EB830304EBC304006800
:103C800013460A460146204630BC01F01FBF000023
:103C9000102800202DE9F04105460079164F904686
:103CA00007EB40140E46E07E10B10820BDE8F0811D
:103CB000707F20772846FDF7BDF95FEA0800606055
:103CC0003169216003D0317F2846FEF781FF2879D2
:103CD00007EB4010007F0028286801D0082100E091
:103CE0000421C0F800150020E0752076A0750121A0
:103CF000E176A076DAE70000F02700202DE9F04118
:103D000005460079284E904606EB40140F46207F6A
:103D100018B10846FFF7C4FE80B1626800234FF473
:103D200004704FF4017172B12A7906EB4212127FCE
:103D3000002A2A6805D0C2F8080304E01020BDE874
:103D4000F081C2F80813E27DB2B1227E7AB16268D6
:103D50005AB12A7906EB4212127F1AB12968C1F8CA
:103D6000040302E02868C0F804131120E7E7276184
:103D7000012384F8188005E084F817800020E760AC
:103D8000607620762879424606EB40103946007F5F
:103D90000028284603D0BDE8F04100F073B8BDE824
:103DA000F04100F01BB80000F027002070B5044679
:103DB0000079094D05EB4010017F00290AD1807E72
:103DC000002807D1204601F09AFA2179012005EB5D
:103DD0004111887670BD0000F02700202DE9F05FCA
:103DE00004460079264901EB4015A87E184302D10C
:103DF000204601F084FA68680028206806D04FF455
:103E00000171C0F804130020BDE8F09F4FF4A276C2
:103E1000314600F007FCB1464FF4927A4FF4847BB0
:103E20005146206800F0F9FB06465946206800F02C
:103E3000F4FB80464946206800F0EFFB074648EA5D
:103E400007003043ECD056EA070007D12946206826
:103E500001F0C2F9E87D697E8842E1D80020E8756A
:103E60000EB10320D0E70FB10F20CDE7A97E0120CE
:103E70000029216801D00860C5E74860C3E7000059
:103E8000F02700202DE9F05F894604464FF488753D
:103E90009A46904600260068294600F0D4FB4FF46D
:103EA000A2773946206800F0CEFB2068C0F8349530
:103EB000C0F838852068BAF1000F14D0D0F800128D
:103EC00041F02001C0F800122179DFF8648008EB8E
:103ED0004110406850B120684FF40471C0F80413D9
:103EE0003046BDE8F09F01210160EDE7AA46B946E2
:103EF0004FF4927B5146206800F0A0FB07464946EC
:103F0000206800F09BFB05465946206800F096FBB0
:103F1000014647EA05000843ECD02379002208EB6C
:103F20004310C27501B10326002DD9D00F26D7E763
:103F3000F02700202DE9F047054600793F4E9046D6
:103F400006EB40140F46207F18B10846FFF7A8FD86
:103F500030B1284600F074F820B11120BDE8F08798
:103F60001020FBE784F81680A7600027A782287935
:103F70004FF0010806EB40143E46207F00282868D9
:103F800025D04FF49079494600F05DFB4FF4AC7AB0
:103F90005146286800F057FB2868A17DA268C0F848
:103FA0004425C0F848152868C0F808806068F0B952
:103FB0004946286800F042FB80465146286800F0D8
:103FC0003DFB58EA0001F3D058BBA7750FE04FF452
:103FD0008E7A514600F026FB2868C0F808802146FA
:103FE000286801F093FE61684FF4807089B1304613
:103FF000B4E75146286800F010FB10B9A08A484584
:10400000F7D1A08A484505D02146286801F07EFEF8
:1040100000E08146A08AA17D8842EAD3A08A484573
:1040200001D10F26D1E75146286800F0F6FA0028A2
:10403000F9D02868C0F80C80C7E70000F0270020FE
:104040000079044901EB4010807D002800D0012058
:1040500070470000F027002070B541EA4201DDE919
:1040600004564FF0A04441EA830141EA052104EBE4
:10407000800041EA0641C0F8001770BD70B541EA02
:104080004201DDE904564FF0A04441EA830141EAD0
:10409000052104EB800041EA0641C0F8001770BD1D
:1040A00070B541EA4201DDE904564FF0A04441EA0F
:1040B000830141EA052104EB800041EA0641C0F892
:1040C000001770BD1CB500220B46009211460192EC
:1040D000FFF7E6FF1CBD1CB5002100910B46012235
:1040E00001911146FFF7DCFF1CBD4FF0A04202EB2F
:1040F0008000D0F8002722F44032C0F80027D0F822
:10410000002742EA0141C0F8001770474FF0A04273
:1041100001218140C2F80815704701224FF0A043E9
:10412000824011B1C3F808257047C3F80C257047C9
:1041300018B5084B6C4601441B68009306E000BFAD
:1041400054F82030D3F81035401C08C28142F7D80B
:1041500018BD00009C650200034908B50844002111
:1041600001600068009008BD0060004002494058AE
:10417000012800D0002070470060004000487047D0
:10418000A941020070B5074D0446287810B168783F
:10419000844204D0FBF7DEFC012028706C70002004
:1041A00070BD0000042200202DE9F04FC1B0174679
:1041B0004FF00002080040924D994B9A1E4602EBC8
:1041C000010A01D00A2100E0002188466D46AEB9FF
:1041D000294640AA01F0DAFB00286FD03846FBF7E9
:1041E00053F9C22800D9C2200446409822462844E8
:1041F0003946FBF725F94098204440904FF0200BBA
:10420000409901EB080231320DEB01040DEB020580
:10421000002002E004F801BB401C4045FAD300270F
:10422000564508D304F801BB04F801BB04F801BBF0
:1042300005F801BB2DE04B98864202D24A98805D7A
:1042400002E0311A4C98405C012181460246880008
:1042500022FA00F000F00F00092801D9373000E001
:104260003030C1F1010C234604F80C00491EEED297
:104270009C1C04F801BBFBF7DFF8016811F809008A
:1042800010F03E0F01D0484600E02E2005F8010B4B
:10429000761C7F1C102FC3D30D2028700A20687055
:1042A00084F800B04099684641444331409101F0A0
:1042B00095F818B1002040905645A1D341B0304642
:1042C000BDE8F08F2DE9F041C6B0904608460025C4
:1042D00005AE1C464C9F314645AA459501F056FB5C
:1042E000002835D0072F27D2DFE807F004121B354E
:1042F000424F5D004046FBF7C7F845990546084424
:10430000FF2819D870182A464146FBF799F813E0A0
:1043100045982368C0F5807130444246FCF73EF86A
:1043200009E06068009045982368C0F580713044CA
:104330004246FCF733F80546294645A8FDF77AFBC7
:10434000459978B3B1F5807F3ED805A801F046F8CD
:1043500046B0BDE8F081D4E90101CDE900014598FE
:104360002368C0F5807130444246FCF717F8E2E755
:10437000201D07C88DE8070045982368C0F58071A7
:1043800030444246FCF70AF8D5E7201D0FC88DE8F7
:104390000F0045982368C0F5807130444246FBF712
:1043A000FDFFC8E710E004F1080001AD0FC885E883
:1043B0000F006068009045982368C0F58071304414
:1043C0004246FBF7EBFFB6E70020C1E70048704725
:1043D000C54202000120FFF7D5BE00002DE9F04FD5
:1043E00087B0FDF765FB18B1002007B0BDE8F08F7E
:1043F000454ED6E9014704EA070006EB8000A146D6
:10440000641CC5680CE000BFC5F3891000EB955033
:10441000044404EA070006EB8000A146C568641C5A
:10442000A807F1D005F003004FF0000B022805D0DB
:10443000AA0A01A8C5F38313002153E004EA070088
:1044400006EB800004F1010A0AEA0704C268381B7F
:1044500080004FEA9558001DC5F38913804521D986
:1044600029490C3138B106EB840400F0FF0CA8EBAD
:1044700000000C3404E00C46002108F0FF0C084654
:10448000C0B2CDE90210CDE9004CD6F81444C5F312
:10449000C2005946A047404511D108F103080AEB74
:1044A00098042AE0002106EB84000C300090CDE94E
:1044B00001810391C5F3C200D6F81444EAE760F322
:1044C0008F1509EA070006EB8000C56016E000BF03
:1044D00004EA070C06EB8C0C491CDCF80CC040F815
:1044E00004CB641C9942F3D3C5F3C2000093D6F801
:1044F000105401AB5946A84700B17460FDF7D8FAD3
:1045000080F0010071E70000282A0020034AFF2301
:10451000936000231360536000F054B8282A0020F1
:104520002DE9F8430F4F8846044600256946284682
:10453000BE68FDF789FA002812D00B4800214068B8
:1045400061F38200009964F3C50001EA060265F395
:10455000891007EB820268F39F20491CD06000910C
:10456000BDE8F883282A0020EC6502002DE9F84315
:10457000124D884604460127914669463846AE6882
:10458000FDF762FA002817D00D480021806861F31A
:104590008200009964F3C50001EA060267F38910FE
:1045A00005EB820268F39F20491CD06000913140E6
:1045B00005EB8101C1F80C90BDE8F883282A0020A2
:1045C000EC650200024A02F5826203C270470000F5
:1045D000282A002070B506460020FFF7D3FD04000E
:1045E00008D1FFF7CBFD0546FFF7F0FE324629461E
:1045F000FFF78CFF204670BD08B50022425040589E
:10460000009008BD4058002800D00120704708B530
:10461000002242504058009008BD4058002800D069
:104620000120704708B5002242504058009008BD54
:10463000D0F80403084000D00120704740580028FB
:1046400000D00120704708B5002242504058009029
:1046500008BD000070B50D461AA10020FBF7D0FA86
:104660001FA10020FBF7CCFA5FF00004C4F10100A9
:1046700027A12A5C0020FBF7C3FA641C022CF5D3A7
:104680002C8825A122460020FBF7BAFAFEF754F940
:10469000A04210D9274D28A10020EC80FBF7B0FAEA
:1046A000E9882B4800F0ECFABDE87040024629A1E9
:1046B0000020FBF7A5BABDE870402EA10020FBF753
:1046C0009FBA0000496E73696465206E757320643B
:1046D0006174612068616E646C65720D0A0000008F
:1046E000646174612066726F6D2063656E747261BF
:1046F0006C20284F6E6C79203220627974657320AB
:104700007573656420627920636F6465293A0000DF
:10471000253032780000000020205374617274202C
:104720007265636F7264203A203078253034780DDA
:104730000A0000002821002053746174696E67200C
:1047400064617461207472616E736665720D0A0033
:10475000F02500207061796C6F61642075706C6F5A
:10476000616420656E64206572726F723A20256400
:104770000D0A0A00496E707574207265634B657985
:1047800020697320686967686572207468616E20AB
:104790006C6174657374207265634B65790D0A0AE8
:1047A0000000000030B5664D04460188688889B075
:1047B000132972D01ADC012934D002296CD01029B7
:1047C00025D0112910D1FCF7F1F904465DA1002094
:1047D000FBF716FA200004D063A24FF42D71FCF70A
:1047E00085FA4FF6FF70688009B030BD3B2968D06C
:1047F00051297DD052295AD05629F5D1A0881321AC
:1048000076DF0028F0D058A240F2CF216BE00720DD
:10481000FCF7FEFF20B154A240F29521FCF766FAA6
:10482000A088E0E754A10020FBF7EAF9E888401CE3
:10483000E880FEF781F8E988884205D909B0524836
:10484000BDE8304000F01CBAFEF776F8E9888842EF
:10485000CAD14E4A07CA8DE80700694603224A4872
:10486000FCF756FE020004D049A10020FBF7C8F96E
:10487000BAE74EA10020FBF7C3F900244FEA0D056B
:104880004DA155F824200020FBF7BAF9641CE4B2CE
:10489000032CF5D3A8E700E01DE000231A4685218C
:1048A0007FDF0028A0D030A240F2BB211BE0002314
:1048B0001A461946A9DF002896D02BA240F2C12142
:1048C00011E0A088132176DF00288DD026A24FF4B6
:1048D000327108E00CE0A088002167DF002883D057
:1048E00021A24FF4357109B0BDE83040FCF7FEB9A4
:1048F0001022A11D04A8FAF7A3FD9DF810100029AD
:10490000B6D09DF81800042803D0062801D0052849
:10491000AED1022911D001208DF800004FF4C170F2
:10492000ADF80400A0886946A8DF0028A0D00EA238
:1049300040F2EF21FCF7DAF956E70220ECE700003D
:104940002821002041647620726573746172746559
:104950006420616674657220646973636F6E6E654E
:10496000740D0A0A000000002E2E5C2E2E5C2E2EE6
:104970005C6D61696E2E6300545820436F6D706CDE
:104980006574650D0A000000F02500202C6502000A
:104990004572722073656E64696E6720656F6D2065
:1049A0007061636B6167653A20256400656F6D20F7
:1049B00073656E743A000000656F6D2073656E74E8
:1049C0003A20253032780000007800280AD10648C5
:1049D0003B21408876DF002804D004A24FF4CD713B
:1049E000FCF784B970470000282100202E2E5C2E91
:1049F0002E5C2E2E5C6D61696E2E6300134A10B51D
:104A000000215170017A012912D002291DD181891A
:104A1000491C8181C189491C89B2C181028A9142A4
:104A200013D1002100F0B4FCBDE8104000F0D0B973
:104A3000838AC28A4FF480619C1A8C4200DAA1B248
:104A4000114489B2C1829942EBD010BDF0210020FF
:104A5000F8B51E4D17460E4601466A6F0020032A20
:104A600033D805F17804C6F1080C636C63452CD883
:104A700095F87000104400F00300C0EBC00005EB97
:104A800080001C22FAF7DCFC686F401C6867DEB10E
:104A900094F8440094F840100023084400F0070004
:104AA00004EBC00000900AE007EBC3020098D2E9D3
:104AB0000012C0E900126846FDF752F85B1CB342D1
:104AC000F2D3606C304460640120F8BD902800206F
:104AD0000389CA1C1A4402814289511AC91E4181A4
:104AE000704700002DE9F04700F58055002700F1E0
:104AF0000804022090460E460880DFF8489012E035
:104B00002046FDF7B7FFD0B1A068D9F80420904245
:104B100001D9C9F804006088318804EB8004084496
:104B2000C01C30800C34AC4202D22068401CE7D15B
:104B3000B8F1000F01D088F80070BDE8F0870127B8
:104B4000E9E70000D821002008B5002100910146C6
:104B50000223024A0248FDF74FFD08BDC46502006A
:104B60002C22002008B50020009004480223044AAB
:104B700001680448FDF740FD08BD0000E821002061
:104B8000BC6502002C2200202DE9F05F0025374F84
:104B9000DFF8DC80DFF8DC90DFF8DCB02C46AA46DA
:104BA0002E46386800EB06300268424505D1334A8C
:104BB0004168891830D001290DD000214FF480625E
:104BC00050F821305B1C33D009EB0411032008702E
:104BD000641CA4B219E0BAF1000F09D0022209EB5B
:104BE0000411641C0A70DBF800304B600A81A4B227
:104BF00000220BF10401CBF80000FFF773FFBBF8B4
:104C00000400022830D008200543761CB6B2052ED9
:104C1000C7D3E8B2BDE8F09F09EB0411002201F808
:104C2000042B01C18A1DFFF75DFF45F00205CFE7A8
:104C3000491C9142C4D3DBF8002059465AB109EB14
:104C4000041102220A7048600A480A8140304480F8
:104C5000641CA4B205E008600220ABF804004FF029
:104C6000010A45F00105D0E70420CDE72C22002001
:104C7000DEC0ADDE50290020E821002002FEE10E5A
:104C8000FEB507460020009001900290294842F2AC
:104C900022238088184480B281421AD2D3B26A4655
:104CA00041F21110FDF77AFA040013D0024622A156
:104CB0000020FAF7A5FF2648FEF7AAFC092C04D02D
:104CC00007DC012C01D0072C03D122A10020FAF728
:104CD00097FFFEBD0C246E462046FEF719FB0546E5
:104CE0000020315C2954401CC0B2A042F9D32246B6
:104CF00031463846FCF70CFC060009D002461AA1E2
:104D00000020FAF77DFF2846FDF7AEFB3046FEBDDA
:104D10001CA10020FAF774FF00261FA1AA5D002045
:104D2000FAF76EFF761CF6B2A642F6D32846FDF7D8
:104D30009BFBFEBD3C2100205265636F72642072B4
:104D4000656164206572726F723A2025640000000C
:104D500040420F004E6F20737061636520696E20C2
:104D6000666C6173680000004E555320737472695D
:104D70006E672073656E64206572726F723A2025CB
:104D800064000000446174612073656E74206F7666
:104D90006572204E55533A002530327800000000ED
:104DA0000449084490F93000082801DB01207047CD
